:020000040800F2
:10000000380C002089010008791F0008491E0008EB
:10001000751F0008BB030008A125000800000000B0
:1000200000000000000000000000000005230008A0
:10003000E1030008000000007D1F000807230008FE
:10004000A3010008A3010008A3010008A301000800
:10005000A3010008A3010008A3010008A3010008F0
:10006000A3010008A3010008A3010008A3010008E0
:10007000A3010008A3010008A3010008A3010008D0
:10008000A3010008A3010008A301000881250008BE
:1000900091250008C1030008D1030008A30100084E
:1000A000A3010008A3010008A3010008A3010008A0
:1000B00079230008A3010008A3010008A301000898
:1000C000A3010008A3010008A3010008A301000880
:1000D000A3010008A3010008A3010008A301000870
:1000E000A3010008A3010008A301000800F002F822
:1000F00000F03AF80AA090E8000C82448344AAF188
:100100000107DA4501D100F02FF8AFF2090EBAE885
:100110000F0013F0010F18BFFB1A43F0010318473B
:1001200080320000A0320000103A24BF78C878C1A5
:10013000FAD8520724BF30C830C144BF04680C60ED
:10014000704700000023002400250026103A28BF35
:1001500078C1FBD8520728BF30C148BF0B60704739
:100160001FB51FBD10B510BD00F0EEF81146FFF72A
:10017000F7FF02F02FFC00F00CF903B4FFF7F2FFD9
:1001800003BC00F013F90000094880470948004704
:10019000FEE7FEE7FEE7FEE7FEE7FEE7FEE7FEE737
:1001A000FEE7FEE704480549054A064B7047000094
:1001B00075230008ED00000838060020380C0020E8
:1001C000380800203808002010B5431C02E010F861
:1001D000011B71B18107FAD14FF0013202C88C1AAC
:1001E0008C4314EAC211F9D0C01A0A0603D0C01E0B
:1001F00010BDC01A10BD0A0401D0801E10BD090236
:10020000FCD0401E10BD032A40F2308010F0030CD9
:1002100000F0158011F8013BBCF1020F624498BF59
:1002200011F801CB00F8013B38BF11F8013BA2F1F6
:10023000040298BF00F801CB38BF00F8013B11F071
:10024000030300F04F80083AC0F0088051F8043BE7
:10025000083A51F804CBA0E80810F5E7121D5CBF7E
:1002600051F8043B40F8043BAFF30080D20724BFB1
:1002700011F8013B11F801CB48BF11F8012B24BF45
:1002800000F8013B00F801CB48BF00F8012B704794
:100290004FF0000200B5134694469646203922BF1F
:1002A000A0E80C50A0E80C50B1F12001BFF4F7AF6A
:1002B000090728BFA0E80C5048BF0CC05DF804EB4C
:1002C000890028BF40F8042B08BF704748BF20F8BA
:1002D000022B11F0804F18BF00F8012B70477047B8
:1002E0007047704710B5203AC0F00B80B1E8185045
:1002F000203AA0E81850B1E81850A0E81850BFF410
:10030000F5AF5FEA027C24BFB1E81850A0E81850AE
:1003100044BF18C918C0BDE810405FEA827C24BF02
:1003200051F8043B40F8043B08BF7047D20728BF90
:1003300031F8023B48BF11F8012B28BF20F8023BDF
:1003400048BF00F8012B7047754600F02BF8AE4609
:1003500005006946534620F00700854618B020B5D1
:10036000FFF720FFBDE820404FF000064FF00007E8
:100370004FF000084FF0000B21F00701AC46ACE84D
:10038000C009ACE8C009ACE8C009ACE8C0098D46BA
:10039000704710B50446AFF300802046BDE810401A
:1003A000FFF7EBBE00487047D40500200149182034
:1003B000ABBEFEE726000200704700BFFEE700006C
:1003C00010B5024800F033FA10BD000064000020B0
:1003D00010B5024800F02BFA10BD000064000020A8
:1003E000704772B600BFFEE710B5024692F82030A3
:1003F000012B01D0022B06D1106840690843146814
:100400006061002010BD506A40F4802050620120DD
:10041000F8E7F0B504460D461E4694F820702068B3
:100420008368A86800B900E000BF012F01D0022F47
:100430007DD103F0806030B903F0006018B903F09B
:10044000805000287ED0C3F30161012088403060D5
:10045000A86860B9B5F800C0E86840EA4C5C20685C
:1004600000F5C07000EB0110C0F800C00FE0D5E946
:1004700001C040EACC00D5F80CC040EA0C00D4F82A
:1004800000C00CF5C07C0CEB011CCCF80000D5F8CA
:1004900010C0206800F5C07000EB0110C0F804C067
:1004A000287D01280ED1206800F5C07000EB0110F6
:1004B000406840F4807C206800F5C07000EB0110BB
:1004C000C0F804C0D079000692F806C040EA0C409B
:1004D00092F805C040EA0C2092F804C040EA0C00F3
:1004E000D4F800C00CF5C07C0CEB011CCCF80C005F
:1004F000D078000692F802C040EA0C4092F801C0A1
:1005000040EA0C2092F800C040EA0C00D4F800C089
:100510000CF5C07C0CEB011CCCF80800206800F541
:10052000C07000EB0110006840F0010C01E00FE02A
:1005300008E0206800F5C07000EB0110C0F800C0B2
:100540000020F0BD606A40F4001060620120F8E70E
:10055000606A40F4802060620120F2E7F0B5044652
:100560000A46216894F82050012D01D0022D74D143
:10057000D1F8000240F00100C1F80002107D00F047
:100580001F06012000FA06F3D1F81C029843C1F8B7
:100590001C02D069C8B9D1F80C029843C1F80C020A
:1005A000908880B2968940EA064601F51070576936
:1005B00040F83760108880B2168940EA064601F597
:1005C0001070576900EBC7004660D069012819D147
:1005D000D1F80C021843C1F80C02908880B216883A
:1005E00040EA064601F51070576940F83760908977
:1005F00080B2168940EA064601F51070576900EB93
:10060000C7004660906928B9D1F804029843C1F840
:10061000040204E0D1F804021843C1F8040210698E
:1006200028B9D1F814029843C1F8140204E0D1F8B3
:1006300014021843C1F81402106A012804D1D1F839
:100640001C021843C1F81C02D1F8000220F001007E
:10065000C1F800020020F0BDFFE7606A40F480208E
:1006600060620120F7E7000070B50446204600F004
:1006700011F805462A4602A1002001F00AFD70BDCE
:1006800043414E204572726F723A203078253038DF
:100690006C580A000146486A704770B5044694F8E1
:1006A0002050012D01D0022D7DD151B92068C068A4
:1006B00000F0030080B9606A40F40010606201201D
:1006C00070BD2068006900F0030028B9606A40F43A
:1006D000001060620120F3E7206800F5D87000EB9D
:1006E0000110006800F004009060906840B9206834
:1006F00000F5D87000EB01100068400D106007E0B5
:10070000206800F5D87000EB01100068C008506048
:10071000206800F5D87000EB0110006800F00200BE
:10072000D060206800F5D87000EB0110406800F040
:100730000F00082802D30820106108E0206800F5A7
:10074000D87000EB0110406800F00F0010612068C5
:1007500000F5D87000EB0110406800F47F40000AFB
:100760009061206800F5D87000EB01104068000C23
:100770005061206800F5D87000EB01108068187097
:10078000206800F5D87000EB0110806800F47F400D
:10079000000A5870206800F5D87000EB01108068DE
:1007A00000F47F0000E03CE0000C9870206800F549
:1007B000D87000EB01108068000ED870206800F53A
:1007C000D87000EB0110C0681871206800F5D8706F
:1007D00000EB0110C06800F47F40000A58712068E7
:1007E00000F5D87000EB0110C06800F47F00000C29
:1007F0009871206800F5D87000EB0110C068000EF9
:10080000D87131B92068C06840F020002668F060D7
:1008100005E02068006940F0200026683061002073
:100820004EE7606A40F480206062012048E72DE9CD
:10083000F05F04460025206846692068D0F80490DF
:10084000206887682068D0F80CA02068D0F810B025
:100850002068D0F8188006F00100002855D007F075
:100860000100C0B101202168886007F0020018B1C2
:10087000204600F06EFA0EE007F0040010B145F4D7
:10088000006508E007F0080010B145F4805502E06B
:10089000204600F05DFA07F48070C8B14FF4807014
:1008A0002168886007F4007018B1204600F053FA00
:1008B0000EE007F4806010B145F4005508E007F43D
:1008C000006010B145F4804502E0204600F042FA95
:1008D00007F48030C8B14FF480302168886007F495
:1008E000003018B1204600F038FA0EE007F48020FE
:1008F00010B145F4004508E007F4002010B145F4BC
:10090000803502E0204600F027FA06F0080038B1F2
:100910000AF0100020B145F4007510202168C8606D
:1009200006F0040040B10AF0080028B10820216850
:10093000C860204600F0C0F906F0020038B1206817
:10094000C06800F0030010B1204600F0B7F906F0CF
:10095000400038B10BF0100020B145F48065102044
:100960002168086106F0200040B10BF0080028B1B2
:10097000082021680861204600F0B8F906F0100050
:1009800038B12068006900F0030010B1204600F083
:10099000AEF906F4003040B109F0100028B1102083
:1009A00021684860204600F0A3F906F4803040B189
:1009B00009F0080028B1082021684860204600F0AE
:1009C000CDF906F4004088B309F0040078B306F4CA
:1009D000807020B108F0010008B145F0010506F46F
:1009E000007020B108F0020008B145F0020506F4DD
:1009F000806020B108F0040008B145F0040506F459
:100A00000060A0B108F0700088B108F070004028C4
:100A100017D006DC10280BD020280CD0302819D194
:100A20000CE0502810D0602814D110E01DE019E02F
:100A300045F008050FE045F010050CE045F02005F5
:100A400009E045F0400506E045F0800503E045F487
:100A5000807500E000BF00BF2068806920F0700052
:100A6000216888610420216848602DB1606A2843AC
:100A700060622046FFF7F8FDBDE8F09F70B50446C0
:100A80000CB9012070BD94F8200010B9204600F088
:100A9000AFF82068006840F001002168086000F0AD
:100AA000EFFA05460DE000F0EBFA401B0A2808D9E2
:100AB000606A40F400306062052084F82000012064
:100AC000E0E72068406800F001000028EBD02068D3
:100AD000006820F002002168086000F0D1FA0546A5
:100AE0000DE000F0CDFA401B0A2808D9606A40F4F6
:100AF00000306062052084F820000120C2E72068F1
:100B0000406800F002000028EBD1207E012806D1C9
:100B10002068006840F080002168086005E02068D7
:100B2000006820F0800021680860607E012806D1FE
:100B30002068006840F040002168086005E02068F7
:100B4000006820F0400021680860A07E012806D1DE
:100B50002068006840F020002168086005E02068F7
:100B6000006820F0200021680860E07E012806D19E
:100B70002068006820F010002168086005E0206807
:100B8000006840F0100021680860207F012806D12D
:100B90002068006840F008002168086005E02068CF
:100BA000006820F0080021680860607F012806D1F5
:100BB0002068006840F004002168086005E02068B3
:100BC000006820F0040021680860D4E902010843AD
:100BD00021690843616908436168491E0843216827
:100BE000C86100206062012084F82000002049E7ED
:100BF00010B586B004460020029003900490059042
:100C00002A49206888424ED100BF2948C06940F077
:100C100000702749C8610846C06900F00070019063
:100C200000BF00BF00BF0846806940F00400886133
:100C30000846806900F00400019000BF00BFC8149E
:100C4000029000200390049002A91A4800F088F84E
:100C50004FF480500290022003900320059002A9D7
:100C6000144800F07DF800221146132000F08EFA9F
:100C7000132000F07BFA00221146142000F086FABF
:100C8000142000F073FA00221146152000F07EFABD
:100C9000152000F06BFA00221146162000F076FABB
:100CA000162000F063FA06B010BD0000006400409A
:100CB00000100240000801407047000010B58AB0E3
:100CC000044601AB03AA00212046FFF7E6FC48B921
:100CD00005480068401C04490860039988B201A9CE
:100CE00001F058FF0AB010BD0000002070477047A7
:100CF000704770B5044694F82000012822D10220E4
:100D000084F820002068006820F001002168086055
:100D100000F0B6F905460DE000F0B2F9401B0A28D4
:100D200008D9606A40F400306062052084F8200031
:100D3000012070BD2068406800F001000028EBD160
:100D40006062F6E7606A40F4002060620120F0E72C
:100D50007047704770477047704770477047000092
:100D60002DE9F8470346002294466EE14FF0010852
:100D700008FA02F4D1F8008008EA0400A0427DD10C
:100D8000DFF8DCA2D1F80480A8EB0A09D0453AD0FC
:100D900014DCB8F1030F50D009DCB8F1000F31D0EA
:100DA000B8F1010F1CD0B8F1020F49D120E0B8F121
:100DB000110F18D0B8F1120F42D11EE0B9F5881FFB
:100DC00025D006DCB9F5803F20D0B9F5801F37D19A
:100DD0001AE0B9F5001F18D0B9F5041F30D117E09B
:100DE000D1F80CC02DE0D1F80C8008F1040C28E0FB
:100DF000D1F80C8008F1080C23E0D1F80C8008F140
:100E00000C0C1EE000BF00BF00BF00BF00BF00BF52
:100E1000D1F80880B8F1000F02D14FF0040C0BE0BC
:100E2000D1F80880B8F1010F03D14FF0080C1C6114
:100E300002E04FF0080C5C6103E04FF0000C00E0B2
:100E400000BF00BFFF2801D8984601E003F1040865
:100E50004646FF2802D84FEA820803E0A2F10808BC
:100E60004FEA88084746D6F800804FF00F0909FA84
:100E700007F928EA09080CFA07F900E088E048EACF
:100E80000908C6F80080D1F8048008F08058B8F14D
:100E9000805F7DD100BFDFF8CC81D8F8188048F0A2
:100EA0000108DFF8C091C9F81880C846D8F8188042
:100EB00008F00108CDF8008000BF00BF4FEAB93844
:100EC0004FEA920958F829504FEA82784FEA187988
:100ED0004FF00F0808FA09F825EA0805DFF88881BD
:100EE000434502D14FF0000816E0DFF8808143450A
:100EF00002D14FF001080FE0DFF87481434502D1C1
:100F00004FF0020808E0DFF86C81434502D14FF052
:100F1000030801E04FF004084FEA82794FEA19799B
:100F200008FA09F848EA0505DFF84C814FEA92090A
:100F300048F82950D1F8048008F48018B8F5801FCB
:100F40000AD1DFF83881D8F8008048EA0008DFF8D5
:100F50002C91C9F8008009E0DFF82081D8F80080E2
:100F600028EA0008DFF81491C9F80080D1F804805D
:100F700008F40018B8F5001F10D1DFF8008108F15F
:100F80000408D8F8008048EA0008DFF8F09000E094
:100F90005AE009F10409C9F800800DE0DFF8DC80AF
:100FA00008F10408D8F8008028EA0008DFF8CC909F
:100FB00009F10409C9F80080D1F8048008F4003868
:100FC000B8F5003F0ED1DFF8B480A8F10408D8F8D6
:100FD000008048EA0008DFF8A490A9F10409C9F8E4
:100FE00000800DE0DFF89480A8F10408D8F80080B4
:100FF00028EA0008DFF88490A9F10409C9F8008004
:10100000D1F8048008F48038B8F5803F0ED1DFF8BD
:101010006C80A8F10808D8F8008048EA0008DFF8DA
:101020005C90A9F10809C9F800800DE0DFF84C8058
:10103000A8F10808D8F8008028EA0008DFF83C90FA
:10104000A9F10809C9F80080521CD1F8008028FADB
:1010500002F8B8F1000F7FF489AEBDE8F887000010
:10106000000011100010024000080140000C014077
:101070000010014000140140080001400804014034
:101080000148006870470000100000200348006815
:10109000034909780844014908607047100000209E
:1010A0001800002010B50848006840F010000649FC
:1010B0000860032000F0A8F80F2000F007F800F007
:1010C0002BF8002010BD00000020024070B504463F
:1010D0000E4800784FF47A71B1FBF0F00C490968C2
:1010E000B1FBF0F5284600F0F9FB08B1012070BD16
:1010F000102C07D200222146501E00F047F8054868
:10110000046001E00120F2E70020F0E71800002071
:101110001C0000201400002008B500BF11488069A1
:1011200040F001000F4988610846806900F0010025
:10113000009000BF00BF00BF0846C06940F080506B
:10114000C8610846C06900F08050009000BF00BF31
:1011500000BF0549486820F0E06040F0007048603A
:1011600000BF08BD001002400000014001460846D3
:10117000002809DB00F01F0301229A4043099B006D
:1011800003F1E023C3F8002100BF70472DE9F05FB1
:1011900080460D461646002701F0C0FB074639463B
:1011A0002A46334601F00700C0F1070ABAF1040FDE
:1011B00002D94FF0040A01E0C0F1070AD14600F15C
:1011C000040ABAF1070F02D24FF0000A01E0A0F1C1
:1011D000030AD4464FF0010A0AFA09FAAAF1010AF1
:1011E0000AEA020A0AFA0CFA4FF0010B0BFA0CFB9E
:1011F000ABF1010B0BEA030B4AEA0B042146404614
:1012000001F094FBBDE8F09F00BF00F00702064B21
:1012100019684FF6FF031940044B0B4343EA0221C0
:10122000014B196000BF70470CED00E00000FA05AB
:1012300070B504460D460CB9012070BD5A480068CF
:1012400000F00700A8420ED25748006820F00700BF
:101250002843554908600846006800F00700A84286
:1012600001D00120E9E7207800F0020002281DD11A
:10127000207800F00400042805D14C48406840F470
:10128000E0604A494860207800F00800082805D14D
:101290004648406840F460504449486043484068CC
:1012A00020F0F000A168084340494860207800F031
:1012B000010078B36068012806D13C48006800F45A
:1012C000003090B90120B8E76068022806D137489D
:1012D000006800F0007040B90120AEE733480068B4
:1012E00000F0020008B90120A7E73048406820F06C
:1012F0000300616808432D494860FFF7C1FE0646B8
:1013000009E0FFF7BDFE801B41F28831884202D917
:10131000032092E707E02548406800F00C00616870
:10132000B0EB810FEDD12048006800F00700A84223
:101330000ED91D48006820F0070028431A490860AC
:101340000846006800F00700A84201D0012074E7B9
:10135000207800F00400042807D11448406820F4E5
:10136000E060E168084311494860207800F0080017
:10137000082808D10D48406820F46050216940EAEF
:10138000C1000A49486000F03FF808494968C1F3C4
:101390000311074A515CC8400649086006480068C6
:1013A000FFF794FE002048E70020024000100240B2
:1013B000563300081C00002014000020014800687B
:1013C000704700001C00002000B5FFF7F7FF04493C
:1013D0004968C1F30221034A515CC84000BD0000C6
:1013E000001002406633000800B5FFF7E7FF04492C
:1013F0004968C1F3C221034A515CC84000BD0000E6
:10140000001002406633000870B50021002200245D
:1014100000230020134D696801F00C05F5B1042D7F
:1014200002D0082D19D101E00F4819E00F4DC1F38A
:101430008346AB5D01F4803555B10A4D6D68C5F347
:1014400040450B4E725D084D5D43B5FBF2F402E082
:10145000084D03FB05F4204602E000BF024800BF30
:1014600000BF70BD0010024000127A004433000833
:101470005433000800093D00F8B504460CB90120BA
:10148000F8BD207800F00100002878D0F8484068C6
:1014900000F00C0004280CD0F548406800F00C0067
:1014A000082811D1F248406800F48030B0F5803F40
:1014B0000AD1EF48006800F4003000285FD060686F
:1014C00000285CD10120DBE700BF6068B0F5803FF9
:1014D00006D1E748006840F48030E549086028E01C
:1014E000606858B9E248006820F48030E04908603C
:1014F0000846006820F4802008601AE06068B0F5B3
:10150000A02F0BD1DA48006840F48020D849086049
:101510000846006840F4803008600AE0D44800685B
:1015200020F48030D24908600846006820F480200A
:10153000086000BF606888B1FFF7A2FD054606E0BD
:10154000FFF79EFD401B642801D9032098E7C84897
:10155000006800F400300028F2D010E0FFF790FDA2
:10156000054606E0FFF78CFD401B642801D90320E7
:1015700086E7BF48006800F400300028F2D12078E8
:1015800000F00200022857D1B948406800F00C0072
:1015900050B1B748406800F00C00082818D1B44892
:1015A000406800F4803098B9B148006800F002004B
:1015B00020B12069012801D0012061E7AC48006812
:1015C00020F0F800616940EAC100A949086033E0F1
:1015D0002069E8B10120A7490860FFF751FD0546E1
:1015E00006E0FFF74DFD401B022801D9032047E725
:1015F0009F48006800F002000028F2D09C48006874
:1016000020F0F800616940EAC1009949086013E0E0
:10161000002098490860FFF733FD054606E0FFF714
:101620002FFD401B022801D9032029E790480068BC
:1016300000F002000028F2D1207800F0080008280D
:101640002DD1A069B8B101208B490860FFF718FDC2
:10165000054606E0FFF714FD401B022801D90320D0
:101660000EE78348406A00F002000028F2D0012013
:1016700000F086FC13E000207F490860FFF700FDC2
:10168000054606E0FFF7FCFC401B022801D90320B9
:10169000F6E67748406A00F002000028F2D1207890
:1016A00000F00400042873D100277148C06900F0DD
:1016B000805070B900BF6E48C06940F080506C49DE
:1016C000C8610846C06900F08050009000BF00BFAC
:1016D00001276A48006800F48070B0B96748006864
:1016E00040F4807065490860FFF7CAFC054606E0D3
:1016F000FFF7C6FC401B642801D90320C0E65F4801
:10170000006800F480700028F2D000BFE068012873
:1017100006D15748006A40F001005549086227E0A9
:10172000E06858B95248006A20F001005049086248
:101730000846006A20F00400086219E0E068052805
:101740000BD14B48006A40F0040049490862084642
:10175000006A40F0010008620AE04548006A20F093
:101760000100434908620846006A20F0040008624C
:1017700000BFE068A0B1FFF783FC054609E0FFF772
:101780007FFC401B41F28831884202D9032077E672
:1017900022E03748006A00F002000028EFD012E093
:1017A000FFF76EFC054608E0FFF76AFC401B41F2BC
:1017B0008831884201D9032062E62D48006A00F092
:1017C00002000028F0D1012F05D12948C06920F07E
:1017D00080502749C86100BFE069C8B32448406809
:1017E00000F00C00082860D0E069022848D10020F1
:1017F00020490866FFF744FC054606E0FFF740FC79
:10180000401B022801D903203AE61948006800F07D
:1018100000700028F2D1206AB0F5803F07D114484B
:10182000406820F40030A168084311494860D4E9B9
:10183000080108430E49496821F4741108430C4912
:10184000486001200B490866FFF71AFC054607E0CF
:101850003DE0FFF715FC401B022801D903200FE6ED
:101860000348006800F000700028F2D02FE000006C
:1018700000100240000042428004424200700040DA
:10188000002014490866FFF7FBFB054606E0FFF75A
:10189000F7FB401B022801D90320F1E50E48006840
:1018A00000F000700028F2D111E0E069012800D1B9
:1018B000E6E50948466806F48031206A814204D191
:1018C00006F47011606A814201D00120D8E5002041
:1018D000D6E50000000042420010024070B5044608
:1018E0002546681EB0F1807F01D301200FE0681EFD
:1018F0004FF0E02148610F214FF0FF3001F016F862
:1019000000204FF0E021886107200861002070BDB1
:101910007047704730B502460B4600BF92F83C0056
:10192000012801D1022030BD012082F83C0000BF17
:10193000022082F83D00106844681068816824F035
:1019400070041868044310684460104D1068A84281
:101950000BD01068B0F1804F07D00D4D1068A84231
:1019600003D00C4D1068A84205D121F080015868C1
:10197000014310688160012082F83D0000BF002013
:1019800082F83C0000BF00BFCDE70000002C014002
:10199000000400400008004010B504460CB90120C6
:1019A00010BD94F83D0028B9002084F83C00204682
:1019B00000F026F8022084F83D00211D206800F088
:1019C000E3FC012084F8460000BF84F83E000121BA
:1019D0003F200155402001554120015500BF00BF67
:1019E000012084F842004320015544200155452040
:1019F000015500BF012084F83D000020D0E7000021
:101A000038B504462068B0F1804F15D100BF0B48AF
:101A1000C06940F001000949C8610846C06900F08A
:101A20000100009000BF00BF002201211C20FFF731
:101A3000ADFB1C20FFF79AFB38BD000000100240F0
:101A4000014691F83D00012801D001207047022095
:101A500081F83D000868C06840F001000B68D8605C
:101A6000124B086898420BD00868B0F1804F07D03D
:101A70000F4B0868984203D00E4B086898420CD16F
:101A80000868806800F00702062A0CD00868006821
:101A900040F001000B68186005E00868006840F03D
:101AA00001000B6818600020D0E70000002C014006
:101AB00000040040000800402DE9F04104460D46B6
:101AC000002700BF94F83C00012802D10220BDE8A5
:101AD000F081012084F83C0000BF022084F83D0022
:101AE0002068866826F0770626F47F4620688660A0
:101AF0002868502833D00CDC202850D004DC002883
:101B00004BD0102851D149E0302849D040284CD141
:101B100039E060282DD0702807D0B0F5805F03D061
:101B2000B0F5005F41D10DE041E0D5E902136A68EC
:101B3000206800F06BFC2068866846F07706206815
:101B4000866034E0D5E902136A68206800F05EFC24
:101B50002068806840F480402168886027E0EA6857
:101B60006968206800F066FC5021206800F059FC8C
:101B70001DE0EA686968206800F06FFC6021206859
:101B800000F04FFC13E0EA686968206800F052FC3E
:101B90004021206800F045FC09E000BF00BF00BF05
:101BA0002968206800F03DFC01E0012700BF00BF6C
:101BB000012084F83D0000BF002084F83C0000BFF5
:101BC000384684E7704770B504462068C5682068C9
:101BD000066906F00200022819D105F00200022869
:101BE00015D1401F21680861012020772068806995
:101BF00000F0030018B12046FFF7E4FF05E020469F
:101C000000F097F8204600F095F80020207706F0C5
:101C10000400042819D105F00400042815D1C0439C
:101C200021680861022020772068806900F44070F4
:101C300018B12046FFF7C6FF05E0204600F079F80E
:101C4000204600F077F80020207706F008000828EA
:101C500019D105F00800082815D1C0432168086192
:101C6000042020772068C06900F0030018B12046E6
:101C7000FFF7A8FF05E0204600F05BF8204600F0E3
:101C800059F80020207706F01000102819D105F02F
:101C90001000102815D1C043216808610820207762
:101CA0002068C06900F4407018B12046FFF78AFF31
:101CB00005E0204600F03DF8204600F03BF800200B
:101CC000207706F0010048B105F0010030B16FF057
:101CD000010021680861204600F02DF806F0800020
:101CE000802809D105F08000802805D1C0432168F3
:101CF00008612046FFF70CFE06F04000402809D19D
:101D000005F04000402805D1C04321680861204605
:101D100000F01AF806F02000202809D105F0200074
:101D2000202805D1C043216808612046FFF7F1FD56
:101D300070BD7047704710B504462068B0F1804F01
:101D400001D100F0FBFF10BD704710B504460CB97F
:101D5000012010BDA06900B100E000BF94F841006F
:101D600028B9002084F84000204600F029F82420FB
:101D700084F841002068C06820F400502168C860E1
:101D8000204600F07FFB2068006920F49040216825
:101D900008612068406920F02A00216848612068B5
:101DA000C06840F400502168C860002060642020B2
:101DB00084F8410084F842000020606300BFC8E757
:101DC00010B586B004460020029003900490059060
:101DD0001A49206888422ED100BF1948806940F412
:101DE0008040174988610846806900F4804001906E
:101DF00000BF00BF00BF0846806940F00400886152
:101E00000846806900F00400019000BF00BF48153B
:101E10000290022003900320059002A90948FEF7D2
:101E20009FFF4FF48060029000200390049002A96D
:101E30000448FEF795FF06B010BD000000380140D1
:101E4000001002400008014000BFFEE710B50E4838
:101E50000E4908600420486000210C488160C16080
:101E60004FF480210161C900416100210176012107
:101E7000417600218176C17601774177FEF7FEFD3C
:101E800008B1FEF7AEFA10BD006400406400002007
:101E900008B500BF0D48806940F020000B498861FB
:101EA0000846806900F02000009000BF00BF00BF1E
:101EB0000846806940F0040088610846806900F0A7
:101EC0000400009000BF00BF08BD000000100240E9
:101ED00000B587B000200390049005900690019013
:101EE00002904FF08040144908604720486000216C
:101EF0001148816040F2E731C16000210161802119
:101F00008161FFF749FD08B1FEF76BFA4FF480508D
:101F1000039003A90848FFF7CFFD08B1FEF761FA67
:101F200000200190029001A90348FFF7F3FC08B1DB
:101F3000FEF757FA07B000BD8C00002010B50B4823
:101F40000B4908604FF4E130486000210848816087
:101F5000C16001610C21416100218161C161FFF714
:101F6000F4FE08B1FEF73DFA10BD00000038014054
:101F7000D400002000BFFEE700BFFEE7704700006E
:101F800008B508490968C9084FF47A72B1FBF2F143
:101F90004143009100BF00BF00994A1E00920029F2
:101FA000F9D108BD1C0000202DE9F04104460D4682
:101FB000164600BF0E4F3878532801D000F0F2FAD1
:101FC00000BFEFF311800746202080F3118800BF87
:101FD00000BF32462946204600F00CF88046F8B291
:101FE00080F3118800BF00BF4046BDE8F0810000CB
:101FF0001C0100202DE9F047074688461646C246D8
:1020000007EB47011B4800EBC109D9F8140020B1C8
:10201000012811D0022826D11EE0484600F0FAFA25
:102020000546B54201D2002405E034463246514609
:10203000484600F046FC18E0484600F0EBFA05463A
:10204000B54201D2284600E03046044622465146B9
:10205000484600F036FC08E032465146484600F05B
:10206000F5FB044601E0002400BF00BF2046BDE8A8
:10207000F08700003401002070B505460C4620466C
:10208000FEF7A2F80646324621462846FFF78CFFA7
:1020900070BD0FB438B5044606A800906A462046C5
:1020A000059900F007F8054600200090284638BC46
:1020B0005DF814FB2DE9F74F98B00D46144602A8C1
:1020C000139040201490002015901898179000202D
:1020D000169000BF2E786D1C06B9FBE0252E73D13B
:1020E00000274FF0010A00BF2E78232E12D02B2E8E
:1020F0000CD02D2E02D0302E10D103E047F0010776
:102100006D1C0EE047F002076D1C0AE047F0040763
:102110006D1C06E047F008076D1C02E04FF0000A56
:1021200000BF00BFBAF1000FDED14FF0000900BFC1
:102130002E78302E01DB392E00DD07E06D1CA6F174
:10214000300009EB890100EB4109F1E700BF0020F5
:10215000129080462E782E2E1ED16D1C28782A28AB
:1021600008D16D1C012012902168081D2060D1F853
:10217000008011E000BF2E78302E01DB392E00DD0B
:1021800009E0012012906D1CA6F1300008EB8801D7
:1021900000EB4108EFE700BF2E7800BF6C2E01D0A6
:1021A000682E02D16D1C2E7800E000E0F6E700BF3B
:1021B000702E6CD009DC252E7BD0582E35D0632EA6
:1021C0000AD0642E7AD113E07CE0732E3BD0752EBA
:1021D0001CD0782E72D127E02168081D2060D1F82C
:1021E00000A00AF0FF0B594613A800F00DFB66E0B3
:1021F0002168081D2060D1F800A043460A225146FC
:1022000013A8CDE9009700F013FA58E02168081DE3
:102210002060D1F800A043460A22514613A8CDE918
:10222000009700F07BFA4AE000BF2168081D20609B
:10223000D1F800A043461022514613A8CDE90097DB
:1022400000F06CFA3BE02168081D2060D1F800B076
:10225000BBF1000F03D10FF2A40B0020129000BFBE
:102260009BF800600BF1010B06B90EE0129818B153
:10227000B8F1000F00D108E0314613A800F0C4FA0D
:10228000A8F1010816980028EADA00BF17E02168D3
:10229000081D2060D1F800A0002008210B46102264
:1022A000CDE90010514613A800F038FA07E000E02D
:1022B00004E0252113A800F0A7FA00E000BF00BF4A
:1022C0006D1C03E0314613A800F09EFA1698002812
:1022D000BFF600AF00BF169800280ADD159820B1A0
:1022E00002A9159A1898FFF75FFEDDE9151008445A
:1022F000169016981BB0BDE8F08F0000284E554C84
:102300004C290000704710B5FEF7C0FE10BD00B5A7
:102310008FB0282105A8FDF7BBFF14216846FDF703
:10232000B7FF0120059000040690002007900120CF
:10233000099002200C90C1030D914FF4E0110E9111
:1023400005A8FFF799F808B1FEF74BF80F200090A9
:1023500002200190002002904FF480600390002042
:10236000049002216846FEF763FF08B1FEF739F8D2
:102370000FB000BD7047000010B50248FFF723FC06
:1023800010BD00008C00002010B502681C4B984264
:1023900008D0B0F1804F05D01A4B984202D01A4BAA
:1023A000984203D122F070024B681A43144B9842B2
:1023B00008D0B0F1804F05D0124B984202D0124B9A
:1023C000984203D122F44072CB681A4322F0800372
:1023D0004C6943EA040202608B68C3620B68836243
:1023E000074B984201D10B690363012343610369E1
:1023F00003F001031BB1036923F00103036110BD66
:10240000002C0140000400400008004030B50C469C
:10241000816821F47F4142EA0325254329438160F5
:1024200030BD0A46816821F0700142F0070319436C
:102430008160704730B50B461446026A056A25F084
:1024400001050562816921F0F00141EA041122F0E1
:102450000A021A438161026230BD30B50B46144650
:10246000026A056A25F010050562816921F4704150
:1024700041EA043122F0A00242EA031281610262C1
:1024800030BD000070B504462168096921F440514F
:10249000E2681143226811612269A16811436269EF
:1024A00041EA02052168C96841F20C62914329435F
:1024B0002268D1602168496921F44071A269114301
:1024C000226851612D4A2168914202D1FEF78CFFAA
:1024D00001E0FEF779FF00EBC00101EB001162683B
:1024E0009200B1FBF2F100EBC00202EB0012636854
:1024F0009B00B2FBF3F26423B2FBF3F202EBC203E4
:1025000003EB0212A1EB8201322202EB01116422E1
:10251000B1FBF2F101F0F00100EBC00202EB00129E
:1025200063689B00B2FBF3F26423B2FBF3F201EBAE
:10253000021200EBC00101EB001163689B00B1FBCC
:10254000F3F100EBC00303EB00136668B600B3FBC6
:10255000F6F36426B3FBF6F303EBC30606EB0313B3
:10256000A1EB8301322303EB01116423B1FBF3F1EF
:1025700001F00F0111442268916070BD00380140E4
:1025800010B50248FEF753F910BD000064000020AA
:1025900010B50248FEF74BF910BD000064000020A2
:1025A00000BFFEE770B5144CA8212046FDF770FE71
:1025B00003202061606111A0A0611349E1614FF423
:1025C000806121620021A1626162E1620BA020664C
:1025D0000E4961661021A16600212167E1666167ED
:1025E000002505E0C5F10F000949085C60556D1C28
:1025F000102DF7D370BD00001C0100205465726DD2
:10260000696E616C00000000C4010020C405002058
:102610008E33000810B501460A69CB689A4204D887
:102620008C68641EE41AA01801E0D41A601E10BD64
:102630002DE9FC5F06460F4692469846DDE90C45BB
:10264000002F01DA784200E0384683464FF0010956
:1026500003E09BFBFAFB09F10109D345F9DAC84510
:1026600000D9C14634B1002F03DB05F00400042873
:1026700000D1641E05F0020010B1B8F1000F11D0B6
:1026800005F0010070B96CB108E0641E20213046ED
:1026900000F0BAF8F068002800DA02E00CB1A145B9
:1026A000F3D300BFF068002836DB002F05DA7F4245
:1026B0002D21304600F0A8F807E005F004000428BA
:1026C00003D12B21304600F09FF8F068002823DB6F
:1026D00005F00200022814D105F0010088B9B8F114
:1026E000000F0ED16CB108E0641E3021304600F0BE
:1026F0008BF8F068002800DA02E00CB1A145F3D3B2
:1027000000BFF068002807DB434652463946304692
:10271000CDE9004500F002F8BDE8FC9F2DE9FC5F23
:102720008046894615461E460C9CCDF8049001272C
:10273000BB4605E00198B0FBF5F001900BF1010BF1
:102740000198A842F6D25E4500D9B3460D9800F034
:102750000100D0B9CCB10D9800F00200022803D1DD
:1027600016B93020009001E02020009009E0641E9E
:102770004046009900F048F8D8F80C00002800DA2C
:1027800002E00CB1A345F2D300BFD8F80C0000283A
:1027900035DB09E0012E01D9761E04E0B9FBF7FA1A
:1027A000AA4500D201E06F43F4E700BF00BFB9FBC8
:1027B000F7FA0AFB1799134810F80A10404600F080
:1027C00023F8D8F80C00002800DA03E0B7FBF5F78F
:1027D000002FECD100BF0D9800F0010078B174B16A
:1027E00009E0641E2021404600F00EF8D8F80C00E5
:1027F000002800DA02E00CB1A345F2D300BFBDE827
:10280000FC9F00006E33000870B504460E46A568B4
:10281000681C6168814206D320684655681CA06028
:10282000E068401CE060D4E9011088420DD1A26844
:1028300021682069FFF7B8FBA168884203D04FF0F8
:10284000FF30E06001E00020A06070BD2DE9F05F86
:102850000446894617464FF0000AE56800BFD4F8E1
:102860001080A84503D9A8EB0500461E04E0A5EB9F
:102870000800401CA1680E1AA068401BB04201D994
:10288000304601E0A068401B0646BE4201D23046F9
:1028900000E038460646606800EB050B32464946C4
:1028A0005846FDF7B0FCB244B144BF1B3544A068A4
:1028B000A84200D10025E560002FD0D15046BDE8E8
:1028C000F09F2DE9F047044689461546E668A06862
:1028D000871BAF420AD9606800EB060A2A464946C0
:1028E0005046FDF790FC7019E06014E0B84660684F
:1028F00000EB060A424649465046FDF784FCA5EB2C
:102900000708D4F804A009EB070142465046FDF73A
:102910007AFCC4F80C80BDE8F0870000024800682B
:10292000C0F30220704700000CED00E010B5002855
:1029300004DB0A07130E054A135406E00A07140EB7
:10294000034A00F00F031B1FD45410BD00E400E045
:1029500018ED00E0F0B58BB007460C4615461E4654
:10296000E01006900020079004F0020090B10120D2
:102970000890C5F34F300190E80004F0030140EAED
:1029800041000290C6F34F300390062000EBC600D2
:1029900004900EE0002008900190680104F002010C
:1029A00040EA0110029000200390102040EA4610F7
:1029B0000490C4F3800005900E200A900120099035
:1029C00001A93846FDF7CAFD08B1FDF70AFD0BB0B5
:1029D000F0BD00001CB5FEF765FBFFF798FCFFF7A4
:1029E00057FAFFF733FAFFF7A9FAFFF771FA002356
:1029F0001A4619461E48FFF7ADFF00231A460C2160
:102A00001B48FFF7A7FF1A48FEF773F90221184881
:102A1000FDF7EAFC1748FFF713F817A10020FFF7AE
:102A20002BFB20A10020FFF727FB28A10020FFF7A8
:102A300023FB2EA10020FFF71FFB0FA10020FFF7B3
:102A40001BFB34A10020FFF717FB3EA10020FFF77E
:102A500013FB43A10020FFF70FFB002000F0FCF860
:102A600004E04B4903C9CDE9000100BFF9E70000CC
:102A7000640000208C0000203D3D3D3D3D3D3D3D3E
:102A80003D3D3D3D3D3D3D3D3D3D3D3D3D3D3D3D76
:102A90003D3D3D3D3D3D3D3D3D3D3D3D3D3D3D3D66
:102AA0003D0D0A00202043363230202B204D333597
:102AB0003038204D6F746F7220436F6E74726F6C7C
:102AC0002053746172746564210D0A002020434113
:102AD0004E3A20314D6270732C2049443A203078B0
:102AE0003230302F30783230310D0A0020205049FA
:102AF0004420436F6E74726F6C3A20316B487A20B9
:102B00002854494D3220496E74657272757074296B
:102B10000D0A0000436F6E74726F6C3A2043686157
:102B20006E676520277461726765745F72706D27C8
:102B300020696E204F7A6F6E652057617463680D4F
:102B40000A00000044656661756C743A2074617215
:102B50006765745F72706D203D203530300D0A005E
:102B60003D3D3D3D3D3D3D3D3D3D3D3D3D3D3D3D95
:102B70003D3D3D3D3D3D3D3D3D3D3D3D3D3D3D3D85
:102B80003D3D3D3D3D3D3D3D3D0D0A0D0A000000F2
:102B90003C33000838B505460C46B5F5007F3CDDF2
:102BA000B5F5027F39DC6078217840EA012000B277
:102BB0001A490880E078A17840EA012000B217495C
:102BC00048806079217940EA012000B21349888069
:102BD0000120887108464088114908800120114968
:102BE0000870FEF74DFA10490860FEF749FA0F49E0
:102BF0000968401AB0F5967F0FD90848B0F904006B
:102C000000900648B0F902302A4609A10020FFF7DB
:102C100040FAFEF735FA0549086038BD3400002057
:102C20002200002026000020300000205800002054
:102C30004D4F544F523A2049443D30782530335857
:102C40002C2052504D3D25642C2043757272656EC8
:102C5000743D25640A00000010B58AB004460020C7
:102C60000890099042F21070844200DD0446234827
:102C7000844200DA04464FF4007002900020039072
:102C8000049005900820069000208DF81C00200A72
:102C90008DF82000E0B28DF8210001AB08AA02A94E
:102CA0001748FDF7B6FBB8B916480068401C15492F
:102CB000086015480480FEF7E3F914490968401AD2
:102CC000C82819D9224612A10020FFF7E2F9FEF721
:102CD000D7F90E4908600FE0FEF7D2F911490968EB
:102CE000401AB0F57A7F07D90FA10020FFF7C4F989
:102CF000FEF7C6F90B4908600AB010BDF0D8FFFF17
:102D00006400002028000020240000205000002043
:102D100043414E5F54583A2043757272656E743D5C
:102D200025640A005400002043414E5F54583A2065
:102D30004641494C4544210A000000002DE9FC476A
:102D40004748007878B9FEF79BF946490968401A68
:102D5000642806D90020FFF77FFFFEF791F941496B
:102D60000860BDE8FC874048008840490988401A4F
:102D700004B2204600F022F980463D4801684046F2
:102D800000F068F90546204600F018F980463848FA
:102D9000C168404600F088F83549C860C8683549C0
:102DA00000F024FA02D233483149C8603049C8687B
:102DB000314900F01BF902D22F482D49C8602C4A36
:102DC000D168506800F046F981462949B1F91010E0
:102DD000601A00F0F3F8804625488168404600F00C
:102DE00039F90646224804824946284600F05CF834
:102DF0008046314600F058F807462049384600F032
:102E0000F5F900D21D4F1E49384600F0EFF800D208
:102E10001B4F384600F0B6F80FFA80F84046FFF72F
:102E20001BFFFEF72DF917490968401AB0F5C87F56
:102E300014D9384600F0A6F80FFA80F80B48CDE90F
:102E40000048B0F900300848B0F900200EA1002079
:102E5000FFF71FF9FEF714F90A49086000BF80E781
:102E6000260000206000002020000020220000201A
:102E70003C00002000007A4400007AC400401C4658
:102E800000401CC65C0000205049443A20543D25B7
:102E9000642C20413D25642C20453D25642C204F89
:102EA00075743D25640A000090EA010F48BF81F067
:102EB000004100F1D481421A3CBF801A89184FEAC0
:102EC000D0524FF07F4C1CEA410FA2EBD15318BFF8
:102ED0009CEA026F00F03B804FF0004C4CEA00206F
:102EE0004CEA012121FA03FC10EB0C0C1ED202F17A
:102EF000FF325FEA1C2040EBC25038BF70471CF025
:102F00007F0F4FEA400C18BFBCF17F4F38BF7047AE
:102F1000C3F12003994008BF20F00100BCF17F4FAE
:102F200038BF7047A0F1C04000F05BB94FEA3C00E9
:102F3000000A40EBC25028BF1CF0FF0F4FEA400CC4
:102F4000E6D018BFBCF17F4F38BF7047EAE79CEA74
:102F5000026F05D010EA5C0F08BF00F00040704718
:102F600010B500F0F8F800BF64FBBE3E401058BF3B
:102F7000C0F14040491058BFC1F140418142EFF3D8
:102F80000080704741000B0ED3F19E0208D950F427
:102F900000034FEA032323FA02F048BF4042704780
:102FA00010B500F0D8F800BF499224800020704787
:102FB0006FF0004282EA20007047000010F00041EC
:102FC00048BF4042B0FA80F310FA03F2C3F19D0308
:102FD0000BD051EAC35101EB1220530638BF7047A2
:102FE00000F1010008BF20F00100704750EA010C19
:102FF00000F113801CF5000F58BFBCF5000F01D481
:103000008842704707D710F5000F58BF11F5000F21
:1030100015D488427047894270471CF5000F04D5CB
:10302000BCF5000FF7D5814270474FF0807C1CEB58
:10303000400F38BF1CEB410F01D28142704710B5E1
:1030400000F089F8922449004FF000504FF0805171
:10305000FFF78CBF4FF47F0C1CEAD0121EBF1CEA96
:10306000D11392EA0C0F93EA0C0F00F0478090EA1C
:10307000010F48BF42F480724FF0004C4CEA002030
:103080004CEA012102EB0302A0FB0113A2F50002AE
:10309000002918BF43F001035B0028BF4FEA330348
:1030A00042EB22425FEA132C4CEBC2502EBFBCEB2A
:1030B000436FB2F57C0F70474FEA036CBCF1004FD1
:1030C00008BF20F00100B2F57C0F38BF70470BD568
:1030D00082F0FF0212F5803FC8BF704700F1C04088
:1030E000D8BF00F00040704700F5000C5FEA4C0CC0
:1030F00048BF7047B0F1C04000F073B890EA010FCC
:103100000CEAD11348BF42F48072624538BF634570
:1031100004D280EA010000F00040704710B500F0D2
:103120001AF800BF8900013E00F007B800F009B8A6
:103130005FEA410C5FEA1C6C08D080EA010000F0F5
:1031400050B85FEA400C5FEA1C6CF6D14FF00040CB
:10315000A0F5800070470EF1020E2EF0030E5EF80F
:10316000044B244204D44FEA4102B2F17F4F11D8FC
:103170004FEA4003B3F17F4F0CD80ED14FEAD07C19
:10318000B2F17F4F0CEB4C0C0CF1020C08BF4CEB76
:10319000D17C04E04FF0080C01E04FEAD17C0CEB4D
:1031A0004C0324FA03F404F00704B4F1040C06D22F
:1031B0000EEB840CBDE810404CF0010C6047DFE8DA
:1031C0000CF0070802024FF00040A0F5800010BD8F
:1031D0000846420018BFD2F1807288BF00F000405C
:1031E00010BDFF2141EAD050C005704751EA000CE4
:1031F00000F113801CF5000F58BFBCF5000F01D47F
:103200008142704707D711F5000F58BF10F5000F26
:1032100015D481427047894270471CF5000F04D5D0
:10322000BCF5000FF7D5884270474FF0807C1CEB4F
:10323000410F38BF1CEB400F01D28842704780EA33
:10324000010081EA000180EA0100FFF7F8BE0000FA
:1032500090EA010F48BF81F000413FF52CAE421AC1
:1032600004D882F00042A0EB020011444FEAD05291
:103270004FF07F4C1CEA410FA2EBD15318BF9CEAE0
:10328000026F4AD04FF0004C4CEA00204CEA01217A
:1032900021FA03FCB0EB0C0C0FD412F0FE0F36D069
:1032A0005FEA4C001DD5001240EBC25038BF70479A
:1032B0001CF03F0F18BF70470BE0A2F101025FEA5C
:1032C0001C2040EBC25038BF70471CF07F0F18BF66
:1032D0007047C3F12003994014BF401E20F0010045
:1032E000704780084FEA122308BF7047B0FA80FC8D
:1032F000A2EB0C02CCF1280C60FA0CF093EA122F2E
:1033000004BF00EBC25070474FEAC3707047130A06
:103310005FEADC1008BF7047F6E79CEA026F04D052
:1033200010EA5C0F08BF0020704710B5FFF713FFCD
:1033300040DFF63E81F000407047000000010200CF
:103340000000000002030405060708090A0B0C0D23
:103350000E0F10100102000000000000000001022A
:1033600003040607080900000000010203043031CD
:1033700032333435363738394142434445463031AB
:1033800032333435363738394142434445460000FC
:103390000000000054545220524547474553000056
:1033A000C03300080000002064000000280100086D
:1033B0002434000864000020D40B000044010008FD
:1033C00000000000000000000000000000000000FD
:1033D00000000000100000000100000000127A0050
:1033E000F4010000000000000000000000000000E8
:1033F000000000000000000000000000000040404D
:10340000CDCCCC3D0000000000000000000000001A
:1034100000000000000000000000000000000000AC
:0434200000000000A8
:04000005080000ED02
:00000001FF
