:020000040800F2
:10000000B0080020B101000875320008FD3000087A
:100010000D320008D51C0008C135000800000000A2
:100020000000000000000000000000006F33000826
:100030003D1D0008000000006D330008713300080A
:10004000CB010008CB010008CB010008CB01000860
:10005000CB010008CB010008CB010008CB01000850
:10006000CB010008CB010008CB010008CB01000840
:10007000CB010008CB010008CB010008CB01000830
:10008000CB010008CB010008CB010008CB01000820
:10009000B5350008CB010008D91C0008CB010008C9
:1000A000CB010008CB010008CB010008CB01000800
:1000B000D5330008CB010008CB010008CB010008B4
:1000C000CB010008CB010008CB010008CB010008E0
:1000D000CB010008CB010008CB010008CB010008D0
:1000E000CB010008CB010008CB01000800F002F8AA
:1000F00000F04FF80AA090E8000C82448344AAF173
:100100000107DA4501D100F044F8AFF2090EBAE870
:100110000F0013F0010F18BFFB1A43F0010318473B
:10012000E03D0000003E0000103A24BF78C878C1CE
:10013000FAD8520724BF30C830C144BF04680C60ED
:10014000704700000023002400250026103A28BF35
:1001500078C1FBD8520728BF30C148BF0B60704739
:10016000662903F0E085002070471FB59DE8030075
:1001700000F0C2FF00F06CFB04000020002103F03F
:1001800023FBE06000F080FC1FBD10B500F0E5FC33
:1001900010BD00F04DFD1146FFF7E7FF03F0A2FA96
:1001A00000F03CFF03B4FFF7F0FF03BC01F016F9C9
:1001B0000948804709480047FEE7FEE7FEE7FEE7FB
:1001C000FEE7FEE7FEE7FEE7FEE7FEE70448054937
:1001D000054A064B70470000D3330008ED000008C5
:1001E000B0020020B0080020B0040020B0040020BD
:1001F0000FB4044910B503AA029800F017FB10BC15
:100200005DF814FBA80100202DE9F0474FF0000A2B
:1002100089460446C0F820A02046E16888470028A7
:1002200076D0252806D0D4E901219047206A401CC9
:100230002062F1E7E168204600258847C4F81CA049
:1002400006460027C4F818A02A2E09D0304603F02D
:1002500035FA38B304EB8708303EC8F8186019E067
:1002600059F8041B204604EB87029161E168884736
:10027000012F064618D1E069002820DA25F0200574
:100280001DE0D8F8180000EB800006EB4000303885
:10029000C8F818002046E1688847064603F00EFAC1
:1002A0000028EED1012F0AD02E2E08D12046E16879
:1002B00088477F1C0646022F45F02005C4DBA06955
:1002C000002803DA404245F00105A061E80701D0AB
:1002D00025F01005B6B1A6F14100192802D8203644
:1002E00045F400654A463146204625604D46FFF7F5
:1002F00037FF58B1012806D0ED1D25F0070000F1A9
:10030000080989E704E005F1040985E730468AE732
:10031000206ABDE8F08710B5431C02E010F8011B0D
:1003200071B18107FAD14FF0013202C88C1A8C43A7
:1003300014EAC211F9D0C01A0A0603D0C01E10BDBB
:10034000C01A10BD0A0401D0801E10BD0902FCD0E5
:10035000401E10BD10B5203AC0F00B80B1E8185017
:10036000203AA0E81850B1E81850A0E81850BFF49F
:10037000F5AF5FEA027C24BFB1E81850A0E818503E
:1003800044BF18C918C0BDE810405FEA827C24BF92
:1003900051F8043B40F8043B08BF7047D20728BF20
:1003A00031F8023B48BF11F8012B28BF20F8023B6F
:1003B00048BF00F8012B70474FF0000200B513460C
:1003C00094469646203922BFA0E80C50A0E80C5075
:1003D000B1F12001BFF4F7AF090728BFA0E80C5026
:1003E00048BF0CC05DF804EB890028BF40F8042B1F
:1003F00008BF704748BF20F8022B11F0804F18BF8C
:1004000000F8012B704770477047704770472DE91F
:10041000FF4F0C461E464FF0FF378BB0D2E900016C
:10042000DDF860800A908A46C1F30A5505B93D4659
:10043000002108464FF00000BAF1000F00F4400020
:1004400005DA00EB80004FF4400101EA50004FEA6A
:100450009059B9F1010F00DDB9460A9850EA4A00F7
:100460000ED044F61050A5F2FF3545432F14B8F1D5
:10047000000F1ED07542291E1EDDC9F100021CE0CE
:10048000B8F1010F4FF0000001D0302103E0F2433A
:1004900005E02154401CB042FBDB30460022002125
:1004A00021540B99C1F80880C1E900200FB0BDE8C4
:1004B000F08FBD1B6D1CDEE74A4600DA694206A8D4
:1004C00000F06CFA06AB93E8070003AB83E8070083
:1004D00050460A9901F01AF88DE80700A0F500507F
:1004E0001F3800900398002D0ADD42F21F014A4692
:1004F0000844002303A90390684601F083FA09E049
:10050000A0F500504A461F38002303A9039068460F
:1005100001F08DFA8DE807000004000C03D04FF0C5
:10052000FF30410800E01046B8F1000F03D0002270
:10053000009215461EE0751E05D400F091F9303288
:1005400062556D1EF9D5B3460122084302D0002240
:100550007F1C04E02078302801D100227F1E002A71
:10056000099784D01DE0112D07DA00F079F93032B7
:1005700062556D1C50EA0102F5D1084302D0009883
:10058000C8B10EE00021681E05E0235C625C635484
:100590002254401E491C8142F7DBAB46A81B401E7B
:1005A0000990002004F80B000B98099AC0F8088005
:1005B000C0E9002B7AE711264FF0000857E72DE934
:1005C000F04F88460446D21D22F0070191B0D1E9D0
:1005D0000001CDE90A0103F04DF802460B98C00F67
:1005E00001D02D2007E02068810701D52B2002E0F3
:1005F000202101EAC000032A099001D0072A05DB67
:1006000003464146204600F089F90BE12078800638
:1006100001D5E06900E00620B8F1650F814606D0FB
:10062000B8F1660F18D0B8F1670F70D131E0002033
:10063000B9F1110F009001DB112301E009F1010371
:100640000AAA01A90CA8FFF7E2FEDDE90C7000265A
:1006500009F10105834647E001204B4600904FF029
:1006600000470AAA01A90CA8FFF7D1FEDDE90DB0E9
:100670000C995D46002610B909F101000D18B9EB7F
:10068000050003D4C0F1FF3609F10105A5EB09000F
:100690002BE0B9F1010F01DA4FF001090020B9F1A7
:1006A000110F0090484601DD112300E003460AAA1D
:1006B00001A90CA8FFF7ABFEDDE90C704D46002642
:1006C0008346207800070AD4AB4500DA5D4601A8CE
:1006D000012D04DD411911F8011C302907D04F45C7
:1006E00002DA17F1040F04DA012082460FE06D1ED2
:1006F000EEE7002F02DCED1B3E4403E0781CA8422D
:1007000000DD7D1CB81B00F1010A4FF00047207886
:10071000000703D4AA4501DB4FF0FF3A0021B7F1EF
:10072000004F0DF143088DF8431024D002202B23F5
:10073000002F01DA7F422D230A21021EA0F10100C1
:1007400000DC5FB197FBF1FC97FBF1F201FB1C7C35
:1007500017460CF1300C08F801CDEEE7A8F10100C6
:1007600003702188090501D5452100E06521A0F12C
:10077000010800F8011C09980FA9A1EB0807FF1D4B
:1007800000B10120411901EBEA70A1693844081A4F
:10079000401EA0612078C00602D42046AFF300803E
:1007A000099828B1D4E901219047206A401C2062B1
:1007B0002078C00622D52046AFF300801EE0002E30
:1007C00004DBB34502DD01A8805D00E03020D4E900
:1007D00001219047206A401C2062761CAAF101008A
:1007E0005FEA000A0AD100F033F8C0680168405C93
:1007F000D4E901219047206A401C2062281EA5F1FF
:100800000105DCDC07E0D4E9012118F8010B904771
:10081000206A401C2062381EA7F10107F3DC204645
:10082000AFF30080032011B041E60000074B70B524
:100830000D467B4400F05FF80446284600F020F99E
:1008400010B14FF0FF3070BD204670BD952E0000F6
:100850000048704770020020004870475002002096
:1008600030B5B0F10A024FEA900E71F100034EEA82
:10087000817EB0EB0E0061EB91014FEA101E4EEA53
:10088000017E10EB0E0041EB11114FEA102E4EEAE3
:10089000016E10EB0E0041EB11214FEA104E4EEAB3
:1008A000014E10EB0E0041EB1141401841F10001E7
:1008B0004FEAD00040EA41704FEAD10110EB8005C9
:1008C0004FEA810444EA907444EB01046D1944EB4F
:1008D0000404521BA3414FF0000348BF0A3200D565
:1008E00030BD401C41F1000130BD000001694A1CCF
:1008F00002610878704700B58FB0CDE90131002161
:10090000059105497944CDE9031011466846FFF782
:100910007BFC0FB000BD0000E5FFFFFF2DE9F041BB
:100920001F46044603260168072A01F4006004DB21
:1009300008B116A505E016A503E008B115A500E06D
:1009400015A521F010002060A069C01EA0610FB1A4
:10095000401EA0612046AFF300804FB1D4E90121D1
:1009600038469047206A401C2062C01C206206E086
:10097000206AFAE7D4E9012115F8010B9047761EA9
:10098000F8D22046AFF30080BDE8F0814E414E0022
:100990006E616E00494E4600696E66002DE9F047B3
:1009A000814616468AB0354878440DC88DE80D005A
:1009B00032487844801C03AC0DC884E80D0041F631
:1009C0009B300844372190FBF1F290FBF1F5A5F143
:1009D000800501FB12041B3C02D56442012000E0AB
:1009E0000020DFF898A080460027FA44AAF1BE0A4A
:1009F0000EE0E0070AD03246684607EB47010123C4
:100A00000AEB810101F013F88DE8070064107F1CE8
:100A1000002CEED1194F7F44AE3F19E0E80715D006
:100A200007EB04100DF1180A90E80E008AE80E009A
:100A3000C068F04201D1981908903246012306A9F6
:100A400003A800F0F4FF03AB83E807006D10641CFB
:100A5000002DE3D14FF0010332466946B8F1000F93
:100A600003A802D000F0CEFF01E000F0E0FFC9E9EA
:100A70000001C9F808200AB0BDE8F0873035000051
:100A8000007B00F08000704710B542485421FFF70A
:100A900093FC41485421FFF78FFC40485421FFF755
:100AA0008BFC3F493B483C4A3F4B08603D490A604C
:100AB0003A491960531C0365481C106501200865FC
:100AC0003B48344A39A1784400F00CFA20B9384840
:100AD00078440A3800F0ABFA37482F4A35A17844F9
:100AE00000F000FA20B9344878440A3800F09FFA40
:100AF00032482A4A2FA1784400F0F4F920B92F484F
:100B000078440A3800F093FA40232248DC000021A0
:100B1000224600F0C4F920B125487844543800F04A
:100B200086FA1D4822464023002100F0B8F920B182
:100B300021487844543800F07AFA184822461023A5
:100B4000002100F0ACF9002806D01C487844BDE82C
:100B50001040563800F06BBA10BD104870B5006DEB
:100B600020F001040B4800F033FA0B4800F030FA93
:100B70000A4800F02DFA09E0206D20F0010520461A
:100B800000F026FA204600F078F82C46002CF3D12D
:100B900070BD000054010020A8010020FC010020CD
:100BA0002000002024000020280000207200000007
:100BB0002A340000770000001634000002340000E0
:100BC0000EB5CDE90001FFF7A6FB029069460120B2
:100BD000ABBE0EBD08B5694600900220ABBE08BD95
:100BE0001FB58DE8070069460520ABBE04B010BDF7
:100BF0001FB58DE80F0069460620ABBEF6E708B5C5
:100C0000694600900920ABBE08BD1CB5CDE90001C6
:100C100069460A20ABBE1CBD704708B56946009006
:100C20000C20ABBE08BD00000048704750020020F9
:100C30007546FFF7F9FFAE4605006946534620F0BA
:100C40000700854618B020B5FFF7C0FABDE8204080
:100C50004FF000064FF000074FF000084FF0000B78
:100C600021F00701AC46ACE8C009ACE8C009ACE82B
:100C7000C009ACE8C0098D46704770B50446051F31
:100C800000F01EFA0068002C14BF446870BD002CF0
:100C900018BFAC423CBF20466468F8D301680A180C
:100CA000AA4218BF456003D12A6805461144016075
:100CB00028684119A1421CBF6C6070BD6168696001
:100CC00021680844286070BD2DE9F04705460C46B0
:100CD000C86820F4201040F48000C860800602D567
:100CE000084600F03AFBE06841F282014FF0FF391C
:100CF0000140022903D0204600F0D8FAB5E000F404
:100D00002041B1F5004F0FD1C00306D56168E06AFC
:100D1000884200D80846606006E02069E0626060B2
:100D20006069FFF77AFFA061A0680022EEB2002898
:100D30000DDAE1688B050AD4C043A06041F490301D
:100D40002260E0606068411C61600670A5E0E068B8
:100D50009046226040F40050E060206968BB606902
:100D6000FFF74DFF012704F12405A0B1A08910F47D
:100D7000407F08D0E06900F0EEF9206118B1E0682A
:100D800040F4006016E0E7612561E06820F44070FF
:100D900040F480600EE0E06900F0DDF90028206199
:100DA000F1D0E06840F4006010F4407FE06002D1D0
:100DB00040F48070E06020696060E06825696FF051
:100DC000010AC1051FD56168E06A884200D808465B
:100DD000411B04D02246284600F072FAF0BBE068BE
:100DE000010203D5E562C4E9015854E0691CE162DF
:100DF0006160E16940F48030491EC4E90210304668
:100E00002E70BDE8F087010202D500F480320AE0BE
:100E10006068411C61600670E0680A2E40F4803012
:100E2000E06006D00022E16A6068814203D90B4687
:100E300002E00122F7E70346A7895B1B7F0503D485
:100E4000E7699F4200DDE2B1814200D80146E562D8
:100E50000F1AC4E90158002B09DD00E005E0224625
:100E60001946284600F02CFA08B14846C9E747B1B0
:100E7000A069E5626560C01BA061E06840F01000F9
:100E8000E060E068000208D56168A069E562491B7E
:100E900008446560A0615046B3E73046B1E770B5DD
:100EA000C468A50713D0650211D4B2F5807F09D0BC
:100EB000B2F5007F06D0B2F5806F08D1012300F1B2
:100EC000240106E05D1E6FF07F46B54201D301208C
:100ED00070BD0161C361416024F470611143C16060
:100EE000002070BD2DE9F0410C460746164610461D
:100EF00000F06EF82078611C61280AD0722802D0B8
:100F000077283CD102E00125002405E002250424D5
:100F100002E0082448F2020511F8010B2B2806D044
:100F2000622809D011F8010C74280AD00BE045F0B2
:100F3000030544F00204EFE745F0040544F0010422
:100F4000EAE744F0100438462146FFF739FE411C19
:100F500015D00021316171604FF40071F560F161CD
:100F60007061200704D530460222002100F022F9EA
:100F7000306D40F0010030653046BDE8F081002062
:100F8000FBE72DE9F0410D460646104C206DC107E8
:100F900004D0410804D020F00104F7E722460EE017
:100FA000542000F0D8F807000ED0206D47F0010162
:100FB0000843542120653846FFF7FEF93A46294692
:100FC0003046BDE8F0418DE70020D6E7540100200F
:100FD0002DE9F04704464FF000094FF0FF37C56890
:100FE000D4E90486A80707D0204600F093F93046DC
:100FF000FFF7F0FD002802DA3846BDE8F087280543
:1010000002D54046FFF739FE4C212046FFF7D4F9C0
:10101000206D20F0010020654846EEE710B504463B
:10102000AFF300802046BDE81040FFF7BBB810B515
:1010300000F0BAF9BDE8104000F0B0B94FF0013C43
:1010400050F8042B51F8043B9A4221D1A2EB0C0337
:10105000934313EACC1317D150F8042B51F8043BF7
:101060009A4215D1A2EB0C03934313EACC130BD194
:1010700050F8042B51F8043B9A4209D1A2EB0C031F
:10108000934313EACC13DBD04FF00000704700BF4E
:10109000D01A01BAB1FA81F101F0180122FA01F077
:1010A000CB40C1F12001DBB2C0B2C01A2CFA01F36F
:1010B000D11A914311EAC311E6D17047704700007D
:1010C00000487047580200207047704770477047CB
:1010D00038B504460A4600206946AFF30080002870
:1010E00008BF38BD02460099204600F084F901206F
:1010F00038BD012000F0D3B9F8B5AFF30080054644
:1011000000200C46102000BF0646A819A0420DD9A9
:10111000324669460020AFF30080070008BF00F0A8
:10112000BEF90098A04218BF0546C419FFF7C8FFD2
:1011300005600746F01D20F007004619284600F01C
:1011400053F9B44208BFF8BDA21B31463868BDE868
:10115000F84000F050B970B50646FFF7B1FF0568DA
:1011600006F10B0020F00704B4429CBF002070BDC4
:101170002B466A68BAB11068A04210D304F1080186
:1011800088423CBF5068586007D3516810194160CD
:101190001168091B016058601460101D70BD134672
:1011A0005268002AE7D121462846FFF791FF002820
:1011B000DED170BD2DE9F041044616460D46476963
:1011C000007B80072ED03846FFF719FD50BB3EB399
:1011D000012E02D0022E25D104E0204600F025F990
:1011E00005441DE03846FFF718FDE168002841F08E
:1011F0001001E16005DA204600F058F80120BDE852
:10120000F081C9030BD56268E16A914200D81146AA
:10121000A26911442269891A814200DD0846054409
:10122000002D01DA0220EAE7E16A6068E2688142A3
:1012300006D29103E06203D522F4003141F010029E
:10124000A6690027AE4213DCE16A814201D90B4650
:1012500000E0034603EB060C2369ACEB030CAC4542
:1012600006DD814201D98C4600E084469C4505D1CB
:10127000A760276042F02000A5620DE0AD1BE66983
:10128000AE1B8142A66000D90846C01A281A206009
:101290005819606022F0200003490840E0600020F7
:1012A00084F84870ABE70000BFCFD7FFC16821F4D6
:1012B000001141F08001C160002181600160704730
:1012C0002DE9F047814614460E464FF0FF3832486C
:1012D000D5685769054209D03846A169FFF795FCE2
:1012E000002811DB2C48C0430540E5602B46324600
:1012F00049463846FFF774FCA16920F00042B21A53
:1013000011440028A16103D02046FFF7CFFF4046DB
:10131000BDE8F08770B504460569C06A6168884217
:1013200000D80846E16821F42011E160C90312D514
:10133000A84208D02246411B2846FFF7C1FF10B142
:101340004FF0FF3070BD0020E562C4E90150E06855
:1013500020F48030E060002070BD10B50446C06805
:1013600020F02000E060A16AA06988420DD02046EC
:10137000FFF7D0FFE06820F4405040F01000E0603C
:10138000A06AA0612069E062606044F24001E06808
:101390008843E06010BD000010000200002801D06A
:1013A00000F01CB87047000010B5014602A000F024
:1013B0005DF8012010BD0000534947525452454486
:1013C0003A2052656469726563743A2063616E27DE
:1013D00074206F70656E3A200000000001491820EB
:1013E000ABBEFEE72600020000210160C0E901104B
:1013F000704710207047034640688C46002818BF8D
:1014000088423CBF03464068F8D3186818448842B5
:1014100007D00CF1030020F00700001D411A521AFA
:101420000146081D0A60FFF728BC10B50146C268D6
:10143000900703D0900607D5886A0AE0FFF70CFAF8
:1014400001210160881E10BD8B69486818440B6932
:10145000C01A91F848301BB191F84910401A10BDDC
:101460001103FCD50028FADD401E10BD70B50546FD
:101470000C460A2000E06D1C00F018F835B1287801
:101480000028F8D102E0641C00F010F814B12078B4
:101490000028F8D1BDE870400A2000F007B810B568
:1014A00000F00CF8BDE81040FFF778BF08B56946BA
:1014B0008DF800000320ABBE08BD000010B5012868
:1014C00005D0002103A0FFF7D1FF012010BD09A125
:1014D000F8E7000053494752544D454D3A204F75A7
:1014E00074206F662068656170206D656D6F72791C
:1014F000000000003A2048656170206D656D6F72D4
:101500007920636F72727570746564005FEA400CD5
:1015100008BF91F0000F4FEA8C234FEAC12243EA43
:1015200051514FEA1C5018BF00F5F0404FEA30000F
:1015300018BF41F000415FEA6C5C00F02980BCF10B
:10154000FF3F08BF40F080407047130C06BF1204F5
:101550004FF0100C4FF0000C130E04BF12020CF1F0
:10156000080C130F04BF12010CF1040C930F04BFFD
:1015700092000CF1020CD30F04BF52000CF1010CCD
:1015800011464FF00002A0F11F00A0EB0C007047C5
:1015900011F0004F08BF704731F000413FF4D5AF64
:1015A0000B0C06BF09044FF0100C4FF0000C0B0E93
:1015B00004BF09020CF1080C0B0F04BF09010CF168
:1015C000040C8B0F04BF89000CF1020CCB0F04BF7D
:1015D00049000CF1010CCCF12003A0EB0C0022FA25
:1015E00003F302FA0CF241EA030100F10100704733
:1015F00020F07F4C80EA030023F07F47ACEB070329
:1016000003F57C5300F0004003F1FF032DE980490E
:101610004FEA154B09B44FEA144325EA0B4E24EA6E
:1016200003480FF2042606EB132749083E785FEAC9
:10163000320203FB0667C7F5000707FB06F64FEA11
:1016400054374FEAD64606F1020607FB066CCCF18A
:10165000005C4FEA1C472CEA074C07FB06F40CFB26
:1016600006F504EB15464FEA961634BF00204FF0FE
:1016700000404FEAD13706FB07FC4FEA1C4C0CFB3D
:101680000BF7D21B03FB0CF761EB07010CFB0EF70A
:10169000B0EB074072EB17420CFB08F734BFA2EB2C
:1016A0000742B2EB074261EB17414FEA0C444FEAA5
:1016B000910706FB07FC4FEA1C4C0CFB0BF7B0EB49
:1016C000C74072EB573203FB0CF734BFA2EBC742A3
:1016D000B2EBC74261EB57310CFB0EF7B0EBC70022
:1016E00072EB57720CFB08F734BFA2EBC702B2EBE8
:1016F000C70261EB5771039F4FEA816141EA921182
:1017000004EBCC044FEAD1374FEA826206FB07FCB8
:1017100042EA90124FEA80604FEA1C4C0CFB0BF738
:10172000D21B03FB0CF761EB07010CFB0EF7B0EBD0
:10173000074072EB17420CFB08F734BFA2EB0742DD
:10174000B2EB074261EB17414FEA8C554FEA910724
:1017500004EB9C2406FB07FC4FEA1C4C0CFB0BF72C
:10176000B0EBC74072EB573203FB0CF734BFA2EB70
:10177000C742B2EBC74261EB57310CFB0EF7B0EB3F
:10178000C70072EB57720CFB08F734BFA2EBC7021D
:10179000B2EBC70261EB577115EB4C254FEA816143
:1017A00041EA92114FEA82624FEAD13742EA90123F
:1017B00006FB07FC44F100044FEA80604FEA1C4C32
:1017C0000CFB0BF7D21B03FB0CF761EB07010CFBC7
:1017D0000EF7B0EB074072EB17420CFB08F734BF73
:1017E000A2EB0742B2EB074261EB174115EB1C1568
:1017F0004FEA813141EA92414FEA823242EA904215
:101800004FEA80304FEA0C7644F1000448EA034383
:101810004EEA0B484FF0000EB2EB080C71EB0307D9
:1018200024BF624639464EEB0E0E4FF0000B0018F7
:10183000524149414BEB0B0BB2EB080C71EB030728
:101840007BF1000B24BF624639464EEB0E0E4FF083
:10185000000B0018524149414BEB0B0BB2EB080C4B
:1018600071EB03077BF1000B24BF624639464EEB58
:101870000E0E51EA020718BF46F0010616EB0E766F
:1018800055F1000254F1000103D5BDE88901BDE81E
:101890000088BDE88901BDE80048B619524141EB16
:1018A0000101A3F10103704780807F7E7D7C7B7AFC
:1018B0007978777676757473727171706F6E6E6DFC
:1018C0006C6C6B6A6A6968686766666564646363A2
:1018D00062616160605F5F5E5E5D5D5C5C5B5B5A28
:1018E0005A59595858575756565555555454535395
:1018F00052525251515050504F4F4F4E4E4D4D4DF0
:101900004C4C4C4B4B4B4A4A4A494949484848473A
:101910004747474646464545454444444443434378
:101920004342424242414141002B9C4630D4770021
:101930002BD01CB54FEA370703B44FF010004FF01F
:101940001001BAF1000F06D0BCF1000FDCBF40F06F
:10195000080040F008014FF000000FBCBDE8104047
:101960000BF1010BBBF1010F08BF5FEA170722BFA4
:1019700012F1010211F101014FF0004143F10003A6
:1019800000F0004043EA00007047F9D35708D0E761
:1019900046EA064613F1400F4FEA16461FDD13F1E3
:1019A000200FDFBF16430A46002120335B42BED022
:1019B000C3F1200746EA064602FA07F74FEA164641
:1019C00046EA0706C3F1200722FA03F201FA07F7F5
:1019D00021FA03F14FF0000342EA0702A7E746EAC3
:1019E000020646EA06464FEA164646EA0106BCBF2C
:1019F00046EA0646360C4FF000034FF000024FF067
:101A0000000194E72DE9804C9A46934670B491E822
:101A1000380007C831EA400C48BF34EA430C03D50C
:101A2000FFF7E6FDFFF780FFF0BCBDE8008C2DE975
:101A3000804C9A46934670B491E8380007C810F07D
:101A4000804F08BF13F0804F03D100F005F8FFF777
:101A50006BFFF0BCBDE8008C20F07F4780EA0300FC
:101A600023F07F4C07EB0C03A3F57C5300F0004000
:101A7000A3F1FE0392F0000F00F0B38095F0000F89
:101A800000F077802DE901494FEA11404FEA1446F2
:101A900021EA004800FB06FC24EA064708FB06F69C
:101AA00007FB08F800FB07F718EB06484CEB164C51
:101AB0004FEA124B18EB07484FEA15464CEB17401C
:101AC00022EA0B4E0BFB06FC25EA06470EFB06F648
:101AD00007FB0EFE0BFB07F71EEB064E4CEB164CFE
:101AE0004FF000061EEB074E4CEB174B18EB0B08A4
:101AF00040F1000018EB0E0B58EB000840F100001D
:101B00008F1A4FF000013CBFC943661B14BFB5EBF1
:101B1000040C00213CBFC943F61B4FEA17444EEAB0
:101B20008E0E27EA04454FEA1C4704FB07622CEAA5
:101B3000074C05FB07F70CFB05F604FB0CFC16EB4A
:101B4000074642EB174216EB0C4642EB1C421BEBDE
:101B5000060658EB0202414146EA9E0601D5BDE861
:101B60000189B619524141EB0101A3F10103BDE81E
:101B700001894FEA14454FEA114724EA054621EA54
:101B8000074C05FB07F406FB07F70CFB06F105FB0A
:101B90000CFC11EB074144EB17444FEA124711EBE1
:101BA0000C4144EB1C4422EA074C05FB07F206FB00
:101BB00007F70CFB06F605FB0CFC16EB074642EBA1
:101BC000174216EB0C4642EB1C456A1854F1000113
:101BD00048BF7047B619524141EB0101A3F101031F
:101BE000704795F0000F37D04FEA11424FEA144783
:101BF00021EA024624EA074C02FB07F106FB07F73D
:101C00000CFB06F402FB0CFC14EB074441EB174100
:101C10004FEA154714EB0C4441EB1C4125EA074CF5
:101C200002FB07F506FB07F70CFB06F602FB0CFCB4
:101C300016EB074645EB174516EB0C4645EB1C42E9
:101C4000121951F1000148BF7047B619524141EBDA
:101C50000101A3F1010370474FEA14454FEA114710
:101C600024EA054621EA074C05FB07F106FB07F7C6
:101C70000CFB06F24FF0000605FB0CFC12EB0742D2
:101C800041EB174112EB0C4251EB1C4148BF70472E
:101C9000921841EB0101A3F10103704770B50446AE
:101CA000094D0A4E006803E0294601F0C7FF206095
:101CB000B042F9DC064E2068B04204D9294601F052
:101CC000E3FD2060F8E770BD0000B4440000344438
:101CD000000034C4FEE70000014800F095B90000A0
:101CE0002C00002030B589B04FF40074009400241B
:101CF0000194039402948DF81440040A8DF818405E
:101D00008DF81900080A8DF81A00100A8DF81C00C9
:101D10008DF81D20180A8DF81E0008258DF81B105F
:101D20008DF81F30049508AB06AA6946024800F0FA
:101D30001AF809B030BD00002C000020704772B6C0
:101D4000FEE790F82020012A07D0022A05D0416A38
:101D500041F48021416201207047006842690A43D2
:101D6000426100207047F0B590F820500468A468E4
:101D7000012D05D0022D03D0416A41F480214DE0B0
:101D800014F0406F01D1E50045D5C4F3016401258D
:101D9000A5401D608D684FF4C0739DB1CE6835437A
:101DA0004E6845EAC605066803EB0417F5514FF483
:101DB000C275076805EB04150E697E51097D01297E
:101DC00005D009E00E88CD6845EA4655EBE7016885
:101DD0004E5946F480764E511179D2F805504FF4A1
:101DE000C67641EA0521056806EB0416A95111786B
:101DF000D2F801204FF4C47541EA0221026805EBD4
:101E000004155151006803EB0411425842F00102DD
:101E100042500020F0BD416A41F4001141620120AE
:101E2000F0BD000010B590F820300268012B07D0FB
:101E3000022B05D0416A41F480214162012010BD8E
:101E4000D2F8000240F00100C2F80002087D00F064
:101E50001F0301209840D2F81C328343C2F81C3281
:101E6000CB69B3B9D2F80C328343C2F80C328C89F7
:101E70004B6864F31F434C6902EBC404C4F840325E
:101E80000C890B6864F31F434C6902EBC404C4F86B
:101E90004432CB69012B16D1D2F80C320343C2F87D
:101EA0000C320C884B6864F31F434C6902EBC4048A
:101EB000C4F840320C89CB6864F31F434C6902EBD1
:101EC000C404C4F844328B69002BD2F804320FD01A
:101ED00053EA0003C2F804320B69002BD2F8143223
:101EE00008D00343C2F81432096A012904D008E07B
:101EF0008343EFE78343F5E7D2F81C120143C2F8AE
:101F00001C12D2F8000220F00100C2F800020020EA
:101F100010BD704770B590F82040012C05D0022C00
:101F200003D0416A41F4802128E0046809B32469A0
:101F3000A40720D04FF4D874056804EB01142D5980
:101F400015F00405956005682D591AD0ED08556007
:101F500005682C5904F00204D4604FF4DA74056863
:101F600004EB01142E5906F00F06082E0CD3082599
:101F70000DE0E468DCE7416A41F4001141620120B0
:101F800070BD6D0D1560E3E72D5905F00F05156166
:101F900005682D59C5F30725956105682C59240C52
:101FA00054614FF4DC72046802EB0112A4581C70F7
:101FB0000468A458240A5C700468A458240C9C701B
:101FC0000468A258120EDA704FF4DE72046802EB55
:101FD0000112A4581C710468A458240A5C71046896
:101FE000A458240C9C710468A258120EDA7100687F
:101FF00029B1016941F020010161002070BDC16873
:1020000041F02001C160F8E72DE9F05F0546006866
:1020100000244669D0F804908768D0F80CB0D0F856
:1020200010A0D0F81880F10748D0F90714D001218A
:102030008160B80703D5284600F001FA0CE0780764
:1020400002D54FF4006407E0380702D54FF48054FE
:1020500002E0284600F0F2F9F80516D529684FF499
:1020600080708860B80503D5284600F0EAF90CE0D6
:10207000780502D544F4005407E0380502D544F44D
:10208000804402E0284600F0DBF9F80316D5296801
:102090004FF480308860B80303D5284600F0D3F9A8
:1020A0000CE0780302D544F4004407E0380302D57D
:1020B00044F4803402E0284600F0C4F9300707D524
:1020C0005FEACB6004D52968102044F40074C8602E
:1020D00070074FF0080707D55FEA0B7004D5286832
:1020E000C760284600F062F9B00706D52868C068C6
:1020F000800702D0284600F05BF9700607D55FEA3A
:10210000CA6004D52968102044F480640861B006D0
:1021100007D55FEA0A7004D528680761284600F0F1
:102120005DF9F00606D528680069800702D02846C8
:1021300000F055F9B00308D55FEAC96005D52968F4
:1021400010204860284600F04BF9F00307D55FEAFD
:10215000097004D528684760284600F075F93004F6
:1021600046D55FEA497040D5F00504D55FEAC870EE
:1021700001D044F00104B00504D55FEA887001D5B0
:1021800044F00204700504D55FEA487001D544F0BC
:102190000404300529D518F0700F26D008F070001F
:1021A000402815D006DC102809D020280AD0302875
:1021B00016D10AE050280ED0602811D10EE044F06C
:1021C00008040DE044F010040AE044F0200407E0A5
:1021D00044F0400404E044F0800401E044F48074DE
:1021E0002868816921F070018161296804204860B4
:1021F000002C05D0686A204368622846FFF789FEF4
:10220000BDE8F09F70B5040003D094F8200010B131
:1022100004E0012070BD204600F082F820680168CB
:1022200041F00101016000F013FA0546052604E0C3
:1022300000F00EFA401B0A2811D820684068C00739
:10224000F6D02068016821F00201016000F000FA78
:1022500005460BE000F0FCF9401B0A2806D9606A2D
:1022600040F40030606284F82060D2E72068406863
:102270008007EFD4207E0128206801683DD021F03E
:1022800080010160607E01282068016838D021F05B
:1022900040010160A07E01282068016833D021F050
:1022A00020010160E07E0128206801682ED041F005
:1022B00010010160207F01282068016829D021F0E9
:1022C00008010160607F01282068016824D021F0A6
:1022D00004010160D4E902010843D4E90412114366
:1022E00008436168491E08432168C8610020606294
:1022F000012084F82000002070BD41F08001C0E77B
:1023000041F04001C5E741F02001CAE721F010018A
:10231000CFE741F00801D4E741F00401D9E700001C
:1023200010B586B0002100910191029103910068DF
:102330001B49884232D11B48C16941F00071C1611B
:10234000C16901F000710491816941F0040181616A
:102350008069154C00F0040004904FF40060009078
:102360006946204600F084F8A014009002200190F5
:10237000032003906946204600F07AF800221146B7
:10238000142000F0D1F9142000F0C0F90022114609
:10239000162000F0C9F9162000F0B8F906B010BDFB
:1023A0000064004000100240000801407047000037
:1023B00000B589B007AB6A460021FFF7ABFD0028E6
:1023C00008D10098A0F20120032803D807A90248E9
:1023D00000F01EFF09B000BD3C01002070477047AF
:1023E0007047000070B5044690F82000012804D022
:1023F000606A40F40020606218E0022084F8200047
:102400002068016821F00101016000F021F9054612
:102410000EE000BF00F01CF9401B0A2808D9606AD2
:1024200040F400306062052084F82000012070BD77
:1024300020684068C007EDD1606270BD704770478A
:1024400070477047704770477047000070B504468A
:1024500000F0FEF80546601C02D0044800780444F1
:1024600000F0F6F8401BA042FAD370BD1000002027
:102470002DE9F84FDFF8B8910024A9F1040B2346A9
:102480000F2709F1040AABF1040EC9E00125A540AC
:102490002A40AA427DD1674ED1F804C0ACEB0608B1
:1024A000B44532D014DCBCF1030F3AD009DCBCF1E6
:1024B000000F2AD0BCF1010F1CD0BCF1020F31D1AA
:1024C0001DE0BCF1110F17D0BCF1120F2AD119E099
:1024D000B8F5881F19D006DCB8F5803F15D0B8F5DF
:1024E000801F1FD111E0B8F5001F0ED0B8F5041FF2
:1024F00018D10AE0CB6815E0CB681B1D12E0CB6851
:1025000008330FE0CB680C330CE08B682BB1012B48
:102510004FF0080303D0456104E0042302E00561A5
:1025200000E00023FF2A01D8064601E000F104067E
:102530004FEA840501D9A5F12005D6F8008007FAF5
:1025400005FC28EA0C0803FA05F548EA0508C6F870
:1025500000804D68ED0062D5374DAE6946F001064A
:10256000AE61AD6924F0030605F001050095334D19
:1025700006EB050CDCF80850A607360F07FA06F83C
:1025800025EA0805DFF8B880404503D14FF0000880
:1025900017E044E0DFF8AC80404502D14FF001087D
:1025A0000FE0DFF8A480404502D14FF0020808E0B8
:1025B000DFF89880404502D14FF0030801E04FF06A
:1025C000040808FA06F848EA0508CCF808804D68BF
:1025D000D9F80060ED024D4601D5164300E0964360
:1025E0002E604D68DAF80060AD02554601D51643FD
:1025F00000E096432E604D68DBF80060AD035D4659
:1026000001D5164300E096432E604D68DEF8006069
:10261000ED03754601D5164300E096432E60641C19
:102620000D682A46E5407FF431AFBDE8F88F000021
:102630000804014000001110001002400000014099
:1026400000080140000C014000100140001401404E
:10265000014880687047000010000020024881682F
:10266000027811448160704710000020074810B5BF
:10267000016841F010010160032000F075F80F209F
:1026800000F006F800F024F8002010BD0020024001
:1026900070B50D4D04464FF47A712878B1FBF0F017
:1026A0000A490968B1FBF0F000F0DCFA48B9102CD7
:1026B00007D200222146501E00F036F800206C6040
:1026C00070BD012070BD0000100000201C00002023
:1026D0000C4808B5816941F001018161816901F00F
:1026E00001010091C16941F08051C161C06900F0F0
:1026F000805000900448416821F0E06141F0007191
:10270000416008BD0010024000000140002809DBC4
:1027100000F01F02012191404009800000F1E020FB
:10272000C0F8001170470000F0B40E4B1B680C4657
:10273000C3F30223C3F10705042D00D90425191D95
:10274000072901D2002300E0DB1E012606FA05F16D
:10275000491E214099409E40761E16403143F0BCF0
:1027600000F09CBF0CED00E0064900F0070208688D
:102770004FF6FF03184040EA0220034A1043086066
:10278000704700000CED00E00000FA052DE9F0476D
:102790000F46050061D0434E306800F00700B84294
:1027A00009D2306820F0070038433060306800F00C
:1027B0000700B84251D128683B4C810712D5400729
:1027C00003D5606840F4E06060602878000703D5B6
:1027D000606840F4605060606068A96820F0F000B4
:1027E000084360602878C00728D06868012810D0A6
:1027F0002168022810D0890700292EDA616821F0AB
:10280000030101436160FFF723FF804641F28839ED
:102810000DE021688903EFE78901EDE7FFF718FF75
:10282000A0EB0801494502D90320BDE8F0876068A4
:10283000696800F00C00B0EB810FEFD1306800F058
:102840000700B8420BD9306820F0070038433060E9
:10285000306800F00700B84201D00120E5E7287891
:10286000400705D56068E96820F4E06008436060CF
:102870002878000706D56068296920F4605040EA8E
:10288000C100606000F038F86168084AC1F30311C4
:10289000515CC8400649086006480068FFF7F8FE2A
:1028A0000020C2E70020024000100240463E00081F
:1028B0001C000020140000200448054900684968F5
:1028C000044AC1F30221515CC84070471C0000203B
:1028D00000100240563E0008044805490068496857
:1028E000044AC1F3C221515CC84070471C0000205B
:1028F00000100240563E00080E4A51680E4801F092
:102900000C03042B11D0082B0FD10C48C1F38343C7
:10291000C903C05C0AD55168084AC1F34041921E00
:10292000515C054A5043B0FBF1F0704704494843FD
:10293000704700000010024000127A00363E000886
:1029400000093D002DE9F84F040070D02078C04DFB
:10295000C00749D06868C0F38100012807D06868C3
:10296000C0F38100022809D16868C00306D5286831
:10297000800339D560680028E7D035E06068B0F59D
:10298000803F0BD010B1B0F5A02F11D0286820F4F3
:1029900080302860286820F4802002E0286840F415
:1029A00080302860606890B1FFF752FE06460AE06A
:1029B000286840F480202860F0E700BFFFF748FE59
:1029C000801B642873D828688003F7D50CE0FFF7D4
:1029D0003FFE064605E000BFFFF73AFE801B642875
:1029E000F0D828688003F7D420789A4E80074FF0FB
:1029F00001094FF0000839D5686810F00C0F07D0B6
:102A00006868C0F38100022809D16868C00306D451
:102A10002868800714D52069012808D110E02069B2
:102A2000B0B1C6F80090FFF713FE074605E00AE1D3
:102A3000FFF70EFEC01B0228C4D828688007F7D510
:102A40002868616920F0F80040EAC10028600DE0C4
:102A5000C6F80080FFF7FCFD074604E0FFF7F8FD2D
:102A6000C01B022823D828688007F7D420780007E5
:102A70002CD57948A169D9B1C0F80090FFF7E8FDDD
:102A8000074604E0FFF7E4FDC01B02280FD8686A80
:102A90008007F7D571484FF4FA510068B0FBF1F0A8
:102AA000009000BF0098411E0091FAD20EE080E035
:102AB000C0F80080FFF7CCFD074604E0FFF7C8FD33
:102AC000C01B022875D8686A8007F7D420784007B1
:102AD00060D5E8690027C00008D4E86940F080505C
:102AE000E861E869012700F0805000905C480168C7
:102AF000C90513D40168834641F480710160FFF772
:102B0000A7FD824606E000BFFFF7A2FDA0EB0A008A
:102B100064284ED8DBF80000C005F5D5E068012830
:102B20000AD008B1052813D0286A20F001002862D5
:102B3000286A20F0040002E0286A40F001002862C0
:102B4000E06841F2883B98B1FFF782FD82460BE0D6
:102B5000286A40F004002862EEE700BFFFF778FD26
:102B6000A0EB0A0159455AD8286A8007F6D50CE02F
:102B7000FFF76EFD824605E0FFF76AFDA0EB0A0154
:102B800059454CD8286A8007F6D41FB1E86920F06F
:102B90008050E861E06988B36968C1F38101022966
:102BA00044D00228C6F8608004D0FFF751FD0446E7
:102BB00038E034E0FFF74CFD074604E0FFF748FD3E
:102BC000C01B02282BD828688001F7D4206AB0F5F2
:102BD000803F05D16868A16820F400300843686030
:102BE000D4E908010843696821F474110843686056
:102BF000C6F86090FFF72CFD044606E025E000BF14
:102C0000FFF726FD001B022809D828688001F7D5A8
:102C10001BE000BFFFF71CFD001B022802D90320A8
:102C2000BDE8F88F28688001F4D40EE00128F7D0C1
:102C30006868226A00F48031914204D1616A00F42C
:102C40007010884201D00120EAE70020E8E7000088
:102C50000010024000004242800442421C0000205A
:102C60000070004010B5401EB0F1807F01D30120FC
:102C700010BD4FF0E02460610F21601700F00EFDE1
:102C80000020A06107202061002010BD7047704720
:102C900070B590F83C20012A26D0012480F83C40F1
:102CA000022280F83D2003685A689D6822F0700671
:102CB0000A6832435A600D4B02689A4208D0B2F15A
:102CC000804F05D00A4B9A4202D00A4B9A4204D157
:102CD000496825F080031943916080F83D40002148
:102CE00080F83C10084670BD022070BD002C0140E9
:102CF000000400400008004010B5040003D094F820
:102D00003D0010B107E0012010BD002084F83C0018
:102D1000204600F01FF8022084F83D00211D2068A5
:102D200000F05EFB012084F8460084F83E0084F841
:102D30003F0084F8400084F8410084F8420084F8A1
:102D4000430084F8440084F8450084F83D000020E6
:102D500010BD000008B50068B0F1804F12D10A48DC
:102D6000C16941F00101C161C069002200F00100A8
:102D7000009011461C20FFF7D7FCBDE808401C203E
:102D8000FFF7C4BC08BD00000010024090F83D10E1
:102D9000012901D001207047022180F83D1001680F
:102DA000CA6842F00102CA6000680B49884208D034
:102DB000B0F1804F05D00949884202D008498842C5
:102DC00004D1816801F00701062903D0016841F0B0
:102DD0000101016000207047002C01400004004008
:102DE0000008004070B5044690F83C00002501281A
:102DF00017D0012684F83C60022084F83D0020684A
:102E0000826822F0770222F47F42826008685028AC
:102E100038D00DDC20284FD005DC90B3102811D11C
:102E20004AE0022070BD302846D040280AD13BE05D
:102E300060282FD070280DD0B0F5805F03D0B0F59A
:102E4000005F12D0012584F83D60002084F83C002A
:102E5000284670BDCB68D1E90121206800F0FCFA5A
:102E60002068816841F0770109E0CB68D1E9012150
:102E7000206800F0F1FA2068816841F480418160A7
:102E8000E1E719E0CA684968206800F0F7FA5021C4
:102E9000206806E0CA684968206800F000FB6021ED
:102EA000206800F0E3FACEE7CA684968206800F0BD
:102EB000E5FA40212068F4E7226801461046F0E771
:102EC00070472DE9F04104460068C66805694FF077
:102ED0000007A90713D5B10711D5F91E016101201B
:102EE0002077206880698007204602D0FFF7E8FF3E
:102EF00004E000F07EF8204600F07CF827776807B1
:102F000016D5700714D521686FF0040008610220FF
:102F100020772068806910F4407F204602D0FFF7B8
:102F2000CFFF04E000F065F8204600F063F8277753
:102F3000280715D5300713D521686FF00800086100
:102F4000042020772068C0698007204602D0FFF760
:102F5000B7FF04E000F04DF8204600F04BF827776B
:102F6000E80616D5F00614D521686FF01000086148
:102F7000082020772068C06910F4407F204602D0E6
:102F8000FFF79EFF04E000F034F8204600F032F82E
:102F90002777E80708D0F00706D021686FF0010016
:102FA0000861204600F027F8280608D5300606D527
:102FB00021686FF0800008612046FFF767FE680611
:102FC00008D5700606D521686FF0400008612046DC
:102FD00000F012F8A8060AD5B00608D521686FF0EF
:102FE000200008612046BDE8F041FFF750BEBDE873
:102FF000F081704770477047704770B5040004D087
:1030000094F84100002510B106E0012070BD84F85D
:103010004050204600F024F8242084F84100206825
:10302000C16821F40051C160204600F04BFA2068CD
:10303000016921F4904101612068416921F02A0170
:1030400041612068C16841F40051C160656420207D
:1030500084F8410084F842006563002070BD0000E0
:1030600030B585B000240094019402940394006864
:10307000184988422CD11848816941F48041816106
:10308000816901F480410491816941F00401816109
:103090008069124D00F0040004904FF4007000901D
:1030A000022001900320039069462846FFF7E0F9CB
:1030B0002815CDE90004694628460294FFF7D8F99F
:1030C000002211462520FFF72FFB2520FFF71EFBCE
:1030D00005B030BD0038014000100240000801403A
:1030E00090F84230202B01D00220704721B11AB154
:1030F0000023036300F042BA01207047FEE700009E
:103100000F4810B50D4901600421416000214FF4C2
:10311000A0228160C0E903124FF48012426101765F
:1031200041768176C17601774177FFF76BF8002809
:1031300003D0BDE81040FEF702BE10BD00640040A1
:103140002C000020094808B5816941F02001816107
:10315000816901F020010091816941F004018161E0
:10316000806900F00400009008BD000000100240DB
:1031700010B586B00024164800940194029403947C
:1031800004944FF08041059401604721C0E9011487
:103190004FF6FF71C0E903148461FFF7ADFD08B17C
:1031A000FEF7CDFD4FF48050009069460848FFF7C8
:1031B00019FE08B1FEF7C3FD049404A90448059460
:1031C000FFF766FD002801D0FEF7B9FD06B010BD7F
:1031D000540000200C4810B50A4901604FF4E13159
:1031E0004160002181600C22C160C0E9041281614C
:1031F000C161FFF702FF002803D0BDE81040FEF7D1
:103200009EBD10BD003801409C000020FEE700007C
:1032100010B5028804464280088840BA20804B8856
:103220005BBAA3808B885BBAE3808979A172811A2B
:103230000AB22169B2F5805F01DD491E03E012F593
:10324000805F01DA491C216100EB4130E06000F051
:10325000ABFB6FF00C0100F09AFD054900F0F0FBAC
:10326000606104F11400BDE81040FEF717BD0000D6
:103270000000B443FEE72DE9F04104460846C4E9E6
:103280000012114600F0DAFCA060226901461046E7
:1032900000F0FAFA2061A16A00F09EFC01D2A06A57
:1032A0002061A06A216980F0004000F095FC03D203
:1032B000A06A80F000402061D4E90261304600F04D
:1032C000BDFCE16900F0BCFB05462169A06900F086
:1032D000B7FB07463146606900F0B2FB394600F0A3
:1032E000D3FA294600F0D0FA2062616A00F074FC3B
:1032F00001D2606A2062606A216A80F0004000F0BA
:103300006BFC03D2606A80F000402062A068E0603D
:10331000206ABDE8F08100000B480A4941610B4971
:1033200081610B49C1610B4941620B4981622C30BB
:103330000A4941610A4981610A49C1610A494162F8
:1033400081627047CDCC4C3FE40000200AD7233C7B
:10335000CDCC4C3D00004843000096430000A04106
:103360009A99993E0AD7A33D00007A467047704764
:10337000FFF774B930B58FB028216846FDF71CF807
:1033800014210AA8FDF718F801210804CDE900105E
:103390000024029402250491CDE907504FF4E01077
:1033A00009906846FFF7CEFA08B172B6FEE70F2023
:1033B000CDE90A054FF48060CDE90C4002210AA84E
:1033C0000E94FFF7E3F9002801D072B6FEE70FB0C4
:1033D00030BD70470148FFF774BD00005400002065
:1033E000F0B50268194B1A4C1A4D4FF080479842BD
:1033F00005D0B84203D0A04201D0A84203D122F0A8
:1034000070064A683243984205D0B84203D0A042C1
:1034100001D0A84203D122F44074CA6822434C6907
:1034200022F08002224302608A68C2620A688262D5
:10343000984201D109690163012141610169C9070C
:1034400003D0016921F001010161F0BD002C0140B0
:10345000000400400008004010B5846842EA0322DE
:1034600024F47F440A432243826010BD826822F024
:1034700070020A4342F007018160704710B5036A89
:10348000046A24F001040462846924F0F00444EA2C
:10349000021423F00A020A438461026210BD10B5CF
:1034A000036A046A24F010040462846923F0A00310
:1034B00024F4704444EA023243EA01118261016259
:1034C00010BD000070B5044600680169E26821F48F
:1034D0004051114301612169A068084361690843B3
:1034E0002168CA6841F20C639A430243CA602068AB
:1034F0004169A26921F44071114341611E4920686C
:10350000884202D1FFF7E8F901E0FFF7D5F900EBB7
:10351000C00101EB0012606864218000B2FBF0F38F
:10352000B3FBF1F36FF018067343B2FBF0F5B2FB97
:10353000F0F605EB8305322303EB0515B5FBF1F53A
:10354000B6FBF1F605F0F00505EB0615B2FBF0F65B
:10355000B2FBF0F0B0FBF1F06FF01802504306EB55
:10356000800003EB0010B0FBF1F0216800F00F00C9
:103570002844886070BD0000003801408162828567
:10358000C28500214164222180F84210016921B1E5
:103590000168CA6842F48072CA6001684A6942F0F0
:1035A00001024A610068C16841F02001C160002049
:1035B000704700000148FEF727BD00002C000020E6
:1035C000FEE700002DE9F04F1F4D8DB0686900F057
:1035D0002FF98146A5F12C000391406900F028F9EC
:1035E00082461A480191B0F9000000F003F905F194
:1035F0002C0480468B46B4F9040000F0FBF8064624
:103600000F46286800F014F902900D46606900F03A
:103610000FF904460C4800912C38006800F008F9B6
:103620000B4603990246CDE90A91019903A8CDE919
:1036300008A180E8E009009905A0CDE90041FCF768
:10364000D7FD0DB0BDE8F08F100100200C00002068
:10365000252E32662C252E32662C252E32662C2500
:103660002E32662C252E30662C252E33662C252EE8
:1036700033660A00490050EAC12018BF04204A0DF1
:1036800018BF40F0010040F2FF72B2EB515F08BF7B
:1036900040F00200012808BF052070470907090E05
:1036A000002804DB00F1E02080F80014704700F0EF
:1036B0000F0000F1E02080F8141D704730380A2810
:1036C00001D201207047002070478A68002A01DC7F
:1036D000FDF7FABA521E8A604A68C0B2531C4B60AA
:1036E000107070478AB0FEF7C1FFFFF743FEFFF787
:1036F00029FDFFF705FDFFF76DFDFFF739FDFFF72A
:103700000BFE282227496846FCF724FE6946264816
:10371000FEF788FB2448FEF765FE02212248FEF7EB
:1037200010FB2248FFF732FB012221492148FFF715
:10373000D7FC214EDFF884801D4D71696D1EC8F8DD
:10374000001000BFFEF784FF04466868201A0228B4
:103750001CD36C6072691948D8F80010FFF78BFD14
:10376000174907460860B6F9040000F01DF9024643
:1037700039461348FFF77FFD00F0FAF8114900B20F
:10378000002308801A461946FEF7ACFAA868201AEA
:10379000142802D3AC60FFF715FF0120FEF756FE98
:1037A000D0E700000C3E00082C0000205400002050
:1037B000010000209C0000203C010020E4000020CB
:1037C000100100200C00002010B500290AD0087854
:1037D000002807D005487844FDF730FC002801D0C8
:1037E000002010BD0248784410BD00004A070000C8
:1037F0004207000010F0004248BF4042B0FA80F398
:1038000010FA03F10AD0C3F11D0303F580634FEAF8
:10381000415002EB035202EBD12170474FF0000000
:1038200070470808A0F500114FEA31017047000009
:1038300043004FEAD30C4FEA3C0C43401FBF400704
:103840000CF1605113F0FE4F70471CF0006F03D174
:1038500000200CF0004170470CF0004343EA507028
:1038600010B540EACC0000F06CF900BF00000092F7
:103870004FEA0001FFF7D5BF4FF000414FF00000C5
:10388000A1F500217047000090EA010F48BF81F0C8
:10389000004100F1DA81421A3CBF801A89184FEAD0
:1038A000D0524FF07F4C1CEA410FA2EBD15318BF0E
:1038B0009CEA026F00F03B804FF0004C4CEA002085
:1038C0004CEA012121FA03FC10EB0C0C1ED202F190
:1038D000FF325FEA1C2040EBC25038BF70471CF03B
:1038E0007F0F4FEA400C18BFBCF17F4F38BF7047C5
:1038F000C3F12003994008BF20F00100BCF17F4FC5
:1039000038BF7047A0F1C04000F061B94FEA3C00F9
:10391000000A40EBC25028BF1CF0FF0F4FEA400CDA
:10392000E6D018BFBCF17F4F38BF7047EAE79CEA8A
:10393000026F05D010EA5C0F08BF00F0004070472E
:1039400010B500F0FEF800BF64FBBE3E014800F079
:10395000ECB900BF0000C07F401058BFC0F140402C
:10396000491058BFC1F140418142EFF300807047D8
:1039700041000B0ED3F19E0208D950F400034FEA28
:10398000032323FA02F048BF4042704710B500F00D
:10399000D8F800BF49922480002070476FF00042A1
:1039A00082EA20007047000010F0004148BF40420A
:1039B000B0FA80F310FA03F2C3F19D030BD051EA81
:1039C000C35101EB1220530638BF704700F10100CC
:1039D00008BF20F00100704750EA010C00F113808D
:1039E0001CF5000F58BFBCF5000F01D4884270478A
:1039F00007D710F5000F58BF11F5000F15D48842F6
:103A00007047894270471CF5000F04D5BCF5000FC4
:103A1000F7D5814270474FF0807C1CEB400F38BFD8
:103A20001CEB410F01D28142704710B500F089F8BC
:103A3000922449004FF000504FF08051FFF78CBFA7
:103A40004FF47F0C1CEAD0121EBF1CEAD11392EA7D
:103A50000C0F93EA0C0F00F0478090EA010F48BF6B
:103A600042F480724FF0004C4CEA00204CEA0121F5
:103A700002EB0302A0FB0113A2F50002002918BF0C
:103A800043F001035B0028BF4FEA330342EB2242BD
:103A90005FEA132C4CEBC2502EBFBCEB436FB2F568
:103AA0007C0F70474FEA036CBCF1004F08BF20F059
:103AB0000100B2F57C0F38BF70470BD582F0FF02D2
:103AC00012F5803FC8BF704700F1C040D8BF00F07A
:103AD0000040704700F5000C5FEA4C0C48BF70478F
:103AE000B0F1C04000F073B890EA010F0CEAD113B6
:103AF00048BF42F48072624538BF634504D280EA11
:103B0000010000F00040704710B500F01AF800BF47
:103B10008900013E00F007B800F009B85FEA410CE7
:103B20005FEA1C6C08D080EA010000F050B85FEA40
:103B3000400C5FEA1C6CF6D14FF00040A0F580000D
:103B400070470EF1020E2EF0030E5EF8044B244275
:103B500004D44FEA4102B2F17F4F11D84FEA40033B
:103B6000B3F17F4F0CD80ED14FEAD07CB2F17F4F2A
:103B70000CEB4C0C0CF1020C08BF4CEBD17C04E0BC
:103B80004FF0080C01E04FEAD17C0CEB4C0324FA17
:103B900003F404F00704B4F1040C06D20EEB840C19
:103BA000BDE810404CF0010C6047DFE80CF007085E
:103BB00002024FF00040A0F5800010BD0846420010
:103BC00018BFD2F1807288BF00F0004010BDFF2105
:103BD00041EAD050C005704751EA000C00F1138053
:103BE0001CF5000F58BFBCF5000F01D4814270478F
:103BF00007D711F5000F58BF10F5000F15D48142FB
:103C00007047894270471CF5000F04D5BCF5000FC2
:103C1000F7D5884270474FF0807C1CEB410F38BFCE
:103C20001CEB400F01D28842704780EA010081EA14
:103C3000000180EA0100FFF7F8BE000090EA010FE2
:103C400048BF81F000413FF526AE421A04D882F009
:103C50000042A0EB020011444FEAD0524FF07F4CDB
:103C60001CEA410FA2EBD15318BF9CEA026F4AD065
:103C70004FF0004C4CEA00204CEA012121FA03FCF1
:103C8000B0EB0C0C0FD412F0FE0F36D05FEA4C00F4
:103C90001DD5001240EBC25038BF70471CF03F0FDB
:103CA00018BF70470BE0A2F101025FEA1C2040EB55
:103CB000C25038BF70471CF07F0F18BF7047C3F168
:103CC0002003994014BF401E20F001007047800877
:103CD0004FEA122308BF7047B0FA80FCA2EB0C0237
:103CE000CCF1280C60FA0CF093EA122F04BF00EB21
:103CF000C25070474FEAC3707047130A5FEADC1086
:103D000008BF7047F6E79CEA026F04D010EA5C0F28
:103D100008BF0020704710B5FFF713FF40DFF63EE5
:103D200081F000407047FCF74ABC0CF00F03092BF0
:103D300008BF082000F051800A2B0BD0082B18BFB9
:103D4000704708BF1CF0400F0AD04FF000004FF042
:103D5000000170471CF0400F18BF4FF00040704743
:103D60001CF0100F08D020F0704300F07F4242EAB0
:103D7000D3014FEA4370704700F0604021F07F426A
:103D800042EA000201F07F4040EA727070474FF053
:103D9000FF0212EAD0521CBF92F0FF038B42C2BF57
:103DA000D14200EBC1507047002A0AD0002B0BD043
:103DB000002900F00040A4BF40F0FE4040F40000A5
:103DC000704700F00040704743024FF00B0C18BFE3
:103DD0004CF0806C7FF4BAAD70471CF4801F11D09A
:103DE0001CF4E02F03D06FEACC31490070474FF04C
:103DF0004050EFF3008222F0704242EA000282F368
:103E0000008870474FF0000070470000000000007D
:103E100000000000000000000000000000000000A2
:103E20000000000000000000010000000100000090
:103E30000E000000010202030405060708090A0B30
:103E40000C0D0E0F10100000000000000000010219
:103E50000304060708090000000001020304000033
:103E600002400000000000A000000000054000002B
:103E7000000000C8000000000C4000000000409C52
:103E800000000000194000000020BCBE000000003F
:103E900034400000BFC91B8E00000004B540000084
:103EA000504BCFD06607E2CF010000006C4100000C
:103EB0003E8251AADFEEA73401000000D942000083
:103EC000DCB5A0E23A301F97FFFFFFFFB4450000CA
:103ED000FD25A0C8E9A3C14FFFFFFFFFFF3F000082
:103EE0000000008000000000FF3F00000000008094
:103EF000000000003A7474003A7474003A7474005C
:103F00003C3F0008000000202C00000028010008B1
:103F1000683F00082C0000208408000044010008CD
:103F20001C00000043000000F8FFFFFF0C00000031
:103F30000E0000000F0000002E0000000000000036
:103F40000000000000000000000000000100000070
:103F5000100000000000000000127A0000000000C5
:083F6000000000000000000059
:04000005080000ED02
:00000001FF
