:020000040800F2
:10000000E8C30020290200087B380008D531000829
:10001000793800081F040008635800080000000039
:100020000000000000000000000000008B38000805
:100030003905000800000000893800088D380008E4
:10004000430200084302000843020008430200087C
:1000500043020008430200083B0500084302000871
:100060004302000841050008470500084302000854
:1000700095040008A104000843020008AD0400082C
:10008000430200084302000843020008430200083C
:100090002104000829040008430200084D05000857
:1000A000430200084302000843020008430200081C
:1000B00043020008430200084139000843020008D7
:1000C00043020008430200084302000843020008FC
:1000D00043020008ED3D000843020008F93D000816
:1000E00043020008430200084302000843020008DC
:1000F00043020008430200084302000843020008CC
:1001000043020008430200084D390008430200087A
:1001100043020008430200084302000843020008AB
:1001200043020008B9040008C5040008D10400080F
:10013000430200084302000843020008430200088B
:10014000350400083D040008430200087D3800081B
:10015000DD040008E9040008F5040008053E000875
:10016000430200084302000843020008430200085B
:100170004302000843020008430200080000000098
:10018000430200084302000800F002F800F03CF8C7
:100190000AA090E8000C82448344AAF10107DA45E2
:1001A00001D100F031F8AFF2090EBAE80F0013F0F8
:1001B000010F18BFFB1A43F0010318471457000042
:1001C00034570000103A24BF78C878C1FAD85207D3
:1001D00024BF30C830C144BF04680C6070470000C1
:1001E0000023002400250026103A28BF78C1FBD840
:1001F000520728BF30C148BF0B6070471FB505F0DC
:1002000055FB1FBD10B510BD00F0CFF81146FFF72C
:10021000F5FF05F027FB00F0EDF803B4FFF7F2FF60
:1002200003BC00F0F5F80000094880470948004782
:10023000FEE7FEE7FEE7FEE7FEE7FEE7FEE7FEE796
:10024000FEE7FEE704480549054A064B70470000F3
:100250003139000889010008E8230020E8C30020A4
:10026000E8730020E873002053EA020C00F0698074
:100270002DE9F04B4FF00006002B1FBFB3FA83F5BA
:1002800003FA05F424FA05F65E4012BF1643B2FAEB
:1002900082F502FA05F4C5F120051EBF22FA05FC1D
:1002A00044EA0C04203556EA044C4FEA144418BFC3
:1002B000641C4FF000084FF00009904271EB030CF2
:1002C00039D3002919BFB1FA81F701FA07F6B0FA5C
:1002D00080F700FA07F6C7F120071EBF20FA07FCD7
:1002E00046EA0C062037B6FBF4FCA7EB0507103FE7
:1002F00007F01F0BCBF120062CFA06F60CFA0BFBCD
:1003000044BFB3460026202FA4BF5E464FF0000B2B
:100310005BEA060C08BF4FF0010B19EB0B0948EB29
:100320000608ABFB027C06FB02CC0BFB03CCC01B1C
:1003300071EB0C01C1E70B46024641464846BDE859
:10034000F08B13B54FF000004FF00001AFF30080C9
:10035000BDE81C4070474FF0000200B513469446BC
:100360009646203922BFA0E80C50A0E80C50B1F10D
:100370002001BFF4F7AF090728BFA0E80C5048BF21
:100380000CC05DF804EB890028BF40F8042B08BFBF
:10039000704748BF20F8022B11F0804F18BF00F8BB
:1003A000012B7047704770477047754600F02CF876
:1003B000AE4605006946534620F00700854618B052
:1003C00020B5FFF73FFFBDE820404FF000064FF09B
:1003D00000074FF000084FF0000BAC46ACE8C00936
:1003E000ACE8C009ACE8C009ACE8C00921F00701DD
:1003F0008D46704710B50446AFF300802046BDE837
:100400001040FFF70ABF00000048704700010020BD
:1004100001491820ABBEFEE7260002007047FEE748
:10042000034800F099B800BF014800F095B800BF3C
:10043000C41B0020034800F08FB800BF014800F043
:100440008BB800BFEC1B00200020704700207047D5
:1004500010B50E4C05490022204603F089FE0449E0
:10046000204603F077FE002010BD00BFE8100020FA
:10047000E808002010B5054C0146204603F06AFE4E
:10048000204603F042FE002010BD00BFE818002007
:1004900000207047014800F0DBBA00BFA003002035
:1004A000014800F0D5BA00BF60010020014800F00B
:1004B000CFBA00BF80020020014800F0C9BA00BFD7
:1004C00000040020014800F0C3BA00BFC0010020B2
:1004D000014800F0BDBA00BFE0020020014800F072
:1004E000B7BA00BF20020020014800F0B1BA00BF37
:1004F00060040020014800F0ABBA00BF40030020B8
:1005000001686FF00F02182352FA81F2B2FBF3FC7C
:1005100007A35F2A13F80CC040F2FF3321EA03015E
:1005200088BF41F00401C0E9161C0846704700BFAF
:1005300000061016000610167047012000F0F4BBEC
:10054000082000F0F1BB102000F0EEBB202000F0EE
:10055000EBBB72B6FEE770472DE9F84F0446206802
:100560004669D0F804908768D0F80CB0D0F810A095
:10057000D0F8188016F0010F01D1002549E0F907E5
:100580000ED001218160B80707D478071DD4380741
:1005900021D4204600F001FA02E0204600F0FEF9E6
:1005A0000025F8051CD520684FF480718160B805DE
:1005B00007D478050CD4380510D4204600F0EFF9A4
:1005C0000EE0204600F0ECF90AE04FF40065E8E7A1
:1005D00045F4005504E04FF48055E2E745F48045CA
:1005E000F80316D520684FF480318160B80307D432
:1005F000780309D438030AD4204600F0D2F908E081
:10060000204600F0CFF904E045F4004501E045F450
:100610008035300707D51BF010001FBF2068102160
:10062000C16045F40075700708D51BF0080005D0BF
:1006300020680821C160204600F0AAF9B00707D55C
:100640002068C06810F0030F1CBF204600F0A1F91D
:10065000700607D51AF010001FBF20681021016135
:1006600045F48065B00608D51AF0080005D020686A
:1006700008210161204600F08DF9F00607D52068B9
:10068000006910F0030F1CBF204600F084F9B0038E
:1006900008D519F0100005D02068102141602046CF
:1006A00000F07AF9F00308D519F0080005D02068A9
:1006B00008214160204600F076F9300444D55FEA15
:1006C00049703ED506F4807018F0020F08EA102039
:1006D00040EA0500014618BF41F0020116F4007F10
:1006E00008BF014618F0040F0D4618BF45F0040579
:1006F00016F4806F08BF0D4616F4006F18BF18F08F
:1007000070001ED010380009052815D8DFE800F069
:100710000306090C0F1245F008050DE045F0100521
:100720000AE045F0200507E045F0400504E045F00B
:10073000800501E045F480752068816921F0700131
:1007400081612068042141603DB1606A2843606294
:100750002046BDE8F84FFFF7FEBEBDE8F88FB0B504
:100760000446C4B194F8200010B9204600F076F891
:100770002068016841F00101016000F0ADFB054611
:100780002068416811F0010F07D100F0A5FB401B64
:100790000B28F5D312E00120B0BD016821F0020161
:1007A000016000F099FB05462068416811F0020FD6
:1007B0000BD000F091FB401B0B28F5D3606A05219C
:1007C00040F400306062012044E0217E026822F0A3
:1007D0008003012908BF42F080030360617E026844
:1007E00022F04003012908BF42F040030360A17ECC
:1007F000026822F02003012908BF42F020030360B1
:10080000E17E026842F01003012908BF22F01003C4
:100810000360217F026822F00803012908BF42F02B
:1008200008030360617F026822F00403012908BF06
:1008300042F004030360D4E901C2D4E903356169DD
:100840001A432A431143ACF101021143C161002054
:100850000121606284F82010B0BD000010B586B0A0
:10086000044601A81421FFF776FD22684348444955
:10087000444B9A423AD0444B9A427CD1434A136843
:100880005C1C002B14600AD1002200920A6942F01D
:1008900000720A610A6902F000720092009A002256
:1008A00000F5006000920B6843F008030B60022320
:1008B000096801F008010091009903210191CDE937
:1008C000023204910921059101A900F037FA1420A0
:1008D0000021002200F0B8FC142000F0A7FC152035
:1008E0000021002200F0B0FC152042E04FF0000C87
:1008F000CDF800C00B6943F080630B610B6903F016
:1009000080630093009B214B1C68621C002C1A60C2
:100910000AD1CDF800C00A6942F000720A610A6982
:1009200002F000720092009ACDF800C00A6842F00E
:1009300002020A60096801F0020100910099602139
:1009400001910221CDE9021C0321049109210591A5
:1009500001A900F0F3F940200021002200F074FC0E
:10096000402000F063FC41200021002200F06CFCDC
:10097000412000F05BFC06B010BD00BF0004024047
:10098000303802400068004000640040C00400208D
:10099000704770477047704770477047704770479F
:1009A000704770477047704770B50446A66D00F0F9
:1009B00093FA054694F83500022829D12068016889
:1009C00021F016010160416921F080014161216C33
:1009D00009B9A16C19B1016821F008010160016831
:1009E00021F00101016005E000F076FA401B0528C6
:1009F00012D82068006810F0010FF5D1E06D3F219A
:100A000001FA00F0B060012084F83500002008E011
:100A100080206065012004E020206065032084F8C8
:100A200035000021C0B284F8341070BD90F8351044
:100A300002291FBF8021416501207047052180F8F0
:100A400035100068016821F0010101600020704745
:100A5000F8B504460020082100905C480568D4E9F8
:100A600016603768814039420DD02268136813F050
:100A7000040F08D0136823F004031360B160616DA4
:100A800041F00101616501218140394209D02268AC
:100A9000526912F0800F1FBFB160616D41F0020119
:100AA000616504218140394209D02268126812F040
:100AB000020F1FBFB160616D41F00401616510213B
:100AC0008140394219D02068026812F0080F14D012
:100AD000B1600268016812F4802F06D1C9055EBFBB
:100AE000016821F00801016001E0080301D4216CD4
:100AF00000E0A16C09B120468847E16D202000FA92
:100B000001F23A423CD02068036813F0100F37D04E
:100B1000B26094F835300268052B19D122F0160224
:100B20000260426922F080024261226C0AB9A26C22
:100B30001AB1026822F0080202603F208840B060CB
:100B4000012084F83500002084F83400216D39E05C
:100B5000016852030CD4C9050ED4016821F01001BC
:100B60000160012084F83500002084F8340003E09F
:100B7000080301D4616C00E0E16B09B120468847AD
:100B8000606D10B3606D10F0010F1AD005214FF4A5
:100B9000165084F83510B5FBF0F021680A6822F091
:100BA00001020A60009A01328242009203D80A6868
:100BB00012F0010FF6D1012084F83500002084F8EE
:100BC0003400E16C09B120468847F8BD28000020B8
:100BD0002DE9F041044600F07FF90546002C4DD088
:100BE000022084F83500002084F834002068016871
:100BF00021F00101016005E000F06EF9401B0528BD
:100C00003ED82068016811F0010FF5D101683A4A19
:100C1000D4E9013504F10C0801EA020C98E8C2019C
:100C2000D4E9072E43EA0C032B43194331433943DC
:100C300041EA08011143626A41EA0E03042A23D102
:100C4000D4E90B1719433943016050F8141FD4E954
:100C50000A5E21F00701BEF1000F41EA020145EAF8
:100C6000010C18D0B8F5005F26D0B8F1000F38D1CC
:100C7000022D39D0012D2ED0B5B30CE0012218E0A1
:100C800003232021032222E0036050F8141F21F0E7
:100C9000070141EA020CC0F800C02046FFF730FC13
:100CA000E16D3F22012302FA01F10022816000215F
:100CB0000DE0D0B2BDE8F081032DECD80123402136
:100CC00002EB85060122DFE805F0020F02066165EE
:100CD00084F83530EDE7AEF1C071B1FA81F1490920
:100CE00004E0032D04D3D6D1CEF300610029D2D085
:100CF000012340210122EAE73F8010F070B505464C
:100D00006E1C00F0E9F804461EB1754800780544F1
:100D100001E04FF0FF3500F0DFF8001BA842FAD3E6
:100D200070BD00BF7047000003490A6802421CBF43
:100D30000860FFF7F7BF7047143C01402DE9FC4FF6
:100D40005B4A08274FF0010E4FF0030A4FF0000BEB
:100D50004FF00008904208BF0727564A02444FEA66
:100D6000B223072B38BF4FEAB22700970027102F76
:100D700008BFBDE8FC8F0A680EFA07F4224200F0B3
:100D800090804B6803F00302551E012D15D8D0F852
:100D900008C00AFA08F52CEA050CCD6805FA08F532
:100DA00045EA0C058560C3F3001505FA07FC4568A4
:100DB000A54345EA0C05456001E0032A1DD0C6683D
:100DC0000AFA08F5022A26EA05068D6805FA08F5EA
:100DD00046EA0506C66010D1374D0BF01C020F2302
:100DE000934005EA57060644356A25EA03030D6970
:100DF00005FA02F21A4332624B68056803F00302F7
:100E00000AFA08F613F4403F02FA08F225EA060649
:100E100042EA0602026044D000220192274A136887
:100E200043F480431360126802F48042019227F079
:100E30000302234B019E234D0BF00C0602EB03092A
:100E40000F2259F805C002FA06FE009A2CEA0E0C91
:100E500002FA06F64FF0010E46EA0C0649F8056064
:100E60009A684E68A24316F4801F18BF224316F4F6
:100E7000001F9A60144A156825EA040518BF254327
:100E800016F4003F15605A6822EA040218BF224394
:100E900016F4803F5A601A6822EA040218BF2243FF
:100EA0001A600BF1040B08F1020801375FE700BF7D
:100EB000001C02400000FEBFFCFFFF7F44380240E0
:100EC000003C014008FCFFFF0C3C0140002A08BF29
:100ED0000904816170470000C4488068704700BF02
:100EE00000000020B0B504462CB394F83D0028B9AA
:100EF000002084F83C00204600F0ACF8242084F860
:100F00003D002068016821F001010160016841F4A1
:100F100000410160016821F40041016001F08CF89A
:100F200065684849484A8D423CBF48F28042C0F259
:100F30001E02904201D20120B0BD4449B0FBF1F243
:100F4000216801384B6823F03F0313434B600B6A61
:100F500023F03F0C3B4B9D4221BF4FF4967312FB95
:100F600003F24FF47A73B2FBF3F201324CF6FF73E3
:100F700042EA0C020A62CA6922EA030C344A954228
:100F800009D86A00B0FBF2F001306FF31F3004287B
:100F900098BF04202DE0D4F808E0BEF1000F08D07F
:100FA000192204236A43B0FBF2F2013263F31F32C9
:100FB00006E005EB4502B0FBF2F201326FF31F329F
:100FC00012050BD0BEF1000F0AD019226A43B0FB04
:100FD000F2F00422013062F31F3008E0012008E043
:100FE00005EB4502B0FBF2F001306FF31F3040F427
:100FF000004040EA0C00C8610868D4E9072320F0EB
:10100000C000104348F2FF321843086088689043DC
:10101000D4E90323184310438860C868D4E9052342
:1010200020F0FF0010431843C860086840F001003A
:10103000086000202021206484F83D10206384F89B
:101040003E00B0BDA186010000093D0040420F00F6
:10105000A08601002DE9F04F87B0044602A81421B4
:10106000FFF779F920683E4EB04275D1002102ADFC
:101070004FF012094FF0010A4FF0030B4FF0040834
:101080000191384F386840F004003860386800F04B
:1010900004000190019801912946386840F0010050
:1010A0003860386800F00100019001984FF400703A
:1010B000029006F5D630CDF80C90CDF810A0CDF802
:1010C00014B0CDF81880FFF739FE4FF4807002A9F4
:1010D00081E8010E06F5D2302946CDF818804FF090
:1010E0000008FFF72BFECDF804801F4D4FF48069F8
:1010F0001421386940F40000386138694FF0C06746
:1011000000F4000001900198184E05F1140085E8E4
:10111000C001C5E90389FFF71EF92846FFF758FD0E
:1011200008B1FFF716FAA563AC63114D06F1300064
:101130004021C5E9000705F1080080E8020305F138
:1011400014001421FFF707F92846FFF741FD08B105
:10115000FFF7FFF96563AC6307B0BDE8F08F00BF30
:10116000005C0040303802406001002040600240D6
:10117000800200201D480178826811448160704718
:1011800080B50B48016841F400710160016841F4C9
:1011900080610160016841F480710160032000F00A
:1011A0007FF80F2000F006F800F024F8002080BD42
:1011B000003C024070B50D4E04464FF47A71307811
:1011C000B1FBF0F00A490968B1FBF0F001F030FA28
:1011D00001250F2C08D838B94FF0FF3021460022E6
:1011E000002500F031F87460284670BD0000002032
:1011F0002800002082B0002001900B494A6842F488
:1012000080424A604A6802F480420192019A00904A
:10121000086840F080500860086800F08050009036
:10122000009802B0704700BF40380240002808DB39
:1012300000F01F010122400902FA01F1014A42F8BF
:101240002010704700E100E0B0B5144C1A4D00F0DA
:101250000F03B0F1FF3FA3F104032B4403F10C0390
:10126000C8BF03192868C0F30220051DC41E80F002
:101270000700072D4FF0010538BF0024042828BFC0
:10128000042005FA00F00138084005FA04F10F3196
:10129000A0401140084300011870B0BD00E400E018
:1012A00005494FF6FF030A681A4060F30A22034813
:1012B00010430860704700BF0CED00E00000FA0525
:1012C00070470068416200207047D0F800C00029D4
:1012D000DCF824001BD080B5DCF82830A1F1010E29
:1012E00000EB1343002006E00CEB81010130D1F844
:1012F000041103EB1143C1B28E45F5D80CEB8E00FF
:1013000043EA0241C0F80411BDE8804003E040EA2E
:101310000240CCF8280000207047D0F8E00403F029
:1013200095B901EBC10200EB8202D0F8E004126A29
:1013300003F0F4B801EBC10200EB8202D0F8E00444
:10134000D2F8602203F043B9D0F8E00403F080B98A
:1013500001F00F0211F0800F02EBC20200EB8203DA
:1013600003F1140208BF03F515720068114604F07A
:10137000ADB810B50A46044602F00F0012F0800F17
:1013800000EBC00104EB810303F1140108BF03F576
:101390001571C2F3C0124A70087094F894040128C1
:1013A00001D1022008E0012084F89404206803F0B1
:1013B0001DFE002084F89404C0B210BDB0B50446F0
:1013C0000A46217902F00F00884201D901251FE069
:1013D00000EBC00112F0800F4FF0000504EB810319
:1013E00003F1140108BF03F51571C2F3C0124A706E
:1013F0008D70087094F89404012801D1022507E04B
:10140000012084F89404206803F054FF84F8945475
:10141000E8B2B0BD01F00F0101EBC10100EB8100AA
:10142000D0F86802704770B50C4606466FF3DF22AD
:1014300004F00F0014F0800C00EBC00106EB8105F6
:1014400005F1140108BF05F51571C4F3C015BCF111
:10145000000F4D7008708A600B7118BF4883022B13
:1014600004BF0020487196F89404012801D102209D
:1014700008E0012086F89404306803F0F9FC0020AD
:1014800086F89404C0B270BD80B501F00F0E0EEB6B
:10149000CE0100EB810C0021CCE99823CCF8681236
:1014A0008CF855128CF854E20CF515718379012BE8
:1014B00008BFCCF870221A46006803F031FF002004
:1014C00080BDB0B5044601F00F0501202279954298
:1014D0002AD801EBC10211F0800F04EB820305EB67
:1014E000C50204EB820202F1140208BF03F5157273
:1014F000C1F3C01151709070157094F894040128D4
:1015000001D1022010E00120114684F894042068E3
:1015100003F0E9FE2DB9A179206804F29C4203F0A2
:101520009DFE002084F89404C0B2B0BD80B501F0E7
:101530000F0E0EEBCE0100EB810C0021CCE908234D
:10154000CCF8281001218CF81510614601F814EF31
:101550008379012B08BFCCF830201A46006803F0CD
:10156000DFFE002080BD00002DE9F04F89B08146EC
:10157000D9F80040204604F048F810B109B0BDE8A1
:10158000F08FD9F8000004F06CF80028F6D0D4F8F9
:101590000808C0F30D20C9F8D404D9F8000004F0FD
:1015A00060F80146D9F8000011F0020F1EBF416932
:1015B00001F00201416104F50061049104F051F869
:1015C0000146D9F80000069411F0100F40D081694F
:1015D00021F010018161246AC4F3434004F00F0537
:1015E00006281DD002282CD147F6F070044028D0E0
:1015F00005EBC50009EB8005D5F86012C4F30F12A6
:10160000069804F032F8D5F8600200EB1410C5F823
:101610006002D5F8680200EB1410C5F8680210E00B
:10162000069809F29C41082204F01FF805EBC5005A
:1016300009EB8000D0F86812C4F30A121144C0F814
:101640006812D9F80000816941F010018161069C9F
:1016500004F007F810F4002FCDF8209000F0DA80A5
:10166000D9F8000003F0DCFF064609F29C4009F5BA
:101670001D7A4FF430684FF0000B0590C7E0F0077B
:1016800000F0BA80D9F800005FFA8BF1079103F0FF
:10169000E0FF0746E24817F0010F814657D004EB00
:1016A000080001218160089D286808EB0001036C97
:1016B0008A68AD79012D24D110072DD4900644D429
:1016C00012F0280F43D14846834202D312F400405F
:1016D00028D1DAF800000969B8F5306F6FF3DF41FF
:1016E000A0EB01004AF80C0C2AD1089AD2F8641237
:1016F000002900F08980D2F860120844C2F8600224
:101700001EE04D46FF35AB420FD110040AD49006BF
:1017100044BF2020886013E04846834217D312F468
:10172000004014D04FF4004010E0B8F5306F07D1FE
:101730000899D1F8641219B90021059A03F08EFDB9
:10174000DDE90710FFF7F6FD01E02020886038078B
:1017500023D504EB08000821A9F101048160089851
:10176000016808EB01000D6C816811F4004F04D092
:10177000A54284BF4FF400418160089800F081FBCE
:10178000A542069C09D908988079012805D10898B6
:10179000059A0121006803F061FDF80642BF04EBE1
:1017A000080010218160B80717D5606910F0800F1C
:1017B0001FBF0499486840F4806048601AF81D0C07
:1017C000012806D100200AF81D0CDDE9071000F001
:1017D0007FFA04EB080002218160B80642BF04EBE7
:1017E000080020218160B804DDF8209042BF04EB9E
:1017F00008004FF4005181600AF1240A08F1200822
:1018000076080BF1010B02E01068012195E7002E2C
:101810007FF435AFD9F8000003F023FFDDF810A006
:1018200010F4802F00F0D080D9F8000003F0F1FE12
:10183000054609F29C400023029004F510600590D3
:10184000BFE0E80700F0BA80D9F80000DFB20793E4
:10185000394603F0ECFE044614F0010F2AD0079B32
:10186000DAF83410012203F00F0002FA00F021EA46
:101870000000CAF83400059800EB4310826099F824
:101880000600012812D103EBC300002B09EB8000F6
:10189000D0E907121144016208D1D9F8240028B90F
:1018A000D9F80000029A012103F0D8FC48463946D5
:1018B000FFF737FD079B200741BF059800EB43105A
:1018C00008218160E00641BF059800EB431010211C
:1018D0008160600641BF059800EB431040218160A4
:1018E000A00718D50698194603F05BFE079B03EB8B
:1018F000C30009EB800010F8171F012906D1002151
:1019000001704846394600F0DFF9079B059802212F
:1019100000EB43108160200650D503EBC30009EBB8
:10192000800BD84658F8240F464656F8042F9042AC
:1019300044D30395851A5BF81C1FD9F800408D42EB
:101940000BF1040988BF0D4604EB431101F5106A41
:1019500019E0089DDBF80030D9F80010AD7900954A
:10196000851A20463A469D4288BF1D46ABB203F019
:1019700063FFD9F800002844C9F800003068421914
:101980003260D8F80000DAF8181030B1904204D96B
:10199000EB1C89B29B089942DBD2DDE9035ADDE9F1
:1019A000073990420AD803F00F00012101FA00F034
:1019B000D4F8341821EA0000C4F83408069C6D08F5
:1019C0000133002D7FF43DAFD9F8000003F049FE4C
:1019D000002802DBD9F800001AE0DAF8040020F051
:1019E0000100CAF8040099F8CC04012807D10020AE
:1019F000002189F8CC044846FFF762FC02E0484623
:101A000000F023FAD9F80000416901F0004141617A
:101A100003F027FE10F4006F04D1D9F800000FE0A6
:101A20000B30544FDAF8080010F0010F1CBF484685
:101A300000F050FAD9F80000416901F400614161F9
:101A400003F00FFE10F4805F02D1D9F800005BE0D4
:101A5000D4F80408102120F00100C4F80408D9F8D3
:101A6000000003F09EFD99F8041004F510604FF695
:101A70007F3214E082600139036823F400130360AD
:101A8000C0F80822D0F8003223F40013C0F8003266
:101A9000D0F8003243F00063C0F800322030002953
:101AA000E8D1DAF81C0040F00110CAF81C0099F8DF
:101AB0000F0040B1DAF8840040F00B00CAF884004F
:101AC0000AF1440008E0DAF8140042F22B0108435E
:101AD000CAF814000AF11000016809F29C4241F0B2
:101AE0000B010160DAF8000020F4FE60CAF8000083
:101AF00099F80610D9F8000003F0B0FBD9F80000FF
:101B0000416901F48051416103F0ABFD0146D9F810
:101B1000000011F4005F1AD003F0E8F9D9F80000D2
:101B200003F064FD89F80700D9F8004000F080FA5E
:101B300099F807200146204603F006FE484600F0CB
:101B40006FF9D9F80000416901F40051416103F0D7
:101B500088FD10F0080F02D1D9F8000008E04846CF
:101B600000F077F9D9F80000416901F008014161FE
:101B700003F077FD10F0800F17D00698012440F293
:101B80007B250146886920F08000886109E019F80A
:101B90000500012803D1E1B24846FFF7D9FB2435FF
:101BA000013499F804008442F1D3D9F8000003F01D
:101BB00058FD10F4801F02D1D9F8000022E00698E9
:101BC00009F13B040126012700F5126510E02868A1
:101BD000B0F1FF3F09DC6078012806D147F08000B2
:101BE0002670C1B24846FFF7B3FB243420350137D5
:101BF00099F804008742EAD3D9F80000416901F45A
:101C000080114161069C03F02CFD10F4001F02D1ED
:101C1000D9F8000032E099F8042009F51F7004F5A6
:101C20003261012301271AE00E68B6F1FF3F13DC91
:101C30000578012D02BFD9F8D45485EA16465FEA2B
:101C4000C67609D100F8013CA66946F08006A66177
:101C5000666916F0800F05D0243020310137974295
:101C6000E2D305E0DAF8040040F40070CAF804009A
:101C7000D9F80000416901F40011416103F0F1FC61
:101C800010F0804F02D1D9F8000008E04846FFF775
:101C900044FBD9F80000416901F08041416103F043
:101CA000E0FC10F0040F3FF469ACD9F80000446880
:101CB00014F0040F04D04846FFF746FBD9F80000A3
:101CC00041682143416059E4D0F8E00402F017BDB7
:101CD000D0F8E00402F02BBDBCB50446002C50D077
:101CE000256894F8950428B9002084F894042046C7
:101CF00000F054F80320B5F1A04F84F8950404BF18
:101D00000020A071206803F0A3FA94E80F00257C5E
:101D1000009503F0FBF888BB20680021002503F044
:101D2000D0FC58BB20794FF0010C00220DE0D90007
:101D300051FA82F104EB810181F815C00A75CB8557
:101D40000D76C1E907554D620132D3B28342EED31D
:101D500004F515710022002307E04A700B700A7128
:101D6000C1E902220A61243101339842F5D194E895
:101D70000F00257C009503F097F930B1022084F81C
:101D800095040125284602B0B0BD002501206574E8
:101D900084F89504206803F079F9F3E7B0B586B0CC
:101DA000044601A81421FEF7D6FA2068B0F1A04F2E
:101DB0002FD1002501A90095174C206840F00100A3
:101DC0002060206800F00100009000984FF4C0509F
:101DD00001900220CDE90205032004900A2005901D
:101DE0000E48FEF7ABFF60680021002240F0800043
:101DF00060600095606940F480406061606900F453
:101E00008040009000984320FFF71EFA4320FFF720
:101E10000DFA06B0B0BD00BF3038024000000240ED
:101E200010B50446E07928B1022818BFFEF791FBEF
:101E3000012100E00021D4F8E00402F0FEFCD4F817
:101E4000E004BDE8104002F0ADBCD0F8E00402F0C0
:101E5000DBBCD0F8E00402F0E1BC10B5044694F815
:101E60009404012801D1022009E0012084F894049F
:101E70006174206803F056FC002084F89404C0B21A
:101E800010BDD0F8E02400F29C41104602F0EABCFC
:101E900010B5044694F89404012801D1022016E0FC
:101EA0002068012184F89414C16811F0400F06D015
:101EB000617B012902BF816B41F48031816303F0B2
:101EC00047FB206803F0D4F8002084F89404C0B2E3
:101ED00010BD000010B50446D4F8E00402F014FD73
:101EE0002068D0F8001E41F00101C0F8001EE07A21
:101EF00020B10348016841F00601016010BD00BF38
:101F000010ED00E02DE9F04104468846002C00F079
:101F10008480444FD7F8000400F00700404507D202
:101F200087F80084D7F8000400F00700404574D11A
:101F3000206810F0020F11D0410742BFB96841F488
:101F4000E051B960010742BFB96841F46041B9602E
:101F5000B968A26821F0F0011143B960C0072BD025
:101F60006068811E022904D2396811F0007F0BD10C
:101F700053E0012804D1396811F4003F04D14CE04A
:101F8000396811F0020F48D0B96821F00301084305
:101F9000B860FEF7A1FF064641F28835B86861686F
:101FA00000F00C00B0EB810F06D0FEF795FF801B10
:101FB000A842F3D9032031E0D7F8000400F007006D
:101FC000404507D987F80084D7F8000400F00700DF
:101FD000404522D1206810F0040F05D0B968E268AE
:101FE00021F4E0511143B960000706D5B8682169B2
:101FF00020F4604040EAC100B86000F037F8B968EA
:10200000094AC1F30311515CC840154908600748EB
:102010000068FFF7CFF8002000E00120C0B2BDE863
:10202000F08100BF00380240B658000804000020CC
:102030000B480068704700BF09480B4A006809490F
:102040000968C1F38221515CC84070470448064AC0
:10205000006804490968C1F34231515CC8407047C7
:102060002800002008380240C658000810B5F04C7F
:10207000606800F00C011248082904D0042904BF4C
:10208000104810BD10BD226820680E49002310F4CE
:10209000800F02F03F0204BF42F20041C0F2F4019F
:1020A0002068C0F38810A1FB0001FEF7DDF821686D
:1020B0000222C1F3014102EB4101B0FBF1F010BD7E
:1020C0000024F400001BB7002DE9F84F8246BAF156
:1020D000000F00F064819AF80000D44ED44FC0077E
:1020E0004AD0786800F00C00042807D1306810F45A
:1020F000003F41D0DAF80400F0BB50E1786800F00E
:102100000C00082803D1386810F4800FEED1DAF8FB
:102110000480B8F5803F06D03068B8F5A02F13D101
:1021200040F480203060306840F480303060FEF74A
:10213000D3FE0546306810F4003F1DD1FEF7CCFEFB
:10214000401B6428F6D9C3E020F48030306030684A
:1021500020F480203060FEF7BFFE0546B8F1000F86
:10216000E8D1306810F4003F06D0FEF7B5FE411B01
:1021700003206429F5D913E19AF80000AD4C8007DB
:1021800031D5786810F00C0F1CD0786800F00C0086
:10219000082804BF386810F4800F13D0DAF80C0058
:1021A000002800F0978001202060FEF795FE05468C
:1021B000306810F0020F0ED1FEF78EFE401B022891
:1021C000F6D985E0306810F0020F1CBFDAF80C0079
:1021D000012840F0E4803068DAF8101020F0F800B0
:1021E00040EAC10030609AF80000000722D5DAF812
:1021F000140078B10120C4F8800EFEF76DFE05468C
:10220000386F10F0020F15D1FEF766FE401B022852
:10221000F6D95DE00020C4F8800EFEF75DFE0546AD
:10222000386F10F0020F05D0FEF756FE401B022853
:10223000F6D94DE09AF80000A34640077CD5F86B2C
:102240004FF0000810F0805F0CD1CDF800804FF007
:102250000108F86B40F08050F863F86B00F0805094
:10226000009000987448305810F4807F12D1724862
:10227000315841F480713150FEF72EFE05466E480C
:10228000305810F4807F05D1FEF726FE401B02284F
:10229000F5D91DE0DAF80890B9F1010F06D0F86E13
:1022A000B9F1050F27D140F00400F866F86E40F050
:1022B0000100F866FEF710FE054641F28834F86E1C
:1022C00010F0020F31D1FEF707FE401BA042F6D9F5
:1022D000032065E000202060FEF7FEFD0546306823
:1022E00010F0020F3FF47FAFFEF7F6FD411B032015
:1022F0000229F4D954E020F00100F866F86E20F0CD
:102300000400F866FEF7E8FD0546B9F1000FD4D1E8
:1023100041F28839F86E10F0020F06D0FEF7DCFDAE
:10232000411B03204945F5D93AE0B8F1010F02BF3E
:10233000F86B20F08050F863DAF81840002C72D067
:10234000786800F00C0008282ED1012C27D03868BE
:10235000DAF81C1000F480028A4220D1DAF820104A
:1023600000F03F028A421AD1DAF8242047F6C07101
:102370000140B1EB821F12D1DAF828104FF6FF723C
:10238000C903914300F44032A1F580318A4206D15D
:10239000DAF82C1000F07060B0EB016F43D0012030
:1023A000C0B201B0BDE8F08F0020CBF86000FEF7AE
:1023B00093FD0546022C0BD15C46306810F0007F7F
:1023C00011D0FEF789FD411B03200229F5D9E7E76B
:1023D000306810F0007F26D0FEF77EFD411B032001
:1023E0000229F5D9DCE70AF11C052FCD0843D903F2
:1023F00040EA82104FF6FF72914340EA0560A1F572
:1024000080310843386001202066FEF765FD0446F0
:10241000306810F0007F06D1FEF75EFD011B03203F
:102420000229F5D9BCE70020BAE700BF0038024016
:1024300004380240000047420038FEFF70B50446F1
:102440004CB1D4F824C0BCF1000F06D000212161AA
:1024500004F1140107E0012550E06168B1F5827FC5
:1024600003D004F11C0100220A6000254FF0000E89
:10247000A56294F8511041B9204684F8505000F0FC
:102480003FF8D4E909C101F4005E022284F851202A
:102490002268136823F040031360D4E90130D4E9C3
:1024A000031603F4827300F4044001F4006118433E
:1024B000084306F002010843616901F00101084385
:1024C000A16901F400731843E36903F0380318436A
:1024D000236A03F08003184340EA0E0010600420D2
:1024E00000EA11400CF0100108435060D06920F45C
:1024F0000060D0610120656584F85100284670BDF8
:102500002DE9F04F87B0044602A81421FDF723FF00
:102510002068424FB8427DD1002602AD4FF002093B
:102520004FF0010A4FF003084FF0050B01963C48AD
:10253000416941F480514161416901F48051019147
:1025400001990196016841F002010160016801F002
:102550000201019101990196016841F001010160B8
:102560002946006800F001000190019818200290AF
:1025700007F55440CDF80C90CDF810A0CDF814809C
:10258000CDF818B0FEF7DAFB802002A981E8010639
:1025900007F550402946CDE9058BFEF7CFFB214DCD
:1025A000214F4FF0C06A4FF480694FF440304FF034
:1025B000040BC5E9007AC5E90266C5E90496C5E9D8
:1025C0000666C5E9080B2846C5E90A862E63FEF7AC
:1025D000FFFA08B1FDF7BDFFE564AC63134D07F1E9
:1025E00018004021C5E9000A05F1080080E8420210
:1025F0004FF40030C5E90566EE61C5E9080B2846D1
:10260000C5E90A862E63FEF7E3FA08B1FDF7A1FFDC
:10261000A564AC6307B0BDE8F08F00BF0030014097
:1026200030380240C001002040640240E002002037
:10263000411E0020B0EB116F1CBF01207047044AFF
:10264000F023516003490B700721906011607047BF
:1026500010E000E023ED00E07047704790F83C2068
:10266000012A01D102211FE0B0B501F10805D1E92D
:1026700000CE3CCDC96923F47C5322F470521A4336
:102680002EF4F0431A432CF4E0431A4324F4C043DD
:102690001A432A4322F48042114302685164002104
:1026A00080F83C10BDE8B040C8B2704790F83C30AC
:1026B0000222012B35D010B5012380F83C3080F880
:1026C0003D200268D2F804E0D2F808C00C68B2F1EC
:1026D000804F2EF0700343EA04035360BDE81040BE
:1026E00014D05A4B9A421CBF594B9A420ED0594BA8
:1026F0009A421CBF0C4B9A4208D0574B9A421CBFBF
:102700000A4B9A4202D00A4B9A4204D149682CF0F3
:102710008003194391600121002280F83D1080F868
:102720003C20D0B2704700BF00180040004001407C
:102730000004014010B5044634B394F83D0028B9B4
:10274000002084F83C00204600F020F80220211DE3
:1027500084F83D00206801F0FFF8012084F846006D
:1027600084F83E0084F83F0084F8400084F841007B
:1027700084F8420084F8430084F8440084F845005B
:1027800084F83D00002010BD012010BDE0B50168B7
:102790002D482E4A914216D02D4A91421DD02D4AE5
:1027A00091422FD0D34A914241D0D34A914218BF8F
:1027B0008CBD00210191416841F0010141604068F8
:1027C00000F001003CE000210191016841F00201AC
:1027D0000160006800F0020032E000210022019157
:1027E000016841F0040101600121006800F004006B
:1027F000019001981E20FEF727FD1E20BDE88C40A9
:10280000FEF714BD002100220191016841F008018A
:1028100001600121006800F0080001900198322059
:10282000FEF712FD3220BDE88C40FEF7FFBC002110
:102830000191416841F400314160406800F400308A
:10284000019001988CBD00BF403802400004004058
:1028500000080040000C00400000014010B5044694
:10286000022094F83C20012A70D001224FF67773A1
:1028700084F83C2084F83D00206882689A43826096
:102880000A6812B3102A20D0202A18BF302A1CD080
:10289000402A21D0502A2BD0602A35D0B2F5005FD3
:1028A0003ED0B2F5805F4AD0702A51D1D1E90123E0
:1028B000C9681A4342EA0121826822F47F42114327
:1028C0008160816841F0770138E0816821F077010B
:1028D000114341F0070131E04B68CA68194601F025
:1028E0006BF92068816821F0770141F0470125E00C
:1028F0004B68CA68194601F05FF92068816821F0C9
:10290000770141F0570119E04B68CA68194601F098
:1029100064F92068816821F0770141F067010DE0DA
:10292000D1E90123C9681A4342EA0121826822F4ED
:102930007F4211438160816841F4804181600020C1
:10294000012184F83D10002184F83C10C0B210BD74
:102950000120F5E77047B0B504462068C1680269F8
:1029600001EA0205A90714D56FF0020101610121F6
:102970002177806910F0030F03D02046FFF7EAFFAC
:1029800005E0204600F0BAF8204600F033F90020B8
:102990002077680715D520686FF0040101610221D6
:1029A0002177806910F4407F03D02046FFF7D2FFE3
:1029B00005E0204600F0A2F8204600F01BF90020B8
:1029C0002077280715D520686FF0080101610421E0
:1029D0002177C06910F0030F03D02046FFF7BAFF3C
:1029E00005E0204600F08AF8204600F003F90020B8
:1029F0002077E80615D520686FF0100101610821E5
:102A00002177C06910F4407F03D02046FFF7A2FF72
:102A100005E0204600F072F8204600F0EBF80020B8
:102A20002077E80706D020686FF001010161204699
:102A300000F0E1F8280606D520686FF080010161FA
:102A40002046FFF709FE680606D520686FF04001B2
:102A50000161204600F0D0F8A80658BFB0BD20683C
:102A60006FF0200101612046BDE8B040FFF7F5BDE1
:102A700010B586B0044601A81421FDF76CFC22684D
:102A80001A481B491B4B9A4216D01B4B9A422BD11A
:102A9000002200920B6843F010030B60096801F0FC
:102AA0001001009100994FF4005101910221CDE9EC
:102AB00002120121049213E0002200F580600092CE
:102AC0000B6843F020030B60096801F020010091BE
:102AD0000099402101910221CDE9021204910321C4
:102AE000059101A9FEF72AF906B010BD00100240B9
:102AF00030380240004401400000014070470000AF
:102B0000B0B504460D4694F83C00012801D10220DE
:102B100041E04FEAB2010120032984F83C0037D894
:102B2000DFE801F0020A12222068294600F084FF43
:102B3000206850F8181F0EE02068294600F0ACFF0E
:102B4000206850F8181F16E02068294600F0D8FFCA
:102B5000206850F81C1F41F008010160016821F055
:102B60000401016029690FE02068294600F0FCFF9C
:102B7000206850F81C1F41F400610160016821F4D5
:102B80008061016029690902026811430160002027
:102B9000002184F83C10C0B2B0BD10B5044634B377
:102BA00094F83D0028B9002084F83C00204600F04D
:102BB00020F80220211D84F83D00206800F0CCFEA2
:102BC000012084F8460084F83E0084F83F0084F831
:102BD000400084F8410084F8420084F8430084F8FF
:102BE000440084F8450084F83D00002010BD012019
:102BF00010BD7047704770477047704770470000BE
:102C0000F8B5044620680168C268456901F02F06DE
:102C100002F02003202E05D123B12046BDE8F84064
:102C200001F019B85FEA017C08D005F0010E12F43A
:102C3000907F8EF0010557D1002D55D01140CA0666
:102C4000226B3BD5012A39D1002100910168009106
:102C5000416800910099416911F0400F40F0A58052
:102C6000A18DE28DE38D002B00F01981891A89B2C4
:102C700009B914E1206850E8030F226820F490702D
:102C800042E80303002BF5D1206850E8050F2268C5
:102C900020F0010042E80503002BF5D1202084F844
:102CA000420000202063206850E8030F226820F0D3
:102CB000100042E80303002BF5D1D5E00A0640F1ED
:102CC000BA8094F84110212940F0E980A168B1F55B
:102CD000805F04BF2169002900F0D380216A4A1C6B
:102CE000226209784160D3E0CE0706D012F48076E4
:102CF0001EBF666C46F00106666401F004070126FB
:102D000086EA97072F4302BF676C47F002076764A4
:102D100001F0020786EA5706354302BF656C45F0AD
:102D20000405656453EA0E0318BF0123BCF1000FCC
:102D300005D5012B02BF636C43F008036364636C29
:102D4000002B00F0AC801140890603D5204600F02E
:102D500082FF20684069616C00F0400001F00801CA
:102D6000084300F08880204600F04EFF206841694B
:102D700011F0400F01D16CE0206850E8050F216888
:102D800020F0400041E80502002AF5D1E06B002860
:102D90005FD048490165FDF749FE002800F07F80BB
:102DA000E06B016DBDE8F8400847E36B19684D68BA
:102DB000A28DA9B2002951D091424FD2E585D9699F
:102DC000B1F5807F01D130E0206850E8030F216821
:102DD00020F4807041E80302002AF5D1206850E811
:102DE000050F216820F0010041E80502002AF5D115
:102DF000206850E8050F216820F0400041E80502F6
:102E0000002AF5D1202084F84200002020632068A9
:102E100050E8030F216820F0100041E80302002A67
:102E2000F5D1E06BFDF7C0FDA28D02206063E08D5F
:102E3000101A81B21AE0490631D5C16821F040016B
:102E4000C160202084F841002046BDE8F84000F031
:102E5000C0B92046BDE8F840FFF7D0BE8A4204BFA3
:102E6000D869B0F5807F1AD1022060632046BDE8A2
:102E7000F840FFF7C2BE2046FFF7C0FE00206064A6
:102E8000F8BD216A31F8022B6FF35F2242602162A4
:102E9000E18C4FF6FF7201391142E18400D0F8BD98
:102EA000C16821F08001C160C16841F04001C1608A
:102EB000F8BD00BFFF3B000810B504464CB394F8C2
:102EC000410028B9002084F84000204600F024F892
:102ED000242084F841002068C16821F40051C160B9
:102EE000204600F01DFF2068016921F49041016136
:102EF000416921F02A014161C16841F40051C1607A
:102F000000202021606484F8411084F8421060633E
:102F100010BD012010BD00002DE9F04F87B0044620
:102F200002A81421FDF717FA21689E4D9E489F4F75
:102F30009F4A914200F087809E4A914200F0C880EB
:102F40009D4A914240F02B8100260DF108084FF078
:102F5000020A4FF003094FF0070B0196416941F057
:102F600010014161416901F010010191019901963F
:102F7000016841F002010160016801F00201019164
:102F800001990196016841F0010101604146006824
:102F900000F00100019001988020029005F580600A
:102FA000CDE903A6CDF81490CDF818B0FDF7C6FE14
:102FB0004FF400704146CDE9020A04A880E8400AB7
:102FC0002846FDF7BBFE804D07F160004FF0006A18
:102FD0004FF480680421C5E9000A4FF4403005F140
:102FE0002002C5E90266C5E90486C5E9066682E8ED
:102FF00003022846C5E90B66FDF7EAFD08B1FDF7B7
:10300000A8FAE563AC63714D07F190004021C5E972
:10301000000A05F1080080E842014FF48030C5E95C
:103020000566EE61C5E908062846FDF7D1FD08B141
:10303000FDF78FFA252005210022A563AC63FEF77A
:1030400003F92520A9E000260196016941F48021B9
:103050000161016901F480210191019901960168E2
:1030600041F00401016002A9006800F00400019031
:1030700001984FF4406002900220CDE9030603203E
:1030800005900720069005F50060FDF757FE4D4DB1
:10309000A7F580604FF000614FF4806285E843003F
:1030A0004FF44030C5E90362C5E90566EE61C5E944
:1030B00008062846FDF78CFD08B1FDF74AFA2720DF
:1030C00005210022E563AC63FEF7BEF8272064E02B
:1030D00000264FF0030A0196416941F02001416149
:1030E000416901F02001019101990196016841F0C7
:1030F0004001016002A9006800F0400001900198C1
:103100004FF4844002900220CDE903060820CDF858
:1031100014A0069005F5C050FDF710FE274D4FF0A6
:1031200020694FF480684FF480700421C5E900796C
:10313000C5E90266C5E90486C5E906604FF40030BA
:1031400005F1200282E803042846C5E90B66FDF775
:103150003FFD08B1FDF7FDF9E563AC63184D07F1DC
:1031600078004021C5E9000905F1080080E8420126
:103170004FF48030C5E90566EE61C5E908062846CA
:10318000FDF726FD08B1FDF7E4F9472005210022EF
:10319000A563AC63FEF758F84720FEF747F807B081
:1031A000BDE8F08F00000240303802402864024041
:1031B00000480040001401400010014000040020BD
:1031C00060040020A0030020200200204003002013
:1031D00070477047FEE710B501314FF0300C4FF0EB
:1031E000370E00230DE00EEB1074B0F1204FA2F16A
:1031F000010238BF4CEA1074000101F8014C0B7059
:103200000231002AEFD110BD80B50C480C494FF4B3
:10321000C0220160032141600021C0E90211026166
:103220004FF4A0024261164A82618183FDF797FA4A
:1032300018B1BDE88040FDF78CB980BDC41B0020EB
:103240000064004080B50C480C494FF480220160B6
:10325000032141600021C0E9021102614FF4E00244
:103260004261074A82618183FDF779FA18B1BDE8AE
:103270008040FDF76EB980BDEC1B00200068004067
:1032800000010100BCB50020854C019080490A680E
:1032900042F400120A600A6802F400120192019AD4
:1032A00000900868002240F480000860086805214A
:1032B00000F48000009000980C20A047794D0C206D
:1032C000A8470D2000210022A0470D20A8470F206D
:1032D00000210022A0470F20A84739200521002205
:1032E000A0473920A8473A2005210022A0473A20CC
:1032F000A8473B2000210022A0473B20A8474420AC
:1033000000210022A0474420A84745200021002298
:10331000A0474520A847462000210022A04746207C
:103320002946BDE8BC4008472DE9F04F87B0002191
:10333000594E4FF040090125069101915448026809
:1033400042F002020260026802F002020192019A57
:103350000191026842F040020260026802F04002FD
:103360000192019A0191026842F001020260026832
:1033700002F001020192019A0191026842F00802F2
:103380000260026802F008020192019A019102684B
:1033900042F004020260026802F004020192019A03
:1033A0000191026842F080020260026802F080022D
:1033B0000192019A0191026842F0200202600268C3
:1033C00002F020020192019A01910168012241F06C
:1033D000100101604021006800F010000190019888
:1033E0002C4C04F5C0573846B04720461021012226
:1033F0004FF0100AB04704F58068012101224046D1
:10340000B047CDE90295DFF8949002AE3846CDE999
:1034100004553146C84709204FF4041B3146029039
:103420003846CDE903B5C847022720463146CDE9E5
:1034300002A504950597C84730203146CDE9020B17
:1034400004F500600495C84740463146CDE9025571
:10345000CDE90457C847124C062002210022A0479C
:10346000104D0620A847092001210022A04709206D
:10347000A8470A2001210022A0470A20A8471720B8
:1034800001210022A0471720A84707B0BDE8F08F10
:103490003038024000000240CD0E00083D0D00080B
:1034A000491200082D12000880B50B480B494FF453
:1034B000804201600A4941600021C0E902110162B5
:1034C000C0E90611C0E90421FDF70CFD18B1BDE803
:1034D0008040FDF73EB880BD141C0020005C004019
:1034E000801A0600B0B5104810494FF482720023CC
:1034F0004FF0020C4FF0010E4FF40074382580E8B5
:103500000E0000F10C0181E808500A21C0E90645CF
:10351000C0E90833C0E90A31FEF790FF18B1BDE8F1
:10352000B040FDF716B8B0BD4C210020003001407E
:1035300080B588B001A81C21FCF70DFF144815497F
:10354000002241F28733C0E90012C0E90223026180
:103550008261FFF7EFF808B1FCF7FBFF0C48FFF7BB
:103560001CFB08B1FCF7F5FF602001A900220190C7
:103570000020CDE9020005900548FFF7C1FA08B127
:10358000FCF7E7FF0248FFF773FA08B080BD00BF01
:10359000EC21002000440140B0B596B009AC0025F4
:1035A0001C212046CDE91455CDE91255CDE9105521
:1035B000FCF7D1FE01A82021FCF7CDFE26482749C3
:1035C000A72241F2873380E82600C0E90335C0E92D
:1035D0000555FFF7AFF808B1FCF7BBFF4FF480507B
:1035E00012A912901C48FFF739F908B1FCF7B1FF96
:1035F0001948FFF7D2FA08B1FCF7ABFF002010A979
:10360000CDE910001448FFF751F808B1FCF7A1FF0D
:10361000602018210990201DFCF79DFE0E482146D0
:103620000822FFF76DFA08B1FCF793FF01AC1421F3
:103630002046FCF790FE4FF40050214606900020F3
:1036400008900548FFF70AF808B1FCF782FF024826
:10365000FFF70EFA16B0B0BDA42100200000014013
:10366000FEB500211548532340F2E73CCDE9041193
:10367000CDE90211CDE90011E54AC0E90023C0E916
:10368000021C01618161FFF755F808B1FCF761FF89
:103690004FF4805002A902900848FFF7DFF808B104
:1036A000FCF757FF00206946CDE900000348FEF70C
:1036B000FDFF08B1FCF74DFF06B080BD34220020AD
:1036C000FEB50021A048532340F2E73CCDE90411A8
:1036D000CDE90211CDE90011CE4AC0E90023C0E9CD
:1036E000021C01618161FFF725F808B1FCF731FF89
:1036F0004FF4805002A902909348FFF7AFF808B149
:10370000FCF727FF00206946CDE900008E48FEF750
:10371000CDFF08B1FCF71DFF06B080BDFEB500214E
:103720008C48532340F2E73CCDE90411CDE9021166
:10373000CDE90011B84AC0E90023C0E9021C0161CB
:103740008161FEF7F7FF08B1FCF703FF4FF48050EB
:1037500002A902907F48FFF781F808B1FCF7F9FE53
:1037600000206946CDE900007A48FEF79FFF08B1C6
:10377000FCF7EFFE06B080BD80B50B480B494FF457
:10378000E13200234FF00C0C80E80E00C0E9033357
:10379000C0E905C3C361FFF78FFB18B1BDE88040E6
:1037A000FCF7D7BE80BD00BF0C23002000100140F5
:1037B00080B50C480C494FF4806201600B494160B0
:1037C0004FF4805181600021C16002610C22C0E988
:1037D0000521C161FFF770FB18B1BDE88040FCF71F
:1037E000B8BE80BD5423002000480040A0860100E0
:1037F00080B50B480B494FF4E13200234FF00C0C1D
:1038000080E80E00C0E90333C0E905C3C361FFF7D8
:1038100053FB18B1BDE88040FCF79BBE80BD00BFE4
:103820009C2300200014014080B50F480F4900225E
:1038300000F03FFE08B1FCF78CFE0B480C4901F08C
:1038400097F808B1FCF785FE07480A4900F076FCB6
:1038500008B1FCF77EFE044801F0B2F818B1BDE8EB
:103860008040FCF776BE80BDE81800200C000020E8
:103870002C000020C8000020FEE7FEE70148FDF70D
:1038800073BE00BF681C002070477047FDF772BC14
:10389000B0B592B0002401A81421CDE90A44CDE9C5
:1038A0000844FCF758FD009402251F48016841F0C8
:1038B00080510160006800F08050009000980094F2
:1038C0001A48016841F480410160006800F48040BA
:1038D00000900098012006904FF4803007904FF43C
:1038E00080000C950D9006200E90A820CDE90F05C4
:1038F0000720119006A8FEF7E7FB08B172B6FEE7B5
:103900000F200521CDE901054FF4A0500394049048
:103910004FF48050059001A8FEF7F4FA08B172B692
:10392000FEE712B0B0BD00BF40380240007000405A
:103930000248016841F470010160704788ED00E0C1
:103940000148FFF708B800BF7C2200200148FFF7BC
:1039500002B800BFC4220020D0F800C0B0F1804FF0
:103960000ED02B4B98421CBF2A4B984208D02A4BB2
:1039700098421CBF8F4B984202D0284B984204D1EA
:103980004B682CF0700243EA020CB0F1804F20D05B
:103990001F4B98421CBF1F4B98421AD01E4B984297
:1039A0001CBF1F4B984214D01E4B98421CBF1E4B8D
:1039B00098420ED0194B98421CBF7E4B984208D0BB
:1039C0001A4B98421CBF1A4B984202D0194B98428E
:1039D00004D1CB682CF4407243EA020C10B58B681A
:1039E0004A69C3620B6883622CF08003714C1A43EE
:1039F00040F48063A342BDE8104004BF096901633D
:103A0000016841F0040101600121416102607047D9
:103A10000004004000080040000C0040000001408D
:103A200000180040001C0040002000400040014001
:103A30000048014000440140B0B5026A036A23F027
:103A4000010322F002020362D0F804E083698D686A
:103A50000C68154323F07302564B42EA040C40F401
:103A600080629A4201BF25F00C03CC6824F0040464
:103A700044EA03054F4B9A4201BFD1E905232EF4D6
:103A80004074224342EA030EC0F804E0C0F818C0B4
:103A9000496841630562B0BD70B5026A036A23F0EC
:103AA000100322F020020362466883698D680C6867
:103AB00042EA051E23F4E6423E4B42EA042C40F45F
:103AC00080629A4201BFCB686FF04F0404EA03138F
:103AD0002EF0C00508BF43EA050E364B9A4201BFDF
:103AE000D1E9052326F4406444EA820242EA8306CF
:103AF0004660C0F818C049688163C0F820E070BD16
:103B000070B5026A036A23F4807322F400720362C0
:103B10004668C3698D680C6842EA052E23F073027B
:103B2000244B42EA040C40F480629A4208D1CB68EC
:103B300040F2FF442EF440651B02A34343EA050E06
:103B40001C4B9A4201BFD1E9052326F4405444EAB4
:103B5000021242EA03164660C0F81CC04968C163FD
:103B6000C0F820E070BD00BFB0B5D0F820C0036A37
:103B700023F480532CF4005203624368C5698C68B7
:103B8000D1F800E042EA043C0A4C25F4E64240F455
:103B9000806542EA0E22A54202BF4D6923F48043AC
:103BA00043EA85134360C26149680164C0F820C0DC
:103BB000B0BD00BF00040140D0F820C0036A23F06C
:103BC00001030362836923F0F00343EA0212826176
:103BD0002CF00A02114301627047D0F820C0036A3A
:103BE00023F010030362836923F4704343EA023233
:103BF00082612CF0A00242EA011101627047806BE1
:103C00000021C185FEF7FABF016851E8031F026871
:103C100021F4907142E80313002BF5D1016851E8BB
:103C2000051F026821F0010142E80513002BF5D1C0
:103C3000016B012909D1016851E8031F026821F0D5
:103C4000100142E80313002BF5D1202180F8421027
:103C500000210163704790F84210222918BF704775
:103C60008368B3F5805F06D1026900F12801A2B133
:103C7000D1F800C008E00146002B51F828CF01D14F
:103C800003690BB17F2300E0FF23026852681A40EA
:103C900001238CF800200A6806E00368826A5B68EA
:103CA0006FF35F23138002231A440A604FF6FF72FA
:103CB000C18D01391142C18500D070470168CA68C1
:103CC00022F02002CA60CA6822F48072CA604A697F
:103CD00022F001024A61202280F842200022426341
:103CE000036B012B18BFFFF773BA026351E8031F80
:103CF000026821F0100142E803130168002BF5D19E
:103D00000A6812F0100F08D081B0002200920A68F1
:103D1000009249680091009901B0818DFEF76DBF56
:103D2000B0B5044649F20C6520680169E26821F4E7
:103D3000405111430161D4F808C0D4E90423D4F8F8
:103D40001CE0C16842EA0C02A9431A4342EA0E028F
:103D50001143C1604169A26921F44071114341617D
:103D600040F480602049884202D1FEF76FF901E0FB
:103D7000FEF762F9E26963681921A0FB0101B2F55F
:103D8000004F16D15A00DB0FFCF76EFA64216FF07A
:103D90006303B0FBF1F202FB0300322303EBC0002C
:103DA000B0FBF1F14FF4F87000EA410001F00701B7
:103DB00013E09A009B0FFCF757FA64216FF063033E
:103DC000B0FBF1F202FB0300322303EB0010B0FB67
:103DD000F1F101F0F00001F00F0100EB02100843D7
:103DE00021688860B0BD00BF001401400148FEF7A3
:103DF00007BF00BF0C2300200148FEF701BF00BF32
:103E0000542300200148FEF7FBBE00BF9C23002086
:103E100070B58C46D0F8D41200EB8103D3F8C012F1
:103E200019B30CF00F0E0EEB8E0200EB820252F86B
:103E3000144F5CB1D0F8C8620EEBCE0506EB8506D8
:103E4000F669B4FBF6F505FB164686B10024C1F809
:103E50001442D3F8C402036983B1D1F8080201F512
:103E6000047162469847002408E0032406E0002419
:103E7000614600231460002200F054FDE0B270BDE2
:103E8000B0B50446D4F8D40204EB8000D0F8C05298
:103E900095B1204600F0ECFBC5F80C0205F5037166
:103EA000D4F8D40204EB8000D0F8C402C268D5F87C
:103EB00004029047002000E00320C0B2B0BD000023
:103EC00070B5164E81210446B047002520460121D9
:103ED00084F83750B0472046822184F87751B047A4
:103EE00084F84B506564D4F8D40204EB8000D0F819
:103EF000C01289B1D0F8C40240688047D4F8D40217
:103F000004F5307656F8200000F0ADFFD4F8D40266
:103F100046F82050C4F8BC52002070BDFD44000893
:103F200010B5D0F8D41200EB8100D0F8C04284B1B3
:103F3000D0F8C41259B194F80002FF2807D08B685A
:103F400094F8012221469847FF2084F800020020BF
:103F500000E00320C0B210BD0A2101800048704774
:103F6000A80000202DE9F0412F4F304C80468221DF
:103F70003846A047064638460121A0470546384640
:103F80008121A0470EB11021B1710DB14021A9804E
:103F900008B1402181804320A8F800002248BDE8F4
:103FA000F08100BF2DE9F0411F4F204C8046822157
:103FB0003846A047064638460121A0470546384600
:103FC0008121A0470EB11021B17115B14FF40071DC
:103FD000A98010B14FF4007181804320A8F800003F
:103FE0001148BDE8F08100BF2DE9F0410E4F0F4CA4
:103FF000804682213846A047064638460121A04720
:10400000054638468121A0470EB11021B1710DB18E
:104010004021A98008B1402181804320A8F80000F8
:104020000148BDE8F08100BF64000020054400089D
:1040300070B504464FF4077000F016FF0546EDB169
:1040400028464FF40771FCF786F9D4F8D40204F53A
:10405000307141F82050D4F8D40251F82000C4F84F
:10406000BC02207C90B1204681210222402300F036
:1040700077FB012001210222402313E0D4F8D4026F
:10408000002104EB8000C0F8C0123BE020468121F3
:1040900002224FF4007300F063FB01200121022291
:1040A0004FF4007384F83700204600F059FB0126D6
:1040B000102082210322082384F87761606420465F
:1040C00000F04EFB84F84B600026C5F80462D4F87B
:1040D000D40204EB8000D0F8C40200688047C5F821
:1040E0001462C5F81862D5F804225AB1207C012167
:1040F0000028204614BF40234FF4007300F042FB19
:10410000002000E00220C0B270BD80B5D0F8D4120B
:1041100000EB8101D1F8C01269B1D1F80422017C11
:1041200000294FF0010114BF40234FF4007300F049
:1041300029FB002000E00320C0B280BD39B1D0F8D7
:10414000D42200EB8200C0F8C412002000E003205B
:10415000C0B27047D0F8D42200EB8200D0F8C00281
:1041600000281ABFC0F8041200200320C0B2704714
:10417000D0F8D43200EB8300D0F8C00228B1C0F8E8
:104180000812C0F81022002000E00320C0B27047DF
:104190007CB504460D46D4F8D40204EB800100201F
:1041A000D1F8C0628DF80700ADF80400002E4ED0A3
:1041B0002B7813F0600012D0202844D1EA88687868
:1041C000EAB11B0623D4402A86F800022046314675
:1041D00028BF402286F8012200F065F82DE06878BB
:1041E0000B282CD0012828D00A281CD058BB94F8C2
:1041F0009C02032827D101A9204602221BE0D1F806
:10420000C412002200248B682946984720E0D1F888
:10421000C4128B6831469847EA8820463146072AFF
:1042200028BF072207E094F89C0203280BD10DF168
:1042300007012046012200F050F8002408E094F81D
:104240009C020328F9D02046294600F021F80324D7
:10425000E0B202B070BD80B5D0F8B8225268904785
:10426000002818BF032080BD002070470020704741
:1042700080B513460A46002100F084FA002080BD74
:1042800080B513460A46002100F04CFB002080BD9B
:1042900010B58021044600F015FB20460021BDE842
:1042A000104000F00FBB80B513460A460321C0F84A
:1042B00094120021C0F86421C0E9553300F062FA7D
:1042C000002080BD80B5052100220023C0F8941293
:1042D000002100F057FA002080BD80B513460A4641
:1042E0000221C0F8941200214262C0E9053300F0B7
:1042F00019FB002080BD80B5042100220023C0F8F6
:104300009412002100F00EFB002080BD10B5044C7B
:104310000A4604A0214600F08AF8204610BD00BFDE
:10432000C804002043444320436F6E666967000061
:104330001220088000487047B400002010B5044CDB
:104340000A4604A0214600F072F8204610BD00BFC6
:10435000C804002043444320496E7465726661635B
:10436000650000000420088000487047DC00002041
:1043700010B5044C0A4604A0214600F058F8204627
:1043800010BD00BFC804002053544D6963726F65AF
:104390006C656374726F6E696373000010B5044CD2
:1043A0000A4604A0214600F042F8204610BD00BF96
:1043B000C804002053544D3332205669727475611D
:1043C0006C20436F6D506F72740000001A200880DB
:1043D0000A4908688A6880180ED0B0B5084D4C6844
:1043E0000822A91CFEF7F7FE05F11201204604225F
:1043F000FEF7F1FEBDE8B04001487047107AFF1F9C
:10440000E00000200278B0F802C094450DD993B2C4
:1044100063450AD20378184413FA82F24378052BD5
:1044200004BF83788B42F2D170470020704780B57B
:10443000F0B34FF0000C864603E00EF1010E0CF1D4
:10444000010C9EF80030002BF7D15FFA8CFC0223A0
:1044500003EB4C03B3F5007F02D94FF4007310E077
:104460004FF0000C864603E00EF1010E0CF1010C3A
:104470009EF80030002BF7D15FFA8CFC022303EB8F
:104480004C03138003224FF0020E4FF0000C0B7010
:104490004A700AE05FFA8EF201308B544EF001024E
:1044A0000EF1020ED2B201F802C00378002BF1D156
:1044B00080BD80B100230029C0F8B832C0F8C432F2
:1044C000C0F8D03201D0C0F8B412012180F89C129B
:1044D000027000F0D1B803207047000080B5D0F81A
:1044E000C802FCF76BFF032804D8DD49C00021FA9D
:1044F00000F000E00320C0B280BD00BF80B5D0F85E
:10450000C802FCF736FF032804D8F649C00021FA98
:1045100000F000E00320C0B280BD00BFB0B504468B
:1045200089B194F89C0203284FD1D4F8B8024269AB
:10453000002A4AD00020C4F8D40220469047002820
:1045400008BF0020B0BDD4F89402022837D1218CD6
:10455000A06988420ED9421AA261606A01442046CD
:104560006162FFF78DFE204600210022002300F04B
:1045700009F924E00FD1616981420CD3D4F8980283
:10458000814208D22046002100220025FFF778FE54
:10459000C4F89852E7E794F89C02032808D1D4F8AD
:1045A000B802C16821B10020C4F8D402204688476F
:1045B0002046802100F086F92046FFF783FE94F81C
:1045C000A00210B1002084F8A0020020B0BD10B5F8
:1045D000044681B194F89C02032835D1D4F8B8027E
:1045E00082698AB30020C4F8D4022046904700288C
:1045F00008BF002010BDD4F89402032824D1B4F8D9
:104600006021D4F8580190420ED9801AC4F858019C
:104610009042D4F864111144C4F8641188BF024672
:104620002046FFF725FE0FE094F89C02032808D1EE
:10463000D4F8B802016921B10020C4F8D4022046A0
:1046400088472046FFF757FE002010BD0020704726
:10465000012180F89C12D0F8B8223AB180B50179D6
:1046600052689047002818BF032080BD0020704783
:10467000D0F8C802FCF7CEBE017859BB10B5164978
:104680000022C1F8E004C0F8C8124FF0A040086052
:10469000042008710220C8718A71487208468A7223
:1046A000CA720A738A73CA73FDF716FB08B1FBF767
:1046B00050FF094C80212046FCF703FE20460021D4
:1046C0004022FCF702FE204601218022FCF7FDFD7E
:1046D000BDE8104000207047681C0020D0F8C802D8
:1046E00001F07F0211F0800F02EBC20200EB8200AA
:1046F00000F1160208BF00F2562210787047D0F879
:10470000D42200EB8202D2F8B8226AB190F89C322F
:10471000032B07D1126A2AB180B590470020BDE86B
:10472000804002E0002000E00320C0B27047D0F8D3
:10473000D42200EB8202D2F8B8226AB190F89C32FF
:10474000032B07D1526A2AB180B590470020BDE8FB
:10475000804002E0002000E00320C0B2704700006B
:1047600080B5D0F8C80294461A466346FCF75BFE53
:10477000032804D87349C00021FA00F000E00320A8
:10478000C0B280BD80B5D0F8C802FCF77DFE03281A
:1047900004D86C49C00021FA00F000E00320C0B248
:1047A00080BD00BFF8B504460126002584F89C6250
:1047B000C4F894526560C4F8A45284F8A052D4F8A6
:1047C000B80250B142683AB12046002190470546F0
:1047D000002D18BF032500E00025204600210022FF
:1047E00040234027FFF7BCFF2046802100224023C2
:1047F00084F86361A4F86071FFF7B2FF84F8236066
:104800002784284601B0F0BD90F89C12042904BF0B
:1048100090F89D1280F89C120020704790F89C122E
:10482000032908D1D0F8B81229B1C96919B180B5E6
:104830008847BDE880400020704701740020704721
:1048400080B5D0F8C802FDF708FB032804D83D491D
:10485000C00021FA00F000E00320C0B280BD00BF1C
:1048600000030103B0B5044604F2AA25284600F06F
:104870006BF80120C4F89402B4F8B002C4F89802AE
:1048800094F8AA0200F01F01022908D001290CD0D7
:1048900089B920462946BDE8B04000F093B82046CB
:1048A0002946BDE8B04000F0F9B920462946BDE8E8
:1048B000B04000F09EBA00F080012046BDE8B04054
:1048C000AFF3008080B5D0F8C802FCF7FAFD0328EA
:1048D00004D81C49C00021FA00F000E00320C0B257
:1048E00080BD00BF0003010380B5D0F8C802FDF70A
:1048F000CFFA032804D81349C00021FA00F000E0E1
:104900000320C0B280BD00BF90F89C1204291CBFD8
:1049100090F89C1280F89D12042180F89C120020CF
:104920007047000080B5D0F8C802FCF7FFFD0328EF
:1049300004D80449C00021FA00F000E00320C0B20E
:1049400080BD00BF000301030A7802704A784270FC
:104950008A78CB7842EA032242800A794B7942EA8C
:10496000032282808A79C97942EA0121C180704795
:104970001CB5044600200029ADF8060015D0C4F887
:10498000B81204F52E71D4F8D40251F82000C16A8F
:1049900021B10DF106008847C4F8D002D4F8D8023E
:1049A0000130C4F8D802002000E00320C0B202B0F9
:1049B00010BDD0F8B8220AB1126810470020704725
:1049C000FFF792BFBCB50D460446287810F0600092
:1049D00011D0402818BF202840F05381D4F8D402C9
:1049E000294604EB8000D0F8B8028268204602B065
:1049F000BDE8B04010476878092800F24281DFE83E
:104A000010F00A00200040012E00400158007B00F9
:104A1000400139004B0094F89C020138022800F252
:104A20003081E888022840F02C81D4F8A4020321C8
:104A300002220028204608BF0121E16004F10C0198
:104A40001CE194F89C020138022800F21A8168885F
:104A50000025012840F01981C4F8A452E0E06888DC
:104A6000022800F07480012840F00B810120C4F876
:104A7000A4020DE1E888012840F0038194F89C022B
:104A8000411E022967D2002521462046012241F815
:104A9000085FFFF722FCF8E068887F4DC1B200F0A4
:104AA000FE00022829703DD32046FFF7F1FB0325C5
:104AB000EBE0A888002840F0E480E888002840F077
:104AC000E08068887F2800F2DC8094F89C1203293B
:104AD00000F0D78000F07F052046E9B284F89E52AE
:104AE000FFF7AEFE2046FFF706FC0120002D18BFA1
:104AF000022084F89C02C7E000204FF0FF31ADF89F
:104B00000600688801EB1021062900F2BA80DFE870
:104B100001F0045129B8B85E6800D4F8B412207CC2
:104B20000A689CE094F89C02032828D0022865D1EA
:104B3000002900F0AD8020466160FFF73AFF05468E
:104B40002046002D70D0FFF7A3FB02206FE06879AC
:104B500084F8A0029CE0032840F09380211D2046A9
:104B600001228BE0C0B2052800F28B80DFE800F064
:104B70000362666A6E72D4F8B40242686DE000297E
:104B800045D06068884200F08380C1B22046FFF7BC
:104B900062FB297820466160FFF70BFF0546002D78
:104BA00076D02046FFF774FB21792046FFF753FBB0
:104BB00002203CE0217CD4F8B802002914BFC16A6D
:104BC000816A0DF1060088470146022014E0207C2E
:104BD000002856D1D4F8B802416B0DF10600884781
:104BE00040E0207C00284CD1D4F8B802016B0DF1D4
:104BF0000600884701460720487034E02046FFF74A
:104C000047FB29782046FFF726FB03253DE00220DD
:104C10000025002184F89C0220466560FFF71BFBFD
:104C20002046FFF768FB30E0FFF765FB032084F8C0
:104C30009C022AE0D4F8B40282680EE0D4F8B402F0
:104C4000C2680AE0D4F8B402026906E0D4F8B402FB
:104C5000426902E0D4F8B402826992B1207C0DF17D
:104C6000060190470146EA8892B1BDF8060040B1BE
:104C7000904238BF02462046ADF80620FFF72DFBD4
:104C800002E02046FFF704FB0025284602B0B0BD35
:104C90002046FFF730FBF7E7C4040020F8B50E46C6
:104CA00004463078357910F0600017D0402818BFDE
:104CB000202879D120462946FFF7D6FA002876D158
:104CC000C4F8D40204EB8000D0F8B8028268002A4D
:104CD0006DD020463146BDE8F84010477078B8B135
:104CE00001282ED003285FD194F89C0203282CD1F0
:104CF000708848B945F08000802805D0F08818B940
:104D000020462946FFF7DEFD2046FFF7F4FA4EE085
:104D100094F89C02032827D0022804BF45F08000A5
:104D2000802841D105F07F0104F5AA7015F0800FAD
:104D300018BF04F1140001EB810100EB8101002098
:104D400050E094F89C02032834D002282CD145F07E
:104D50008000802828D020462946FFF7B3FD204652
:104D60008021FFF7AFFD22E005F00F0115F0800074
:104D700001EB810104EB810114BF91F8231091F83C
:104D8000631189B1002804F5AA7645F0800005F08A
:104D90007F0718BF04F11406802818D107EB87009D
:104DA00006EB800100201DE02046FFF771FA00208D
:104DB00001B0F0BD70880028F9D1680603D0204604
:104DC0002946FFF78BFB2046FFF795FA72E720464E
:104DD0002946FFF783FC07EB8701002806EB8101DA
:104DE00018BF012001F80E0F20460222FFF775FAC6
:104DF000DDE7B0B50D460446287810F0600018BF16
:104E0000402801D0202810D194F89C0201380228B3
:104E10000BD8A88800F0FE01012906D8C1B22046AF
:104E2000FFF724FA30B10320B0BD2046FFF730FA77
:104E30000020B0BD04EB8001D1F8B8229268002AAE
:104E4000F1D001F52E71C4F8D402086829468268B1
:104E5000204690470028ECD1E9880029E9D1204676
:104E6000FFF749FAE4E7704700487047C80600209A
:104E700070B50B784D78012603F00F02012D06FA6C
:104E800002F4194E4FEA431215D1D0F81C582543AD
:104E9000C0F81C5800F51060855815F4004F20D15B
:104EA0000D79896814586FF3DF2141EA835121435A
:104EB00041EA854113E0D0F81C3843EA0443C0F8C6
:104EC0001C3800F53060835813F4004F09D10B797A
:104ED000896815586FF3DF21294341EA8341314343
:104EE0001150002070BD00BF00800010D0F80019E4
:104EF00040F2FF729143C0F80019D0F8041841F451
:104F00008071C0F8041800207047000070B5044696
:104F100002F47F401E460D46B0F5807F18D1A16B8C
:104F2000049821F48031C0B2A1630128E168184AD5
:104F300001EA0201E160E16821F44011E16002BF91
:104F4000E06840F48010E060204600F023F80FE0B5
:104F5000E06840F04000E060204600F01BF8A16BE4
:104F600016F47F4F21F4803208BF41F48032A263EF
:104F700005F47F01B1F5803F18BF70BDA16841F015
:104F80000601A160A16841F02001A16070BD00BFD1
:104F9000BFFFBDFF81B00021009100990131009158
:104FA0000099B1F1706F1CD80169B1F1FF3FF4DCD9
:104FB0000A2101E000990139009100990029F9D1F5
:104FC000016941F0010101610099013100910099ED
:104FD000B1F1706F05D8016911F0010FF4D1002013
:104FE00000E00320C0B201B07047000010B50A789D
:104FF0004B781E4C5101012B014410D101F5106377
:10500000D1F80019B1F1FF3F07DC196841F00061E8
:105010001960196841F080411960012112E001F521
:105020003063D1F8001B04F17074B1F1FF3F07DC6D
:10503000196841F000611960196841F080411960F8
:105040004FF4803102F00F029140D0F83C288A439F
:10505000C0F83C28D0F81C2822EA0101C0F81C182E
:10506000186820401860002010BD00BF007833ECA5
:10507000D0F8001E21F00301C0F8001ED0F804187B
:1050800021F00201C0F8041800207047D0F8001E7B
:1050900021F00301C0F8001ED0F8041841F002010D
:1050A000C0F80418002070472DE9F84F8A46804662
:1050B0004120002102E048F8201001305028FAD1A8
:1050C000C3F30749B9F1000F0AD0D8F8380020F42B
:1050D0000010C8F83800D8F8380040F4002015E077
:1050E000D8F8040840F00200C8F80408D8F83800DE
:1050F00040F40010C8F83800D8F8380020F4002038
:10510000C8F83800D8F8380020F4802002F47F4135
:10511000C8F838000020B1F5807FC8F8000E009272
:1051200009D1D8F8001808F5006BB0EB1A6F0BD155
:10513000CBF800100CE0D8F8000808F5006B40F040
:105140000300C8F8000803E041F00100CBF80000BC
:105150004046102100F025FA0746404600F0FEF9CF
:105160005FFA8AF10022384308F510634FF67F3763
:1051700000264942CBF81020CBF81420CBF81C2095
:105180000EE0002E4FF09045A6F1010608BF4FF04B
:1051900000651C6805EAE4751D601A619F60203394
:1051A000B142EED1002808F530624FF000034FF60F
:1051B0007F374FF0000618BF01200EE0002E4FF0A1
:1051C0009045A6F1010608BF4FF00065146805EA96
:1051D000E4751560136197602032B142EED1DBF8BF
:1051E00010101AF47F0F21F48071CBF810104FF0DB
:1051F0000001C8F818101349C8F8141002BFD8F8F5
:10520000181041F01001C8F81810D8F818100E4AFC
:105210001143C8F81810009911F47F0F1EBFD8F879
:10522000181041F00801C8F81810B9F1010F01BFBA
:10523000D8F81810054A1143C8F8181001B0BDE895
:10524000F08F00BFFFFFFFBF00383C80040000402C
:10525000816821F0010181600020704710B5036C66
:10526000134CA34203D3D0F8003B002B1EDB0023DA
:105270000129C0F8103BD0F8103B43F40023C0F8DC
:10528000103BD0F8103B43F01803C0F8103BD0F8A7
:10529000103B43F0C043C0F8103B01BFC0F8142BD3
:1052A000D0F8001B41F08021C0F8001B002010BD89
:1052B0000B30544F4B780A78012B4FEA421214BF3F
:1052C00000F5306000F51060835823F4001383501C
:1052D000097901F0FE01022902BF115841F0805105
:1052E0001150002070470A784B785101012B01447E
:1052F00004D101F51060D1F8001903E001F5306028
:10530000D1F8001B2AB1002903DB016821F080419C
:105310000160016841F40011016000207047000045
:105320002DE9FC41964691F800C04A7880466348D2
:10533000634E644F644D4FEA4C13012A27D108EBAA
:1053400003020C6902F51063D2F81029002C43D037
:105350002A40BCF1000F1A611A6902EA07021A61B9
:105360008F6857D0E219013AB2FBF7F506EAC54259
:105370001E6932431A610A79012A57D11A6922F04B
:10538000C0421A614FF0C04202EA45754BE008EB9B
:105390000302BCF1000FD2F8103B03EA0503C2F888
:1053A000103BD2F8103B03EA0703C2F8103B02F5AA
:1053B00030638F680C691BD0ECB1E219013AB2FB83
:1053C000F7F295B206EAC2426F430F621E6932439A
:1053D0001A6107EA000214E002EA070000241861DB
:1053E000186940F400201861186900EA050220E0FD
:1053F00004B10F610F621A69384010434FF4002264
:1054000018611869BEF1010F40EA0200186117D156
:10541000C86813E0BC4204D90F614FF400253C4634
:1054200001E04FF400251A692A431A611A692040E5
:105430000243BEF1010F1A6118D1C86900B1586169
:10544000087901280AD1D8F808084FF0805121EADC
:105450000050196800F1805008431860186840F047
:1054600004401860002002B0BDE8F081186840F0E8
:10547000044018600879012813D1D8F808084FF0C3
:10548000805222EA00501A6800F1805010436246B0
:105490001860A3B24046C968CDF800E000F0CCF92E
:1054A000E0E7002CDED00CF00F00012101FA00F043
:1054B000D8F834180843C8F83408D3E7FFFF0700CA
:1054C0000000F81FFFFF07E00000F8FF81B0002296
:1054D00000924A78012A1BD1097800F51060490131
:1054E0004258B2F1FF3F2EDC0A5842F000620A50E7
:1054F0000A5842F080420A5042F21072009B013377
:105500000093009B934220D84358002BF6DB1AE00F
:10551000097800F5306049014258B2F1FF3F12DCD2
:105520000A5842F000620A500A5842F080420A507B
:1055300042F21072009B01330093009B934204D807
:105540004358002BF6DB002000E0012001B070473B
:10555000816841F0010181600020704781B0002125
:1055600000910099013100910099B1F1706F14D848
:105570000169B1F1FF3FF4DC0021009110210161CC
:105580000099013100910099B1F1706F05D801695E
:1055900011F0100FF4D1002000E00320C0B201B0E0
:1055A000704781B000220092009A01320092009A66
:1055B000B2F1706F16D80269B2F1FF3FF4DC00223D
:1055C0000092202242EA811101610099013100918B
:1055D0000099B1F1706F05D8016911F0200FF4D175
:1055E000002000E00320C0B201B07047D0F80808E6
:1055F00010F0060006D040F004010F20062908BF75
:10560000022000E00020C0B27047406900F00100B5
:105610007047D0F81818D0F81C08084080B27047BE
:10562000D0F81818D0F81C080840000C7047D0F8C3
:1056300010C8D0F8343801F00F0200EB4110D0F858
:10564000080923FA02F2D201D2B242EA0C02104057
:10565000704700EB4111D1F8081BD0F8140808403E
:1056600070474169806908407047B0B5034622F031
:10567000030C90084FF4805E0C4604E053F80E5083
:10568000013844F8045B0028F8D101EB0C0012F05B
:10569000030108BFB0BD4FF4805201254FF6FF7ED5
:1056A00004469A584B1E15FA83FC002322FA03F590
:1056B0000139083304F8015B11EA0E0FF6D160449A
:1056C000B0BDB0B504460029E06820F0C040E060FD
:1056D00013D001291CBF0120B0BDE068002540F0B7
:1056E0000050E0600A20FBF709FB60690A35C72D0E
:1056F00012D810F00100F5D00EE0E068002540F06F
:105700008040E0600A20FBF7F9FA60690A35C72D8E
:1057100002D810F00100F5D1A5F1C800B0FA80F070
:105720004009B0BDD0F8002822F4FE62C0F800287D
:105730004FF4FE6202EA0111D0F800281143C0F8CC
:105740000018002070470000022A34D1284A294B53
:105750000A449A4202D24FF470512EE0264A274B57
:105760000A449A4202D24FF4605126E0244A254B63
:105770000A449A4202D24FF450511EE0224A234B6F
:105780000A449A4202D24FF4405116E0204A214B7B
:105790000A449A4202D24FF430510EE01E4A1F4B87
:1057A0000A449A4202D24FF4205106E01C4A1D4B93
:1057B0000A449A420AD24FF41051C26822F470523D
:1057C000C260C2681143C16000207047164A174B7F
:1057D0000A449A4202D24FF40051EEE7144A154BA4
:1057E0000A444FF4C0519A4238BF4FF4E051E4E705
:1057F000405327FF00350C00401E1BFF40420F00A6
:1058000000DC0BFF804F1200808CF9FE20D61300C5
:1058100060B6E5FE60E3160000D3CEFE40771B00C5
:10582000C05BB3FEC091210000CA91FE2075380014
:10583000E05459FEE09C4100DDF800C0BCF1000FCF
:105840000DD103334FEA023C00F580509B0804E081
:1058500051F8042B013B4CF80020002BF8D100201C
:105860007047FEE780B5FBF78BFCFEF711F8FDF7FC
:105870005BFDFDF707FDFDF7C7FCFDF78DFEFDF7AE
:10588000EFFEFDF71DFFFDF749FFFDF751FEFDF7A8
:10589000D9FCFDF709FEFDF725FEFDF76DFFFDF7CD
:1058A00087FFFDF7A5FFFDF7BFFFFEE74FF0407054
:1058B000E1EE100A70470000000000000000010245
:1058C00003040607080900000000010203040000A9
:1058D000F05800080000002000010000C40100088A
:1058E000F059000800010020E8C20000E0010008B3
:1058F000010000001000000000000000314300081B
:1059000065430008714300089D430008CD4300082B
:105910000D4300083D4300080024F4003140000816
:10592000C13E00089141000800000000213F00082E
:10593000113E0008813E0008000000000000000049
:1059400000000000A53F0008653F0008E93F00088F
:10595000593F000809024300020100C03209040057
:1059600000010202010005240010010524010001CC
:105970000424020205240600010705820308001022
:1059800009040100020A00000007050102400000AE
:1059900007058102400000000A06000200000040E6
:1059A000010000001201000202020040830440577F
:1059B0000002010203010000510400084D04000828
:1059C0004904000875040008910400080403090450
:1059D0001A030000000000000000000000000000AA
:1059E00000000000000000000000000000000000B7
:040000050800018965
:00000001FF
