:020000040800F2
:1000000060D60020A10100081D860008817100084B
:10001000198600084D03000819E3000800000000DD
:100020000000000000000000000000008D900008AB
:100030008907000800000000658A0008299100086F
:10004000BB010008BB010008BB010008BB010008A0
:10005000BB010008BB0100088D070008BB010008B8
:10006000BB01000899070008A5070008BB010008AC
:10007000A1040008B1040008BB010008C104000885
:10008000BB010008BB010008BB010008BB01000860
:100090005103000861030008BB010008B107000814
:1000A000BB010008BB010008BB010008BB01000840
:1000B000BB010008BB01000809920008BB01000851
:1000C000BB010008BB010008BB010008BB01000820
:1000D000BB010008F1A20008BB01000801A3000851
:1000E000BB010008BB010008BB010008BB01000800
:1000F000BB010008BB010008BB010008BB010008F0
:10010000BB010008BB01000819920008BB010008F0
:10011000BB010008BB010008BB010008BB010008CF
:10012000BB010008D1040008E1040008F104000844
:10013000BB010008BB010008BB010008BB010008AF
:100140007103000881030008BB010008A1860008B4
:1001500001050008110500082105000811A3000889
:10016000BB010008BB010008BB010008BB0100087F
:10017000BB010008BB010008BB0100080000000033
:10018000BB010008BB010008DFF810D000F0A0F8A8
:1001900000F06EF8004800477538010860D600206E
:1001A0000648804706480047FEE7FEE7FEE7FEE711
:1001B000FEE7FEE7FEE7FEE7FEE7FEE7F591000853
:1001C000890100082DE9F05F0546002092469B4614
:1001D00088460646814640241BE02846414647465D
:1001E000224600F064F853465A46C01A914110D393
:1001F00011461846224600F04BF82D1A67EB01080D
:100200004F4622460120002100F042F817EB00097A
:100210004E41201EA4F10104DFDC484631462A4647
:100220004346BDE8F09F40EA01039B0703D009E085
:1002300008C9121F08C0042AFAD203E011F8013BD2
:1002400000F8013B521EF9D27047D2B201E000F82B
:10025000012B491EFBD270470022F6E710B513466A
:100260000A4604461946FFF7F0FF204610BD00007D
:1002700070B5054C054D03E0206820448047241DDF
:10028000AC42F9D170BD00002040010834400108A3
:10029000202A04DB203A00FA02F100207047914046
:1002A000C2F1200320FA03F3194390407047202A3B
:1002B00004DB203A21FA02F00021704721FA02F310
:1002C000D040C2F120029140084319467047000017
:1002D000064C074D06E0E06840F0010394E8070093
:1002E00098471034AC42F6D3FFF752FF00400108A4
:1002F0002040010870B58C1810F8015B15F0070359
:1003000001D110F8013B2A1106D110F8012B03E0AE
:1003100010F8016B01F8016B5B1EF9D12B0705D4B6
:100320000023521E0DD401F8013BFAE710F8013BFF
:10033000CB1A921C03E013F8015B01F8015B521E1B
:10034000F9D5A142D8D3002070BD0000FFE7FEE739
:1003500080B542F2B460C2F2000000F085FB80BDBF
:1003600080B542F2B460C2F2000000F07DFB80BDB7
:1003700080B542F2DC60C2F2000000F075FB80BD87
:1003800080B542F2DC60C2F2000000F06DFB80BD7F
:1003900080B587B013468C4686468DF81B000591C4
:1003A000ADF812209DF81B00014623280393CDF8D9
:1003B00008C0CDF804E000911DD80099DFE801F0F5
:1003C00012131415161B1B1B1B1B1B1B1B1B1B1BA0
:1003D0001B1B1B1B1B1B1B1B1B1B1B1B1B1B1B1B6D
:1003E0001718191A08E007E006E005E004E003E04A
:1003F00002E001E000E0FFE7002007B080BD000060
:100400000020704780B584B042F2D830C2F20000BC
:1004100041F62831C2F200010022039002920AF054
:10042000A9FB41F22831C2F20001039A0190104663
:100430000AF07CFB02990090084604B080BD0000E1
:1004400080B588B00A46034607900691079942F2A4
:10045000D830C2F200000590049203930AF066FBC4
:100460000599029008460AF0FBFA0021019008461F
:1004700008B080BD80B586B013468C468646059090
:1004800004918DF80F2000208DF80E009DF90E00CC
:100490000293CDF804C0CDF800E006B080BD0000A6
:1004A00080B542F64410C2F2000001F021F880BD90
:1004B00080B542F20470C2F2000001F019F880BD6C
:1004C00080B542F26470C2F2000001F011F880BD04
:1004D00080B542F6A410C2F2000001F009F880BD18
:1004E00080B542F2C470C2F2000001F001F880BD94
:1004F00080B542F62400C2F2000000F0F9FF80BD92
:1005000080B542F68400C2F2000000F0F1FF80BD29
:1005100080B542F60420C2F2000000F0E9FF80BD81
:1005200080B542F6E400C2F2000000F0E1FF80BDB9
:1005300084B0014603900398007810384AF6AB2245
:10054000CAF6AA22A0FB020212090292029A43F6FC
:100550001273C0F601039A5C039BDA65029A042ABF
:100560000191009007D3FFE703980168042262F32A
:100570000901816506E00398016840F2FF3291436A
:100580008165FFE70398806D04B0704787B001462E
:10059000069000208DF817000698806A049006984F
:1005A00080690028039122D1FFE704980328029074
:1005B0001BD80299DFE801F0020D02180698C06A04
:1005C000C001002804D5FFE701208DF81700FFE7E0
:1005D0000CE00698C06AB0F1C07F04D1FFE70120AB
:1005E0008DF81700FFE701E000E0FFE745E006981F
:1005F0008069B0F5005F25D1FFE7049803280190DA
:100600001ED80199DFE801F00206021101208DF8E1
:10061000170016E00698C06AC001002804D5FFE75D
:1006200001208DF81700FFE70BE00698C06AB0F1D3
:10063000C07F04D1FFE701208DF81700FFE700E03D
:10064000FFE719E004980328009004D3FFE700981F
:10065000032804D00EE001208DF817000BE0069867
:10066000C06AC001002804D5FFE701208DF81700FB
:10067000FFE700E0FFE7FFE7FFE79DF8170007B09F
:1006800070470000B0B588B09C4696460C460546BB
:10069000079006910592049307980068016821F479
:1006A000802101600498079909684860079880686C
:1006B0004028CDF80CC0CDF808E00194009509D190
:1006C000FFE70598079909688860069807990968FF
:1006D000C86008E006980799096888600598079936
:1006E0000968C860FFE708B0B0BD000080B584B0FD
:1006F000014603904EF6FC50CEF20000026842F034
:100700008072026041F20400CEF20000002202601A
:1007100041F20000CEF20000036843F001030360E1
:10072000039844F24023C0F20F03584340F22023C1
:10073000C2F200031860186844F6D35CC1F2620C80
:10074000A0FB0C0C4FEA9C1C40F2242EC2F2000EBF
:10075000CEF800C01B684DF6836CC4F21B3CA3FBB3
:100760000C3C4FEA9C4C40F2282EC2F2000ECEF810
:1007700000C040F23C2CC2F2000CCCF800200291E8
:100780000193009004B080BD7047000080B5012047
:1007900001F0BAF980BD000080B5082001F0B4F97D
:1007A00080BD000080B5102001F0AEF980BD0000D2
:1007B00080B5202001F0A8F980BD000072B6FFE7E7
:1007C000FEE7000080B584B047F61020C1F6FF7048
:1007D0000068039047F61420C1F6FF70006802908D
:1007E00047F61820C1F6FF70006801900198039940
:1007F000084403900398002813D0FFE7039840F2C1
:100800007C11C2F200018A1C0823009111461A468D
:1008100007F03AFA029800991231042207F034FAEC
:10082000FFE704B080BD000082B001460190009156
:1008300002B07047B0B58AB09C4696460C46054655
:100840000890079106920593089890F820008DF87B
:1008500013009DF813000128CDF80CC0CDF808E076
:100860000194009506D0FFE79DF81300022840F0A0
:10087000ED80FFE70798002811D1FFE7089800688E
:10088000C06810F0030F09D1FFE70898416A41F4EE
:100890000011416201208DF82700E0E010E0089887
:1008A0000068006910F0030F09D1FFE70898416A5A
:1008B00041F40011416201208DF82700CFE0FFE7ED
:1008C00008980068079900EB0110D0F8B00100F01B
:1008D0000400069988600698806800280BD1FFE71D
:1008E00008980068079900EB0110D0F8B001400D9E
:1008F000069908600AE008980068079900EB011063
:10090000D0F8B001C00806994860FFE70898006871
:10091000079900EB0110D0F8B00100F00200069931
:10092000C86008980068079900EB0110D0F8B4017E
:1009300000F00F00082804D3FFE7069808210161A2
:100940000BE008980068079900EB0110D0F8B4019B
:1009500000F00F0006990861FFE708980068079902
:1009600000EB0110D0F8B401C0F3072006998861AC
:1009700008980068079900EB0110D0F8B401000C4A
:100980000699486108980068079900EB0110D0F8B3
:10099000B8010599087008980068079900EB0110E4
:1009A000D0F8B801000A05994870089800680799BE
:1009B00000EB0110D0F8B801000C05998870089878
:1009C0000068079900EB0110D0F8B801000E0599F6
:1009D000C87008980068079900EB0110D0F8BC01B6
:1009E0000599087108980068079900EB0110D0F884
:1009F000BC01000A0599487108980068079900EB46
:100A00000110D0F8BC01000C0599887108980068A5
:100A1000079900EB0110D0F8BC01000E0599C871D0
:100A20000798002807D1FFE708980068C16841F0DF
:100A30002001C16006E008980068016941F02001CA
:100A40000161FFE700208DF8270008E00898416A5F
:100A500041F48021416201208DF82700FFE79DF8D5
:100A600027000AB0B0BD000080B58AB001460990E9
:100A7000002008900998006840690790099800686C
:100A80004068069009980068806805900998006899
:100A9000C06804900998006800690390099800688C
:100AA000806902909DF81C00C0070028019100F0A9
:100AB0009780FFE79DF81400C00700282BD0FFE7C0
:100AC00009980068012181609DF8140080070028C2
:100AD00004D5FFE7099800F045FC1BE09DF81400E1
:100AE0004007002805D5FFE7089840F4006008900B
:100AF0000FE09DF814000007002805D5FFE70898CF
:100B000040F48050089003E0099800F025FCFFE7CE
:100B1000FFE7FFE7FFE79DF81500C00700282CD08E
:100B2000FFE7099800684FF4807181609DF8150017
:100B30008007002804D5FFE7099800F01FFC1BE0A0
:100B40009DF815004007002805D5FFE7089840F4F8
:100B5000005008900FE09DF815000007002805D50B
:100B6000FFE7089840F48040089003E0099800F0FF
:100B7000FFFBFFE7FFE7FFE7FFE79DF81600C00771
:100B800000282CD0FFE7099800684FF4803181607D
:100B90009DF816008007002804D5FFE7099800F0AB
:100BA000F9FB1BE09DF816004007002805D5FFE77C
:100BB000089840F4004008900FE09DF816000007E8
:100BC000002805D5FFE7089840F48030089003E03E
:100BD000099800F0D9FBFFE7FFE7FFE7FFE7FFE732
:100BE0009DF81C000007002810D5FFE79DF81000B5
:100BF000C006002809D5FFE7089840F40070089067
:100C0000099800681021C160FFE7FFE79DF81C000C
:100C1000400700280FD5FFE79DF8100000070028C7
:100C200008D5FFE7099800680821C160099800F01D
:100C3000F5FAFFE7FFE79DF81C00800700280CD5B8
:100C4000FFE709980068C06810F0030F04D0FFE7C1
:100C5000099800F0E9FAFFE7FFE79DF81C0040065D
:100C6000002810D5FFE79DF80C00C006002809D524
:100C7000FFE7089840F48060089009980068102108
:100C80000161FFE7FFE79DF81C00800600280FD5F3
:100C9000FFE79DF80C000007002808D5FFE709983A
:100CA000006808210161099800F004FBFFE7FFE7F5
:100CB0009DF81C00C00600280CD5FFE709980068C5
:100CC000006910F0030F04D0FFE7099800F0F8FA6C
:100CD000FFE7FFE79DF81E00800700280FD5FFE71C
:100CE0009DF81800C006002808D5FFE7099800689D
:100CF00010214160099800F029FBFFE7FFE79DF80C
:100D00001E00C00700280FD0FFE79DF8180000075D
:100D1000002808D5FFE70998006808214160099874
:100D200000F03EFBFFE7FFE79DF81D0000060028EE
:100D300040F18F80FFE79DF818004007002840F140
:100D40008380FFE79DF81D00C00700280BD0FFE758
:100D50009DF80800C007002805D0FFE7089840F07C
:100D600001000890FFE79DF81D00800700280BD5C3
:100D7000FFE79DF808008007002805D5FFE70898E1
:100D800040F002000890FFE79DF81D004007002892
:100D90000BD5FFE79DF808004007002805D5FFE7C1
:100DA000089840F004000890FFE79DF81D00000738
:100DB000002848D5FFE79DF8080010F0700F42D0DA
:100DC000FFE7029800F0700001461028009114D04F
:100DD000FFE70098202815D0FFE70098302816D0AC
:100DE000FFE70098402817D0FFE70098502818D058
:100DF000FFE70098602819D01DE0089840F008002F
:100E0000089019E0089840F01000089014E0089845
:100E100040F0200008900FE0089840F04000089053
:100E20000AE0089840F08000089005E0089840F437
:100E30008070089000E0FFE709980068816921F060
:100E400070018161FFE7FFE70998006804214160B4
:100E5000FFE70898002809D0FFE7089809994A6A2F
:100E6000104348620998FFF7DFFCFFE70AB080BD36
:100E700080B584B00146029002980028009104D108
:100E8000FFE701208DF80F00E6E0029890F82000BF
:100E9000002804D1FFE7029800F0E2F8FFE702988B
:100EA0000068016841F00101016001F06DF80190F6
:100EB000FFE702980068406810F0010F17D1FFE7C4
:100EC00001F062F8DDF804E0A0EB0E000B280DD372
:100ED000FFE70298416A41F400314162029805211E
:100EE00080F8201001208DF80F00B5E0E1E70298AE
:100EF0000068016821F00201016001F045F80190ED
:100F0000FFE702980068406810F0020F17D0FFE773
:100F100001F03AF8DDF804E0A0EB0E000B280DD349
:100F2000FFE70298416A41F40031416202980521CD
:100F300080F8201001208DF80F008DE0E1E7029885
:100F4000007E012807D1FFE702980068016841F0A0
:100F50008001016006E002980068016821F08001CC
:100F60000160FFE70298407E012807D1FFE7029861
:100F70000068016841F04001016006E002980068E5
:100F8000016821F040010160FFE70298807E01289E
:100F900007D1FFE702980068016841F02001016075
:100FA00006E002980068016821F020010160FFE777
:100FB0000298C07E012807D1FFE702980068016807
:100FC00021F01001016006E002980068016841F01C
:100FD00010010160FFE70298007F012807D1FFE7B9
:100FE00002980068016841F00801016006E002987B
:100FF0000068016821F008010160FFE70298407F66
:10100000012807D1FFE702980068016841F0040158
:10101000016006E002980068016821F004010160A7
:10102000FFE70298016842688368D0F80CC043EA81
:101030000C03D0F810C043EA0C0340691843013A8E
:101040001043C8610298002141620298012280F891
:1010500020208DF80F10FFE79DF80F0004B080BD31
:1010600080B598B001461790002016901590149006
:10107000139012901798006846F20042C4F20002E2
:1010800090420C9155D1FFE740F24020C2F200009F
:101090000168013101600068012813D1FFE7FFE713
:1010A0000020119043F64000C4F20200016841F0B4
:1010B00000710160006800F00070119011980B90B1
:1010C000FFE7FFE7FFE70020109043F63000C4F28F
:1010D0000200016841F008010160006800F00800AA
:1010E000109010980A90FFE70320129002211391AC
:1010F0000021149115900920169040F60040C4F28A
:10110000020012AA0991114600F01CFD142008905B
:101110000999099A01F062FD089801F053FD152024
:1011200007900999099A01F059FD079801F04AFDC5
:1011300072E01798006846F60001C4F20001884288
:1011400069D1FFE7FFE700200F9043F64000C4F2AB
:101150000200016841F080610160006800F0806079
:101160000F900F980690FFE740F24020C2F2000077
:101170000168013101600068012813D1FFE7FFE732
:1011800000200E9043F64000C4F20200016841F0D6
:1011900000710160006800F000700E900E980590DC
:1011A000FFE7FFE7FFE700200D9043F63000C4F2B1
:1011B0000200016841F002010160006800F00200D5
:1011C0000D900D980490FFE760201290022013907C
:1011D00000201490032115910921169140F200413D
:1011E000C4F2020112AA03900846114600F0AAFCBC
:1011F000402002900399039A01F0F0FC029801F05C
:10120000E1FC412001900399039A01F0E7FC019869
:1012100001F0D8FCFFE7FFE718B080BD82B00146BF
:101220000190009102B0704780B588B001460790E8
:101230000798006846F20042C4F20002904206910C
:1012400016D1FFE7079840F2C811C2F200010A1D4B
:1012500001F120034FF0000C059161460492FFF765
:10126000E9FA05998A6A049B0390184690471FE0A3
:101270000798006846F60001C4F20001884216D1C2
:10128000FFE7079840F2F411C2F200010A1D01F1D4
:1012900020034FF0000C029161460192FFF7CAFA59
:1012A00002998A6A019B009018469047FFE7FFE782
:1012B00008B080BD82B001460190009102B0704735
:1012C00080B588B0014607900798006846F2004252
:1012D000C4F200029042069116D1FFE7079840F24F
:1012E000C811C2F200010A1D01F120034FF0010CE8
:1012F000059161460492FFF79DFA05998A6A049B5D
:101300000390184690471FE00798006846F60001D2
:10131000C4F20001884216D1FFE7079840F2F411A9
:10132000C2F200010A1D01F120034FF0010C0291ED
:1013300061460192FFF77EFA02998A6A019B00904A
:1013400018469047FFE7FFE708B080BD82B001462E
:101350000190009102B0704782B001460190009167
:1013600002B0704782B001460190009102B0704710
:1013700082B001460190009102B0704782B00146F0
:101380000190009102B0704782B001460190009137
:1013900002B0704782B001460190009102B07047E0
:1013A00082B001460190009102B0704780B586B0CE
:1013B000014604900498806D0390019100F0E4FDD3
:1013C0000290049890F8350002280DD0FFE70498A9
:1013D00080214165FFE70498002180F83410FFE781
:1013E00001208DF817005BE004980068016821F087
:1013F0001601016004980068416921F08001416193
:101400000498006C002805D1FFE70498806C002840
:1014100007D0FFE704980068016821F00801016027
:10142000FFE704980068016821F001010160FFE70F
:1014300004980068006810F0010F1BD0FFE700F06F
:10144000A3FDDDF808E0A0EB0E00062811D3FFE7AE
:101450000498202141650498032180F83510FFE7A6
:101460000498002180F83410FFE703208DF817005E
:1014700016E0DDE70498C06D3F2101FA00F0039902
:1014800088600498012180F83510FFE70498002156
:1014900080F83410FFE7FFE700208DF81700FFE722
:1014A0009DF8170006B080BD83B0014601900198F9
:1014B00090F835000228009107D0FFE701988021BD
:1014C000416501208DF80B000EE00198052180F8A0
:1014D000351001980068016821F001010160FFE703
:1014E00000208DF80B00FFE79DF80B0003B070475C
:1014F00080B588B0014607900020059040F2C400F6
:10150000C2F20000006848F2B512C1F64E32A0FBEC
:101510000202920A0492079A926D0392039A126849
:101520000692069A079BDB6D4FF0080C0CFA03F34A
:101530001A42029101901BD0FFE7079800680068EB
:1015400010F0040F13D0FFE707980068016821F03E
:10155000040101600798C06D082101FA00F00399A9
:1015600088600798416D41F001014165FFE7FFE7A1
:1015700006980799C96D012202FA01F1084215D0B7
:10158000FFE707980068406910F0800F0DD0FFE773
:101590000798C06D012101FA00F00399886007984F
:1015A000416D41F002014165FFE7FFE706980799A9
:1015B000C96D042202FA01F1084215D0FFE707982D
:1015C0000068006810F0020F0DD0FFE70798C06DAB
:1015D000042101FA00F0039988600798416D41F0F9
:1015E00004014165FFE7FFE706980799C96D1022DE
:1015F00002FA01F108424BD0FFE707980068006843
:1016000010F0080F43D0FFE70798C06D102101FAD2
:1016100000F00399886007980068006810F4802F34
:101620001CD0FFE707980068006810F4002F0AD16B
:10163000FFE70798006C002804D0FFE70798016CCB
:101640008847FFE709E00798806C002804D0FFE78F
:101650000798816C8847FFE7FFE717E00798006865
:10166000006810F4807F07D1FFE7079800680168E1
:1016700021F008010160FFE70798006C002804D002
:10168000FFE70798016C8847FFE7FFE7FFE7FFE701
:1016900006980799C96D202202FA01F1084200F06C
:1016A0009580FFE707980068006810F0100F00F0C1
:1016B0008C80FFE70798C06D202101FA00F00399A4
:1016C0008860079890F83500052838D1FFE707981B
:1016D0000068016821F016010160079800684169FF
:1016E00021F0800141610798006C002805D1FFE7D7
:1016F0000798806C002807D0FFE70798006801680A
:1017000021F008010160FFE70798C06D3F2101FA51
:1017100000F0039988600798012180F83510FFE7F1
:101720000798002180F83410FFE70798006D002823
:1017300004D0FFE70798016D8847FFE781E007982D
:101740000068006810F4802F1CD0FFE7079800683D
:10175000006810F4002F0AD1FFE70798406C0028BA
:1017600004D0FFE70798416C8847FFE709E0079836
:10177000C06B002804D0FFE70798C16B8847FFE7DC
:10178000FFE721E007980068006810F4807F11D11E
:10179000FFE707980068016821F0100101600798D1
:1017A000012180F83510FFE70798002180F83410F8
:1017B000FFE7FFE70798C06B002804D0FFE7079812
:1017C000C16B8847FFE7FFE7FFE7FFE70798406D3A
:1017D000002836D0FFE70798406D10F0010F26D0A3
:1017E000FFE70798052180F8351007980068016821
:1017F00021F001010160FFE705980130059004998F
:10180000884201D9FFE707E0FFE707980068006812
:1018100010F0010FF0D1FFE70798012180F8351093
:10182000FFE70798002180F83410FFE7FFE70798EB
:10183000C06C002804D0FFE70798C16C8847FFE719
:10184000FFE708B080BD000080B586B00146049077
:1018500000200390009100F097FB0290049800286C
:1018600004D1FFE701208DF81700AAE00498406A30
:10187000002801D0FFE7FFE70498022180F8351027
:10188000FFE70498002180F83410FFE7049800680F
:10189000016821F001010160FFE704980068006819
:1018A00010F0010F14D0FFE700F06EFBDDF808E048
:1018B000A0EB0E0006280AD3FFE70498202141651B
:1018C0000498032180F835108DF8171079E0E4E7CB
:1018D0000498006800680390039848F23F01CFF233
:1018E000100108400390049841688268C368D0F8EA
:1018F00010C01143194341EA0C0142691143826946
:101900001143C2691143006A0843039908430390D5
:101910000498406A042808D1FFE70498C16A006B64
:101920000843039908430390FFE703980499096863
:1019300008600498006840690390039820F007004D
:1019400003900498406A0399084303900498406AFE
:1019500004281CD1FFE70498806A03990843039088
:101960000498C06A002811D0FFE70498FEF70EFE25
:1019700000280AD0FFE7049840214165049801211E
:1019800080F835108DF817101BE0FFE7FFE703988C
:101990000499096848610498FEF7CAFD019004980B
:1019A000C06D3F2101FA00F0019988600498002180
:1019B000416504984FF0010E80F835E08DF817105E
:1019C000FFE79DF8170006B080BD0000B0B58CB0F1
:1019D0009C4696460C4605460A9009910892079344
:1019E00000208DF81B000A98806D0590CDF810C07E
:1019F000CDF80CE002940195FFE70A9890F83400C6
:101A0000012804D1FFE702208DF82F0047E00A9853
:101A1000012180F83410FFE7FFE70A9890F83500BD
:101A200001282DD1FFE70A98022180F835100A9885
:101A3000002141650A980999089A079BFEF722FE42
:101A40000A98C06D3F2101FA00F0059988600A9854
:101A50000068016841F0160101600A98006C0028D6
:101A600007D0FFE70A980068016841F008010160AB
:101A7000FFE70A980068016841F00101016009E090
:101A8000FFE70A98002180F83410FFE702208DF864
:101A90001B00FFE79DF81B008DF82F00FFE79DF866
:101AA0002F000CB0B0BD000080B584B0014603909B
:101AB000009100F069FA02900398019001980130BA
:101AC000002809D0FFE740F2BC10C2F20000007805
:101AD000019908440190FFE7FFE700F055FADDF8AF
:101AE00008E0A0EB0E00DDF804E0704501D2FFE74E
:101AF000F3E704B080BD000082B00146ADF80600F7
:101B0000009102B07047000080B582B00146ADF888
:101B1000060043F61440C4F201000068BDF8062038
:101B2000104200910CD0FFE7BDF8060043F61441C7
:101B3000C4F201010860BDF80600FFF7DDFFFFE712
:101B400002B080BD91B00A46034610900F9100206C
:101B50000D900C900B900E9009920893FFE70E9851
:101B60000F2800F2D581FFE70E98012101FA00F05D
:101B70000D900F9800680D9908400C900C980D99E5
:101B8000884240F0C081FFE70F98406800F00300F2
:101B9000012807D0FFE70F98406800F003000228F3
:101BA0002FD1FFE7109880680B900E98400003211A
:101BB00001FA00F00B9921EA00000B900F98C06821
:101BC0000E99490088400B9908430B900B98109987
:101BD0008860109840680B900E98012101FA00F07F
:101BE0000B9921EA00000B900F984068C0F3001099
:101BF0000E9988400B9908430B900B9810994860F8
:101C0000FFE70F98406800F00300032818D0FFE7B3
:101C10001098C0680B900E984000032101FA00F064
:101C20000B9921EA00000B900F9880680E994900EB
:101C300088400B9908430B900B981099C860FFE7F8
:101C40000F98406800F00300022828D1FFE71098A1
:101C50000E994FF6FC72C7F6FF7202EA5101084472
:101C6000006A0B900E9800F0070080000F2101FA27
:101C700000F00B9921EA00000B900F9800690E9973
:101C800001F00701890088400B9908430B900B98DD
:101C900010990E9B02EA530211440862FFE7109864
:101CA00000680B900E984000032101FA00F00B9998
:101CB00021EA00000B900F98406800F003000E9995
:101CC000490088400B9908430B900B9810990860C5
:101CD0000F9880798007002800F01481FFE7FFE764
:101CE00000200A9043F64400C4F20200016841F467
:101CF00080410160006800F480400A900A980790D3
:101D0000FFE70E9820F0030043F60801C4F201013A
:101D100040580B900E9800F0030080000F2101FA4C
:101D200000F00B9921EA00000B9010980021C4F2FA
:101D30000201884203D1FFE7002006905EE0109880
:101D400040F20041C4F20201884203D1FFE70120C2
:101D5000059050E0109840F60001C4F2020188425C
:101D600003D1FFE70220049042E0109840F60041C2
:101D7000C4F20201884203D1FFE70320039034E05C
:101D8000109841F20001C4F20201884203D1FFE73A
:101D90000420029026E0109841F20041C4F20201B2
:101DA000884203D1FFE70520019018E0109841F622
:101DB0000001C4F20201884203D1FFE7062000902F
:101DC0000AE0109841F60041C4F20201082288425C
:101DD00008BF07220092FFE700980190FFE70198F3
:101DE0000290FFE702980390FFE703980490FFE753
:101DF00004980590FFE705980690FFE70698C0B2A3
:101E00000E9901F00301890088400B9908430B905B
:101E10000B980E9921F0030143F60802C4F2010267
:101E2000885043F60840C4F2010000680B900C98FB
:101E30000B9921EA00000B900F988079C0060028CA
:101E400005D5FFE70C980B9908430B90FFE70B981B
:101E500043F60841C4F20101086043F60C40C4F2A5
:101E6000010000680B900C980B9921EA00000B9080
:101E70000F9880798006002805D5FFE70C980B990C
:101E800008430B90FFE70B9843F60C41C4F20101A5
:101E9000086043F60440C4F2010000680B900C98FF
:101EA0000B9921EA00000B900F9880798007002899
:101EB00005D5FFE70C980B9908430B90FFE70B98AB
:101EC00043F60441C4F20101086043F60040C4F245
:101ED000010000680B900C980B9921EA00000B9010
:101EE0000F988079C007002805D0FFE70C980B9960
:101EF00008430B90FFE70B9843F60041C4F2010141
:101F00000860FFE7FFE7FFE70E9801300E9026E636
:101F100011B0704785B00A4603460490ADF80E1024
:101F20000498406902900298BDF80E1000EA010C76
:101F300021EA000040EA0C40049988610192009374
:101F400005B0704780B585B013468C468646049030
:101F5000ADF80E108DF80D209DF80D0000280293AD
:101F6000CDF804C0CDF800E005D0FFE7BDF80E00C5
:101F70000499886105E0BDF80E00000404998861A9
:101F8000FFE705B080BD000043F25C60C2F20000D4
:101F90000068704780B590B001460E900E980028FA
:101FA0000B9104D1FFE701208DF83F004FE10E981F
:101FB00090F83D00002808D1FFE70E98002180F836
:101FC0003C100E9800F0A0FCFFE70E98242180F84A
:101FD0003D100E980068016821F0010101600E9823
:101FE0000068016841F4004101600E9800680168D2
:101FF00021F40041016002F0BFF90C900E98406896
:1020000048F2A061C0F2010188420BD8FFE70C98AA
:1020100048F28041C0F21E010022884238BF0122EE
:102020000A920AE00C9840F60011C0F23D0100222D
:10203000884238BF01220A92FFE70A98012804D19A
:10204000FFE701208DF83F0001E10C984DF6836118
:10205000C4F21B31A0FB0101890C0D910E99096896
:10206000496821F03F010D9A11430E9A12685160A0
:102070000E990968096A21F03F010E9A526848F2E8
:10208000A063C0F201039A420990089104D8FFE7C7
:102090000D98013007900FE00D984FF4967148436A
:1020A00044F6D351C1F26201A0FB0101012202EB0F
:1020B000911106900791FFE70798089908430E9A37
:1020C000126810620E980068C0694CF6FF72904367
:1020D0000E9A526848F2A063C0F201039A4205903A
:1020E0001FD8FFE70C9801380E9949684900B0FBEA
:1020F000F1F001306FF31F30032803D8FFE704200D
:1021000004900BE00C9801380E9949684900B0FB27
:10211000F1F001306FF31F300490FFE70498039053
:102120004FE00E98806800280DD1FFE70C98013829
:102130000E99496801EB4101B0FBF1F001306FF3FA
:102140001F3002900DE00C9801380E994968192251
:102150005143B0FBF1F00130042161F31F300290D4
:10216000FFE702980005002803D1FFE70120019056
:1021700024E00E98806800280DD1FFE70C98013804
:102180000E99496801EB4101B0FBF1F001306FF3AA
:102190001F3000900DE00C9801380E994968192203
:1021A0005143B0FBF1F00130042161F31F30009086
:1021B000FFE7009840F400400190FFE7019803908A
:1021C000FFE70398059908430E9A1268D0610E98AC
:1021D0000068006820F0C0000E9A1368D2F81CC096
:1021E000126A42EA0C02104318600E980068806878
:1021F00048F2FF3290430E9A1368D2F80CC012696D
:1022000042EA0C02104398600E980068C06820F003
:10221000FF000E9A1368D2F814C0926942EA0C02C9
:102220001043D8600E980068026842F00102026014
:102230000E98002202640E98202380F83D300E98FC
:1022400002630E9880F83E208DF83F20FFE79DF84E
:102250003F0010B080BD00002DE9F04196B0DDF8E0
:1022600078C0DDF874E01C9C1D4616460F4680467B
:102270001490ADF84E10ADF84C20ADF84A30ADF8E2
:1022800048E00C950B960A97CDF82480CDF820C035
:102290000794FFF779FE1190149890F83D002028DC
:1022A00040F00D82FFE7149811996A4611600221EF
:1022B000C0F210010122192305F0B4F9002804D05E
:1022C000FFE702208DF85700FDE1FFE7149890F832
:1022D0003C00012804D1FFE702208DF85700F2E10D
:1022E0001498012180F83C10FFE7FFE7149800687C
:1022F000006800F00100012807D0FFE7149800688B
:10230000016841F001010160FFE71498006801686D
:1023100021F4006101601498222180F83D10149886
:10232000402180F83E101498002101641C981499F3
:102330004862BDF84800149948851498408D149956
:10234000088514980021CFF6FF71C16214981E9978
:10235000119ABDF84A30BDF84CC0BDF84EE06C464D
:10236000626021607146624604F040FF002804D09C
:10237000FFE701208DF85700A5E11498008D002893
:1023800015D1FFE7FFE7002010901498006840691E
:102390001090149800688069109010980690FFE7DC
:1023A00014980068016841F40071016050E01498CD
:1023B000008D01281BD1FFE714980068016821F403
:1023C00080610160FFE700200F9014980068406969
:1023D0000F901498006880690F900F980590FFE7A0
:1023E00014980068016841F4007101602FE01498AE
:1023F000008D02281BD1FFE714980068016821F4C2
:102400008061016014980068016841F40061016016
:10241000FFE700200E901498006840690E90149811
:10242000006880690E900E980490FFE70EE0FFE7C9
:1024300000200D901498006840690D901498006871
:1024400080690D900D980390FFE7FFE7FFE7FFE736
:10245000FFE71498008D002800F01F81FFE7149813
:10246000008D032800F2D080FFE71498008D01282A
:102470001FD1FFE714981E99119A05F021FA002840
:1024800004D0FFE701208DF857001CE11498006884
:1024900000691499496A08701498416A01314162CF
:1024A0001498018D013901851498418D01394185B8
:1024B000A9E01498008D02283DD1FFE714981E9BD7
:1024C00011996A4611600421C0F20101002205F051
:1024D000A9F8002804D0FFE701208DF85700F2E0AA
:1024E00014980068016841F4007101601498006854
:1024F00000691499496A08701498416A013141626F
:102500001498018D013901851498418D0139418557
:102510001498006800691499496A08701498416A0F
:10252000013141621498018D013901851498418D62
:102530000139418566E014981E9B11996A46116025
:102540000421C0F20101002205F06CF8002804D03B
:10255000FFE701208DF85700B5E014980068016886
:1025600021F4806101601498006800691499496A37
:1025700008701498416A013141621498018D013943
:1025800001851498418D0139418514981E9B11993C
:102590006A4611600421C0F20101002205F042F8F0
:1025A000002804D0FFE701208DF857008BE0149835
:1025B0000068016841F400710160149800680069C6
:1025C0001499496A08701498416A0131416214985B
:1025D000018D013901851498418D01394185149887
:1025E000006800691499496A08701498416A0131B9
:1025F00041621498018D013901851498418D01398A
:102600004185FFE7FFE747E014981E99119A05F00E
:1026100057F9002804D0FFE701208DF8570052E059
:102620001498006800691499496A08701498416AFE
:10263000013141621498018D013901851498418D51
:102640000139418514980068406900F004000121B7
:10265000B1EB900F1FD1FFE71498008D032807D12D
:10266000FFE714980068016821F480610160FFE7CA
:102670001498006800691499496A08701498416AAE
:10268000013141621498018D013901851498418D01
:1026900001394185FFE7FFE7DBE61498202180F848
:1026A0003D101498002180F83E10FFE71498002197
:1026B00080F83C10FFE700208DF8570003E002206F
:1026C0008DF85700FFE79DF8570016B0BDE8F08180
:1026D0002DE9F0418EB0DDF858C0DDF854E0149CCF
:1026E0001D4616460F4680460C90ADF82E10ADF8EC
:1026F0002C20ADF82A30ADF828E00895079606970B
:10270000CDF81480CDF810C00394FFF73DFC09907C
:102710000C9890F83D00202840F0EC80FFE70C98E2
:1027200009996A4611600221C0F2100101221923A1
:1027300004F078FF002804D0FFE702208DF837006E
:10274000DCE0FFE70C9890F83C00012804D1FFE79B
:1027500002208DF83700D1E00C98012180F83C1060
:10276000FFE7FFE70C980068006800F0010001280F
:1027700007D0FFE70C980068016841F00101016093
:10278000FFE70C980068016821F4006101600C9873
:10279000212180F83D100C98402180F83E100C98C3
:1027A0000021016414980C994862BDF828000C9926
:1027B00048850C98408D0C9908850C980021CFF61F
:1027C000FF71C1620C981699099ABDF82A30BDF8BC
:1027D0002CC0BDF82EE06C466260216071466246F6
:1027E00004F00CFE002804D0FFE701208DF837002C
:1027F00084E0FFE70C98008D00284BD0FFE70C9891
:102800001699099A05F0D6F8002810D0FFE70C9821
:10281000006C042807D1FFE70C980068016841F4B8
:1028200000710160FFE701208DF8370066E00C9829
:102830000168406A007808610C98416A0131416280
:102840000C98018D013901850C98418D0139418524
:102850000C980068406900F004000121B1EB900F72
:1028600017D1FFE70C98008D002812D0FFE70C98D5
:102870000168406A007808610C98416A0131416240
:102880000C98018D013901850C98418D01394185E4
:10289000FFE7AFE70C981699099A04F05FFE00284D
:1028A00010D0FFE70C98006C042807D1FFE70C98C4
:1028B0000068016841F400710160FFE701208DF8B4
:1028C00037001BE00C980068016841F4007101605A
:1028D0000C98202180F83D100C98002180F83E10C3
:1028E000FFE70C98002180F83C10FFE700208DF8EE
:1028F000370003E002208DF83700FFE79DF837002E
:102900000EB0BDE8F081000080B592B00146119094
:10291000002010900F900E900D900C901198006870
:1029200045F60042C4F200029042089140F0B780A0
:10293000FFE7FFE700200B9043F63000C4F20200EF
:10294000016841F004010160006800F004000B9090
:102950000B980790FFE7FFE700200A9043F630004E
:10296000C4F20200016841F001010160006800F05A
:1029700001000A900A980690FFE74FF400700C904F
:1029800012200D9001210E9103220F920423109327
:1029900040F6000CC4F2020C0DF1300E05906046BA
:1029A00004917146CDF80CE002930192FFF7CAF84A
:1029B0004FF480700C9005980D9004990E91019A37
:1029C0000F92029B10930020C4F202000399FFF7BC
:1029D000B9F8FFE70020099043F64000C4F2020076
:1029E000016841F400010160006800F400000990F2
:1029F00009980090FFE742F20470C2F2000046F22C
:102A00004001C4F2020101604FF0C0614160002149
:102A10008160C1604FF48062026141618161C16186
:102A200001624162FEF710FF002803D0FFE7FDF7C7
:102A3000C5FEFFE7FFE7119842F20471C2F2000100
:102A4000816311988863FFE742F26470C2F200006C
:102A500046F27001C4F2020101604FF0C0614160B2
:102A6000402181600021C1604FF4806202614161B8
:102A70008161C16101624162FEF7E6FE002803D078
:102A8000FFE7FDF79BFEFFE7FFE7119842F2647155
:102A9000C2F20001416311988863FFE7FFE712B0BB
:102AA00080BD000040F2BC10C2F20000007843F28A
:102AB0005C61C2F200010A681044086070470000BF
:102AC00080B582B043F60040C4F20200016841F4D0
:102AD00000710160016841F480610160016841F4A6
:102AE00080710160032000F09DF80F2000F006F8CF
:102AF000019000F03FF8002002B080BD80B584B0A6
:102B00000146029040F2C400C2F20000006840F2A8
:102B1000BC12C2F2000212784FF47A73B3FBF2F2E5
:102B2000B0FBF2F0019102F047FD002804D0FFE76E
:102B300001208DF80F0018E002980F280DD8FFE74C
:102B400002994FF0FF30002200F048F8029840F25E
:102B5000C011C2F20001086003E001208DF80F00EF
:102B600003E000208DF80F00FFE79DF80F0004B090
:102B700080BD000084B0FFE70020039043F64400CE
:102B8000C4F20200016841F480410160006800F471
:102B90008040039003980190FFE7FFE70020029038
:102BA00043F64000C4F20200016841F08051016028
:102BB000006800F08050029002980090FFE704B097
:102BC0007047000080B582B001468DF807009DF97E
:102BD0000700009110F01CFA02B080BD80B58AB0E9
:102BE00013468C4686468DF82700089107920020F0
:102BF00006900593CDF810C0CDF80CE010F024FA43
:102C0000069006980899079A9DF92730029305F0D7
:102C100007FD029901900846019910F01DFA0AB0CB
:102C200080BD000080B582B00146019001980091FE
:102C300010F038FA02B080BD84B00A460346039013
:102C40008DF80B100192009304B0704784B00A46CF
:102C500003460390ADF80A10BDF80A00039909680D
:102C6000486200200192009304B0704780B587B09D
:102C700013468C46864606908DF81710ADF8142042
:102C800006980068406A03909DF817000028029398
:102C9000CDF804C0CDF800E009D1FFE7BDF814007D
:102CA000039941EA004006990968886233E0069872
:102CB0000068806A039901EB1040039000208DF8B2
:102CC0001300FFE79DF813009DF8171001398842A3
:102CD00013D2FFE7069800689DF8131000EB8100FF
:102CE000D0F80401039901EB10400390FFE79DF831
:102CF000130001308DF81300E4E7BDF814000399C8
:102D000041EA0040069909689DF8172001EB82010D
:102D1000C1F80001FFE7002007B080BD80B584B096
:102D2000014603900398D0F8E004029108F0DCFF1C
:102D3000019004B080BD000080B586B00A4603460D
:102D400005908DF813100598D0F8E0149DF813C085
:102D50000CEBCC0E00EB8E00006A03900846614637
:102D6000DDF80CC002926246019308F0DBFD009092
:102D700006B080BD80B586B00A46034605908DF842
:102D800013100598D0F8E0149DF813C00CEBCC0E8E
:102D900000EB8E00D0F86002039008466146DDF833
:102DA0000CC002926246019308F0A8FE009006B0A3
:102DB00080BD000080B584B0014603900398D0F830
:102DC000E004029108F098FF019004B080BD00007B
:102DD00080B586B00A46034605908DF813109DF81D
:102DE000130000060028029201930CD5FFE7059816
:102DF0009DF8131001F00F0101EBC10100EB810000
:102E0000143003900CE005989DF8131001F00F01A9
:102E100001EBC10100EB810000F515700390FFE7A5
:102E20000598006803990AF05FFE8DF812009DF87E
:102E3000120006B080BD000080B588B00A46034687
:102E400006908DF817109DF81700000600280392D1
:102E500002930FD5FFE706989DF8171001F00F01B8
:102E600001EBC10100EB81001430049004980121B2
:102E700041700FE006989DF8171001F00F0101EB6B
:102E8000C10100EB810000F5157004900498002149
:102E90004170FFE79DF8170000F00F0004990870DB
:102EA000FFE7069890F89404012804D1FFE7022078
:102EB0008DF81F0015E00698012180F89414FFE7B3
:102EC000FFE70698006804990AF0A8F80190FFE768
:102ED0000698002180F89414FFE700208DF81F0069
:102EE000FFE79DF81F0008B080BD000080B588B0E6
:102EF0000A46034606908DF817109DF8170000F05B
:102F00000F000699097988420392029304D9FFE7DA
:102F100001208DF81F004EE09DF8170000060028E4
:102F20000FD5FFE706989DF8171001F00F0101EB90
:102F3000C10100EB8100143004900498012141701C
:102F40000FE006989DF8171001F00F0101EBC10189
:102F500000EB810000F51570049004980021417089
:102F6000FFE70498002181709DF8170000F00F0022
:102F700004990870FFE7069890F89404012804D19A
:102F8000FFE702208DF81F0015E00698012180F868
:102F90009414FFE7FFE70698006804990AF0E2FA44
:102FA0000190FFE70698002180F89414FFE70020C5
:102FB0008DF81F00FFE79DF81F0008B080BD0000DE
:102FC00084B00A46034603908DF80B1003989DF8D1
:102FD0000B1001F00F0101EBC10100EB8100D0F8F3
:102FE00068020192009304B070470000B0B58AB047
:102FF0009C4696460C46054608908DF81F10ADF885
:103000001C208DF81B3000208DF81A009DF81F0041
:1030100000060028CDF810C0CDF80CE00294019510
:103020000FD5FFE708989DF81F1001F00F0101EB85
:10303000C10100EB81001430059005980121417019
:103040000FE008989DF81F1001F00F0101EBC1017E
:1030500000EB810000F51570059005980021417086
:10306000FFE79DF81F0000F00F0005990870BDF8FC
:103070001C006FF3DF20059988609DF81B000599FF
:10308000087105984078002804D0FFE7059801787A
:103090004183FFE79DF81B00022804D1FFE7059854
:1030A00000214171FFE7FFE7089890F89404012898
:1030B00004D1FFE702208DF8270016E008980121CF
:1030C00080F89414FFE7FFE708980068059909F075
:1030D0005BFE0090FFE70898002180F89414FFE75A
:1030E0009DF81A008DF82700FFE79DF827000AB029
:1030F000B0BD0000B0B58CB09C4696460C46054667
:103100000B908DF82B10099208930B989DF82B10BB
:1031100001F00F0101EBC10100EB810000F515701A
:10312000079009980799C860089807990861079857
:1031300000214161079841709DF82B0000F00F00BD
:10314000079908700B9880790128CDF818C0CDF840
:1031500014E00494039504D1FFE709980799C86126
:10316000FFE70B980168079A80790290084611469C
:10317000029A0AF0A7FA0021019008460CB0B0BDEF
:1031800080B58AB00A46034608908DF81F109DF856
:103190001F0000F00F0008990979884205920493F6
:1031A00004D9FFE701208DF827005EE09DF81F009D
:1031B000000600280FD5FFE708989DF81F1001F0C2
:1031C0000F0101EBC10100EB81001430069006985D
:1031D000012141700DE008989DF81F1001EBC1011D
:1031E00000EB810000F515700690069800214170F3
:1031F000FFE70698012181709DF81F0000F00F0085
:1032000006990870FFE7089890F89404012804D103
:10321000FFE702208DF8270027E00898012180F8B9
:103220009414FFE7FFE70898006806990AF0EEF9A2
:103230009DF81F100907002903900CD1FFE708989B
:10324000016800F29C4280790290084602990AF0D7
:103250002FF90190FFE7FFE70898002180F8941408
:10326000FFE700208DF82700FFE79DF827000AB050
:1032700080BD0000B0B58CB09C4696460C46054615
:103280000B908DF82B10099208930B989DF82B103A
:1032900001F00F0101EBC10100EB81001430079038
:1032A00009980799C860089807990861079800214C
:1032B00041610798012141709DF82B0000F00F003B
:1032C000079908700B9880790128CDF818C0CDF8BF
:1032D00014E00494039504D1FFE709980799C861A5
:1032E000FFE70B980168079A80790290084611461B
:1032F000029A0AF0E7F90021019008460CB0B0BD2F
:1033000080B59CB001461B901B9800681A901A98D3
:1033100019901B98006811910AF02EFD002840F0CA
:103320002984FFE71B9800680AF0A0FD002802D15D
:10333000FFE700F01FBC1998D0F80808C0F30D2073
:103340001B99C1F8D4041B9800680AF08FFD10F097
:10335000020F07D0FFE71B980068416901F00201E6
:103360004161FFE71B9800680AF080FD10F0100F24
:1033700065D0FFE71B980068816921F01001816129
:103380001A98006A12901B98129901F00F0101EB34
:10339000C10100EB810000F515701890129800F43F
:1033A000F0100221B1EB504F25D1FFE7BDF84800E6
:1033B00047F6F07108421DD0FFE71A981899C968BE
:1033C000129AC2F30A120AF061FD129947F6F072DE
:1033D0001140DDF860E0DEF80C3003EB1111CEF89F
:1033E0000C1012991140189A536903EB1111516195
:1033F0001090FFE71CE0129800F4F0100621B1EBEA
:10340000504F13D1FFE71A981B9901F29C410822F3
:103410000AF03CFD129947F6F0721140189AD2F862
:1034200014E00EEB111151610F9000E0FFE7FFE790
:103430001B980068816941F010018161FFE71B98CA
:1034400000680AF013FD10F4002F00F0A380FFE7DE
:10345000002014901B9800680AF0ACFC1690FFE75F
:103460001698002800F09580FFE79DF85800C007E7
:10347000002800F08780FFE71B9800689DF8501037
:103480000AF0D8FC15901598C00700280DD0FFE76A
:103490001998149900EB41100121C0F8081B1B98E2
:1034A000149905F051F90E90FFE7159800070028D0
:1034B0000DD5FFE71998149900EB41100821C0F8C9
:1034C000081B1B98149905F0F3F80D90FFE7159869
:1034D000C006002808D5FFE71998149900EB4110A1
:1034E0001021C0F8081BFFE71598800700282DD58C
:1034F000FFE71A98406910F0800F08D0FFE719988D
:10350000D0F8041841F48061C0F80418FFE71B9854
:10351000149901EBC10100EB810000F515701890C2
:103520001898C078012809D1FFE718980021C170C8
:103530001B989DF8501000F033FBFFE71998149981
:1035400000EB41100221C0F8081BFFE71598800628
:10355000002808D5FFE71998149900EB41102021A5
:10356000C0F8081BFFE715988004002809D5FFE77D
:103570001998149900EB41104FF40051C0F8081B42
:10358000FFE7FFE714980130149016984008169052
:1035900066E7FFE71B9800680AF068FC10F4802FCC
:1035A00000F0CA80FFE71B9800680AF0EFFB169056
:1035B00000201490FFE71698002800F0BC80FFE779
:1035C0009DF85800C007002800F0AE80FFE71B9868
:1035D00000689DF850100AF001FC15901598C0077E
:1035E000002845D0FFE7149800F00F00012101FAF0
:1035F00000F013901398199AD2F8343823EA000097
:10360000C2F834081998149A00EB4210C0F808194F
:103610001B988079012825D1FFE71B98149901EBAD
:10362000C10100EB8100C169026A11440162149872
:10363000002816D1FFE71B98149901EBC10100EB9C
:103640008100406A00280CD1FFE71B98016800F256
:103650009C4201200C9008460C9909F029FF0B9020
:10366000FFE7FFE71B989DF85010FFF765FBFFE7AA
:1036700015980007002808D5FFE71998149900EB62
:1036800041100821C0F80819FFE71598C006002866
:1036900008D5FFE71998149900EB41101021C0F8E4
:1036A0000819FFE715984006002808D5FFE7199884
:1036B000149900EB41104021C0F80819FFE7159854
:1036C0008007002824D5FFE71A9814990AF0E8FA31
:1036D0001B99DDF850E00EEBCE0E01EB8E0114319C
:1036E00018911899C97801290A9009D1FFE718980B
:1036F0000021C1701B989DF8501000F03DFAFFE7C3
:103700001998149900EB41100221C0F80819FFE73D
:1037100015980006002806D5FFE71B98149905F0B8
:1037200001F90990FFE7FFE714980130149016980B
:10373000400816903FE7FFE71B9800680AF096FBE9
:1037400010F0004F20D0FFE71998D0F8041821F0AE
:103750000101C0F804181B9890F8CC04012808D186
:10376000FFE71B98002180F8CC141B98FFF764FA40
:1037700003E01B9800F0F0FBFFE71B98006841692D
:1037800001F000414161FFE71B9800680AF06EFB01
:1037900010F4006F12D0FFE71998D0F8080810F065
:1037A000010F04D0FFE71B9800F080FCFFE71B9897
:1037B0000068416901F400614161FFE71B980068FE
:1037C0000AF054FB10F4805F00F08C80FFE719983A
:1037D000D0F8041821F00101C0F804181B98006803
:1037E00010210AF05DFA002117910890FFE7179861
:1037F0001B990979884231D2FFE71998179900EB94
:1038000041104FF67F31C0F808191998179A00EB4C
:103810004210D0F8002922F40012C0F800291998AB
:10382000179A00EB4210C0F8081B1998179900EB83
:103830004110D0F8001B21F40011C0F8001B1998AA
:10384000179900EB4110D0F8001B41F00061C0F85F
:10385000001BFFE7179801301790C8E71998D0F8B8
:103860001C1841F00111C0F81C181B98C07B0028DF
:103870000FD0FFE71998D0F8841841F00B01C0F879
:1038800084181998D0F8441841F00B01C0F8441876
:103890000FE01998D0F8141842F22B021143C0F827
:1038A00014181998D0F8101841F00B01C0F810182E
:1038B000FFE71998D0F8001821F4FE61C0F800184D
:1038C0001B98016800F29C4280790790084607998E
:1038D00009F0EEFD1B9909684A6902F480524A61B9
:1038E0000690FFE71B9800680AF0C0FA10F4005F2A
:1038F0002CD0FFE71B98006809F0BAFADDF86CE0FD
:10390000DEF800E0059070460AF00CFADDF86CE095
:103910008EF807001B980068049000F027FDDDF882
:103920006CE09EF80720DDF810E0039070460399E4
:103930000AF0C0FB1B990290084600F0DDFA1B98C4
:103940000068416901F400514161FFE71B9800687C
:103950000AF08CFA10F0080F0CD0FFE71B9800F06B
:1039600009FB1B980068D0F814E00EF0080EC0F8B0
:1039700014E0FFE71B9800680AF078FA10F0800F57
:1039800026D0FFE71A98816921F08001816101202A
:103990001490FFE714981B990979884217D2FFE722
:1039A0001B98149901EBC10100EB810090F85702BC
:1039B000012807D1FFE71B989DF85010FFF708FA80
:1039C0000190FFE7FFE7149801301490E2E7FFE76A
:1039D0001B9800680AF04AFA10F4801F3CD0FFE7F9
:1039E00001201490FFE714981B99097988422CD282
:1039F000FFE71998149900EB4110D0F800091290D4
:103A00001B98149901EBC10100EB8100007E012895
:103A100016D1FFE71298C00F002811D0FFE71B98BE
:103A2000149901EBC10100EB81000121C1751B98C4
:103A3000149941F08001C9B2FFF7CAF90090FFE77D
:103A4000FFE7149801301490CDE71B980068416996
:103A500001F480114161FFE71B9800680AF006FA43
:103A600010F4001F55D0FFE701201490FFE71498D1
:103A70001B990979884245D2FFE71998149900EB00
:103A80004110D0F8000B12901B98149901EBC10162
:103A900000EB810090F8580201282ED1FFE7129820
:103AA000C00F002829D0FFE7129800F480301B993E
:103AB000D1F8D41401F00101B1EB104F1DD1FFE793
:103AC0001B98149901EBC10100EB8100012180F8E2
:103AD00057121A98816941F0800181611A984069F2
:103AE00010F0800F08D1FFE71998D0F8041841F4BE
:103AF0000071C0F8041805E0FFE7FFE714980130F3
:103B00001490B4E71B980068416901F40011416109
:103B1000FFE71B9800680AF0A9F910F0804F0CD05D
:103B2000FFE71B98FFF7FAF81B980068D0F814E03D
:103B30000EF0804EC0F814E0FFE71B9800680AF012
:103B400095F910F0040F14D0FFE71B980068406847
:103B5000129012984007002804D5FFE71B98FFF742
:103B600029F9FFE712981B9909684A6810434860D1
:103B7000FFE7FFE71CB080BD80B586B00A4603466C
:103B800005908DF813100598D0F8E0049DF81310F7
:103B90000392029308F066F9019006B080BD000020
:103BA00080B586B00A46034605908DF81310059837
:103BB000D0F8E0049DF813100392029308F094F9F2
:103BC000019006B080BD000010B592B00146109083
:103BD00010980028059104D1FFE701208DF84700D7
:103BE00027E1109800680F90109890F8950400282D
:103BF00008D1FFE71098002180F89414109800F085
:103C00001DF9FFE71098032180F895140F98B0F183
:103C1000A04F04D1FFE7109800218171FFE71098B1
:103C2000006809F039FCDDF840E0DEF800109EF88D
:103C300010208DF83420DEF80420DEF80830DEF89D
:103C40000CE0CDF830E00B930A920A9A0B9BDDF85A
:103C500030E0DDF834C06C46C4F800C0049008467B
:103C600011461A46734609F01BF9002808D0FFE7F1
:103C70001098022180F8951401208DF84700D8E0B3
:103C80001098006800210AF065F9002808D0FFE7C5
:103C90001098022180F8951401208DF84700C8E0A3
:103CA00000208DF83B00FFE79DF83B001099097953
:103CB000884241DAFFE710989DF83B1001EBC10103
:103CC00000EB8100012141759DF83B00109900EB4C
:103CD000C00201EB820108759DF83B00109900EBD2
:103CE000C00201EB8201C88510989DF83B1001EBE2
:103CF000C10100EB81000021017610989DF83B2066
:103D000002EBC20200EB8200C16110989DF83B20DB
:103D100002EBC20200EB8200016210989DF83B208A
:103D200002EBC20200EB82004162FFE79DF83B001C
:103D300001308DF83B00B7E700208DF83B00FFE72E
:103D40009DF83B001099097988423EDAFFE7109808
:103D50009DF83B1001EBC10100EB8100002180F8D0
:103D600055129DF83B00109A00EBC00302EB830252
:103D700082F8540210989DF83B2002EBC20200EB3F
:103D8000820080F8581210989DF83B2002EBC20286
:103D900000EB8200C0F85C1210989DF83B2002EB0B
:103DA000C20200EB8200C0F8601210989DF83B2020
:103DB00002EBC20200EB8200C0F86412FFE79DF83C
:103DC0003B0001308DF83B00BAE710980168027C97
:103DD0008DF8242042688368C06808900793069293
:103DE0000698079A089BDDF824C0EE46CEF800C07E
:103DF00003900846039909F0EBF9002808D0FFE783
:103E00001098022180F8951401208DF8470010E0E9
:103E10001098002141741098012280F89524109880
:103E20000068029109F0BCF902998DF847100190E1
:103E3000FFE79DF8470012B010BD000080B58EB0BE
:103E400001460D9000200C900B900A90099008906C
:103E50000D980068B0F1A04F05914AD1FFE7FFE748
:103E60000020079043F63000C4F20200016841F0E0
:103E700001010160006800F00100079007980490BC
:103E8000FFE74FF4C05008900220099000200A90EC
:103E900003200B900A200C900020C4F2020008A915
:103EA000FDF750FEFFE743F63400C4F2020001685C
:103EB00041F080010160FFE70020069043F64400D6
:103EC000C4F20200016841F480410160006800F41E
:103ED0008040069006980390FFE7FFE7432000210B
:103EE00002900191019AFEF779FE0298FEF76AFEB0
:103EF000FFE70EB080BD000080B586B0014605909A
:103F000001208DF813000598C0790028039104D191
:103F1000FFE700208DF813000CE00598C079022817
:103F200004D1FFE701208DF8130002E0FCF746FC06
:103F3000FFE7FFE70598D0F8E0049DF8131008F0BC
:103F40000BF90599D1F8E0140290084608F06AF8D8
:103F5000019006B080BD000080B584B0014603909A
:103F60000398D0F8E004029108F0BEF8019004B084
:103F700080BD000080B584B0014603900398D0F85E
:103F8000E004029108F0C4F8019004B080BD000084
:103F900080B586B00A46034604908DF80F10029251
:103FA0000193FFE7049890F89404012804D1FFE7F7
:103FB00002208DF817001AE00498012180F894146B
:103FC000FFE7FFE79DF80F00049948740498006824
:103FD0009DF80F100AF036F80090FFE704980021D2
:103FE00080F89414FFE700208DF81700FFE79DF894
:103FF000170006B080BD000080B584B00146039074
:104000000398D0F8E02400F29C4002901046029AF7
:104010000191114608F0D2F8009004B080BD000074
:1040200080B586B001460490049800680390029120
:10403000FFE7049890F89404012804D1FFE70220D8
:104040008DF817002DE00498012180F89414FFE703
:10405000FFE70398C06810F0400F0BD0FFE704980B
:10406000407B012806D1FFE70398816B41F4803142
:104070008163FFE70498006809F0CAFDDDF810E0ED
:10408000DEF800E00190704609F072F80090FFE75A
:104090000498002180F89414FFE700208DF81700A1
:1040A000FFE79DF8170006B080BD000080B584B022
:1040B000014603900398D0F8E004029108F00CF94F
:1040C00003990968D1F800EE4EF0010EC1F800EE38
:1040D0000399C97A0029019009D0FFE74EF61050E4
:1040E000CEF20000016841F006010160FFE704B074
:1040F00080BD000080B588B00A4603460690059151
:10410000069800280392029304D1FFE701208DF85E
:104110001F0026E1059843F60041C4F20201096838
:1041200001F00701884212D9FFE7059843F60041E4
:10413000C4F202010870086800F00700059988427F
:1041400004D0FFE701208DF81F000AE1FFE7069881
:104150000068800700282AD5FFE706980068400716
:10416000002809D5FFE743F60800C4F20200016801
:1041700041F4E0510160FFE706980068000700285D
:1041800009D5FFE743F60800C4F20200016841F4D4
:1041900060410160FFE743F60800C4F202000168D5
:1041A00021F0F001069A926811430160FFE706983A
:1041B0000068C007002870D0FFE706984068012813
:1041C00011D1FFE743F60000C4F20200006800F4DA
:1041D00000300021B1EB504F04D1FFE701208DF8F2
:1041E0001F00BEE02CE006984068022805D0FFE7DB
:1041F00006984068032811D1FFE743F60000C4F297
:104200000200006800F000700021B1EB506F04D193
:10421000FFE701208DF81F00A3E010E043F6000047
:10422000C4F20200006800F002000021B1EB500F60
:1042300004D1FFE701208DF81F0092E0FFE7FFE7C0
:1042400043F60800C4F20200016821F00301069A57
:10425000526811430160FDF797FE0490FFE743F6B3
:104260000800C4F20200006800F00C0006994968DA
:10427000B0EB810F10D0FFE7FDF786FEDDF810E010
:10428000A0EB0E0041F2893E704504D3FFE7032006
:104290008DF81F0065E0E2E7FFE7059843F600416F
:1042A000C4F20201096801F00701884212D2FFE757
:1042B000059843F60041C4F202010870086800F056
:1042C00007000599884204D0FFE701208DF81F0000
:1042D00047E0FFE706980068400700280CD5FFE795
:1042E00043F60800C4F20200016821F4E051069A86
:1042F000D26811430160FFE70698006800070028B4
:104300000DD5FFE743F60800C4F20200016821F46E
:104310006041069A126941EAC2010160FFE700F0BC
:1043200053F843F6080EC4F2020EDEF800E0CEF3B6
:10433000031E43F6FA61C0F6010111F80E10C840E1
:1043400040F2C401C2F20001086040F2C010C2F2A3
:1043500000000068FEF7D2FB00218DF81F100190CD
:10436000FFE79DF81F0008B080BD000040F2C400C8
:10437000C2F200000068704780B5FFF7F7FF43F610
:10438000080EC4F2020EDEF800E0CEF3822E43F6F1
:104390000A71C0F6010111F80E10C84080BD00007E
:1043A00080B5FFF7E3FF43F6080EC4F2020EDEF815
:1043B00000E0CEF3423E43F60A71C0F6010111F867
:1043C0000E10C84080BD000080B586B0002005906A
:1043D00004900390029043F60800C4F202000068C3
:1043E00000F00C0001460028019108D0FFE7019879
:1043F00004280AD0FFE7019808280CD04FE042F2C9
:104400000040C0F2F40002904FE041F60030C0F2EC
:10441000B700029049E043F60400C4F202000168CC
:1044200001F03F010591006810F4800F13D0FFE701
:1044300043F60400C4F202000068C0F3881041F69D
:104440000031C0F2B701A0FB0101059A0023FBF780
:10445000B9FE049012E043F60400C4F202000068C2
:10446000C0F3881042F20041C0F2F401A0FB010148
:10447000059A0023FBF7A6FE0490FFE743F604002D
:10448000C4F20200006800F44030022101EBD03099
:10449000039004980399B0FBF1F0029005E042F21A
:1044A0000040C0F2F4000290FFE7029806B080BD21
:1044B00080B588B00146069006980028019104D185
:1044C000FFE701208DF81F006EE306980068C00723
:1044D000002800F0AB80FFE743F60800C4F20200BA
:1044E000006800F00C00042813D0FFE743F6080032
:1044F000C4F20200006800F00C0008281FD1FFE79A
:1045000043F60400C4F20200006810F4800F16D0D5
:10451000FFE743F60000C4F20200006800F4003038
:104520000021B1EB504F09D0FFE706984068002802
:1045300004D1FFE701208DF81F0035E375E0FFE7A8
:1045400006984068B0F5803F09D1FFE743F60000C8
:10455000C4F20200016841F48031016020E0069855
:104560004068B0F5A02F0DD1FFE743F60000C4F27C
:104570000200016841F480210160016841F480314A
:1045800001600CE043F60000C4F20200016821F46F
:1045900080310160016821F480210160FFE7FFE7BD
:1045A000FFE70698406800281FD0FFE7FDF7ECFC06
:1045B0000590FFE743F60000C4F20200006800F433
:1045C00000300021B1EB504F0ED1FFE7FDF7DCFCCE
:1045D000DDF814E0A0EB0E00652804D3FFE703200C
:1045E0008DF81F00E0E2E5E71EE0FDF7CDFC059049
:1045F000FFE743F60000C4F20200006800F4003058
:104600000021B1EB504F0ED0FFE7FDF7BDFCDDF808
:1046100014E0A0EB0E00652804D3FFE703208DF81B
:104620001F00C1E2E5E7FFE7FFE7FFE70698006844
:104630008007002840F19B80FFE743F60800C4F2A2
:104640000200006810F00C0F13D0FFE743F60800DB
:10465000C4F20200006800F00C0008282CD1FFE72B
:1046600043F60400C4F20200006810F4800F23D166
:10467000FFE743F60000C4F20200006800F0020009
:104680000021B1EB500F09D0FFE70698C068012860
:1046900004D0FFE701208DF81F0085E243F60000FB
:1046A000C4F20200016821F0F801069A126941EA99
:1046B000C2010160FFE759E00698C068002830D0C9
:1046C000FFE70020C4F2472001210160FDF75CFCF8
:1046D0000590FFE743F60000C4F20200006800F016
:1046E00002000021B1EB500F0ED1FFE7FDF74CFCAB
:1046F000DDF814E0A0EB0E00032804D3FFE703204D
:104700008DF81F0050E2E5E743F60000C4F2020016
:10471000016821F0F801069A126941EAC2010160BC
:1047200023E00020C4F2472000210160FDF72CFCAB
:104730000590FFE743F60000C4F20200006800F0B5
:1047400002000021B1EB500F0ED0FFE7FDF71CFC7B
:10475000DDF814E0A0EB0E00032804D3FFE70320EC
:104760008DF81F0020E2E5E7FFE7FFE7FFE7069887
:1047700000680007002850D5FFE706984069002828
:1047800025D0FFE740F68060C4F247200121016098
:10479000FDF7FAFB0590FFE743F67400C4F2020050
:1047A000006800F002000021B1EB500F0ED1FFE7CE
:1047B000FDF7EAFBDDF814E0A0EB0E00032804D3BC
:1047C000FFE703208DF81F00EEE1E5E724E040F667
:1047D0008060C4F2472000210160FDF7D5FB059001
:1047E000FFE743F67400C4F20200006800F0020024
:1047F0000021B1EB500F0ED0FFE7FDF7C5FBDDF850
:1048000014E0A0EB0E00032804D3FFE703208DF88B
:104810001F00C9E1E5E7FFE7FFE7069800684007EA
:10482000002840F1D680FFE700208DF80F0043F606
:104830004000C4F20200006810F0805F16D1FFE76C
:10484000FFE70020029043F64000C4F20200016836
:1048500041F080510160006800F0805002900298A1
:104860000090FFE701208DF80F00FFE747F20000FE
:10487000C4F20000006810F4807F24D1FFE747F203
:104880000000C4F20000016841F480710160FDF78E
:104890007BFB0590FFE747F20000C4F200000068D0
:1048A00010F4807F0ED1FFE7FDF76EFBDDF814E01A
:1048B000A0EB0E00032804D3FFE703208DF81F00B0
:1048C00072E1E8E7FFE7FFE706988068012809D171
:1048D000FFE743F67000C4F20200016841F00101F5
:1048E00001601FE00698806805280DD1FFE743F6B8
:1048F0007000C4F20200016841F004010160016827
:1049000041F0010101600CE043F67000C4F20200C6
:10491000016821F001010160016821F004010160DA
:10492000FFE7FFE7FFE706988068002821D0FFE750
:10493000FDF72AFB0590FFE743F67000C4F2020082
:10494000006800F002000021B1EB500F10D1FFE72A
:10495000FDF71AFBDDF814E0A0EB0E0041F2893EF2
:10496000704504D3FFE703208DF81F001CE1E3E747
:1049700020E0FDF709FB0590FFE743F67000C4F265
:104980000200006800F002000021B1EB500F10D0CF
:10499000FFE7FDF7F9FADDF814E0A0EB0E0041F2B5
:1049A000893E704504D3FFE703208DF81F00FBE02C
:1049B000E3E7FFE79DF80F00012809D1FFE743F681
:1049C0004000C4F20200016821F080510160FFE75D
:1049D000FFE706988069002800F0E280FFE743F6D1
:1049E0000800C4F20200006800F00C00082800F083
:1049F0008B80FFE706988069022860D1FFE760207E
:104A0000C4F2472000210160FDF7BEFA0590FFE7E0
:104A100043F60000C4F20200006800F000700021BC
:104A2000B1EB506F0ED0FFE7FDF7AEFADDF814E002
:104A3000A0EB0E00032804D3FFE703208DF81F002E
:104A4000B2E0E5E70698C169026A436AD0F828C077
:104A5000114341EA83114FEACC324FF6FF739A4378
:104A6000A2F580321143C06A41EA006043F60401B6
:104A7000C4F2020108606020C4F2472001210160F5
:104A8000FDF782FA0590FFE743F60000C4F202004A
:104A9000006800F000700021B1EB506F0ED1FFE70D
:104AA000FDF772FADDF814E0A0EB0E00032804D342
:104AB000FFE703208DF81F0076E0E5E723E06020A4
:104AC000C4F2472000210160FDF75EFA0590FFE780
:104AD00043F60000C4F20200006800F000700021FC
:104AE000B1EB506F0ED0FFE7FDF74EFADDF814E0A2
:104AF000A0EB0E00032804D3FFE703208DF81F006E
:104B000052E0E5E7FFE74AE006988069012804D112
:104B1000FFE701208DF81F0046E043F60400C4F2D1
:104B200002000068049006988069012831D0FFE7F0
:104B3000049800F480000699C969884229D1FFE7EA
:104B4000049800F03F000699096A884221D1FFE7E6
:104B5000049847F6C07108400699496AB0EB811F76
:104B600017D1FFE7049800F440300699896AC90319
:104B70004FF6FF729143A1F58031884209D1FFE7DA
:104B8000049800F070600699C96AB0EB016F04D018
:104B9000FFE701208DF81F0006E0FFE7FFE7FFE7D2
:104BA00000208DF81F00FFE79DF81F0008B080BDB2
:104BB00082B001460190009102B0704780B584B088
:104BC0000146029002980028019104D1FFE70120DC
:104BD0008DF80F0072E00298406A00280CD1FFE7C0
:104BE00002984068B0F5827F01D1FFE703E00298A8
:104BF0000021C161FFE705E00298002101610298F0
:104C00004161FFE7029800218162029890F851000B
:104C1000002808D1FFE70298002180F85010029880
:104C200000F050F8FFE70298022180F85110029836
:104C30000068016821F04001016002980168426843
:104C40008368D0F80CC002F4827203F404431A4360
:104C50000CF400631A43036903F002031A43436927
:104C600003F001031A43836903F400731A43C36911
:104C700003F038031A43036A03F080031A43806A7F
:104C800000F40050104308600298418B01F00401C9
:104C90000268406A00F01000084350600298006803
:104CA000C16921F40061C161029800214165029847
:104CB000012280F851208DF80F10FFE79DF80F00BA
:104CC00004B080BD80B592B00146119000201090D4
:104CD0000F900E900D900C901198006843F2000216
:104CE000C4F201029042089140F0C380FFE7FFE761
:104CF00000200B9043F64400C4F20200016841F426
:104D000080510160006800F480500B900B98079070
:104D1000FFE7FFE700200A9043F63000C4F20200EC
:104D2000016841F002010160006800F002000A9091
:104D30000A980690FFE7FFE70020099043F630004D
:104D4000C4F20200016841F001010160006800F056
:104D50000100099009980590FFE718200C900220A7
:104D60000D9001210E9103220F920523109340F222
:104D7000004CC4F2020C0DF1300E04906046039119
:104D80007146CDF808E001930092FCF7DBFE80202D
:104D90000C9004980D9003990E91009A0F92019B2C
:104DA00010930020C4F202000299FCF7CBFE42F2FD
:104DB000C470C2F2000046F24041C4F20201016038
:104DC0004FF0C061416000218160C1604FF480629A
:104DD000026141618161C1614FF44032026204228B
:104DE0004262009A8262C1620163FCF72DFD0028D5
:104DF00003D0FFE7FBF7E2FCFFE7FFE7119842F281
:104E0000C471C2F20001C16411988863FFE742F6E1
:104E10002400C2F2000046F25841C4F202010160CF
:104E20004FF0C0614160402181600021C1604FF4BA
:104E30008062026141618161C1614FF400320262AE
:104E40000422426203228262C1620163FCF7FCFC1D
:104E5000002803D0FFE7FBF7B1FCFFE7FFE711985D
:104E600042F62401C2F20001816411988863FFE7D1
:104E7000FFE712B080BD000082B0014601900091B2
:104E800002B0704782B001460190009102B07047B5
:104E900070B592B0DDF858C09E4614460D460646E1
:104EA00010900F910E92ADF8363001200990CDF898
:104EB0001CE0069405950496CDF80CC0FDF764F847
:104EC0000A90109890F851008DF82F0010984068C3
:104ED0000C90BDF83600ADF834009DF82F00012885
:104EE00013D0FFE70C98B0F5827F0AD1FFE7109846
:104EF0008068002805D1FFE79DF82F00042804D022
:104F0000FFE702208DF84700B5E10F98002809D08F
:104F1000FFE70E98002805D0FFE7BDF8360000280F
:104F200004D1FFE701208DF84700A4E1FFE71098C6
:104F300090F85000012804D1FFE702208DF84700C7
:104F400099E11098012180F85010FFE7FFE71098D1
:104F500090F85100042805D0FFE71098052180F84B
:104F60005110FFE71098002141650E98109A906348
:104F7000BDF83600109AD087BDF83600109A908799
:104F80000F98109A1063BDF83600109AD086BDF8BD
:104F90003600109A90861098016410984164109819
:104FA0000068006800F04000402807D0FFE7109834
:104FB0000068016841F040010160FFE71098C06897
:104FC000B0F5006F40F08A80FFE710984068002835
:104FD00005D0FFE7BDF8340001280ED1FFE7109897
:104FE0000168006B0088C8601098016B0231016392
:104FF0001098C18E0139C186FFE7FFE71098C08E77
:1050000001210028029107D1FFE71098C08F0028E6
:1050100018BF01200290FFE70298C00700285CD06B
:10502000FFE710980068806810F0020F19D0FFE7C2
:105030001098C08E002814D0FFE70998012810D1DD
:10504000FFE710980168006B0088C8601098016B3A
:10505000023101631098C18E0139C1860020099088
:10506000FFE710980068806810F0010F16D0FFE786
:105070001098C08F002811D0FFE710980068C06812
:105080001099896B08801098816B023181631098A8
:10509000C18F0139C18701200990FFE7FCF774FF38
:1050A000DDF828E0A0EB0E00DDF858E0704513D3E2
:1050B000FFE71698013000280ED0FFE71098012175
:1050C00080F85110FFE71098002180F85010FFE79A
:1050D00003208DF84700CEE090E78CE01098406800
:1050E000002805D0FFE7BDF8340001280ED1FFE706
:1050F00010980168006B007808731098016B0131FB
:1051000001631098C18E0139C186FFE7FFE710984F
:10511000C08E01210028019107D1FFE71098C08FB0
:10512000002818BF01200190FFE70198C007002860
:1051300060D0FFE710980068806810F0020F19D067
:10514000FFE71098C08E002814D0FFE709980128C7
:1051500010D1FFE710980168006B00780873109871
:10516000016B013101631098C18E0139C1860020A5
:105170000990FFE710980068806810F0010F16D0C2
:10518000FFE71098C08F002811D0FFE71098006843
:10519000C0681099896B08701098816B0131816328
:1051A0001098C18F0139C18701200990FFE7FCF7F2
:1051B000EBFEDDF828E0A0EB0E00DDF858E07045CE
:1051C00005D3FFE716980130002804D1FFE71698B1
:1051D00000280ED1FFE71098012180F85110FFE759
:1051E0001098002180F85010FFE703208DF8470049
:1051F00041E08CE7FFE7109816990A9A03F088FDC2
:1052000000280DD0FFE7109820214165FFE7109896
:10521000002180F85010FFE701208DF847002AE0B8
:105220001098806800280FD1FFE7FFE70020089062
:1052300010980068C068089010980068806808900E
:1052400008980090FFE7FFE71098012180F85110BF
:10525000FFE71098002180F85010FFE71098406D8C
:10526000002804D0FFE701208DF8470003E000206C
:105270008DF84700FFE79DF8470012B070BD0000B1
:10528000B0B58EB09C4696460C4605460C900B91E8
:105290000A92ADF826300C9890F851008DF81F0056
:1052A0000C98406808909DF81F000128CDF818C0A0
:1052B000CDF814E00494039513D0FFE70898B0F5F7
:1052C000827F0AD1FFE70C988068002805D1FFE7AC
:1052D0009DF81F00042804D0FFE702208DF8370056
:1052E000EDE00B98002809D0FFE70A98002805D0C8
:1052F000FFE7BDF82600002804D1FFE701208DF864
:105300003700DCE0FFE70C9890F85000012804D14A
:10531000FFE702208DF83700D1E00C98012180F8DA
:105320005010FFE7FFE70C9890F85100042805D0D3
:10533000FFE70C98052180F85110FFE70C98002139
:1053400041650B980C9A1063BDF826000C9A908664
:10535000BDF826000C9AD0860A980C9A9063BDF886
:1053600026000C9A9087BDF826000C9AD0870C98DE
:1053700001640C9841640C9890F8510004280FD1F6
:10538000FFE70C98C06C48F6A121C0F6000101644B
:105390000C98C06C48F6D921C0F60001C1630EE03C
:1053A0000C98C06C48F6BD21C0F6000101640C9851
:1053B000C06C48F68531C0F60001C163FFE70C9868
:1053C000C06C48F66921C0F60001C1640C98C06C3D
:1053D000002101650C980168826BC36C0C31C08F91
:1053E00002901846029BFCF7F1FA00280FD0FFE765
:1053F0000C98416D41F010014165FFE70C980021C8
:1054000080F85010FFE701208DF8370057E00C9826
:105410000068416841F0010141600C98806C0021F6
:1054200001640C98806CC1630C98806CC1640C980A
:10543000806C01650C980168026B836C0C31C08E26
:105440000190184600911146009A019BFCF7BEFAA4
:1054500000280FD0FFE70C98416D41F01001416525
:10546000FFE70C98002180F85010FFE701208DF82D
:10547000370024E00C980068006800F040004028E5
:1054800007D0FFE70C980068016841F04001016017
:10549000FFE7FFE70C98002180F85010FFE70C9819
:1054A0000068416841F0200141600C980068416843
:1054B00041F00201416000208DF83700FFE79DF8C0
:1054C00037000EB0B0BD000080B588B0014607902F
:1054D0000798006843F20002C4F20102904206916C
:1054E0001AD1FFE740F2F040C2F2000041680289A1
:1054F000059008461146FCF70DFD0598D0F81011EF
:10550000B0F80A210A30DDF814E00EF18A030491A4
:105510001946049B984747E00798006843F6000146
:10552000C4F2000188421AD1FFE740F20460C2F2DF
:10553000000041680289039008461146FCF7EAFC26
:105540000398D0F81011B0F80A210A30DDF80CE009
:105550000EF18A0302911946029B984723E00798AF
:10556000006843F60041C4F2000188421AD1FFE707
:1055700040F21870C2F200004168028901900846AA
:105580001146FCF7C7FC0198D0F81011B0F80A21B9
:105590000A30DDF804E00EF18A0300911946009B01
:1055A0009847FFE7FFE7FFE708B080BD82B00146FC
:1055B0000190009102B0704780B582B00146019021
:1055C0000198009103F082FD02B080BD82B00146D7
:1055D0000190009102B0704782B0014601900091A5
:1055E00002B0704786B00A4603460490039100203B
:1055F000029001920093FFE7049890F83C00012884
:1056000004D1FFE702208DF8170044E0049801213F
:1056100080F83C10FFE7FFE7029820F0FF000399B5
:10562000C96808430290029820F440700399896881
:1056300008430290029820F4806003994968084367
:105640000290029820F400600399096808430290D0
:10565000029820F480500399096908430290029847
:1056600020F400500399496908430290029820F4FD
:1056700080400399C9690843029002980499096817
:105680004864FFE70498002180F83C10FFE7002001
:105690008DF81700FFE79DF8170006B0704700006F
:1056A00087B00A4603460590049101920093FFE7F4
:1056B000059890F83C00012804D1FFE702208DF8FE
:1056C0001B007EE00598012180F83C10FFE7FFE712
:1056D0000598022180F83D10059800684068039005
:1056E0000598006880680290039820F0700003908D
:1056F0000498006803990843039003980599096882
:105700004860059800680021C4F2010188423CD03D
:10571000FFE705980068B0F1804F36D0FFE70598A5
:10572000006840F20041C4F2000188422DD0FFE73A
:105730000598006840F60001C4F20001884224D0B8
:10574000FFE70598006840F60041C4F20001884276
:105750001BD0FFE70598006840F20041C4F2010148
:10576000884212D0FFE70598006844F20001C4F2B5
:105770000101884209D0FFE70598006841F6000161
:10578000C4F2000188420ED1FFE7029820F08000A9
:105790000290049840680299084302900298059983
:1057A00009688860FFE70598012180F83D10FFE750
:1057B0000598002180F83C10FFE700208DF81B00C1
:1057C000FFE79DF81B0007B07047000080B584B06C
:1057D0000146029002980028019104D1FFE70120C0
:1057E0008DF80F0043E0029890F83D00002808D1A2
:1057F000FFE70298002180F83C10029800F03CF886
:10580000FFE70298022180F83D10029850F8041B2F
:1058100000900846009903F007FD0298012180F8E6
:105820004610FFE70298012180F83E10029880F8A8
:105830003F10029880F84010029880F84110FFE76E
:10584000FFE70298012180F84210029880F8431087
:10585000029880F84410029880F84510FFE70298FB
:10586000012180F83D1000208DF80F00FFE79DF822
:105870000F0004B080BD000080B58EB001460D90D1
:105880000D9800680022C4F201029042079113D1E2
:10589000FFE7FFE700200C9043F64400C4F202004B
:1058A000016841F001010160006800F001000C9006
:1058B0000C980690FFE785E00D98006840F20041E3
:1058C000C4F20001884213D1FFE7FFE700200B90EC
:1058D00043F64000C4F20200016841F00201016099
:1058E000006800F002000B900B980590FFE768E05D
:1058F0000D98006840F60001C4F2000188421CD1F6
:10590000FFE7FFE700200A9043F64000C4F20200E0
:10591000016841F004010160006800F004000A9091
:105920000A980490FFE71E20012100220390FDF752
:1059300055F90398FDF746F942E00D98006840F6E6
:105940000041C4F2000188421CD1FFE7FFE70020BC
:10595000099043F64000C4F20200016841F00801DA
:105960000160006800F00800099009980290FFE7C4
:105970003220012100220190FDF730F90198FDF756
:1059800021F91CE00D98006844F20041C4F20101C5
:10599000884213D1FFE7FFE70020089043F6440058
:1059A000C4F20200016841F400310160006800F4B3
:1059B0000030089008980090FFE7FFE7FFE7FFE757
:1059C000FFE7FFE70EB080BD84B001460290029869
:1059D00090F83D000128009104D0FFE701208DF8E8
:1059E0000F006AE00298022180F83D1002980068DA
:1059F000C16841F00101C160029800680021C4F251
:105A0000010188423CD0FFE702980068B0F1804F66
:105A100036D0FFE70298006840F20041C4F200016E
:105A200088422DD0FFE70298006840F60001C4F2DA
:105A30000001884224D0FFE70298006840F6004148
:105A4000C4F2000188421BD0FFE70298006840F2D0
:105A50000041C4F20101884212D0FFE702980068B9
:105A600044F20001C4F20101884209D0FFE7029824
:105A7000006841F60001C4F20001884212D1FFE73C
:105A800002980068806800F00700019001980628DD
:105A900007D0FFE702980068016841F0010101604A
:105AA000FFE706E002980068016841F0010101602B
:105AB000FFE700208DF80F00FFE79DF80F0004B00E
:105AC0007047000080B58EB00A4603460C900B91DB
:105AD00000208DF82B0008920793FFE70C9890F8B0
