:020000040800F2
:1000000030ED0020A1010008D14A00080543000896
:10001000CD4A0008A9070008417000080000000050
:10002000000000000000000000000000E54A000899
:100030006509000800000000E14A0008E94A0008DC
:10004000BB010008BB010008BB010008BB010008A0
:10005000BB010008BB01000869090008BB010008DA
:10006000BB0100087109000879090008BB010008FC
:10007000F908000805090008BB010008110900087B
:10008000BB010008BB010008BB010008BB01000860
:10009000AD070008B9070008BB0100088109000886
:1000A000BB010008BB010008BB010008BB01000840
:1000B000BB010008BB010008AD4B0008BB010008F4
:1000C000BB010008BB010008BB010008BB01000820
:1000D000BB010008D9530008BB010008E553000824
:1000E000BB010008BB010008BB010008BB01000800
:1000F000BB010008BB010008BB010008BB010008F0
:10010000BB010008BB010008B94B0008BB01000897
:10011000BB010008BB010008BB010008BB010008CF
:10012000BB0100081D09000829090008350900085D
:10013000BB010008BB010008BB010008BB010008AF
:10014000C5070008D1070008BB010008D54A000810
:10015000410900084D09000859090008F153000839
:10016000BB010008BB010008BB010008BB0100087F
:10017000BB010008BB010008BB0100080000000033
:10018000BB010008BB010008DFF810D000F0B6F892
:1001900000F06EF8004800478988000830ED002024
:1001A0000648804706480047FEE7FEE7FEE7FEE711
:1001B000FEE7FEE7FEE7FEE7FEE7FEE7994B0008F5
:1001C000890100082DE9F05F0546002092469B4614
:1001D00088460646814640241BE02846414647465D
:1001E000224600F068F853465A46C01A914110D38F
:1001F00011461846224600F04FF82D1A67EB010809
:100200004F4622460120002100F046F817EB000976
:100210004E41201EA4F10104DFDC484631462A4647
:100220004346BDE8F09F40EA01039B0703D009E085
:1002300008C9121F08C0042AFAD203E011F8013BD2
:1002400000F8013B521EF9D27047D2B201E000F82B
:10025000012B491EFBD270470022F6E710B513466A
:100260000A4604461946FFF7F0FF204610BD00007D
:100270007CB507480090074801900546009C04E0C3
:100280002046016808448047241DAC42F8D17CBD5B
:100290009496000898960008202A04DB203A00FA79
:1002A00002F1002070479140C2F1200320FA03F3CD
:1002B000194390407047202A04DB203A21FA02F0CB
:1002C0000021704721FA02F3D040C2F12002914090
:1002D00008431946704710B50446481E014201D133
:1002E000042901D2052010BD104608F01FFB10B1F3
:1002F0002060002010BD062010BD00001CB509487C
:100300000090094801900546009C06E0E06840F036
:10031000010394E8070098471034AC42F6D3FFF786
:1003200037FF0000749600089496000830B50B461D
:10033000014600202022012409E021FA02F59D4215
:1003400005D303FA02F5491B04FA02F52844151EE9
:10035000A2F10102F1DC30BD2DE9FE4F804681EAB9
:100360000300C00F0C46009021F0004123F000452F
:10037000B8EB0200A94105D24046214690461C46F2
:100380000B46024623F00040104347D0270DC7F329
:100390000A00C3F30A510290401A019040286BDA18
:1003A000C3F3130040F4801B0098924620B1002351
:1003B000D2EB030A63EB0B0B01985946C0F14002E4
:1003C0005046FFF769FF06460D4650465946019ACA
:1003D00000F07AF910EB08006141002487EA11521D
:1003E00084EAE7731A4340D0009A62B3019A012A63
:1003F0004FEA075215DC001B61EB02014FF000428F
:1004000002EA0752CDE90042001C41F58011324654
:100410002B4600F07AF903B0BDE8F08F4046214644
:10042000F9E7001B61EB0201001C41F58013001885
:100430005B412018A2F5001747EB030140EAD57095
:10044000B6196D4111E06D084FEA360645EAC075F0
:100450004FEA0752001B61EB0201001C41F58011BD
:1004600049084FEA30000019514132462B4603B08B
:10047000BDE8F04F00F03AB9009801224000002397
:10048000D0EB020263EBE073009821464FEAE07480
:10049000B8EB000061EB0401E9E783F000435BE7A0
:1004A00081F0004158E72DE9FE4F81EA030404F092
:1004B000004421F0004100944FF0000B23F0004372
:1004C00050EA01045ED052EA03045BD0C3F30A543D
:1004D000C1F30A552C44A4F2F3340194A0FB025456
:1004E000C1F3130141F48011C3F3130343F48013E8
:1004F00001FB024400FB034E840A970A44EA81543C
:1005000047EA8357A4FB076802958D0A05FB078518
:100510004FEA932C04FB0C542705029D4FEA065822
:1005200047EA1637B5EB08056EEB070C870E920EFF
:1005300047EA811742EA8312A7FB0201B6EB0B01DF
:1005400064EB00042B0D43EA0C335E1844EB1C50A3
:10055000DA465146E7FB0201C5F313044FEA0B33B9
:1005600043EA14534FEA0432019C43EA0603A4F120
:100570000C040294009CCDE900B400F0C6F803B06E
:10058000BDE8F08F00200146F9E72DE9F04D81EA42
:10059000030404F0004B21F0004514464FF0000A1C
:1005A00023F0004150EA050220D054EA01021DD098
:1005B000C5F30A570246C5F31303C1F31300C1F391
:1005C0000A5640F4801543F48013A7EB0608101B6D
:1005D000D64608F2FD3873EB050002D308F1010896
:1005E00001E092185B41B8F1000F03DA00200146E8
:1005F000BDE8F08D00204FF48011064684460EE0E1
:10060000171B73EB050705D3121B63EB05030643AA
:100610004CEA010C49084FEA300092185B4150EA5D
:100620000107EDD152EA030012D082EA040083EA06
:100630000501084305D0101BAB4106D2012200235F
:1006400006E000224FF0004302E06FF00102531079
:100650001AEB06004CEB085110EB0A0041EB0B01C2
:10066000BDE8F04D00F042B8C1F30A52C1F31301E6
:1006700040F2FF3341F480119A4202DA0020014631
:10068000704740F233439A42A2F2334202DC5242B4
:10069000FFF711BEFFF700BE30B5041E71F1000474
:1006A00004DB4FF00044404264EB0101141E73F17F
:1006B000000405DB1C464FF00043524263EB040389
:1006C000994208BF904230BD202A06DBCB17203A62
:1006D00041FA02F043EAE07306E041FA02F3D04047
:1006E000C2F12002914008431946704710B5141E0C
:1006F00073F1000408DA401C41F1000192185B41DB
:100700001A4301D120F0010010BD2DE9F04D9246B1
:100710009B4611B1B1FA81F202E0B0FA80F22032C8
:100720009046FFF7B9FD04460F4640EA0A0041EA49
:100730000B0153465A46084313D0114653EA0100B1
:1007400019D0C8F140025046FFF7B5FD05460E46E8
:10075000504659464246FFF79FFD084305D0012009
:1007600004E020463946BDE8F08D0020054346EA06
:10077000E0762C4337430A986305E40AA0EB0800AF
:100780000022FD0A44EA47540A3002D500200146FF
:10079000E9E7010510196941DDE9084500196941DA
:1007A000BDE8F04DA2E70000FEE7000043F6D040B0
:1007B000C2F2000000F04ABA43F6D040C2F2000094
:1007C00000F044BA43F6F840C2F2000000F03EBA2E
:1007D00043F6F840C2F2000000F038BA2DE9F041CB
:1007E0008AB00446006846F60002C4F20002904255
:1007F0002DD046F20042C4F20002904243D140F2B2
:100800002010C2F200000460816200254FF0100841
:100810000E27012669462046CDE905550795CDE905
:1008200000550295CDE903850997089600F00EF969
:10083000002818BF00F0A8F8CDE90655CDE900550D
:10084000CDE90258CDE90466CDE9086713E040F22E
:100850006C10C2F20000046081620E20059000213D
:10086000102209900120CDE90611CDE90011029175
:10087000CDE9032108906946204600F0E7F80028FA
:1008800018BF00F081F8204600F068FC20460221E5
:1008900000F07EF82046102100F07AF80AB0BDE89A
:1008A000F0810000002070470020704710B543F62B
:1008B000F414C2F2000442F29061C2F20001204638
:1008C000002204F061FF41F69061C2F2000120466F
:1008D00004F04CFF002010BD10B543F6F414C2F232
:1008E00000040146204604F041FF204604F018FFB2
:1008F000002010BD0020704743F66070C2F2000077
:1009000000F0BABC43F62050C2F2000000F0B4BCC4
:1009100043F68050C2F2000000F0AEBC43F6C07057
:10092000C2F2000000F0A8BC43F6E050C2F20000A2
:1009300000F0A2BC43F64060C2F2000000F09CBC94
:1009400043F6A060C2F2000000F096BC44F2200022
:10095000C2F2000000F090BC43F60070C2F200004A
:1009600000F08ABC70470000012000F04FBE00007C
:10097000082000F04BBE0000102000F047BE000031
:10098000202000F043BE000072B600BFFEE700006A
:1009900090F82020013A012A04D8006800F11402DE
:1009A000002004E000F1240201204FF480211368AC
:1009B000194311607047000010B590F820E0D0F89E
:1009C00000C0AEF1010EBEF1010FDCF808E011D855
:1009D0001EF0E05F14D0CEF301640120A040186047
:1009E0008B689BB1D1F804E0C86840EACE0040EAC9
:1009F000030E0FE000F1240301204FF4802121E0D9
:100A000000F1240301204FF400111BE00868CB68BB
:100A100043EA405E0CF5C07000EB0413240140F87B
:100A200004E00C69184640F8044F097D012903D100
:100A3000016841F48071016050680121D86010683C
:100A4000986000201A681143196010BD90F82020AA
:100A5000013A012A30D8B0B546F20060C4F2000075
:100A6000026842F001020260026822F47C520260D5
:100A7000D1F814E0CC694A6A0368012C43EA0222E7
:100A800002600EF01F024FF0010303FA02F2C36985
:100A90006FEA020C23EA0203C36113D02CBBC368C4
:100AA00003EA0C03C360CB688C8844EA034300EB81
:100AB000CE0423640B4611E0416A41F48021416277
:100AC00001207047C3681343C3600B688C8844EAF5
:100AD000034300EBCE04236401F10C038C681B88F4
:100AE00043EA044300EBCE04636443688D6943EA40
:100AF0000204D1F810E0096A002D08BF03EA0C04D3
:100B000044604369BEF1000F43EA020408BF03EAF0
:100B10000C040129446102D1C1691143C16101681A
:100B200021F0010101600020B0BD0000704700000D
:100B3000B0B590F82040013C012C78D80468002919
:100B40000CBFE4682469A40777D004684FEA011C4D
:100B500004F5D87555F80C4014F00404946055F869
:100B60000CE005EB011C19BF4FEADE0555604FEAAA
:100B70005E551560DCF80050E64605F00205D560CC
:100B80005EF8044F24075ABFDEF8004004F00F045B
:100B900008241461DEF800400029C4F3072494619E
:100BA000DEF800504FEA15455561DCF808201A7050
:100BB000026802EB0112D2F8B8214FEA12225A70F1
:100BC000026802EB0112D2F8B8214FEA12429A7081
:100BD000026802EB0112D2F8B8214FEA1262DA7011
:100BE000026802EB0112D2F8BC211A71026802EB12
:100BF0000112D2F8BC214FEA12225A71026802EBAC
:100C00000112D2F8BC214FEA12429A71026802EB3B
:100C10000112D2F8BC214FEA1262DA7100680CBFEF
:100C200000F10C0100F11001002020220AE000F187
:100C3000240101204FF4802204E000F1240101206E
:100C40004FF400120B681A430A60B0BD2DE9F04F53
:100C500081B0044600684669D0F804908768D0F8EF
:100C60000CB0D0F810A0D0F81880F10703D10025FF
:100C700030071CD423E0F90710D00121BA078160A6
:100C800009D4780700F1AA80380700F1B080204627
:100C900000F092FA02E0204600F090FA0025F805F4
:100CA00000F18480F80300F1AA80300707D51BF01B
:100CB000100004D0206845F400751021C160700751
:100CC00008D51BF0080005D020680821C160204627
:100CD00000F0F2F9B00706D52068C068800702D09E
:100CE000204600F0EBF9700607D51AF0100004D08A
:100CF000206845F4806510210161B00608D51AF01E
:100D0000080005D0206808210161204600F0FCF9A8
:100D1000F00606D520680069800702D0204600F062
:100D2000F5F9B00308D519F0100005D0206810219E
:100D30004160204600F010FAF00308D519F00800D1
:100D400005D0206808214160204600F041FA3004B7
:100D500040F18F805FEA497040F1888006F480702E
:100D600008EA102028435FEA8871014648BF41F035
:100D70000201B20558BF01465FEA48700D4648BF00
:100D800045F00405700558BF0D4630056ED518F0C6
:100D900070006BD010380009052862D8DFE800F039
:100DA000035C5659535F45F008055AE020684FF43C
:100DB0008071BA0581600AD4780512D4380519D437
:100DC000204600F0FDF9F8037FF56FAF17E02046ED
:100DD00000F0F8F9F8037FF568AF10E04FF4006514
:100DE0005DE705F50055F8037FF55FAF07E04FF4C9
:100DF000805554E705F58045F8037FF556AF206828
:100E00004FF48031BA0381600AD478030FD43803D9
:100E100013D4204600F0D8F930073FF548AF4EE72D
:100E2000204600F0D3F930073FF541AF47E705F51D
:100E3000004530073FF53BAF41E705F5803530070A
:100E40003FF535AF3BE745F080050AE045F020056A
:100E500007E045F0400504E045F0100501E045F4E9
:100E600080752068816921F070018161206804210A
:100E700041604DB1606A40EA05012046616201B0FF
:100E8000BDE8F04FFFF752BE01B0BDE8F08F0000A3
:100E9000002804BF01207047B0B5044690F8200038
:100EA00010B9204600F06EF82068016841F0010199
:100EB000016000F087FC054620684168C90705D13C
:100EC00000F080FC401B0B28F6D310E0016821F0F5
:100ED0000201016000F076FC054600BF2068416811
:100EE00089070DD500F06EFC401B0B28F6D3606A15
:100EF000052140F400306062012084F82010B0BD6C
:100F0000217E0268012922F0800208BF803202603F
:100F1000617E0268012922F0400208BF403202606F
:100F2000A17E0268012922F0200208BF203202605F
:100F3000E17E0268012922F0100218BF103202601F
:100F4000217F0268012922F0080208BF08320260EE
:100F5000617F0268012922F0040208BF04320260A6
:100F6000D4E901C2D4E9033561691A432A43114324
:100F7000ACF101021143C16100200121606284F8DB
:100F80002010B0BDB0B586B0006846F60002C4F2CD
:100F9000000200219042CDE90411CDE90211019136
:100FA00035D046F20041C4F20001884240F0818011
:100FB00040F29811C2F200010A6843F64000C4F200
:100FC0000200531C0B6052B900210091016841F0EE
:100FD00000710160016801F0007100910099002129
:100FE000009150F8101C152441F0080140F8101C25
:100FF00050F8100C142500F008000090009840F202
:101000000040C4F2020000F50060032135E043F621
:101010004000C4F202000091016841F0806101606B
:10102000016801F080610091009940F29811C2F2CC
:1010300000010A68531C0B6052B90021009101683D
:1010400041F000710160016801F0007100910099A8
:101050000021009150F8101C412441F0020140F899
:10106000101C50F8100C402500F002000090009871
:1010700040F200406021C4F202000191022102917D
:1010800000210391032104910921059101A900F098
:10109000C9FA28460021002200F06EFD284600F023
:1010A00059FD20460021002200F066FD204600F098
:1010B00051FD06B0B0BD000070470000B0B501683A
:1010C00046F60002C4F2000291420BD046F2004202
:1010D000C4F20002914218BFB0BD40F22015C2F226
:1010E000000503E040F26C15C2F200052C1D05F16D
:1010F000200300212246FFF71BFD05F128000168AF
:101100002046BDE8B040084770470000B0B5016810
:1011100046F60002C4F2000291420BD046F20042B1
:10112000C4F20002914218BFB0BD40F22015C2F2D5
:10113000000503E040F26C15C2F200052C1D05F11C
:10114000200301212246FFF7F3FC05F12800016886
:101150002046BDE8B040084770470000B0B50446DF
:1011600090F8200001281DD1022084F8200020687A
:10117000016821F00101016000F024FB054600BF79
:1011800020684068C00713D000F01CFB401B0B28F0
:10119000F6D3606A40F400306062052084F82000D5
:1011A0000120B0BD606A40F4002060620120B0BD43
:1011B00000206062B0BD0000704700007047000072
:1011C0007047000070470000704700007047000043
:1011D0007047000070B5866D044600F0F3FA94F88D
:1011E0003510022925D105462068216C026822F0BD
:1011F00016020260426922F08002426109B9A16CC4
:1012000019B1016821F008010160016821F00101B4
:10121000016000BF20680068C0070ED000F0D2FA5D
:10122000401B0628F6D320206065032084F8350093
:101230000CE080206065012008E0E06D3F2101FAAC
:1012400000F0B060012084F835000020002184F80F
:10125000341070BD90F83510022909D1052180F8AD
:1012600035100068016821F001010160002070471D
:101270008021416501207047F0B581B000210091C7
:1012800040F22801C2F200010B68D0E9166148F271
:10129000B51537680822C1F64E358A403A42A3FB9D
:1012A00005350CD003681C68640708D51C6824F059
:1012B00004041C60B260426D42F0010242650122EA
:1012C0008A403A4208D003685B691B0604D5B260C5
:1012D000426D42F00202426504228A403A4208D03E
:1012E00003681B689B0704D5B260426D42F004029C
:1012F000426510228A403A4216D001680B681B07EB
:1013000012D5B2600B680A685B0306D4D20506D416
:101310000A6822F008020A6001E011033FD4016C60
:1013200011B1044688472046C26D202101FA02F31C
:101330003B4241D001680F68FF063DD5B36090F88D
:1013400035700B68052F1AD123F016030B604B691B
:1013500023F080034B61036C0BB9836C1BB10B68EA
:1013600023F008030B603F219140B160012180F818
:101370003510016D002280F83420D9BB3EE00A68A8
:101380005B0310D4D20512D40A6822F010020A605E
:10139000012180F83510002180F8341007E0816CBD
:1013A0000029BED1C0E7110301D4416C00E0C16B3C
:1013B00011B1044688472046416DF9B1416DC90716
:1013C00016D0052180F835100168AA0A0B6823F0B1
:1013D00001030B60009B01339342009302D80B681A
:1013E000DB07F7D1012180F83510002180F8341097
:1013F000C16C19B101B0BDE8F040084701B0F0BDC3
:101400002DE9F041044600F0DDF9C4B105460220A3
:1014100084F835000020216884F83400086820F042
:101420000100086020680168C9070BD000F0CAF904
:10143000401B0528F6D90321202203207AE0012051
:10144000BDE8F081016848F23F02CFF21002D4E912
:10145000013501EA020ED4E9032143EA0E032B43CE
:10146000D4E9056C1A43D4E907781143314341EAC2
:101470000702616A42EA0802042942EA0C0303D126
:10148000D4E90B273A43134303604269042922F04D
:10149000070241EA02012DD1D4E90A5341EA0501CC
:1014A00043B3BCF5005F08D0BCF1000F12D1022D90
:1014B00016D0012D07D09DB119E0032D17D8DFE814
:1014C00005F00B0F0B02A3F1C072B2FA82F25209BF
:1014D0004AB90FE0032D02D2012222B90AE006D157
:1014E000C3F3006232B101214022012022E0002238
:1014F000002AF8D100F0F8024AF6AB23103ACAF6F7
:10150000AA23A2FB033749F26C6341613909C0F693
:101510000003595C40F2FF3398435F2A4FF03F02CB
:1015200088BF0430C4E9160102FA01F1816000228B
:1015300001210020626584F83510BDE8F0810000CB
:1015400090F834C0BCF1010F04BF0220704770B5A1
:101550004FF0010C80F834C0D0F858E090F835C056
:10156000BCF1010F37D14FF0020C80F835C04FF0BD
:10157000000CC0F854C0D0F800C08468056CC06D81
:10158000DCF80060402C26F48026CCF80060CCF813
:1015900004300B4604BF13460A463F2101FA00F00F
:1015A000CCF80830CCF80C20CEF80800DCF80000AD
:1015B00040F01600CCF800002DB1DCF8000040F03F
:1015C0000800CCF80000DCF8000040F00100CCF886
:1015D0000000002070BD002180F83410022070BD92
:1015E000B0B5044600F0EEF8054640F2FA00C2F24B
:1015F00000000078611C18BF044400BF00F0E2F84E
:10160000401BA042FAD3B0BD7047000043F614411E
:10161000C4F201010A68024214BF08607047FFF774
:10162000F3BF00002DE9F04F83B000F1200200F17C
:101630003E4741F60045009207F1FF77C4F20205EC
:1016400008224FEAB726A84208BF0722072E38BF54
:101650004FEAB72200274FF0000A4FF0000801922E
:101660000AE000BF08F101080AF1020AB8F1100F00
:1016700007F1040700F09D800D68012202FA08FCC2
:1016800015EA0C09EED04D68032205F0030BABF10F
:101690000106012E02FA0AFE10D88668CC6826EAF6
:1016A0000E0604FA0AF4344384604468C5F3001556
:1016B00024EA0C0605FA08F52E434660BBF1030F39
:1016C0001BD0C6688D6826EA0E0605FA0AF52E4379
:1016D000BBF1020FC66010D16FF00302009D02EA59
:1016E000580655F806C007F01C040F220B69A240EB
:1016F0002CEA0202A3401A43AA5102684B6822EA6C
:101700000E0203F0030606FA0AF6324313F4403FD2
:101710000260A7D0002243F644030292C4F20203FF
:101720001A6843F6004442F480421A601A68C4F210
:10173000010402F480420292029A28F003024FF65A
:10174000084C2244CFF6FF7C52F80C3007F00C0610
:101750000F25B540AB43019D05FA06F6334342F829
:101760000C30A2684B6842EA090643F60C4CDD02D5
:1017700058BF22EA0906A660C4F2010CDCF800207A
:101780009D0242EA090658BF22EA0906CCF8006029
:1017900062689D0342EA090658BF22EA09066660AC
:1017A0002268DB0342EA090658BF22EA09062660DE
:1017B00058E703B0BDE8F08F002A08BF0904816133
:1017C0007047000044F62C50C2F2000000687047D9
:1017D000002804BF01207047F0B581B0044690F89E
:1017E0003D0028B9002084F83C00204600F0A8F80D
:1017F000242084F83D002068016821F00101016087
:10180000016841F400410160016821F40041016078
:1018100001F0BEF8636848F2A16CC0F2010C40F61A
:101820000011C0F23D0163453CBF48F28041C0F267
:101830001E01884202D2012001B0F0BD4DF6836145
:10184000C4F21B31A0FB01122168970CD1F804E00F
:101850004FF496762EF03F0545EA92454D6077436A
:1018600048F638160D6AC0F24106A7FB067625F049
:101870003F07634538BF960C721C3A430A62CA6937
:1018800048F2A0664CF6FF77C0F20106B34222EAA6
:10189000070C0AD801385A00B0FBF2F001306FF3A0
:1018A0001F30042898BF042020E0A2681927002ACE
:1018B00008BF032701385F43B0FBF7F701373F0547
:1018C00009D052B119225A43B0FBF2F00422013080
:1018D00062F31F3008E0012008E003EB4302B0FB95
:1018E000F2F001306FF31F3040F4004040EA0C008A
:1018F000C8610868D4E9072320F0C00010431843EA
:101900000860886848F2FF3204F10C0790438CCFDE
:1019100018431043A6698860C86820F0FF00384368
:101920003043C860086840F00100086000202021B2
:10193000206484F83D10206384F83E0001B0F0BDBF
:101940002DE9F04F87B0044645F600470068C4F221
:1019500000070026B8420696CDE904660396029673
:1019600002D007B0BDE8F08F43F630050196C4F20F
:10197000020528680DF1080940F004002860286875
:101980004FF0010B00F004000190019801962868C7
:101990004FF0030840F00100286028684FF0040A67
:1019A00000F00100019001984FF4007002901220A5
:1019B000039007F5D6304946CDF810B0CDF8148025
:1019C000CDF818A0FFF72EFE4FF480700290122081
:1019D000CDE9030BCDF8148046F2400807F5D2306C
:1019E0004946C4F20208CDF818A0FFF71BFE019685
:1019F00028694FF0C06740F400002861286943F669
:101A0000205500F4000001900198C2F200054FF447
:101A100080692846C5E90087C5E90266C5E90496DC
:101A2000C5E90666C5E90866FFF7EAFC002818BFA5
:101A3000FEF7AAFFA563AC6343F6805508F13000BA
:101A4000C2F200054021C5E9000705F108000022A7
:101A500080E806022846C5E90522C5E907226A6230
:101A6000FFF7CEFC002818BFFEF78EFF6563AC635E
:101A700007B0BDE8F08F000040F2FA0044F62C51A8
:101A8000C2F20000C2F2000100780A681044086047
:101A90007047000080B543F60040C4F202000168C0
:101AA00041F400710160016841F4806101600168E6
:101AB00041F480710160032000F08AF80F2000F0EB
:101AC00005F800F02BF8002080BD0000B0B540F212
:101AD000FA02C2F2000240F228011278C2F20001BA
:101AE0004FF47A730968B3FBF2F20446B1FBF2F1EA
:101AF000084601F055FA0F2C4FF001050CD858B9E3
:101B00004FF0FF3021460022002500F035F840F26A
:101B1000FC00C2F2000004602846B0BD82B0002084
:101B200043F640010190C4F202014A6842F4804247
:101B30004A604A6802F480420192019A0090086863
:101B400040F080500860086800F0805000900098D5
:101B500002B07047002848BF704700F01F01012203
:101B600002FA01F11C2202EAD0004EF20012CEF27B
:101B7000000281507047000010B54EF60C5CCEF2AA
:101B8000000CDCF80030C3F3022E8EF00704042CA6
:101B900028BF0424BEF103034FF0FF3E0EFA04F405
:101BA00038BF0023A14399400EFA03F39A4311432F
:101BB00000F1604200F00F03090102F56442043BAA
:101BC0006344002848BF03F10C02117010BD0000EF
:101BD0004EF60C51CEF200010A684FF6FF031A4090
:101BE00060F30A2242F0806040F0FD7008607047A8
:101BF000704700000268002051627047B0B5D0F80D
:101C000000E0DEF82400D1B1DEF82830B1F1010C9B
:101C100000EB13430BD05FFA8CF10EF580700024BB
:101C200050F8045F01348C4203EB1543F8D343EAC8
:101C300002400EEB8C01C1F804010020B0BD40EA67
:101C40000240CEF828000020B0BD0000D0F8E0042B
:101C500004F04AB801EBC102D0F8E03400EB820096
:101C6000026A184603F0A6BF01EBC102D0F8E034C7
:101C700000EB8200D0F86022184603F0F5BF0000A8
:101C8000D0F8E00404F032B810B54FFA81FC4FF4FC
:101C9000157201F00F0EBCF1000F48BF142290F82E
:101CA000944402440EEBCE034FEAD11C02EB8301B5
:101CB000012C81F801C002F823E004BF022010BD0E
:101CC0000268012380F894340446104604F03AFD7B
:101CD000002084F8940410BDB0B5037901F00F0220
:101CE0009A4284BF0120B0BD4BB24FF41574002B53
:101CF00048BF142400EB040E90F8944402EBC20396
:101D00004FEAD11C0EEB8301012C4FF0000481F847
:101D100001C08C700EF8232004BF0220B0BD026801
:101D2000012380F894340546104604F097FE2046BF
:101D300085F89444B0BD000001F00F0101EBC10132
:101D400000EB8100D0F868027047000070B54FFAD0
:101D500081FC4FF4157EBCF1000F01F00F0C48BF61
:101D60004FF0140E00EB0E040CEBCC05CE0904EB87
:101D700085016FF3DF224E7004F825C08A600B7175
:101D800018BFA1F81AC0022B04BF00224A7190F8B4
:101D90009424012A04BF022070BD0268012380F848
:101DA00094340446104604F0F3FB002084F89404B5
:101DB00070BD000010B501F00F0E0EEBCE0100EB70
:101DC00081044FF0000CC4F868C284F855C290F842
:101DD00006C004F51571C4F86022C4F86432BCF181
:101DE000010F84F854E208BFCA610068624604F03B
:101DF0007BFE002010BD0000B0B5027901F00F0499
:101E000094424FF001022CD84BB24FF41575002BC1
:101E100048BF14254FEAD11C48BF2146054401EBB9
:101E2000C10305EB830181F801C090F894C48A7066
:101E3000BCF1010F05F8234004BF0220B0BD0268C9
:101E40000123054680F89434104604F02FFE2CB987
:101E50002868A97905F29C4204F0D2FD002285F899
:101E600094241046B0BD000001F00F0C0CEBCC0127
:101E700000EB810101F814CF4FF0000C0B61837966
:101E8000C1F814C04FF0010CCA60012B81F801C0E9
:101E900008BFCA6180B500681A4604F025FE00201C
:101EA00080BD00002DE9F04F87B0056882462846C6
:101EB00004F092FF10B107B0BDE8F08FDAF800002F
:101EC00004F0B8FF0028F6D0D5F80808C0F30D21BB
:101ED000DAF80000CAF8D41404F0ACFF800705D586
:101EE000DAF80000416901F002014161DAF800000E
:101EF00005F50061049104F09DFFC006059536D5F7
:101F0000DAF80000816921F0100181612C6A04F087
:101F10000F0000EBC0000AEB8001C4F34340062829
:101F200001F5157511D002281AD147F6F07014EAA0
:101F3000000615D0E96834090598224604F07EFFB2
:101F4000E86800EB1610E86007E005980AF29C418B
:101F5000082204F073FFC4F30A146869204468611E
:101F6000DAF80000816941F010018161059DDAF81D
:101F7000000004F05FFF000340F1EC80DAF800009D
:101F800004F036FF002800F0E58006460AF29C4087
:101F90004FF4306800244FF0000B06901AE000BFA9
:101FA00005EB080002218160B80642BF05EB08007E
:101FB00020218160B80442BF05EB08004FF40051B6
:101FC00081600BF1010B760808F1200804F124046C
:101FD00000F0C080F007F4D0DAF800005FFA8BF967
:101FE000494604F01FFF0746C0075FD005EB080015
:101FF00001218160DAF8000008EB0001036C8A68B7
:102000009AF80650012D25D1150732D4950600F116
:10201000998043F20B05C4F65475AB42059D02D37B
:1020200012F400422FD10AEB0402D2F8743209698B
:102030006FF3DF41A3EB0101C2F8681294BBD2F841
:102040006432002B00F08480D2F860020844C2F8A9
:10205000600227E043F20B05C4F65475FF35AB422E
:1020600017D1059D10040ED4900644BF202088602F
:1020700018E043F20B00C4F65470059D834215D35B
:1020800012F4004012D04FF40040886038070FD49B
:1020900038E0059D34B9DAF8641219B90021069ABE
:1020A00004F0AEFC50464946FFF7DEFD380729D55F
:1020B00005EB080008218160DAF8000043F20B020A
:1020C000056C40448168C4F65472954205D311F4FE
:1020D00000411CBF4FF400418160504600F060FB9E
:1020E00043F20B00C4F654708542059D0AD39AF85A
:1020F0000600012806D1DAF80000069A012104F052
:102100007FFC00BFF80642BF05EB0800102181608C
:10211000B8077FF549AF6869000604D50499486897
:1021200040F4806048600AEB040090F857120129DF
:102130007FF436AF002180F857125046494600F030
:102140004BFA2DE720208860059D3807B0D4D9E7E9
:102150000121A4E7DAF80000CDF818A004F06AFE27
:10216000400340F1D1800698006804F039FE002851
:1021700000F0CA80064605984FF0010B00F5106785
:102180000698002500F1140900F29C400190CDE969
:10219000029704E0760805F1010500F0B580F0072C
:1021A000F8D006985FFA85FA0068514604F028FED8
:1021B0000446C00726D0049A05F00F00516B0BFAB5
:1021C00000F021EA0000506307EB4510C0F808B0AA
:1021D00006988079012811D105EBC50009EB800034
:1021E000D0E902121144C16045B9006930B90698BE
:1021F000019A0068012104F003FC00BF06985146D3
:10220000FFF728FD200742BF07EB4510082181603A
:10221000E00642BF07EB451010218160600642BF17
:1022200007EB451040218160A00715D50598294688
:1022300004F0A0FD05EBC50009EB800010F8031FBA
:10224000012905D1002101700698514600F0C0F91E
:1022500007EB45100221816020069BD505EBC500E8
:1022600009EB8008D8E90410814293D3069A081A32
:102270001468D8F80820904238BF024604EB451095
:10228000D0F81819033289B2B1EB920F28D300F5B8
:10229000106900BFD8E90420824221D9101A069A99
:1022A000D8E902B19779584538BF83461FFA8BF3B6
:1022B00020465246009704F0AFFED8F80C00D8F83C
:1022C00014105844C8F80C0001EB0B00C8F81400B7
:1022D000D9F818000BF1030180B2B0EB910FD9D2FD
:1022E000D8E90401DDE9029788424FF0010B3FF67F
:1022F00051AF05F00F00D4F834180BFA00F021EAC2
:102300000000C4F8340845E7069C206804F092FDFC
:10231000059DB0F1FF3F18DC0499486820F00100EA
:10232000486094F8CC04012807D1002084F8CC043C
:1023300020460021FFF75CFC02E0204600F014FA82
:102340002068416901F000414161206804F072FD9C
:1023500000050BD504988068C00702D0204600F025
:1023600047FA2068416901F400614161206804F086
:1023700061FDC0044DD50499486820F00100486013
:102380002068102104F0F6FC2079D0B105F5106129
:102390004FF67F328A600B68013823F400130B601C
:1023A000C1F80822D1F8003223F40013C1F800323A
:1023B000D1F8003243F00063C1F8003201F120018E
:1023C000E8D1049F8421F869442240F00110F861AB
:1023D000E07B00284FF00B0008BF142108BF42F239
:1023E0002B007B5808BF102218437850B85840F093
:1023F0000B00B850386804F29C4220F4FE6038604C
:102400002068A17904F0FCFA2068416901F4805148
:102410004161206804F00EFD800416D5206804F0A8
:10242000F7F8206804F0CAFC2568E07100F0AAFA09
:10243000E2790146284604F067FD204600F080F965
:102440002068416901F400514161206804F0F2FC08
:10245000000707D5204600F08BF92068416901F09C
:1024600008014161206804F0E5FC000627D50599C4
:10247000886920F080008861207902281FD304F544
:10248000157804F11405012640F27B2706E000BF11
:1024900020790136864207F1240710D2E05D012839
:1024A000F6D106F00F0000EBC0023006206805EB05
:1024B000820158BF08EB820104F00EFCE8E72068B7
:1024C00004F0B8FCC0022CD52079022824D305984A
:1024D00004F1140900F5126504F13B064FF0010800
:1024E000012706E0207901372035874206F12406CE
:1024F00012D2286871780129F4D1B0F1FF3FF1DCE4
:1025000007F00F0000EBC001206809EB810186F89D
:10251000008004F0E1FBE5E72068416901F48011E7
:102520004161206804F086FC800230D52179059D48
:10253000022927D305F53260013904F51F72012302
:1025400005E000BF2030013902F124021AD00768EB
:102550001678012EF6D1B7F1FF3FF3DCD4F8D4643E
:1025600086EA1747FF07EDD102F8013CAF6947F053
:102570008007AF616F693F06E4D40499486840F46E
:10258000007048602068416901F4001141612068D1
:1025900004F050FC400007D52046FFF757FB2068A9
:1025A000416901F080414161206804F043FC40072B
:1025B0007FF581AC20684568680702D52046FFF7A3
:1025C0005FFB206841682943416007B0BDE8F08F98
:1025D000D0F8E00403F0EEBBD0F8E00403F000BC58
:1025E000002804BF01207047B0B582B004460568DA
:1025F00090F8950428B9002084F89404204600F04F
:102600005BF80320B5F1A04F84F8950404BF0020C7
:10261000A071206804F0ECF994E80F00257C009587
:1026200004F006F8B8BB2068002104F029FC90BB38
:10263000207948B300EBC000800000214FF0010C6E
:1026400000230022E51824332A75EA85984202F116
:10265000010285F815C02976C5E907116962F1D133
:1026600000210022002300BFA518243285F854322F
:10267000904203F1010385F8551285F85812C5E917
:102680009711C5F86412EFD194E80F00257C0095EE
:1026900004F0B8F828B1022084F89504012002B0B3
:1026A000B0BD00206074012084F89504206804F017
:1026B00099F8002002B0B0BDB0B586B00068002423
:1026C000B0F1A04F0594CDE903440294019401D0E8
:1026D00006B0B0BD43F630050094C4F20205286888
:1026E00001A940F001002860286800F00100009076
:1026F00000984FF4C05001900220CDE9020403205D
:1027000004900A2005900020C4F20200FEF78AFF20
:102710006868002140F080006860009468690022C9
:1027200040F480406861686900F48040009000983F
:102730004320FFF721FA4320FFF70CFA06B0B0BDA3
:1027400010B5C179044621B1022901D0FEF71CF968
:102750000121D4F8E00403F0CBFBD4F8E004BDE899
:10276000104003F079BB0000D0F8E00403F0A6BBF2
:10277000D0F8E00403F0ACBB90F89424012A04BF25
:102780000220704710B5012280F894244174026839
:102790000446104604F0A6FB002084F8940410BD03
:1027A000D0F8E02400F29C41104603F0B7BB0000D3
:1027B00010B5044690F89404012804BF022010BD0F
:1027C0002068012184F89414C168490606D5617B0C
:1027D000012903D1816B41F48031816304F0C2FA95
:1027E000206803F0EFFF002084F8940410BD00007F
:1027F00010B50446D0F8E00403F0E4FB2068D0F8FC
:10280000001E41F00101C0F8001EE07A002808BF58
:1028100010BD4EF61050CEF20000016841F00601E6
:10282000016010BD002804BF012070472DE9F04170
:1028300043F60808C4F202080446D8F8F8030D4627
:1028400000F00700814207D988F8F853D8F8F80358
:1028500000F00700A84276D12068810717D541070C
:1028600005D5D8F8001041F4E051C8F80010010770
:1028700005D5D8F8001041F46041C8F80010D8F828
:102880000010A26821F0F0011143C8F80010C00741
:102890003FD1D8F8F80300F00700854207D288F846
:1028A000F853D8F8F80300F00700A8424BD120688D
:1028B000410707D5D8F80010E26821F4E051114330
:1028C000C8F80010000708D5D8F80000216920F4E6
:1028D000604040EAC100C8F8000000F081F8D8F874
:1028E000001049F25432C1F30311C0F60002515CEA
:1028F00040F2280220FA01F140F2FC00C2F200008E
:102900000068C2F200021160FFF7E0F80020BDE8A5
:10291000F0816068811E022907D258F8081C8901DD
:102920005CBF0120BDE8F08110E0012807D158F814
:10293000081C89035CBF0120BDE8F08106E058F85F
:10294000081C890702D40120BDE8F081D8F80010E6
:1029500021F003010843C8F80000FEF733FF0646E4
:1029600041F28837D8F80000616800F00C00B0EB45
:10297000810F8ED0FEF726FF801BB842F2D90320CC
:10298000BDE8F08140F22800C2F200000068704704
:1029900040F2280043F60801C2F20000C4F202012E
:1029A0000068096849F26432C1F38221C0F600026E
:1029B000515CC8407047000040F2280043F608010F
:1029C000C2F20000C4F202010068096849F26432F0
:1029D000C1F34231C0F60002515CC84070470000AC
:1029E00010B543F60404C4F202046168C1F3810126
:1029F00042F20040C0F2F400DFE801F002030802F6
:102A000010BD41F60030C0F2B70010BD206821684B
:102A10002368490241F60031C0F2B70100F03F02DD
:102A2000C3F388105CBF42F20041C0F2F401A1FB85
:102A300000010023FDF7C6FB21680222C1F301411A
:102A400002EB4101B0FBF1F010BD0000002804BF13
:102A5000012070472DE9F04182B00446007843F62A
:102A60000006C007C4F2020649D0B06800F00C00AE
:102A7000042809D13068800341D5606800283ED120
:102A8000012002B0BDE8F081B06800F00C00082819
:102A900002D170684002EDD465683068B5F5A02FAA
:102AA00005D0B5F5803F09D140F480300CE040F40A
:102AB00080203060306840F4803005E020F48030C1
:102AC0003060306820F480203060FEF77BFE002DFF
:102AD000054611D03068800311D4FEF773FE401B09
:102AE0006428F7D928E100BFFEF76CFE401B64287C
:102AF0004FF0030000F2E08030688003F4D42078C7
:102B000080071BD5B06810F00C0F09D0B06800F03A
:102B10000C00082840F085807068400200F1818038
:102B20003068800703D5E068012840F09A8030685B
:102B3000216920F0F80040EAC100306020780007E9
:102B400034D42078400746D4A5695DB3B06800F05E
:102B50000C00082840F09C80012D00F082807068F5
:102B6000E16900F480028A427BD1216A00F03F02D1
:102B70008A4276D147F6C071626A0140B1EB821F8A
:102B80006FD1A16A4FF6FF73C903994300F4403235
:102B9000A1F580318A4264D1E16A00F07060B0EB47
:102BA000016F5ED1002002B0BDE8F08160690028AD
:102BB0005BD00020C4F247200121C0F8801EFEF740
:102BC00001FE0546706F8007BBD4FEF7FBFD401B7E
:102BD0000228F7D9B0E0306C5FEAC0080AD40020C0
:102BE0000190306C40F080503064306C00F08050C8
:102BF0000190019847F20007C4F200073868C00549
:102C000026D4386840F480703860FEF7DBFD054656
:102C10003868C0051CD4FEF7D5FD401B0228F7D943
:102C20008AE0E068002840F20000C4F2472053D058
:102C300001210160FEF7C6FD054600BF3068800730
:102C40003FF575AFFEF7BEFD401B0228F6D973E0D5
:102C5000A568306F052D51D0012D56D140F00100EF
:102C600059E0012002B0BDE8F0810020C4F2472005
:102C70000021C0F8801EFEF7A5FD0546706F800795
:102C80007FF55FAFFEF79EFD401B0228F6D953E0AB
:102C90000027C4F2472700203866FEF793FD022D77
:102CA00005460DD1306880015DD5FEF78BFD401BD8
:102CB00002284FF00300F5D902B0BDE8F08100BF53
:102CC000306880017FF56EAFFEF77CFD401B022867
:102CD0004FF00300F4D9EFE700210160FEF772FD29
:102CE000054600BF306880077FF528AFFEF76AFD14
:102CF000401B02284FF00300F4D9DDE740F0040048
:102D00003067306F40F0010005E020F001003067CF
:102D1000306F20F004003067FEF754FD002D0546AB
:102D200041F2883713D000BF306F800712D4FEF70E
:102D300049FD401BB842F7D9032002B0BDE8F0813D
:102D4000FEF740FD401BB8424FF00300B4D8306F8F
:102D50008007F5D4B8F1000F3FF5F6AE306C20F0E7
:102D600080503064F0E604F11C052FCD084340EAA2
:102D70008210D9034FF6FF729143A1F5803140EAEA
:102D800005600843706001203866FEF71BFD0446AD
:102D9000306880013FF506AFFEF714FD001B0228E6
:102DA0004FF00300F4D987E770B528B1416A29B123
:102DB00000210161142106E0012070BD4168B1F5D8
:102DC000827F02D01C21002242500026866290F8A9
:102DD000511029B980F85060054600F03DF82846AA
:102DE000022180F8511090E82E0002F482720C68E3
:102DF00003F4044324F040040C601A4405F4006317
:102E000005691A4405F0020345691A4405F00103F7
:102E10008569C4691A4405F400731A4404F0380340
:102E2000046A1A4404F08003846A1A4304F40053C9
:102E30001A430A60436A042202EA154203F01003AF
:102E40001A444A60CA6922F40062CA6101214665D7
:102E500080F85110304670BD2DE9F04F87B0044620
:102E600043F200070068C4F201070026B842069644
:102E7000CDE904660396029602D007B0BDE8F08F54
:102E800043F630000196C4F20200416902AD41F4FC
:102E90008051416141694FF0020A01F48051019172
:102EA0000199019601684FF0010B41F002010160A8
:102EB00001684FF0030901F00201019101990196A7
:102EC00001684FF0050841F00101016000682946E2
:102ED00000F00100019001981820029007F554407D
:102EE000CDF80CA0CDF810B0CDF81490CDF8188026
:102EF000FEF798FB802002A981E8010CCDE9059836
:102F000046F2404807F550402946C4F20208FEF751
:102F100089FB43F6E055C2F200054FF4403005F15D
:102F200020014FF0C06B4FF4806A042781E88102D2
:102F30002846C5E9008BC5E90266C5E904A6C5E9CE
:102F40000666C5E90B66FEF75BFA002818BFFDF7B9
:102F50001BFDE564AC6343F6406508F11800C2F25E
:102F600000054021C5E9000B05F10800002280E8BA
:102F700006044FF4003005F1200181E88102284663
:102F8000C5E90522EA61C5E90B22FEF739FA0028F6
:102F900018BFFDF7F9FCA564AC6307B0BDE8F08F7E
:102FA000411E0020B0EB116F1CBF012070474EF294
:102FB0001002CEF2000251604EF62351CEF2000113
:102FC000F0230B700721906011607047704700007C
:102FD0007047000090F83C20012A04BF022070478F
:102FE000B0B501F108053CCDD1E900CE23F47C5306
:102FF00022F470521A432EF4F0431A432CF4E043A7
:103000001A4324F4C0431A432A43C96922F4804274
:10301000036811435964002180F83C100020B0BDC2
:1030200090F83C20012A4FF0020255D010B5012340
:1030300080F83C3080F83D200268D2F804E0D2F8F5
:1030400008C00C682EF07003234341F2FF74C4F2F1
:103050000004A24253600DDC40F2FF73C4F200038F
:103060009A4215DCB2F1804F29D040F20043C4F2FD
:10307000000322E040F2FF33C4F201039A4212DC63
:1030800041F60003C4F200039A4218D0002312E074
:1030900040F60003C4F200039A4210D040F6004309
:1030A000C4F2000309E044F20003C4F201039A42AF
:1030B00005D040F20043C4F201039A4204D14968AA
:1030C0002CF08003194391600121002280F83D100B
:1030D00080F83C20BDE8104010467047002804BF2F
:1030E0000120704710B5044690F83D0028B9002033
:1030F00084F83C00204600F01FF8022084F83D00D0
:103100002068211D01F05EFD012084F8460084F84E
:103110003E0084F83F0084F8400084F8410084F8C1
:10312000420084F8430084F8440084F8450084F8A1
:103130003D00002010BD000080B582B0006840F660
:10314000FF31C4F2000188421EDD40F60041C4F2A6
:10315000000188423AD044F20041C4F201018842A1
:103160004ED00021C4F20101884266D100200190B6
:1031700043F64000C4F20200416841F001014160A1
:10318000406800F0010056E040F20041C4F2000146
:10319000884243D040F60001C4F2000188424CD17D
:1031A0000020019043F64000C4F2020001680022B2
:1031B00041F0040101600068012100F00400019069
:1031C00001981E20FEF7D8FC1E2014E0002001907C
:1031D00043F64000C4F202000168002241F00801F9
:1031E00001600068012100F0080001900198322080
:1031F000FEF7C2FC322002B0BDE88040FEF7AABC58
:103200000020019043F64000C4F20200416841F4FE
:1032100000314160406800F400300CE00020019073
:1032200043F64000C4F20200016841F0020101606F
:10323000006800F002000190019802B080BD00001B
:1032400090F83D1001291CBF01207047022180F831
:103250003D10006841F2FF72C168C4F20002904262
:1032600041F00101C1600DDC40F2FF71C4F20001C8
:10327000884215DCB0F1804F29D040F20041C4F201
:10328000000122E040F2FF31C4F20101884212DC69
:1032900041F60001C4F20001884218D0002112E07A
:1032A00040F60001C4F20001884210D040F600410F
:1032B000C4F2000109E044F20001C4F201018842B5
:1032C00005D040F20041C4F20101884206D1816874
:1032D00001F00701062904BF00207047016841F092
:1032E000010101600020704790F83C20012A4FF056
:1032F00002026ED080B5012380F83C3080F83D207A
:10330000D0F800C04FF67772DCF8083023EA0202EA
:10331000CCF808200B684F2B28DC1F2B44DD202B1A
:1033200045D0302B43D0402B40F0AC80D1F804E0A6
:10333000C968DCF82030DCF8202022F00102CCF84B
:103340002020DCF8182022F0F00242EA011123F0DC
:103350000A0242EA0E02CCF81810CCF82020DCF861
:10336000081041F0470121F0300127E06F2B32DDDA
:10337000B3F5005F73D0B3F5805F21D0702B40F0C0
:103380008180D1E901E3C968DCF8082043EA0E0333
:1033900022F47F4243EA01211143CCF80810DCF803
:1033A000081041F0770109E00BB1102B6AD1DCF86D
:1033B000081021F07001194341F00701CCF8081002
:1033C0000022012180F83D10002180F83C10BDE86A
:1033D000804010467047502B21D0602B52D1D1F83D
:1033E00004E0C968DCF82030DCF8202022F010026C
:1033F000CCF82020DCF8182022F4704242EA013197
:1034000023F0A00242EA0E12CCF81810CCF82020CB
:10341000DCF8081041F0670121F01001CEE7D1F887
:1034200004E0C968DCF82030DCF8202022F001023A
:10343000CCF82020DCF8182022F0F00242EA01113A
:1034400023F00A0242EA0E02CCF81810CCF8202031
:10345000DCF8081041F0570121F02001AEE7D1E976
:1034600001E3C968DCF8082043EA0E0322F47F4236
:1034700043EA01211143CCF80810DCF8081041F4AC
:1034800080419BE701229CE77047000070B504462D
:103490000068C5680669B10716D515F0020113D09A
:1034A0006FF002010161012121778069800703D05B
:1034B0002046FFF7E9FF05E0204600F0DBF8204654
:1034C00000F016FA00202077700718D515F00400D8
:1034D00015D020686FF00401016102212177806915
:1034E00010F4407F03D02046FFF7CEFF05E02046D2
:1034F00000F0C0F8204600F0FBF9002020773007EC
:1035000017D515F0080014D020686FF0080101618C
:1035100004212177C069800703D02046FFF7B4FF5C
:1035200005E0204600F0A6F8204600F0E1F9002072
:103530002077F00618D515F0100015D020686FF030
:103540001001016108212177C06910F4407F03D088
:103550002046FFF799FF05E0204600F08BF8204653
:1035600000F0C6F900202077F00718BF15F0010021
:1035700002D1300609D412E020686FF00101016128
:10358000204600F0B7F9300609D515F0800006D0C6
:1035900020686FF0800101612046FFF717FD70067B
:1035A00009D515F0400006D020686FF04001016198
:1035B000204600F059FAB00658BF70BD15F0200043
:1035C00008D021686FF0200220460A61BDE87040F3
:1035D000FFF7FEBC70BD000080B586B0006844F205
:1035E0000042C4F2010200219042CDE90411CDE96C
:1035F000021101911BD00021C4F20101884237D190
:10360000002143F630000091C4F2020002684FF43A
:10361000005342F0100202600068012200F0100026
:103620000090009841F20000C4F2020016E043F658
:1036300030000091C4F202000168032241F0200131
:1036400001600068022100F020000090009841F223
:103650000000C4F2020000F58060402301930223C1
:1036600002930023CDE9033101A90592FDF7DAFFAA
:1036700006B080BD7047000090F83C30012B04BFBD
:10368000022070474FEAB2020123032A80F83C303F
:1036900000F2F8802DE9F043DFE802F002AF3D7D53
:1036A000036840F200461C6A1A6A24F0020422F001
:1036B00001021A621A46D3F804C052F818EF8F6854
:1036C00043F48065C4F20106B54244EA070405D11B
:1036D000CF6824F00C0427F004073C430F68B54280
:1036E00006D1D1E905582CF440762E4346EA080C61
:1036F0002EF073063743C3F804C09F614F68096911
:103700005F631C629F6947F008079F619F6927F00C
:1037100004079F61B0E0036840F200481C6A1A6A1F
:1037200024F4007422F480721A621A46D3F804C09A
:1037300052F81CEF8F6843F48065C4F201084545D8
:1037400044EA072408D1CF6840F2FF463F0224F440
:10375000406427EA06063443D1F80090454506D177
:10376000D1E905562CF440572E4347EA061C2EF0AB
:10377000730747EA0907C3F804C0DF614F680969A6
:10378000DF631C62DF6947F00807DF61DF6927F04C
:103790000407DF6170E0036840F20045D3F820C001
:1037A0001A6A43F4806722F480521A621A465C68EF
:1037B00052F81C8FD1F800E08E68C4F20105AF42C8
:1037C00004D14D6924F4804444EA85142CF4005754
:1037D00047EA063728F4E64646EA0E265C60DE61D4
:1037E0004E6809691E641F62DF6947F40067DF6184
:1037F000DF6927F48067DF613DE0036840F200483D
:103800001C6A1A6A24F0200422F010021A621A4676
:10381000D3F804C052F818EF8F6843F48065C4F2FF
:103820000108454544EA071407D1CF686FF0400608
:1038300024F0C00406EA07163443D1F80090454549
:1038400006D1D1E905562CF440672E4347EA860C91
:103850002EF4E64747EA0927C3F804C09F614F6882
:1038600009699F631C629F6947F400679F619F69B4
:1038700027F480679F6109021368194300231160D0
:10388000BDE8F043002180F83C1018467047000066
:10389000002804BF0120704710B5044690F83D0091
:1038A00028B9002084F83C00204600F01FF80220D0
:1038B00084F83D002068211D01F084F9012084F87E
:1038C000460084F83E0084F83F0084F8400084F805
:1038D000410084F8420084F8430084F8440084F8EE
:1038E000450084F83D00002010BD00007047000036
:1038F00070470000006841F6FF31C4F200018842C1
:103900001DDC40F6FF31C4F20001884234DD41F293
:10391000FF31C4F20001884258DC40F60041C4F295
:103920000001884275D041F20001C4F200018842D2
:1039300040F0998040F2EC10C2F2000090E040F2BA
:10394000FF31C4F2010188422ADD44F2FF31C4F2A2
:10395000010188424BDC40F20041C4F2010188427F
:103960005CD044F20001C4F2010188427BD140F2F4
:103970000420C2F2000073E0B0F1804F5DD040F24D
:103980000041C4F20001884261D040F60001C4F257
:103990000001884267D140F2DC10C2F200005FE013
:1039A00041F60041C4F2000188424BD042F20001CE
:1039B000C4F2000188424FD00021C4F201018842C4
:1039C00051D140F2C410C2F2000049E041F200417E
:1039D000C4F20001884226D041F60001C4F2000181
:1039E000884240D140F2AC10C2F2000038E044F20C
:1039F0000041C4F2010188421AD044F60001C4F229
:103A00000101884218BF704740F2A410C2F20000C2
:103A100026E040F2E410C2F2000021E040F2FC1087
:103A2000C2F200001CE040F2F410C2F2000017E005
:103A300040F29C10C2F2000012E040F2CC10C2F240
:103A400000000DE040F2B410C2F2000008E040F2C5
:103A5000D410C2F2000003E040F2BC10C2F2000039
:103A600004300068004770477047000090F842300B
:103A7000202B07D100294FF0010318BF002A04D1E1
:103A800018467047022318467047B0B582B001232C
:103A9000002503634563044601F048FC216B0123C4
:103AA000012912D1019521680A68019249680191A2
:103AB000019900BF216851E8031F226841F01001FD
:103AC00042E80313002BF5D1034602B0BDE8B04035
:103AD0001846704770B50446006844F6FF72C4F299
:103AE0000002904216DC44F20042C4F2000290420E
:103AF00028D044F60002C4F2000290422CD044F6D2
:103B00000042C4F20002904246D140F63C66C2F246
:103B1000000646E045F20002C4F20002904216D0D0
:103B200041F20042C4F20102904236D041F200025A
:103B3000C4F20102904218BF70BD40F20C26C2F2DE
:103B400000062EE040F21C66C2F2000629E041F2B7
:103B50004C26C2F2000624E040F62C26C2F20006F3
:103B6000D6F80C2406F501752846A6F808149047E7
:103B7000B6F804142846FCF76FFBB6F80424204678
:103B80002946FFF773FF43F66070C2F20000006839
:103B9000016821F00801016070BD41F25C66C2F26B
:103BA0000006D6F80C2406F501752846A6F8081478
:103BB0009047B6F8042420462946BDE87040FFF738
:103BC00055BF000010B504460068406994F84110E4
:103BD000212920D110F080001DD000BF206850E8BE
:103BE000050F216820F0800041E80502002AF5D188
:103BF000A06B002818BFFDF7EDFA00BF206850E861
:103C0000030F216820F0C00041E80302002AF5D12B
:103C1000202084F841002068406994F8421022294D
:103C200039D110F0400036D0206850E8050F2168E7
:103C300020F0400041E80502002AF5D1E06B0028A1
:103C400018BFFDF7C7FA00BF206850E8030F2168CE
:103C500020F4907041E80302002AF5D1206850E872
:103C6000050F216820F0010041E80502002AF5D186
:103C7000206B01280AD100BF206850E8030F21689B
:103C800020F0100041E80302002AF5D1202084F83A
:103C9000420000202063002010BD0000704700009B
:103CA000B0B582B001680A68CC684B6902F02F0594
:103CB000202D04F0200505D125B102B0BDE8B040AB
:103CC00001F064BA5FEA027C1EBF03F0010E04F447
:103CD000907313EB0E0340D1036BD50618D5012B5F
:103CE00016D114F0100313D0002201920A68019239
:103CF0004A680192019A4969490647D4818DC28D6B
:103D0000C38D002B18BF914240F01A8102B0B0BDA4
:103D100013062AD514F0800327D090F84120212AD9
:103D2000F4D18268B2F5805F03D10269002A00F005
:103D30003A81026A531C036212784A60C28C013ACB
:103D40001304C284E2D1C86820F08000C860C8684B
:103D500040F04000C86002B0B0BDD10718BF14F4F5
:103D6000807167D151076BD471E05206CED514F043
:103D70004002CBD0CA6822F04002CA60202180F8FD
:103D8000411002B0BDE8B04000F0BABAC26B116891
:103D900049688BB2002B42D0858DAB423FD2C185A2
:103DA000D169B1F5807F33D0016851E8031F026803
:103DB00021F4807142E80313002BF5D1016851E82A
:103DC000051F026821F0010142E80513002BF5D11F
:103DD000016851E8051F026821F0400142E805131F
:103DE000002BF5D1202180F842100021016300BF93
:103DF000016851E8031F026821F0100142E8031333
:103E0000002BF5D1C16B04460846FDF7E3F92046C7
:103E100002214163818DC28D891A89B2B9E0818DF9
:103E200099427FF473AFD269B2F5807F7FF46EAFB1
:103E30000222ADE0416C41F001014164510706D519
:103E4000BEF1000F03D0416C41F0020141649107C3
:103E500006D5BEF1000F03D0416C41F0040141646E
:103E6000BCF1000F06D55EEA050103D0416C41F0BC
:103E700008014164416C00293FF448AF910604D524
:103E80001DB1044601F082F9204601684969426C7F
:103E900001F0400102F0080289184AD0016851E897
:103EA000031F026821F4907142E80313002BF5D13F
:103EB000016851E8051F026821F0010142E805137D
:103EC000002BF5D1016B01290AD100BF016851E82F
:103ED000031F026821F0100142E80313002BF5D103
:103EE000202180F8421000210163016849694906D8
:103EF00054D500BF016851E8051F026821F0400158
:103F000042E80513002BF5D1C16B002946D045F2DC
:103F10004502C0F60002044608460A65FDF79AF914
:103F200000283FF4F3AEE06B016D02B0BDE8B04095
:103F300008470446FFF7B2FE0020606402B0B0BD3F
:103F4000891A00BF026852E8032F036822F49072B6
:103F500043E80325002DF5D1026852E8052F0368D8
:103F600022F0010243E80525002DF5D1202280F83A
:103F700042200022026300BF026852E8032F036858
:103F800022F0100243E80325002DF5D1022289B268
:103F9000426302B0BDE8B040FFF79CBD02B0BDE88F
:103FA000B040FFF77BBE026A32F8023B6FF35F233B
:103FB0004B600262C2E60000002804BF0120704787
:103FC00010B5044690F8410028B9002084F840005C
:103FD000204600F021F8242084F841002068C168C0
:103FE00021F40051C160204601F030F920680169D8
:103FF00021F490410161416921F02A014161C168C8
:1040000041F40051C16000202021606484F8411017
:1040100084F84210606310BD2DE9F04F87B004466C
:10402000006844F60001C4F2000100268842CDE990
:104030000566CDE90366029600F0058141F2004174
:10404000C4F20101884200F08C8041F20001C4F208
:104050000101884240F04D81002743F6300001976E
:10406000C4F202004169002541F01001416141693B
:10407000C4F2020501F01001019101990197016854
:1040800002AE41F002010160016846F2280801F029
:10409000020101910199019701684FF0020A41F074
:1040A0000101016000684FF0030900F00100019078
:1040B0000198802002904FF0070B05F58060314693
:1040C000C4F20208CDE903A7CDF81490CDF818B0DA
:1040D000FDF7A8FA4FF40070CDE9020A04A880E8C1
:1040E000800A28463146FDF79DFA43F6A06508F59B
:1040F0008C60C2F200054FF0006685E8C1004FF405
:10410000403005F120024FF4806A042182E8030266
:104110002846C5E9037AC5E90577EF61C5E90B775C
:10412000FDF76EF9002818BFFCF72EFCE563AC63C1
:1041300043F6007508F59260C2F200054021C5E91A
:10414000000605F1080080E882044FF48030C5E9DC
:1041500008072846C5E90577EF61FDF751F92526DF
:104160006AE043F630000196C4F20200416946F26B
:10417000280841F0200141614169032701F0200135
:104180000191019901960168C4F2020841F04001D1
:104190000160006802A900F04000019001984FF40E
:1041A000844002900220CDE90306082006900020FA
:1041B000C4F2020000F5C0500597FDF733FA43F64C
:1041C000C07508F58060C2F200054FF0206A4FF418
:1041D0008071C5E9000A4FF4003005F120024FF468
:1041E0008069C5E90661042183C22846C5E90266E3
:1041F000C5E90496C5E90B66FDF702F9002818BF6A
:10420000FCF7C2FBE563AC6344F2200508F58F6060
:10421000C2F200054021C5E9000A05F1080080E866
:1042200042024FF48030C5E908062846C5E9056614
:10423000EE61FDF7E5F8472600284FF038074ED02D
:10424000FCF7A2FB4BE043F630000196C4F20200FB
:10425000016941F480210161016901F4802101912A
:1042600001990196016841F004010160006802A90A
:1042700000F00400019001984FF440600290022089
:10428000CDE9030603200590072006900020C4F224
:10429000020000F50060FDF7C5F943F6607546F2CF
:1042A0002800C2F20005C4F202004FF0006185E868
:1042B00043004FF440304FF48062C5E908062846B9
:1042C000C5E90362C5E90566EE61FDF799F80028C6
:1042D0004FF027064FF03C0718BFFCF755FB304660
:1042E00005210022E551AC63FDF746FC3046FDF7A1
:1042F00031FC07B0BDE8F08F704700007047000048
:1043000070470000FEE7000010B543F6D04046F2CB
:104310000041C2F20000C4F2000140F20014032286
:104320000023C0F2010480E80E0000F10C014FF4FC
:10433000C02C4FF4A00E81E8085084618383FCF701
:10434000A7FD002808BF10BDBDE81040FCF71CBB4E
:1043500010B543F6F84046F60001C2F20000C4F280
:10436000000140F2001403220023C0F2010480E89F
:104370000E0000F10C014FF4802C4FF4E00E81E8A8
:10438000085084618383FCF783FD002808BF10BDBB
:10439000BDE81040FCF7F8BA80B582B0002043F6C3
:1043A00030010190C4F202010A6842F400120A606E
:1043B0000A6802F400120192019A00900868002233
:1043C00040F4800008600868052100F48000009037
:1043D00000980C20FDF7D0FB0C20FDF7BBFB0D2057
:1043E00000210022FDF7C8FB0D20FDF7B3FB0F20D5
:1043F00000210022FDF7C0FB0F20FDF7ABFB3920A9
:1044000005210022FDF7B8FB3920FDF7A3FB3A2078
:1044100005210022FDF7B0FB3A20FDF79BFB3B2076
:1044200000210022FDF7A8FB3B20FDF793FB442071
:1044300000210022FDF7A0FB4420FDF78BFB452067
:1044400000210022FDF798FB4520FDF783FB462065
:1044500000210022FDF790FB462002B0BDE880401D
:10446000FDF778BB2DE9F04786B0002043F6300118
:104470000590CDE90300CDE901000090C4F20201EE
:104480000A6841F6000442F002020A600A68C4F2B7
:10449000020402F002020092009A00900A6840278B
:1044A00042F040020A600A68012502F040020092D0
:1044B000009A00900A6842F001020A600A6802F05D
:1044C00001020092009A00900A6842F008020A6015
:1044D0000A6802F008020092009A00900A6842F00E
:1044E00004020A600A6802F004020092009A009036
:1044F0000A6842F080020A600A6802F080020092B4
:10450000009A00900A6842F020020A600A6802F0ED
:1045100020020092009A00900868012240F01000EA
:1045200008600868402100F01000009000982046C4
:10453000FDF742F9A4F5C0563046102101224FF094
:104540001009FDF739F9A4F5A058404601210122D0
:10455000FDF732F9CDE9017501AF20463946CDE9C5
:104560000355FDF75FF8092001904FF4041A204627
:104570003946CDE902A5FDF755F8CDE901954FF093
:104580000209304639460395CDF81090FDF74AF8F8
:104590003020CDE9010AA4F5805039460395FDF796
:1045A00041F840463946CDE90155CDE90359FDF7BB
:1045B00039F8062002210022FDF7DEFA0620FDF779
:1045C000C9FA092001210022FDF7D6FA0920FDF7DA
:1045D000C1FA0A2001210022FDF7CEFA0A20FDF7D8
:1045E000B9FA172001210022FDF7C6FA1720FDF7BE
:1045F000B1FA06B0BDE8F08780B544F2800045F618
:104600000041C2F20000C4F2000141F68022002302
:104610004FF4804CC0F2060280E80E00C0E9033C73
:10462000C0E90533C0E90733FDF7D2F8002808BF19
:1046300080BDBDE88040FCF7A7B90000B0B544F2EA
:10464000B85043F20001C2F20000C4F201014FF47D
:104650008272002380E80E0000F10C014FF0020C82
:104660004FF0010E4FF40074382581E808500A21FC
:10467000C0E90645C0E90833C0E90A31FEF794FBFA
:10468000002808BFB0BDBDE8B040FCF77DB9000010
:1046900080B588B044F2586044F200420021C2F272
:1046A0000000C4F2010241F287330791CDE9051100
:1046B000CDE90311CDE90111C0E90021C0E90213E0
:1046C00001618161FEF70AFD002818BFFCF75CF963
:1046D00044F25860C2F20000FFF7DAF8002818BF71
:1046E000FCF752F9602001900020CDE9020005900E
:1046F00044F25860C2F2000001A90022FEF7BCFF9C
:10470000002818BFFCF740F944F25860C2F20000DC
:10471000FEF762FF08B080BD10B596B044F210609D
:1047200000220021C2F20000C4F20102A72341F2DC
:1047300087341591CDE91311CDE91111CDE90F1190
:10474000CDE90D11CDE90B11CDE90911CDE9071125
:10475000CDE90511CDE90311CDE90111C0E900232F
:10476000C0E90214C0E904118161FEF7B7FC00281A
:1047700018BFFCF709F94FF48050129044F2106012
:10478000C2F2000012A9FEF7AFFD002818BFFCF727
:10479000FBF844F21060C2F20000FFF779F800283D
:1047A00018BFFCF7F1F844F210600024C2F20000D8
:1047B00010A9CDE91044FEF733FC002818BFFCF720
:1047C000E3F86020CDE9090444F21060C2F2000071
:1047D00009A90822CDE90B44CDE90D440F94FEF759
:1047E0004BFF002818BFFCF7CFF800200590CDE95B
:1047F0000300CDE901004FF40051089044F210602D
:104800000691C2F2000001A9FEF7E4FB002818BFE0
:10481000FCF7BAF844F21060C2F20000FEF7DCFECA
:1048200016B010BD80B586B044F2A06040F20042E0
:104830000021C2F20000C4F20002532340F2E73C20
:10484000CDE90411CDE90211CDE90011C0E9002341
:10485000C0E9021C01618161FEF740FC002818BF1D
:10486000FCF792F84FF48050029044F2A060C2F23C
:10487000000002A9FEF738FD002818BFFCF784F8F5
:104880000020CDE9000044F2A060C2F200006946B9
:10489000FEF7C6FB002818BFFCF776F806B080BD0F
:1048A00080B586B044F2E86040F600020021C2F212
:1048B0000000C4F20002532340F2E73CCDE90411AA
:1048C000CDE90211CDE90011C0E90023C0E9021CC5
:1048D00001618161FEF702FC002818BFFCF754F863
:1048E0004FF48050029044F2E860C2F2000002A946
:1048F000FEF7FAFC002818BFFCF746F80020CDE9C7
:10490000000044F2E860C2F200006946FEF788FB4E
:10491000002818BFFCF738F806B080BD80B586B017
:1049200044F2307040F600420021C2F20000C4F2AE
:104930000002532340F2E73CCDE90411CDE9021116
:10494000CDE90011C0E90023C0E9021C01618161C9
:10495000FEF7C4FB002818BFFCF716F84FF4805090
:10496000029044F23070C2F2000002A9FEF7BCFCD3
:10497000002818BFFCF708F80020CDE9000044F239
:104980003070C2F200006946FEF74AFB002818BFEB
:10499000FBF7FAFF06B080BD80B544F2787041F2B3
:1049A0000001C2F20000C4F2010100234FF00C0C20
:1049B0004FF4E13280E80E00C0E90333C0E905C3DB
:1049C000C361FFF7F9FA002808BF80BDBDE8804049
:1049D000FBF7DABF10B544F2C07044F6000C48F2A1
:1049E000A062C2F20000C4F2000CC0F201024FF457
:1049F000805300214FF4806E0C24C0E900C2C0E94E
:104A00000231C0E904E4C0E90611FFF7D5FA002835
:104A100008BF10BDBDE81040FBF7B6BF80B544F637
:104A2000080041F20041C2F20000C4F2010100237B
:104A30004FF00C0C4FF4E13280E80E00C0E9033374
:104A4000C0E905C3C361FFF7B7FA002808BF80BDFE
:104A5000BDE88040FBF798BF80B543F6F41040F204
:104A60000C01C2F20000C2F20001002201F068F85D
:104A7000002818BFFBF788FF43F6F41040F22C0122
:104A8000C2F20000C2F2000101F0C8FA002818BF0B
:104A9000FBF77AFF43F6F41040F2C801C2F20000BF
:104AA000C2F2000100F056FE002818BFFBF76CFFB1
:104AB00043F6F410C2F2000001F0DAFA002808BF51
:104AC00080BDBDE88040FBF75FBF0000FEE700004F
:104AD000FEE7000044F2D400C2F20000FDF7E2B9A4
:104AE0007047000070470000FCF7C6BF70B592B079
:104AF00006AC20463021FBF7AFFB002543F6400013
:104B00000595CDE90355CDE901550095C4F20200A4
:104B10000168022641F080510160006800F0805079
:104B20000090009847F200000095C4F20000016870
:104B300041F480410160006800F4804000900098DA
:104B4000012006904FF4803007904FF480000D90C4
:104B500006200E90A820CDE90F06072011902046D0
:104B60000C96FDF773FF10B172B600BFFEE70F2081
:104B7000CDE901064FF4A05004904FF48050059009
:104B800001A805210395FDF74DFE10B172B600BFD7
:104B9000FEE712B070BD00004EF68850CEF2000065
:104BA000016841F4700101607047000044F2E86060
:104BB000C2F20000FEF76ABC44F23070C2F200009C
:104BC000FEF764BCB0B540F6FF3E0568C4F2000EC7
:104BD00040F2004C7045C4F2010C0FDCB0F1804F84
:104BE00019D040F20043C4F20003984213D040F6BB
:104BF0000003C4F2000398420DD011E040F60043D8
:104C0000C4F20003984206D0604504D00023C4F2E9
:104C10000103984204D14B6825F0700243EA020573
:104C200041F6FF73C4F2000398420FDC704521DCAB
:104C3000B0F1804F41D040F20043C4F200039842EB
:104C40003BD040F60003C4F2000334E043F6FF73A8
:104C5000C4F2010398421EDC42F20003C4F20003D6
:104C600098422AD00023C4F20103984225D060451F
:104C700023D027E040F60043C4F2000398421CD042
:104C800041F60003C4F20003984216D041F60043F7
:104C9000C4F200030FE044F20003C4F2010398429F
:104CA0000BD044F60003C4F20103984205D044F24D
:104CB0000043C4F20103984204D1CB6825F440724A
:104CC00043EA02050A688C684B69C46240F4806458
:104CD0008262644504BF09690163026825F08001AE
:104CE00042F0040219430260012242610160B0BD3A
:104CF0002DE9F04188B043F6D04440F21015C2F2DD
:104D00000004C2F200054FF4007700264FF00808B7
:104D100002A901AB20462A460297CDE90366059613
:104D2000CDF81880FBF748FE02A901AB20462A46C1
:104D3000CDE90276CDE90466CDF81880FBF73CFE9C
:104D400040F2411040F20012CDE90206C2F2000228
:104D500002A901AB2046CDE90466CDF81880FBF727
:104D60002BFE43F6F84440F2FF10C2F2000440F27A
:104D70004C12CDE90206C2F2000202A901AB2046A4
:104D8000CDE90466CDF81880FBF716FE772040F2D7
:104D90006412CDE90206C2F2000202A901AB20466C
:104DA000CDE90466CDF81880FBF706FE08B0BDE833
:104DB000F0810000026841F6FF33C4F200039A421A
:104DC0001DDC40F6FF33C4F200039A4234DD41F2A9
:104DD000FF33C4F200039A4258DC40F60043C4F2A9
:104DE00000039A4275D041F20003C4F200039A42D4
:104DF00040F0988040F2EC12C2F2000290E040F2E3
:104E0000FF33C4F201039A422ADD44F2FF33C4F2B5
:104E100001039A424BDC40F20043C4F201039A4280
:104E20005CD044F20003C4F201039A427AD140F20A
:104E30000422C2F2000273E0B2F1804F5DD040F272
:104E40000043C4F200039A4261D040F60003C4F26A
:104E500000039A4266D140F2DC12C2F200025FE027
:104E600041F60043C4F200039A424BD042F20003E1
:104E7000C4F200039A424FD00023C4F201039A42C5
:104E800050D140F2C412C2F2000249E041F20043A4
:104E9000C4F200039A4226D041F60003C4F2000394
:104EA0009A423FD140F2AC12C2F2000238E044F222
:104EB0000043C4F201039A421AD044F60003C4F23C
:104EC00001039A4218BF704740F2A412C2F20002D6
:104ED00026E040F2E412C2F2000221E040F2FC12AD
:104EE000C2F200021CE040F2F412C2F2000217E02B
:104EF00040F29C12C2F2000212E040F2CC12C2F266
:104F000000020DE040F2B412C2F2000208E040F2EA
:104F1000D412C2F2000203E040F2BC12C2F200025C
:104F2000C2E900017047000010B543F6D04047F2D7
:104F30009531C2F20000C0F60001FBF74FFC44F2CD
:104F4000307047F22931C2F20000C0F60001FFF7CD
:104F500031FF42F6A8609FED1C0AC2F2000002F089
:104F6000B5FC43F20454C2F20004B1EE000AB2EE02
:104F7000001AF6EE001A2046F0EE400A03F008FA96
:104F8000012084F8D00444F60804C2F2000447F279
:104F90008531C0F600012046802202F011FA44F665
:104FA0005000C2F200002146A52202F091FF44F217
:104FB000C07047F21531C2F20000C0F600011222A3
:104FC000BDE8104002F0FCB9CDCCCC3D42F6A86162
:104FD000C2F2000191F86005002843F20450C2F2C9
:104FE000000019D0012280F8D02401F2645292ED21
:104FF000000A01F5AD6292ED002AB1EE001A01F24D
:105000006C5120EE010A22EE011A91ED002AB2EE57
:10501000003A22EE032A05E09FED090AB0EE401A9D
:10502000B0EE402A00F2D44181ED000A00F59B6108
:1050300000F2DC4081ED001A80ED002A704700BFCD
:1050400000000000806B0021C185FEF727BE000034
:10505000806B0168496990F84120212A11D111F033
:1050600080010ED00021C184016851E8031F02684D
:1050700021F0C00142E80313002BF5D1202180F874
:1050800041100168496990F84220222A2BD111F081
:10509000400128D00021C185016851E8031F026842
:1050A00021F4907142E80313002BF5D1016851E817
:1050B000051F026821F0010142E80513002BF5D11C
:1050C000016B01290AD100BF016851E8031F026882
:1050D00021F0100142E80313002BF5D1202180F8C4
:1050E000421000210163416C41F010014164FEF760
:1050F000D5BD00000168806B0968C90530D4002166
:10510000C18500BF016851E8031F026821F4807166
:1051100042E80313002BF5D1016851E8051F02682E
:1051200021F0010142E80513002BF5D1016851E897
:10513000051F026821F0400142E80513002BF5D15C
:10514000202180F84210016B012909D1016851E842
:10515000031F026821F0100142E80313002BF5D170
:1051600000214163016B012918BFFFF7C5B8818D8C
:10517000FEF7B0BC806B01214163016B012918BFB0
:10518000FFF7BCB8818D4908FEF7A4BC90F8421027
:10519000222918BF70478268B2F5805F02D1016989
:1051A00000294AD0816AB2F5805F07D00AB9026946
:1051B00022B10268526802F07F0201E00268526880
:1051C0000A70816A01318162C18D01390A04C18589
:1051D00000D070470168CA6822F02002CA60CA681D
:1051E00022F48072CA604A6922F001024A612021D9
:1051F00080F8421000214163026B012A18BFFFF7BB
:105200007BB881B0016300BF016851E8031F0268E9
:1052100021F0100142E80313002BF5D101680A6860
:10522000D20606D5002200920A68009249680091D1
:105230000099818D01B0FEF74DBC0168826A496812
:105240006FF35F2122F8021B8262BDE7B0B504460E
:10525000006804F108030ECB0569194325F4405595
:105260002A4302616269E3691143C268194349F242
:105270000C639A431143C1604169A26921F44071F2
:1052800041F20043114340F48062C4F201039A42A8
:10529000416102D1FDF790FB01E0FDF779FBE16987
:1052A0004FF69C7563681922C0F6FF75B1F5004F83
:1052B000A0FB02011CD15A00DB0FFAF783FF48F272
:1052C0001F51C5F2EB11A0FB01235A0905F18053D0
:1052D00002FB0300322303EBC000A0FB01014FF4EB
:1052E000F87000EA111000EB0210C1F3421118E04F
:1052F0009A009B0FFAF766FF48F21F51C5F2EB11B7
:10530000A0FB01235A0902FB0500322303EB001026
:10531000A0FB0101F02000EA511000EB0210C1F3E4
:105320004311084421688860B0BD0000F0B581B029
:10533000134600270446816283854764222084F84F
:105340004200E06B45F2F50545F275160A46216804
:10535000C0F60005C0F60006C0E90F5645F251063A
:10536000C0F600060431C0E91367FCF7E9F838B16C
:1053700010206064202084F84200012001B0F0BDBC
:1053800000972068016800914068009000982069AB
:1053900050B100BF206850E8030F216840F48070CE
:1053A00041E80302002AF5D1206850E8050F216882
:1053B00040F0010041E80502002AF5D1206850E8DC
:1053C000050F216840F0400041E80502002AF5D1B0
:1053D000002001B0F0BD000044F27870C2F200007D
:1053E000FEF75EBC44F2C070C2F20000FEF758BC8B
:1053F00044F60800C2F20000FEF752BCD0F8D422F6
:1054000000EB820CDCF8C032002B04BF0320704795
:10541000B0B501F00F0404EB840200EB820E5EF8DD
:10542000142F5AB1D0F8C85204EBC40405EB84041D
:10543000E469B2FBF4F505FB142292B10020C3F835
:105440001402DCF8C422D2F810C0BCF1000F08BF6F
:10545000B0BDD3F808020A4603F50471E047002006
:10546000B0BD00220023CEF8002000F0B9FD0020DE
:10547000B0BD0000B0B5D0F8D42200EB8202D2F863
:10548000C05295B1044600F043FCD4F8D412C5F8DC
:105490000C0204EB8101D1F8C412D5F80402CA68E9
:1054A00005F5037190470020B0BD0320B0BD00009A
:1054B00070B58121044600F06BFB002520460121D8
:1054C00084F8375000F064FB2046822184F877513D
:1054D00000F05EFBD4F8D40204F5307656F82010C4
:1054E00084F84B50656489B104EB8000D0F8C402A5
:1054F00040688047D4F8D40256F8200001F040F804
:10550000D4F8D40246F82050C4F8BC52002070BD34
:1055100010B5D0F8D41200EB8100D0F8C04284B1AD
:10552000D0F8C41259B194F80002FF2807D08B6854
:1055300094F8012221469847FF2084F800020020B9
:1055400010BD032010BD0000014640F2A8000A2251
:10555000C2F200000A807047F0B581B040F26407E3
:10556000C2F2000704463846822100F08DFA064652
:105570003846012100F088FA05463846812100F0BE
:1055800083FA002E1CBF1021B171002D1CBF4021D9
:10559000A98000281CBF40218180432140F2640083
:1055A000C2F20000218001B0F0BD0000F0B581B072
:1055B00040F26407C2F2000704463846822100F038
:1055C00063FA06463846012100F05EFA0546384681
:1055D000812100F059FA002E1CBF1021B171002D5D
:1055E0001CBF4FF40071A98000281CBF4FF400714C
:1055F0008180432140F26400C2F20000218001B0AA
:10560000F0BD0000F0B581B040F26407C2F20007BF
:1056100004463846822100F037FA06463846012112
:1056200000F032FA05463846812100F02DFA002EAE
:105630001CBF1021B171002D1CBF4021A980002882
:105640001CBF40218180432140F26400C2F200006F
:10565000218001B0F0BD00002DE9F04104464FF477
:10566000077000F08FFF00284FD04FF407710546F8
:10567000FAF7F2FDD4F8D402402704EB8000C0F81A
:10568000C052207CC4F8BC52002808BF4FF40077F9
:105690002046812102223B46022600F0B7FB4FF054
:1056A00001082046012102223B4684F8378000F0A1
:1056B000ADFB10206064204682210322082384F879
:1056C000778100F0A3FBD4F8D4020027C5F8047258
:1056D00004EB8000D0F8C40284F84B800068804757
:1056E000C5F81472C5F81872D5F8042252B1207C9E
:1056F00001210028204614BF40234FF4007300F01E
:1057000099FB00263046BDE8F081D4F8D402002190
:1057100004EB8000C0F8C0120220BDE8F081000058
:10572000D0F8D41200EB8101D1F8C012002904BFD7
:105730000320704780B590F810C0D1F804224023B0
:105740000121BCF1000F08BF4FF4007300F072FBA1
:10575000002080BD00290FBF0320D0F8D42200EB29
:105760008200C0F8C41218BF00207047D0F8D422BD
:1057700000EB8200D0F8C00200280EBF0320C0F862
:105780000412002070470000D0F8D43200EB8300F0
:10579000D0F8C00200280FBF0320C0F80812C0F8DC
:1057A0001022002070470000F0B581B0D0F8D4225C
:1057B00000EB8203D3F8C0420022002C8DF80320B6
:1057C000ADF8002054D00D7815F0600214D0202AD6
:1057D0004CD1CA881AB36DB2B5F1FF3F27DD4978C5
:1057E000402A84F80012214628BF402284F8012272
:1057F00000F06CF800243CE04A780B2A36D80024EC
:10580000DFE802F0063734343434343434342530AD
:1058100090F89C22032A29D1694602221EE0D3F87F
:10582000C4020022836848780024984721E0D3F816
:10583000C43206469D684B780F4618462146A84755
:10584000FA883046072A28BF0722214606E090F84A
:105850009C22032A0AD10DF10301012200F052F823
:10586000002406E090F89C22032A02D000F022F8DF
:105870000324204601B0F0BD80B5D0F8B8225268AC
:105880009047002818BF032080BD0000002070470B
:105890000020704780B513460A46002100F0CAFA7E
:1058A000002080BD80B513460A46002100F098FB19
:1058B000002080BD10B58021044600F05FFB20462B
:1058C0000021BDE8104000F059BB000080B5134630
:1058D0000A460321C0F894120021C0F86421C0E9EF
:1058E000553300F0A7FA002080BD000080B50521E7
:1058F000C0F8941200210022002300F09BFA00203F
:1059000080BD000080B513460A460221C0F89412FB
:1059100000214262C0E9053300F062FB002080BD37
:1059200080B50421C0F8941200210022002300F069
:1059300057FB002080BD000010B541F67024C2F274
:1059400000040A4602A0214600F0BAF8204610BD25
:1059500043444320436F6E666967000040F2B40021
:105960001222C2F200000A807047000010B541F612
:105970007024C2F200040A4602A0214600F0A0F8FA
:10598000204610BD43444320496E746572666163CE
:105990006500000040F2DC000422C2F200000A8030
:1059A0007047000010B541F67024C2F200040A46A8
:1059B00002A0214600F084F8204610BD53544D69E2
:1059C00063726F656C656374726F6E6963730000F8
:1059D00010B541F67024C2F200040A4602A0214626
:1059E00000F06EF8204610BD53544D3332205669F6
:1059F000727475616C20436F6D506F72740000009B
:105A000070B547F61020C1F6FF70026883684FF04A
:105A10001A0CD218A1F800C031D0406840F2E00C56
:105A20006FF00101C2F2000C4FF0370E002300BFEF
:105A30000CEB01050EEB1276B2F1204F01F10201E1
:105A40004FEA127438BF04F1300612010E292E718C
:105A50006B71EDD10CF1100104224FF0370C0023D3
:105A60000CEB1075B0F1204F4FEA107638BF06F1FD
:105A7000300501F8025F0001013A4B70F0D140F2AD
:105A8000E000C2F2000070BDB0F802C003789C458F
:105A90009CBF0020704780B508E000BF82788A4232
:105AA00008BF80BD73449AB2624506D290F800E008
:105AB00070444278052AF1D0F4E7002080BD000050
:105AC000002808BF704710B590F800C0BCF1000F67
:105AD00015D0A0F1010E73469C780133002CFBD148
