:020000040800F2
:10000000C8E0002075020008D76A00081D640008D7
:10001000D56A0008150A0008879F00080000000044
:10002000000000000000000000000000C172000895
:10003000F90B000800000000E56A0008C372000820
:100040008F0200088F0200088F0200088F0200084C
:100050008F0200088F020008FB0B00088F020008C7
:100060008F020008010C0008070C00088F0200082E
:100070000D0B0008190B00088F020008250B000863
:100080008F0200088F0200088F0200088F0200080C
:10009000190A0008210A00088F0200080D0C000848
:1000A0008F0200088F0200088F0200088F020008EC
:1000B0008F0200088F020008ED7300088F0200080D
:1000C0008F0200088F0200088F0200088F020008CC
:1000D0008F020008118100088F0200081D810008AE
:1000E0008F0200088F0200088F0200088F020008AC
:1000F0008F0200088F0200088F0200088F0200089C
:100100008F0200088F020008F97300088F020008B0
:100110008F0200088F0200088F0200088F0200087B
:100120008F020008310B00083D0B0008490B000846
:100130008F0200088F0200088F0200088F0200085B
:100140002D0A0008350A00088F020008D96A000845
:10015000550B0008610B00086D0B00082981000891
:100160008F0200088F0200088F0200088F0200082B
:100170008F0200088F0200088F02000800000000B4
:100180008F0200088F02000800F002F800F062F809
:100190000AA090E8000C82448344AAF10107DA45E2
:1001A00001D100F057F8AFF2090EBAE80F0013F0D2
:1001B000010F18BFFB1A43F0010318473C2301004D
:1001C0005C2301000A444FF0000C10F8013B13F0CF
:1001D000070408BF10F8014B1D1108BF10F8015BA0
:1001E000641E05D010F8016B641E01F8016BF9D193
:1001F00013F0080F1EBF10F8014BAD1C0C1B09D1EA
:100200006D1E58BF01F801CBFAD505E014F8016B5B
:1002100001F8016B6D1EF9D59142D6D370470000ED
:100220000023002400250026103A28BF78C1FBD8FF
:10023000520728BF30C148BF0B6070471FB511F08F
:1002400008FC9DE8030000F0CDF900F09DF91FBD0A
:1002500010B510BD00F0F6FA1146FFF7EFFF10F0F1
:10026000ABFE00F028FB03B4FFF7F2FF03BC00F085
:100270009FFA00000948804709480047FEE7FEE76B
:10028000FEE7FEE7FEE7FEE7FEE7FEE7FEE7FEE746
:1002900004480549054A064B70470000DD73000815
:1002A00089010008C8400020C8E00020C890002054
:1002B000C890002070B5064600F078F9056806F190
:1002C0000B0020F00704B4429CBF002070BD2B46F9
:1002D0006A68BAB11068A04210D304F108018842DC
:1002E0003CBF5068586007D35168101941601168CD
:1002F000091B016058601460101D70BD13465268E0
:10030000002AE7D12146284600F058F90028DED11E
:1003100070BD53EA020C00F069802DE9F04B4FF0FC
:100320000006002B1FBFB3FA83F503FA05F424FA85
:1003300005F65E4012BF1643B2FA82F502FA05F4E2
:10034000C5F120051EBF22FA05FC44EA0C04203545
:1003500056EA044C4FEA144418BF641C4FF00008DE
:100360004FF00009904271EB030C39D3002919BFFB
:10037000B1FA81F701FA07F6B0FA80F700FA07F64A
:10038000C7F120071EBF20FA07FC46EA0C062037FB
:10039000B6FBF4FCA7EB0507103F07F01F0BCBF1F2
:1003A00020062CFA06F60CFA0BFB44BFB3460026D7
:1003B000202FA4BF5E464FF0000B5BEA060C08BF7F
:1003C0004FF0010B19EB0B0948EB0608ABFB027C65
:1003D00006FB02CC0BFB03CCC01B71EB0C01C1E78D
:1003E0000B46024641464846BDE8F08B13B54FF038
:1003F00000004FF00001AFF30080BDE81C407047E3
:10040000032A40F2308010F0030C00F0158011F840
:10041000013BBCF1020F624498BF11F801CB00F818
:10042000013B38BF11F8013BA2F1040298BF00F86C
:1004300001CB38BF00F8013B11F0030300F0258029
:10044000083AC0F0088051F8043B083A51F804CB50
:10045000A0E80810F5E7121D5CBF51F8043B40F816
:10046000043BAFF30080D20724BF11F8013B11F821
:1004700001CB48BF11F8012B24BF00F8013B00F865
:1004800001CB48BF00F8012B704710B5203AC0F0EF
:100490000B80B1E81850A0E81850B1E81850A0E857
:1004A0001850203ABFF4F5AF5FEA027C24BFB1E8F0
:1004B0001850A0E8185044BF18C918C0BDE8104033
:1004C0005FEA827C24BF51F8043B40F8043B08BF3C
:1004D0007047D20728BF31F8023B48BF11F8012B03
:1004E00028BF20F8023B48BF00F8012B70474FF0AF
:1004F00000020429C0F0128010F0030C00F01B80F1
:10050000CCF1040CBCF1020F18BF00F8012BA8BFFE
:1005100020F8022BA1EB0C0100F00DB85FEAC17CC2
:1005200024BF00F8012B00F8012B48BF00F8012B75
:1005300070474FF0000200B51346944696462039A6
:1005400022BFA0E80C50A0E80C50B1F12001BFF48C
:10055000F7AF090728BFA0E80C5048BF0CC05DF8F2
:1005600004EB890028BF40F8042B08BF704748BF40
:1005700020F8022B11F0804F18BF00F8012B7047B4
:10058000704770477047000070B5064C7C44064DBC
:100590007D4403E0206820448047241DAC42F9D10B
:1005A00070BD0000881F0100881F010000487047CF
:1005B000C8010020704770477047704738B504463F
:1005C0000A4600206946AFF30080002808BF38BD06
:1005D00002460099204600F0F9F8012038BD0120BC
:1005E00000F015B9F8B5AFF30080054600200C46C1
:1005F000102000BF0646A819A0420DD93246694610
:100600000020AFF30080070008BF00F000F9009859
:10061000A04218BF0546C419FFF7C8FF056007468A
:10062000F01D20F007004619284600F00AF8B442F1
:1006300008BFF8BDA21B31463868BDE8F84000F09D
:10064000C5B800210160C0E9011070471020704753
:1006500070B50446051FFFF7A9FF0068002C14BF02
:10066000446870BD002C18BFAC423CBF2046646893
:10067000F8D301680A18AA4218BF456003D12A6856
:1006800005461144016028684119A1421CBF6C60F5
:1006900070BD6168696021680844286070BD2DE9FB
:1006A000F04791460C468046FFF780FF076860429E
:1006B00034EA000001D1042C02D20520BDE8F08705
:1006C000601E40F0070609F10B0020F007054D45BC
:1006D0009CBF0020BDE8F0873B467A6882B314686F
:1006E000101D404206EA000C644525D9A4EB0C001D
:1006F000854221D8BCF1000F0BD01046016862443E
:10070000A1EB0C01116041685160C0F800C0586055
:100710000346116805F10800814205D35019491BB1
:10072000016015605860034652F8040F58600020BD
:10073000C8F80020BDE8F08713465268002ACED1E1
:1007400029463846FFF73AFF0028C5D10620BDE804
:10075000F08710B500F036F8006810BD10B50446FB
:1007600000F030F8046010BD10B5002000F048F82B
:10077000FFF76EFDBDE81040012000F019B8000041
:1007800080E8FF1FC0F834D0C0F838E0C0F83CE083
:100790004FF00000704700BF80EC200B704700BF97
:1007A00080EC200B704700BFC0EC200B70470000AE
:1007B00001491820ABBEFEE7260002000048704742
:1007C000C001002000487047C00100200346406877
:1007D0008C46002818BF88423CBF03464068F8D3C7
:1007E00018681844884207D00CF1030020F0070075
:1007F000001D411A521A0146081D0A60FFF728BF62
:1008000010B500F067F8BDE8104000F05DB810B515
:1008100000F078F8BDE8104000F056B886469EE833
:10082000FF1FDEF834D0DEF83CE0704790EC200B80
:10083000704700BF90EC200B704700BFD0EC200B3E
:10084000704770477546FFF7B9FFAE460500694629
:10085000534620F00700854618B020B5FFF718FD75
:10086000BDE820404FF000064FF000074FF00008B1
:100870004FF0000BAC46ACE8C009ACE8C009ACE8EE
:10088000C009ACE8C00921F007018D46704770B57A
:10089000A0FB0140B4F1805170F1000024BF0020A2
:1008A00070BD2046FFF706FD05001CBF2146FFF77F
:1008B0001EFE284670BD10B50446AFF300802046EA
:1008C000BDE81040FFF7CFBC002801D0FFF770BF94
:1008D0007047000010B5002102A000F07BF8012055
:1008E00010BD0000534947414252543A2041626EC4
:1008F0006F726D616C207465726D696E6174696F81
:100900006E00000010B5012805D0002103A000F002
:1009100061F8012010BD09A1F8E7000053494752D2
:10092000544D454D3A204F7574206F6620686561BF
:1009300070206D656D6F7279000000003A20486587
:100940006170206D656D6F727920636F7272757062
:10095000746564000000000030B44FF0013C50F8B2
:10096000042B51F8043BCCFA52F4D51A20D1FCB92F
:1009700050F8042B51F8043BCCFA52F4D51A17D195
:10098000B4B950F8042B51F8043BCCFA52F4D51A00
:100990000ED16CB950F8042B51F8043BCCFA52F448
:1009A000D51A05D1002CDAD030BC4FF000007047CA
:1009B00029BAB1FA81F111F01801D1F12000844077
:1009C000F2D1CA40CB4012F0FF0213F0FF0330BC5B
:1009D000D01A704770B505460C460A2000E06D1C21
:1009E00000F011F835B128780028F8D102E0641C35
:1009F00000F009F814B120780028F8D1BDE8704063
:100A00000A20AFF3008008B569468DF80000032086
:100A1000ABBE08BDFEE70000034800F05DBA00BFB2
:100A2000014800F059BA00BF9C380020034800F08C
:100A300053BA00BF014800F04FBA00BFC4380020CD
:100A400010B504462068144A90420ED0134A9042D2
:100A500014D1134800220023046081622046002143
:100A60000AF00BFB20460C2104E00D48C4624165EE
:100A700020467021002200230AF0FFFA204600F0F1
:100A8000CEFC2046022100F0C6F820461021BDE829
:100A9000104000F0C0B800BF006800400064004093
:100AA000B003002080B588B002910021CDE9031188
:100AB000CDE9051302A901AB00F0C1F808B080BD73
:100AC000002070470020704710B50E4C05490022E9
:100AD000204607F0DFFC0449204607F0CDFC00204B
:100AE00010BD00BF902B00209023002010B5054CB6
:100AF0000146204607F0C0FC204607F098FC002085
:100B000010BD00BFC035002000207047014800F034
:100B10003BBD00BF20060020014800F035BD00BFEE
:100B200020020020014800F02FBD00BFA0040020DB
:100B3000014800F029BD00BFD0060020014800F0A8
:100B400023BD00BF80020020014800F01DBD00BF92
:100B500000050020014800F017BD00BFE0020020A2
:100B6000014800F011BD00BF30070020014800F02F
:100B70000BBD00BF6005002001686FF00F02182355
:100B800052FA81F2B2FBF3FC07A35F2A13F80CC000
:100B900040F2FF3321EA030188BF41F00401C0E9BC
:100BA000161C0846704700BF0006101600061016F7
:100BB0000D494FF0000C0A6842F080720A604FF451
:100BC0007A720A49C1F804C00B6843F001030B6054
:100BD000084B07494843B0FBF2F2B0FBF1F1C3E91F
:100BE0000002C3E9021C7047FCED00E0001000E0C9
:100BF00040420F00800400207047012000F08CBFAD
:100C0000082000F089BF102000F086BF202000F0EF
:100C100083BF72B6FEE790F82020013AD2B2012AD3
:100C200004D8006800F11402002004E000F124025E
:100C300001204FF48021136819431160704710B5EB
:100C400090F82040D0F800C0DCF808E0013CE4B2A5
:100C5000012C0ED81EF0E05F11D0CEF3016001240C
:100C600084401C60D1E9023E7BB14C6843EAC40376
:100C70000DE000F1240301204FF4802123E000F176
:100C8000240301204FF400111DE00B685B050CEB01
:100C9000001043EA0E03C0F880310B69C0F88431BC
:100CA00000F5C073097D012901BF00F5C2710C6810
:100CB00044F480740C605168C0F88C111168C0F85D
:100CC0008811002001211A681143196010BD00002D
:100CD00090F82020013AD2B2012A2BD8B0B533487F
:100CE000026842F001020260026822F47C52026053
:100CF0004A6A036843EA0222012302604C6904F055
:100D00001F0203FA02F2C3696FEA020C9343C36144
:100D1000CB69012B14D043BBC36800EBC40E03EABC
:100D20000C03C360CB688D8845EA0343CEF840309E
:100D30008E4612E0416A41F48021416201207047F1
:100D4000C36800EBC40E1343C3600D688B8843EA8D
:100D50000543CEF8403001F10C0E00EBC4038C6863
:100D6000BEF8005045EA04455D648B69456845EA74
:100D70000204002B08BF05EA0C0444600B694569B6
:100D800045EA0204002B08BF05EA0C044461096A25
:100D90000129BDE8B04002BFC1691143C1610168CA
:100DA00021F0010101600020704700BF0066004093
:100DB000704710B590F82040013CE4B2012C19D8DE
:100DC000D0F800C000290CBFDCF80C40DCF8104063
:100DD00014F0030F14D00CEB011CDCF8B0410CF53F
:100DE000D87E14F004049460DCF8B0410ED1640D98
:100DF00014600DE000F1240201204FF4802166E030
:100E000000F1240201204FF4001160E0E408546076
:100E1000DEF800400CF5DA7E04F00204D460DCF861
:100E2000B44114F0080F06BFDEF8004004F00F04D0
:100E3000082400291461DEF80040C4F307249461FB
:100E4000DEF800404FEA14445461DCF8B8211A700F
:100E5000026802EB0112D2F8B8214FEA12225A704E
:100E6000026802EB0112D2F8B8214FEA12429A70DE
:100E7000026802EB0112D2F8B8214FEA1262DA706E
:100E8000026802EB0112D2F8BC211A71026802EB6F
:100E90000112D2F8BC214FEA12225A71026802EB09
:100EA0000112D2F8BC214FEA12429A71026802EB99
:100EB00001124FF02001D2F8BC214FEA1262DA7120
:100EC000006800F1100208BF00F10C020020136856
:100ED0001943116010BD00002DE9F84F0446206849
:100EE0004669D0F804908768D0F80CB0D0F810A00C
:100EF000D0F8188016F0010F01D1002549E0F9075C
:100F00000ED001218160B80707D478071DD43807B7
:100F100021D4204600F0AFFA02E0204600F0ACFAFF
:100F20000025F8051CD520684FF480718160B80554
:100F300007D478050CD4380510D4204600F09DFA6B
:100F40000EE0204600F09AFA0AE04FF40065E8E768
:100F500045F4005504E04FF48055E2E745F4804540
:100F6000F80316D520684FF480318160B80307D4A8
:100F7000780309D438030AD4204600F080FA08E048
:100F8000204600F07DFA04E045F4004501E045F418
:100F90008035300707D51BF010001FBF20681021D7
:100FA000C16045F40075700708D51BF0080005D036
:100FB00020680821C160204600F0E2F9B00707D59B
:100FC0002068C06810F0030F1CBF204600F0DAF95B
:100FD000700607D51AF010001FBF206810210161AC
:100FE00045F48065B00608D51AF0080005D02068E1
:100FF00008210161204600F0E7F9F00607D52068D6
:10100000006910F0030F1CBF204600F0DFF9B003A9
:1010100008D519F0100005D0206810214160204645
:1010200000F0FCF9F00308D519F0080005D020689D
:1010300008214160204600F024FA300444D55FEADC
:1010400049703ED506F4807018F0020F08EA1020AF
:1010500040EA0500014618BF41F0020116F4007F86
:1010600008BF014618F0040F0D4618BF45F00405EF
:1010700016F4806F08BF0D4616F4006F18BF18F005
:1010800070001ED010380009052815D8DFE800F0E0
:101090000306090C0F1245F008050DE045F0100598
:1010A0000AE045F0200507E045F0400504E045F082
:1010B000800501E045F480752068816921F07001A8
:1010C00081612068042141603DB1606A284360620B
:1010D0002046BDE8F84FFFF76BBEBDE8F88FB0B50E
:1010E0000446C4B194F8200010B9204600F0B2F8CC
:1010F0002068016841F00101016000F0EDFD054646
:101100002068416811F0010F07D100F0E5FD401B98
:101110000B28F5D312E00120B0BD016821F00201D7
:10112000016000F0D9FD05462068416811F0020F0A
:101130000BD000F0D1FD401B0B28F5D3606A0521D0
:1011400040F400306062012044E0217E026822F019
:101150008003012908BF42F080030360617E0268BA
:1011600022F04003012908BF42F040030360A17E42
:10117000026822F02003012908BF42F02003036027
:10118000E17E026842F01003012908BF22F010033B
:101190000360217F026822F00803012908BF42F0A2
:1011A00008030360617F026822F00403012908BF7D
:1011B00042F004030360D4E901C2D4E90335616954
:1011C0001A432A431143ACF101021143C1610020CB
:1011D0000121606284F82010B0BD000080B5016874
:1011E00064488B4A91421BD08A4A914218BF80BD05
:1011F00062490A68013A0A6005D14FF451514258D8
:1012000022F00072425000F50060032100F018FC4B
:10121000142000F0C3FF1520BDE8804000F0BEBFE1
:101220004FF45151425822F080624250534A1368A1
:10123000013B136002BF425822F00072425060210D
:1012400000F0FEFB402000F0A9FF4120BDE88040F7
:1012500000F0A4BF10B586B0044601A81421FFF722
:1012600068F9226843484449694B9A423AD0694B2D
:101270009A427CD1414A13685C1C002B14600AD14D
:10128000002200920A6942F000720A610A6902F0C3
:1012900000720092009A002200F5006000920B6834
:1012A00043F008030B600223096801F00801009174
:1012B000009903210191CDE90232049109210591A0
:1012C00001A900F033FC14200021002200F086FF69
:1012D000142000F075FF15200021002200F07EFF91
:1012E000152042E04FF0000CCDF800C00B6943F030
:1012F00080630B610B6903F080630093009B1F4BBD
:101300001C68621C002C1A600AD1CDF800C00A6962
:1013100042F000720A610A6902F000720092009ABB
:10132000CDF800C00A6842F002020A60096801F0C4
:10133000020100910099602101910221CDE9021C76
:10134000032104910921059101A900F0EFFB402040
:101350000021002200F042FF402000F031FF412038
:101360000021002200F03AFF412000F029FF06B0E2
:1013700010BD00BF0004024030380240B00D002014
:1013800070470000B0B50168214A91420DD0214A52
:10139000914218BFB0BD204D00212C1D05F1200346
:1013A0002246FFF706FDA96A09E01B4D002105F161
:1013B000300405F14C032246FFF7FBFC696D204623
:1013C000BDE8B040084700BF70470000B0B50168F5
:1013D0000F4A91420DD00F4A914218BFB0BD0E4D39
:1013E00001212C1D05F120032246FFF7E2FCA96A2A
:1013F00009E0094D012105F1300405F14C032246B5
:10140000FFF7D7FC696D2046BDE8B040084700BF34
:101410000068004000640040B00300207047B0B591
:10142000044694F8200001281CD1022084F82000F2
:101430002068016821F00101016000F04DFC0546C3
:101440002068406810F0010F12D000F045FC401BEE
:101450000B28F5D3606A40F400306062052084F800
:10146000200003E0606A40F4002060620120B0BD0B
:1014700000206062B0BD704770477047704770478A
:101480007047704770B50446A66D00F025FC054610
:1014900094F83500022829D12068016821F016014E
:1014A0000160416921F080014161216C09B9A16CA1
:1014B00019B1016821F008010160016821F0010102
:1014C000016005E000F008FC401B052812D82068E8
:1014D000006810F0010FF5D1E06D3F2101FA00F036
:1014E000B060012084F83500002008E080206065AD
:1014F000012004E020206065032084F835000021ED
:10150000C0B284F8341070BD90F8351002291FBFA6
:101510008021416501207047052180F83510006861
:10152000016821F0010101600020704770B5044698
:101530002CB194F83500022803D1022621E00126BF
:101540001FE020680026016821F0010101602121CF
:10155000066046608660C660066141612046FFF70E
:101560000BFB054604F13C001821FEF7E2FFE06D9D
:101570003F2101FA00F0A860666584F8356084F8C0
:101580003460F0B270BD0000F8B5044600200821B8
:1015900000905C480568D4E916603768814039429C
:1015A0000DD02268136813F0040F08D0136823F0DD
:1015B00004031360B160616D41F0010161650121B7
:1015C0008140394209D02268526912F0800F1FBF52
:1015D000B160616D41F002016165042181403942D1
:1015E00009D02268126812F0020F1FBFB160616D4E
:1015F00041F00401616510218140394219D0206811
:10160000026812F0080F14D0B1600268016812F489
:10161000802F06D1C9055EBF016821F00801016075
:1016200001E0080301D4216C00E0A16C09B120465F
:101630008847E16D202000FA01F23A423CD0206850
:10164000036813F0100F37D0B26094F83530026899
:10165000052B19D122F016020260426922F08002A5
:101660004261226C0AB9A26C1AB1026822F0080227
:1016700002603F208840B060012084F835000020DF
:1016800084F83400216D39E0016852030CD4C90597
:101690000ED4016821F010010160012084F83500AA
:1016A000002084F8340003E0080301D4616C00E0FA
:1016B000E16B09B120468847606D10B3606D10F092
:1016C000010F1AD005214FF4165084F83510B5FBE0
:1016D000F0F021680A6822F001020A60009A0132E3
:1016E0008242009203D80A6812F0010FF6D101205D
:1016F00084F83500002084F83400E16C09B12046FC
:101700008847F8BDD80000202DE9F041044600F0DC
:10171000E3FA0546002C4DD0022084F83500002065
:1017200084F834002068016821F00101016005E0BF
:1017300000F0D2FA401B05283ED82068016811F05D
:10174000010FF5D101683A4AD4E9013504F10C08DA
:1017500001EA020C98E8C201D4E9072E43EA0C031F
:101760002B4319433143394341EA08011143626A6B
:1017700041EA0E03042A23D1D4E90B171943394354
:10178000016050F8141FD4E90A5E21F00701BEF190
:10179000000F41EA020145EA010C18D0B8F5005FDC
:1017A00026D0B8F1000F38D1022D39D0012D2ED01E
:1017B000B5B30CE0012218E003232021032222E02C
:1017C000036050F8141F21F0070141EA020CC0F831
:1017D00000C02046FFF7D0F9E16D3F22012302FA55
:1017E00001F10022816000210DE0D0B2BDE8F0815E
:1017F000032DECD80123402102EB85060122DFE80E
:1018000005F0020F0206616584F83530EDE7AEF1B0
:10181000C071B1FA81F1490904E0032D04D3D6D196
:10182000CEF300610029D2D0012340210122EAE752
:101830003F8010F02DE9F84F93460D46044600F026
:101840004BFA844694F83500022860D1206800687D
:1018500010F4807F62D11021002D00950BF1010A58
:101860004FF008074FF001064FF0040508BF202194
:10187000D4E9169001FA00F8D9F8001031E0BAF175
:10188000000F0ED0BBF1000F4DD0654600F024FADA
:10189000AC46042501260827A0EB0C00584542D889
:1018A000E06DD9F8001007FA00F20A421FBF636D1D
:1018B00043F001036365C9F8082006FA00F20A4202
:1018C0001FBF636D43F002036365C9F8082005FA82
:1018D00000F20A4205D0636D43F004036365C9F862
:1018E000082011EA080F04BF616D11F0010FC6D086
:1018F000616D19B1616D11F0010F21D1009979B3BA
:10190000102101FA00F0C9F80800002014E080203E
:101910006065002084F8340001200DE04FF48070F1
:101920006065012008E020206065012084F8350012
:10193000002084F834000320C0B201B0BDE8F08F6D
:101940002046FFF79FFDE06D302101FA00F00021F5
:10195000C9F80800012084F8350084F83410EBE75A
:10196000302101FA00F0C9F80800012084F83500A0
:10197000002084F83400DFE710B590F834C0BCF1E3
:10198000010F46D04FF0010CD0F858E080F834C079
:1019900090F835C0BCF1010F38D14FF0020C80F83F
:1019A00035C04FF0000CC0F854C0D0F800C0DCF8CF
:1019B000004024F48024CCF80040CCF80430836844
:1019C000402B0B4608BF1346CCF8083008BF0A4628
:1019D000CCF80C203F22C16D02FA01F1CEF80810BC
:1019E000DCF8001041F01601CCF80010006C28B1B2
:1019F000DCF8000040F00800CCF80000DCF8000043
:101A000040F00100CCF80000002003E0002180F845
:101A100034100220C0B210BD70B505466E1C00F037
:101A20005BF904461EB1B2480078054401E04FF06E
:101A3000FF3500F051F9001BA842FAD370BD00BF7A
:101A40002DE9FC4F964A08274FF000094FF0000A95
:101A50000026904208BF0727924A02444FEAB22369
:101A6000072B38BF4FEAB227012200910197102EB1
:101A700008BFBDE8FC8F02FA06F70F4244D08C4D38
:101A80004FEA960E09F00C0C0F21FF4301FA0CFBF4
:101A9000A5F57E7252F82E80019B08EA0B0403FA2A
:101AA0000CF39C4212D12B683B402B606B683B408F
:101AB0006B60814B1C683C401C60AB683B40AB607A
:101AC00052F82E3023EA0B0342F82E30036803222B
:101AD00002FA0AF29343036009F01C03724C01FA04
:101AE00003F304EA560505442C6A24EA03032B6237
:101AF000C3689343C36043683B404360836823EA01
:101B0000020282600122009909F104090AF1020A25
:101B10000136ACE77047000003490A6802421CBF67
:101B20000860FFF7F7BF7047143C01402DE9FC4FF8
:101B30005B4A08274FF0010E4FF0030A4FF0000BED
:101B40004FF00008904208BF0727564A02444FEA68
:101B5000B223072B38BF4FEAB22700970027102F78
:101B600008BFBDE8FC8F0A680EFA07F4224200F0B5
:101B700090804B6803F00302551E012D15D8D0F854
:101B800008C00AFA08F52CEA050CCD6805FA08F534
:101B900045EA0C058560C3F3001505FA07FC4568A6
:101BA000A54345EA0C05456001E0032A1DD0C6683F
:101BB0000AFA08F5022A26EA05068D6805FA08F5EC
:101BC00046EA0506C66010D1374D0BF01C020F2304
:101BD000934005EA57060644356A25EA03030D6972
:101BE00005FA02F21A4332624B68056803F00302F9
:101BF0000AFA08F613F4403F02FA08F225EA06064C
:101C000042EA0602026044D000220192274A136889
:101C100043F480431360126802F48042019227F07B
:101C20000302234B019E234D0BF00C0602EB03092C
:101C30000F2259F805C002FA06FE009A2CEA0E0C93
:101C400002FA06F64FF0010E46EA0C0649F8056066
:101C50009A684E68A24316F4801F18BF224316F4F8
:101C6000001F9A60144A156825EA040518BF254329
:101C700016F4003F15605A6822EA040218BF224396
:101C800016F4803F5A601A6822EA040218BF224301
:101C90001A600BF1040B08F1020801375FE700BF7F
:101CA000001C02400000FEBFFCFFFF7F44380240E2
:101CB000003C014008FCFFFF0C3C0140426902EA85
:101CC0000103914341EA034181617047002A08BF43
:101CD0000904816170470000E2488068704700BFD6
:101CE000E0480078704700BFDE484068704700BF9A
:101CF0000000002010B504466CB394F8410028B9E8
:101D0000002084F84000204604F022F9242084F8C2
:101D100041002068C16821F40051C160204606F0EE
:101D200009F92068016921F490410161416921F0BC
:101D300022014161416941F008014161C16841F4FA
:101D40000051C16000202021606484F8411084F8B3
:101D50004210606310BD012010BD0000B0B5044604
:101D60002CB394F83D0028B9002084F83C002046AC
:101D700000F0ACF8242084F83D002068016821F0D0
:101D800001010160016841F400410160016821F432
:101D90000041016001F01AF965684849484A8D42DE
:101DA0003CBF48F28042C0F21E02904201D20120A4
:101DB000B0BD4449B0FBF1F2216801384B6823F013
:101DC0003F0313434B600B6A23F03F0C3B4B9D4298
:101DD00021BF4FF4967312FB03F24FF47A73B2FBF8
:101DE000F3F201324CF6FF7342EA0C020A62CA694E
:101DF00022EA030C344A954209D86A00B0FBF2F09B
:101E000001306FF31F30042898BF04202DE0D4F870
:101E100008E0BEF1000F08D0192204236A43B0FB8A
:101E2000F2F2013263F31F3206E005EB4502B0FB2C
:101E3000F2F201326FF31F3212050BD0BEF1000F28
:101E40000AD019226A43B0FBF2F00422013062F397
:101E50001F3008E0012008E005EB4502B0FBF2F07E
:101E600001306FF31F3040F4004040EA0C00C861BD
:101E70000868D4E9072320F0C000104348F2FF327D
:101E80001843086088689043D4E90323184310433B
:101E90008860C868D4E9052320F0FF001043184388
:101EA000C860086840F0010008600020202120641C
:101EB00084F83D10206384F83E00B0BDA186010087
:101EC00000093D0040420F00A08601002DE9F04FBF
:101ED00087B0044602A81421FEF72BFB20683E4E73
:101EE000B04275D1002102AD4FF012094FF0010A46
:101EF0004FF0030B4FF004080191384F386840F061
:101F000004003860386800F00400019001980191E5
:101F10002946386840F001003860386800F0010058
:101F2000019001984FF40070029006F5D630CDF87C
:101F30000C90CDF810A0CDF814B0CDF81880FFF7B4
:101F4000F5FD4FF4807002A981E8010E06F5D2304C
:101F50002946CDF818804FF00008FFF7E7FDCDF8CF
:101F600004801F4D4FF480691421386940F400004B
:101F7000386138694FF0C06700F4000001900198A3
:101F8000184E05F1140085E8C001C5E90389FEF784
:101F9000D0FA2846FFF7B8FB08B1FEF73AFEA56372
:101FA000AC63114D06F130004021C5E9000705F191
:101FB000080080E8020305F114001421FEF7B9FAC5
:101FC0002846FFF7A1FB08B1FEF723FE6563AC636B
:101FD00007B0BDE8F08F00BF005C00403038024021
:101FE0002002002040600240A00400201D4801782B
:101FF000826811448160704780B50B48016841F4E4
:1020000000710160016841F480610160016841F480
:1020100080710160032000F00DF90F2000F006F838
:1020200000F060F8002080BD003C024070B50D4E0D
:1020300004464FF47A713078B1FBF0F00A49096830
:10204000B1FBF0F002F092F901250F2C08D838B955
:102050004FF0FF3021460022002500F0BFF87460E9
:10206000284670BD00000020D8000020B0B504460E
:102070000D46A4B394F8410028B9002084F840002C
:10208000204603F065FF242084F841002068C168E1
:1020900021F40051C160204605F04CFF2068016921
:1020A00021F400610161416921F02A014161016966
:1020B00041F480410161016921F020010161016960
:1020C00029430161C16841F40051C1600020202111
:1020D000606484F8411084F842106063B0BD012050
:1020E000B0BD000082B0002001900B494A6842F464
:1020F00080424A604A6802F480420192019A00904C
:10210000086840F080500860086800F08050009037
:10211000009802B0704700BF4038024070B50446D6
:1021200015460E46BCB394F8410028B9002084F847
:102130004000204603F00CFF242084F84100206872
:10214000C16821F40051C160204605F0F3FE20680B
:10215000016921F490410161416921F02A01416145
:10216000016921F00F010161016931430161C16819
:1021700021F40061C160C1682943C160C16841F4B4
:102180000051C16000202021606484F8411084F86F
:102190004210606370BD012070BD000000280CDBA0
:1021A00000F01F010122400902FA01F1034A42F83E
:1021B0002010BFF34F8FBFF36F8F704780E100E0B7
:1021C000002808DB00F01F010122400902FA01F19A
:1021D000014A42F82010704700E100E0B0B5144C0D
:1021E0001A4D00F00F03B0F1FF3FA3F104032B449D
:1021F00003F10C03C8BF03192868C0F30220051DB2
:10220000C41E80F00700072D4FF0010538BF0024E1
:10221000042828BF042005FA00F00138084005FA18
:1022200004F10F31A0401140084300011870B0BD07
:1022300000E400E005494FF6FF030A681A4060F326
:102240000A22034810430860704700BF0CED00E00D
:102250000000FA0570470068416200207047D0F81E
:1022600000C00029DCF824001BD080B5DCF8283041
:10227000A1F1010E00EB1343002006E00CEB8101FD
:102280000130D1F8041103EB1143C1B28E45F5D8EA
:102290000CEB8E0043EA0241C0F80411BDE8804017
:1022A00003E040EA0240CCF8280000207047D0F854
:1022B000E00406F05DBB01EBC10200EB8202D0F846
:1022C000E004126A06F0BCBA01EBC10200EB820224
:1022D000D0F8E004D2F8602206F00BBBD0F8E0049E
:1022E00006F048BB01F00F0211F0800F02EBC202B2
:1022F00000EB820303F1140208BF03F515720068B6
:10230000114607F075BA10B50A46044602F00F00F0
:1023100012F0800F00EBC00104EB810303F1140104
:1023200008BF03F51571C2F3C0124A70087094F823
:102330009404012801D1022008E0012084F89404CB
:10234000206806F0E5FF002084F89404C0B210BDB8
:10235000B0B504460A46217902F00F00884201D93F
:1023600001251FE000EBC00112F0800F4FF00005C7
:1023700004EB810303F1140108BF03F51571C2F3E7
:10238000C0124A708D70087094F89404012801D12D
:10239000022507E0012084F89404206807F01CF966
:1023A00084F89454E8B2B0BD01F00F0101EBC10113
:1023B00000EB8100D0F86802704770B50C46064605
:1023C0006FF3DF2204F00F0014F0800C00EBC0016B
:1023D00006EB810505F1140108BF05F51571C4F37D
:1023E000C015BCF1000F4D7008708A600B7118BFEA
:1023F0004883022B04BF0020487196F894040128FA
:1024000001D1022008E0012086F89404306806F02B
:10241000C1FE002086F89404C0B270BD80B501F002
:102420000F0E0EEBCE0100EB810C0021CCE99823BE
:10243000CCF868128CF855128CF854E20CF5157132
:102440008379012B08BFCCF870221A46006807F088
:10245000F9F8002080BDB0B5044601F00F05012059
:10246000227995422AD801EBC10211F0800F04EBCA
:10247000820305EBC50204EB820202F1140208BFDD
:1024800003F51572C1F3C01151709070157094F876
:102490009404012801D1022010E00120114684F8A3
:1024A0009404206807F0B1F82DB9A179206804F2EE
:1024B0009C4207F065F8002084F89404C0B2B0BDD7
:1024C00080B501F00F0E0EEBCE0100EB810C002168
:1024D000CCE90823CCF8281001218CF815106146AE
:1024E00001F814EF8379012B08BFCCF830201A468D
:1024F000006807F0A7F8002080BD00002DE9F04F2C
:1025000089B08146D9F80040204607F010FA10B192
:1025100009B0BDE8F08FD9F8000007F0CFFB002824
:10252000F6D0D4F80808C0F30D20C9F8D404D9F8BF
:10253000000007F0C3FB0146D9F8000011F0020FBC
:102540001EBF416901F00201416104F5006104917F
:1025500007F0B4FB0146D9F80000069411F0100F03
:1025600040D0816921F010018161246AC4F34340A5
:1025700004F00F0506281DD002282CD147F6F07074
:10258000044028D005EBC50009EB8005D5F86012A2
:10259000C4F30F12069807F095FBD5F8600200EB24
:1025A0001410C5F86002D5F8680200EB1410C5F8E5
:1025B000680210E0069809F29C41082207F082FBAD
:1025C00005EBC50009EB8000D0F86812C4F30A12CD
:1025D0001144C0F86812D9F80000816941F0100177
:1025E0008161069C07F06AFB10F4002FCDF8209063
:1025F00000F0DA80D9F8000007F03FFB064609F248
:102600009C4009F51D7A4FF430684FF0000B05909F
:10261000C7E0F00700F0BA80D9F800005FFA8BF14C
:10262000079107F043FB0746E24817F0010F814688
:1026300057D004EB080001218160089D286808EB51
:102640000001036C8A68AD79012D24D110072DD4C7
:10265000900644D412F0280F43D14846834202D357
:1026600012F4004028D1DAF800000969B8F5306F9B
:102670006FF3DF41A0EB01004AF80C0C2AD1089A55
:10268000D2F86412002900F08980D2F86012084460
:10269000C2F860021EE04D46FF35AB420FD1100478
:1026A0000AD4900644BF2020886013E04846834245
:1026B00017D312F4004014D04FF4004010E0B8F5E6
:1026C000306F07D10899D1F8641219B90021059A21
:1026D00006F056FFDDE90710FFF7F6FD01E02020C8
:1026E0008860380723D504EB08000821A9F101040C
:1026F00081600898016808EB01000D6C816811F495
:10270000004F04D0A54284BF4FF400418160089877
:1027100000F081FBA542069C09D908988079012820
:1027200005D10898059A0121006806F029FFF806EE
:1027300042BF04EB080010218160B80717D560691B
:1027400010F0800F1FBF0499486840F48060486013
:102750001AF81D0C012806D100200AF81D0CDDE92D
:10276000071000F07FFA04EB080002218160B80630
:1027700042BF04EB080020218160B804DDF82090FE
:1027800042BF04EB08004FF4005181600AF1240AB3
:1027900008F1200876080BF1010B02E01068012116
:1027A00095E7002E7FF435AFD9F8000007F086FAE0
:1027B000DDF810A010F4802F00F0D080D9F80000D0
:1027C00007F054FA054609F29C400023029004F5F4
:1027D00010600590BFE0E80700F0BA80D9F800006B
:1027E000DFB20793394607F04FFA044614F0010FA1
:1027F0002AD0079BDAF83410012203F00F0002FA06
:1028000000F021EA0000CAF83400059800EB4310FC
:10281000826099F80600012812D103EBC300002B57
:1028200009EB8000D0E907121144016208D1D9F800
:10283000240028B9D9F80000029A012106F0A0FE70
:1028400048463946FFF737FD079B200741BF0598EB
:1028500000EB431008218160E00641BF059800EBC2
:10286000431010218160600641BF059800EB4310C2
:1028700040218160A00718D50698194607F023F873
:10288000079B03EBC30009EB800010F8171F012919
:1028900006D1002101704846394600F0DFF9079B58
:1028A0000598022100EB43108160200650D503EB10
:1028B000C30009EB800BD84658F8240F464656F85B
:1028C000042F904244D30395851A5BF81C1FD9F856
:1028D00000408D420BF1040988BF0D4604EB431103
:1028E00001F5106A19E0089DDBF80030D9F80010F6
:1028F000AD790095851A20463A469D4288BF1D460F
:10290000ABB207F02BFBD9F800002844C9F800004F
:10291000306842193260D8F80000DAF8181030B187
:10292000904204D9EB1C89B29B089942DBD2DDE9C5
:10293000035ADDE9073990420AD803F00F0001215C
:1029400001FA00F0D4F8341821EA0000C4F8340881
:10295000069C6D080133002D7FF43DAFD9F80000CF
:1029600007F0ACF9002802DBD9F800001AE0DAF829
:10297000040020F00100CAF8040099F8CC040128F2
:1029800007D10020002189F8CC044846FFF762FCFB
:1029900002E0484600F023FAD9F80000416901F04E
:1029A0000041416107F08AF910F4006F04D1D9F8B1
:1029B00000000FE00B30544FDAF8080010F0010F60
:1029C0001CBF484600F050FAD9F80000416901F4F4
:1029D0000061416107F072F910F4805F02D1D9F80B
:1029E00000005BE0D4F80408102120F00100C4F8D6
:1029F0000408D9F8000006F066FF99F8041004F501
:102A000010604FF67F3214E082600139036823F4CE
:102A100000130360C0F80822D0F8003223F400133A
:102A2000C0F80032D0F8003243F00063C0F8003242
:102A300020300029E8D1DAF81C0040F00110CAF873
:102A40001C0099F80F0040B1DAF8840040F00B0048
:102A5000CAF884000AF1440008E0DAF8140042F2EF
:102A60002B010843CAF814000AF11000016809F2AA
:102A70009C4241F00B010160DAF8000020F4FE6096
:102A8000CAF8000099F80610D9F8000006F078FDA1
:102A9000D9F80000416901F48051416107F00EF955
:102AA0000146D9F8000011F4005F1AD006F0B0FB1F
:102AB000D9F8000006F02CFF89F80700D9F800408B
:102AC00000F080FA99F807200146204607F068F9DF
:102AD000484600F06FF9D9F80000416901F400514F
:102AE000416107F0EBF810F0080F02D1D9F80000AF
:102AF00008E0484600F077F9D9F80000416901F094
:102B00000801416107F0DAF810F0800F17D006983D
:102B1000012440F27B250146886920F0800088610D
:102B200009E019F80500012803D1E1B24846FFF792
:102B3000D9FB2435013499F804008442F1D3D9F843
:102B4000000007F0BBF810F4801F02D1D9F8000094
:102B500022E0069809F13B040126012700F51265E1
:102B600010E02868B0F1FF3F09DC6078012806D149
:102B700047F080002670C1B24846FFF7B3FB24340B
:102B80002035013799F804008742EAD3D9F80000CC
:102B9000416901F480114161069C07F08FF810F43F
:102BA000001F02D1D9F8000032E099F8042009F59D
:102BB0001F7004F53261012301271AE00E68B6F197
:102BC000FF3F13DC0578012D02BFD9F8D45485EA04
:102BD00016465FEAC67609D100F8013CA66946F0C0
:102BE0008006A661666916F0800F05D0243020317A
:102BF00001379742E2D305E0DAF8040040F40070B0
:102C0000CAF80400D9F80000416901F400114161DB
:102C100007F054F810F0804F02D1D9F8000008E016
:102C20004846FFF744FBD9F80000416901F08041B4
:102C3000416107F043F810F0040F3FF469ACD9F894
:102C40000000446814F0040F04D04846FFF746FB28
:102C5000D9F8000041682143416059E4D0F8E0040C
:102C600005F0DFBED0F8E00405F0F3BEBCB50446C5
:102C7000002C50D0256894F8950428B9002084F8D9
:102C80009404204600F054F80320B5F1A04F84F8D6
:102C9000950404BF0020A071206806F06BFC94E846
:102CA0000F00257C009506F0C3FA88BB2068002140
:102CB000002507F033F858BB20794FF0010C0022B3
:102CC0000DE0D90051FA82F104EB810181F815C0C1
:102CD0000A75CB850D76C1E907554D620132D3B235
:102CE0008342EED304F515710022002307E04A70F9
:102CF0000B700A71C1E902220A6124310133984242
:102D0000F5D194E80F00257C009506F05FFB30B10B
:102D1000022084F895040125284602B0B0BD0025A4
:102D20000120657484F89504206806F041FBF3E700
:102D3000B0B586B0044601A81421FDF7FAFB20685F
:102D4000B0F1A04F2FD1002501A90095174C2068A4
:102D500040F001002060206800F001000090009821
:102D60004FF4C05001900220CDE9020503200490E9
:102D70000A2005900E48FEF7D9FE60680021002267
:102D800040F0800060600095606940F480406061C0
:102D9000606900F48040009000984320FFF71EFA1D
:102DA0004320FFF70DFA06B0B0BD00BF3038024037
:102DB0000000024010B50446E07928B1022818BF8F
:102DC000FDF727FF012100E00021D4F8E00405F021
:102DD000C6FED4F8E004BDE8104005F075BED0F89A
:102DE000E00405F0A3BED0F8E00405F0A9BE10B5DC
:102DF000044694F89404012801D1022009E001203E
:102E000084F894046174206806F0B9FF002084F807
:102E10009404C0B210BDD0F8E02400F29C411046EA
:102E200005F0B2BE10B5044694F89404012801D10F
:102E3000022016E02068012184F89414C16811F082
:102E4000400F06D0617B012902BF816B41F48031C4
:102E5000816306F00FFD206806F09CFA002084F8DC
:102E60009404C0B210BD000010B50446D4F8E004CC
:102E700005F0DCFE2068D0F8001E41F00101C0F82A
:102E8000001EE07A20B10348016841F006010160AC
:102E900010BD00BF10ED00E02DE9F041044688466A
:102EA000002C00F08480444FD7F8000400F00700A5
:102EB000404507D287F80084D7F8000400F00700E7
:102EC000404574D1206810F0020F11D0410742BF75
:102ED000B96841F4E051B960010742BFB96841F4F3
:102EE0006041B960B968A26821F0F0011143B9608E
:102EF000C0072BD06068811E022904D2396811F006
:102F0000007F0BD153E0012804D1396811F4003F50
:102F100004D14CE0396811F0020F48D0B96821F0B3
:102F200003010843B860FEF7D7FE064641F2883534
:102F3000B868616800F00C00B0EB810F06D0FEF7B6
:102F4000CBFE801BA842F3D9032031E0D7F8000460
:102F500000F00700404507D987F80084D7F800043F
:102F600000F00700404522D1206810F0040F05D082
:102F7000B968E26821F4E0511143B960000706D551
:102F8000B868216920F4604040EAC100B86000F0F0
:102F900037F8B968094AC1F30311515CC8401549B3
:102FA000086007480068FFF741F8002000E00120B2
:102FB000C0B2BDE8F08100BF00380240481D0108E2
:102FC000040000200B480068704700BF09480B4A06
:102FD000006809490968C1F38221515CC840704703
:102FE0000448064A006804490968C1F34231515C4B
:102FF000C8407047D800002008380240581D01081A
:1030000010B5F04C606800F00C011248082904D09B
:10301000042904BF104810BD10BD226820680E4965
:10302000002310F4800F02F03F0204BF42F200417F
:10303000C0F2F4012068C0F38810A1FB0001FDF785
:1030400068F921680222C1F3014102EB4101B0FBA2
:10305000F1F010BD0024F400001BB7002DE9F84F7B
:103060008246BAF1000F00F064819AF80000D44E55
:10307000D44FC0074AD0786800F00C00042807D16C
:10308000306810F4003F41D0DAF80400F0BB50E1A2
:10309000786800F00C00082803D1386810F4800F1D
:1030A000EED1DAF80480B8F5803F06D03068B8F584
:1030B000A02F13D140F480203060306840F480307D
:1030C0003060FEF709FE0546306810F4003F1DD160
:1030D000FEF702FE401B6428F6D9C3E020F48030DE
:1030E0003060306820F480203060FEF7F5FD054642
:1030F000B8F1000FE8D1306810F4003F06D0FEF7B9
:10310000EBFD411B03206429F5D913E19AF8000077
:10311000AD4C800731D5786810F00C0F1CD0786862
:1031200000F00C00082804BF386810F4800F13D09A
:10313000DAF80C00002800F0978001202060FEF7EC
:10314000CBFD0546306810F0020F0ED1FEF7C4FD2E
:10315000401B0228F6D985E0306810F0020F1CBF32
:10316000DAF80C00012840F0E4803068DAF810103A
:1031700020F0F80040EAC10030609AF80000000733
:1031800022D5DAF8140078B10120C4F8800EFEF7D9
:10319000A3FD0546386F10F0020F15D1FEF79CFD18
:1031A000401B0228F6D95DE00020C4F8800EFEF72F
:1031B00093FD0546386F10F0020F05D0FEF78CFD29
:1031C000401B0228F6D94DE09AF80000A3464007BC
:1031D0007CD5F86B4FF0000810F0805F0CD1CDF873
:1031E00000804FF00108F86B40F08050F863F86BF6
:1031F00000F08050009000987448305810F4807FA0
:1032000012D17248315841F480713150FEF764FD9B
:1032100005466E48305810F4807F05D1FEF75CFDFE
:10322000401B0228F5D91DE0DAF80890B9F1010F2A
:1032300006D0F86EB9F1050F27D140F00400F8660A
:10324000F86E40F00100F866FEF746FD054641F2D3
:103250008834F86E10F0020F31D1FEF73DFD401BAF
:10326000A042F6D9032065E000202060FEF734FD7F
:103270000546306810F0020F3FF47FAFFEF72CFDDB
:10328000411B03200229F4D954E020F00100F86624
:10329000F86E20F00400F866FEF71EFD0546B9F151
:1032A000000FD4D141F28839F86E10F0020F06D029
:1032B000FEF712FD411B03204945F5D93AE0B8F16C
:1032C000010F02BFF86B20F08050F863DAF8184065
:1032D000002C72D0786800F00C0008282ED1012C48
:1032E00027D03868DAF81C1000F480028A4220D116
:1032F000DAF8201000F03F028A421AD1DAF82420CE
:1033000047F6C0710140B1EB821F12D1DAF82810E4
:103310004FF6FF72C903914300F44032A1F58031AA
:103320008A4206D1DAF82C1000F07060B0EB016F21
:1033300043D00120C0B201B0BDE8F08F0020CBF82F
:103340006000FEF7C9FC0546022C0BD15C463068D4
:1033500010F0007F11D0FEF7BFFC411B03200229B3
:10336000F5D9E7E7306810F0007F26D0FEF7B4FC0F
:10337000411B03200229F5D9DCE70AF11C052FCDFA
:103380000843D90340EA82104FF6FF72914340EAA6
:103390000560A1F580310843386001202066FEF702
:1033A0009BFC0446306810F0007F06D1FEF794FCC9
:1033B000011B03200229F5D9BCE70020BAE700BFB2
:1033C0000038024004380240000047420038FEFF47
:1033D0001FB50446904845F6C0510068B0FBF1F0B7
:1033E000642148430290029803902168486820F0C5
:1033F00020004860486810F0800F11D08748606452
:10340000039838B103980138039094F851000728C5
:10341000F6D103E0606D40F04000606502980390D3
:10342000486810F0400F11D07D482064039838B1EF
:1034300003980138039094F851000728F6D103E06F
:10344000606D40F04000606502980390486810F09D
:10345000020F1CBFA06C002819D000210165FEF7E7
:1034600011F808B1402060652168486820F002002A
:103470004860039838B1039801380390886810F0C9
:10348000020FF6D003E0606D40F0400060654868D0
:1034900010F0010F1CBFE06C00280FD00021016567
:1034A000FDF7F0FF08B1402060652168086820F052
:1034B00040000860486820F00100486000234FF099
:1034C000010CE387E386606D40284FF001001CBFCC
:1034D000636500200193CA6801928A680192019A8B
:1034E000019389680191019984F851C004B010BD1D
:1034F000704700007FB50446474845F6C051006854
:10350000B0FBF1F0642148430290029803902168D7
:10351000486820F020004860486810F0800F11D003
:103520003E486064039838B103980138039094F8DA
:1035300051000728F6D103E0606D40F0400060655F
:1035400002980390486810F0400F11D0344820646E
:10355000039838B103980138039094F85100072874
:10356000F6D103E0606D40F0400060650298039082
:10357000A06C30B14A682B4B12F0020208BF134610
:103580000365E26C32B14B68274E13F0010308BFAC
:103590001E4616654968012611F0020F18BF002863
:1035A00008D0FDF7B1FF002620B1A06C06654020D1
:1035B000012660652068406810F0010F1CBFE06CB8
:1035C000002807D0FDF7A0FF002508B3E06C0565D3
:1035D000402060650025012E1AD1E587E58601258A
:1035E0000120616D40294FF000011CBF0025656579
:1035F00001912268D368019393680193019B019123
:1036000091680191019984F851002046FFF770FFFD
:10361000284604B070BD00BFD8000020E96B000848
:10362000916B0008716F0008256E0008704700005C
:103630001CB5044620684168826811F0400F05D02F
:1036400002F04103012B01D1216C05E00B0607D5E7
:1036500012F0020304D0616C2046BDE81C4008470C
:103660008B0661D512F4B0735ED012F0400316D011
:1036700094F85130032B07D100210191C1680191C9
:103680008068019001984FE0636D43F00403636527
:1036900000230193C368019383680193019B02F4A3
:1036A000807312F020020CD0626D42F0010262655C
:1036B0000022019282680192026822F040020260B8
:1036C000019A43B1626D42F00802626500220192E4
:1036D00082680192019A626D32B34268890722F0D2
:1036E000E00242604FF0010284F851201DD0416891
:1036F00021F003014160E06C40B10E490165FDF726
:1037000003FF18B1606D40F040006065A06C58B1D7
:1037100008490165FDF7F8FE002808BF1CBD606D73
:1037200040F0400060651CBD1CBD2046BDE81C404B
:10373000FFF77CBF7D6D000870B504464CB1D4F82E
:1037400024C0BCF1000F06D00021216104F1140156
:1037500007E0012550E06168B1F5827F03D004F1F4
:103760001C0100220A6000254FF0000EA56294F8AB
:10377000511041B9204684F8505000F03FF8D4E988
:1037800009C101F4005E022284F851202268136806
:1037900023F040031360D4E90130D4E9031603F4A5
:1037A000827300F4044001F400611843084306F0FA
:1037B00002010843616901F001010843A16901F4B4
:1037C00000731843E36903F038031843236A03F0D6
:1037D0008003184340EA0E001060042000EA114004
:1037E0000CF0100108435060D06920F40060D061F3
:1037F0000120656584F85100284670BD2DE9F04F21
:1038000087B0044602A81421FCF793FE2068424FBB
:10381000B8427DD1002602AD4FF002094FF0010AF7
:103820004FF003084FF0050B01963C48416941F405
:1038300080514161416901F48051019101990196E2
:10384000016841F002010160016801F0020101918B
:1038500001990196016841F0010101602946006863
:1038600000F00100019001981820029007F55440E3
:10387000CDF80C90CDF810A0CDF81480CDF818B08C
:10388000FEF754F9802002A981E8010607F55040AF
:103890002946CDE9058BFEF749F9214D214F4FF01F
:1038A000C06A4FF480694FF440304FF0040BC5E913
:1038B000007AC5E90266C5E90496C5E90666C5E968
:1038C000080B2846C5E90A862E63FDF71DFF08B1DF
:1038D000FDF79FF9E564AC63134D07F11800402133
:1038E000C5E9000A05F1080080E842024FF4003003
:1038F000C5E90566EE61C5E9080B2846C5E90A86F3
:103900002E63FDF701FF08B1FDF783F9A564AC63F1
:1039100007B0BDE8F08F00BF0030014030380240F2
:103920008002002040640240000500202DE9FC4197
:1039300004461D4617460E4694F85100012811D141
:10394000012086B17FB16068B0F5827F04BFA068B6
:10395000002800F08F80FEF7BFF9804694F85000F1
:10396000012804D10220C0B202B0BDE8F0810120DC
:1039700084F85000042084F8510000206065A6639C
:10398000A787E7872063A086E086C4E91000A168C6
:103990002068B1F5004F07D1016821F040010160B6
:1039A000016821F48041016001686E1C11F0400F34
:1039B00002BF016841F040010160E06800BB43E0E4
:1039C0002068816811F0010F12D1FEF785F9A0EB94
:1039D00008003146A8424FF0000028BF0120002E09
:1039E00018BF0121002D52D00840012808D14EE017
:1039F000C068A16B21F8020BA163E08F0138E0875A
:103A0000E08F0028DCD122E02068816811F0010FEE
:103A100011D1FEF761F9A0EB08003146A8424FF042
:103A2000000028BF0120002E18BF01217DB30840EF
:103A3000012809D12BE0007BA16B0870A06B01303D
:103A4000A063E08F0138E087E08F0028DCD12046BA
:103A50002946424603F0D0FA08B1202060650120D3
:103A600084F85100002084F85000606D002818BFD1
:103A7000012078E70420314632463B4684F8510065
:103A80002046009500F0A4F902B0BDE8F0810120C5
:103A900084F85100002084F85000032063E7000000
:103AA00010B5044613460A4694F85100012815D172
:103AB0000120A2B19BB1A06860B96168B1F5827FB5
:103AC00008D10420114684F851002046BDE810407A
:103AD00000F08ABA94F85010012902D10220C0B235
:103AE00010BD01214FF0000CB0F5004F84F85010CC
:103AF0004FF0040184F85110C4F854C0A263A387A6
:103B0000E387C4E910CCA4F834C0A4F836C0216817
:103B100007D1086820F040000860086820F4804061
:103B20000860E06C144B0C310364144BC363144BFA
:103B3000C0E9133CE38FFDF71FFF40B1606D40F01B
:103B400010006065002084F850000120C7E721685C
:103B5000086810F0400F02BF086840F0400008609D
:103B6000002084F850004A6842F020024A604A6807
:103B700042F001024A60B2E7A76D0008B96D000883
:103B8000896D0008134690F85120012A15D10122B1
:103B9000A1B19BB1D0F808C0BCF1000F09D14268B7
:103BA000B2F5827F05D1042280F851200A4600F048
:103BB000A3BA90F85020012A02D10222D0B2704755
:103BC000012280F85020042280F851200022426512
:103BD00081638387C38702638286C2864264114AF7
:103BE000114BC168002918BF1346BCF5004F036490
:103BF000016807D10A6822F040020A600A6822F4CC
:103C000080420A600A6812F0400F02BF0A6842F060
:103C100040020A60002280F85020486840F06000AE
:103C20004860CBE7F57000081371000870477047D3
:103C30002DE9FC411D4616460F460446FEF74CF89A
:103C4000804694F85100012806D101202FB126B1F9
:103C500094F85000012804D10220C0B202B0BDE89F
:103C6000F081012084F85000032084F851000020E6
:103C700060652763A686E686A063A087E087C4E91F
:103C80001000A1682068B1F5004F07D1016821F04C
:103C900040010160016841F480410160016811F058
:103CA000400F02BF016841F0400101606268E368B3
:103CB000711EB1FA81F14909B2FA82F2B3F5006FCF
:103CC0004FEA521241EA02012ED1012906D137F8FA
:103CD000021BC1602763E08E0138E0866E1C1FE086
:103CE0002068816811F0020F12D1FDF7F5FFA0EBFB
:103CF00008003146A8424FF0000028BF0120002EE6
:103D000018BF0121002D5BD00840012808D157E0E1
:103D1000216B31F8022BC2602163E08E0138E0860E
:103D2000E08E0028DCD12EE0012907D1397801731B
:103D3000206B01302063E08E0138E0866E1C1FE0AE
:103D40002068816811F0020F11D1FDF7C5FFA0EBCB
:103D500008003146A8424FF0000028BF0120002E85
:103D600018BF012165B30840012809D128E0216B63
:103D700009780173206B01302063E08E0138E08602
:103D8000E08E0028DCD120462946424603F060F947
:103D900008B120206065A06838B900200190206833
:103DA000C1680191806801900198012084F8510058
:103DB000002084F85000606D002818BF01204CE7F7
:103DC000012084F85100002084F85000032044E7CB
:103DD0002DE9F8431E4615460F460446FDF77CFFC5
:103DE00094F85110814601290BD06068B0F5827FAC
:103DF00015D104294FF0020004BFA168002940F04A
:103E0000CC800120002F00F0C880002D00F0C5807C
:103E1000002E00F0C28094F85000012801D1022049
:103E2000BBE00120DDF8208084F8500094F85100B8
:103E300004281CBF052084F8510000206065A5639C
:103E4000E687A6872763E686A686C4E91000206871
:103E5000016811F0400F02BF016841F040010160AC
:103E60006268E368711EB1FA81F14909B2FA82F21F
:103E7000B3F5006F4FEA521241EA02013CD1012929
:103E800006D137F8021BC1602763E08E0138E08657
:103E9000012608F10105E08E18B9E08F002800F036
:103EA00080802068816811F0020F0CD0E18E012E15
:103EB00009D141B1216B002631F8022BC260216388
:103EC000E18E0139E186816811F0010F1CBFE18F9D
:103ED000002908D0C068A16B012621F8020BA1635C
:103EE000E08F0138E087FDF7F7FE002DD3D0A0EB7F
:103EF00009004045CFD349E0012907D13978017342
:103F0000206B01302063E08E0138E086012608F145
:103F10000105E08E10B9E08F002842D0206881684A
:103F200011F0020F0ED0E18E012E0BD151B1216B99
:103F3000002609780173206B01302063E08E013880
:103F4000E0862068816811F0010F1CBFE18F002915
:103F500009D0C068A16B01260870A06B0130A06376
:103F6000E08F0138E087FDF7B7FEA0EB0900294696
:103F700040454FF0000028BF0120002D18BF01214F
:103F8000B8F1000F02D008400128C2D1012084F806
:103F90005100002084F850000320C0B201B0BDE8F9
:103FA000F083204641464A4603F052F830B12020C3
:103FB0006065002084F850000120EEE7A06838B961
:103FC000002000902068C1680091806800900098EF
:103FD000012084F85100002084F85000606D002812
:103FE00018BF0120D9E70000B0B5044694F851503D
:103FF000012D0AD06068B0F5827F0ED1042D4FF0FC
:10400000020004BFA568002D08D1012031B12AB1FA
:1040100023B194F85000012802D10220C0B2B0BDF3
:1040200001200025DFF8C8C084F8500094F8510042
:1040300004281CBF052084F8510065652163A38610
:10404000E386A263A387E387C4E91055274B94F85E
:1040500051102548042908BF0346E06C042987490C
:104060000364244B08BF6346C363C0E9131521688A
:10407000E38F0C31FDF780FC38B1606D40F010002B
:10408000606584F850500120C8E72268506840F00D
:10409000010050600C32A06CC0E90F55C0E9135507
:1040A000216BE38EFDF768FC40B1606D40F01000BD
:1040B0006065002084F850000120AFE7216808689F
:1040C00010F0400F02BF086840F040000860002078
:1040D00084F850004A6842F020024A604A6842F080
:1040E00002024A609AE700BFA76D0008B36D00089E
:1040F000B96D00080F6F000880B590F851E0BEF16F
:10410000010F0ED0D0F804C0BCF5827F13D1BEF1F0
:10411000040F4FF0020C04BFD0F808E0BEF1000F0E
:104120003ED14FF0010CD9B3D2B3CBB390F850C00D
:10413000BCF1010F02D14FF0020C31E04FF0010C45
:1041400080F850C090F851C0BCF1040F1CBF4FF074
:10415000050C80F851C04FF0000CC0F854C001634A
:104160008386C38682638387C3870F4A0F4BC168E8
:1041700000290F4908BF13460E4A036408BF0A46C8
:10418000426401680A6812F0400F02BF0A6842F0F8
:1041900040020A6080F850C0486840F0E000486083
:1041A0005FFA8CF080BD00BF0F6B0008E76A000863
:1041B000636B00083B6B000810B5044694F851008F
:1041C000012806D1012029B122B194F8500001281C
:1041D00002D10220C0B210BD01204FF0000C84F8C3
:1041E0005000032084F85100C4F854C02163A28613
:1041F000E286C4F838C0C4E910CCA4F83CC0A4F8E6
:104200003EC0A0682268B0F5004F07D1106820F0CA
:1042100040001060106840F480401060A06C154BA6
:104220000C320364144BC363144BC0E9133CE38E9C
:10423000FDF7A2FB40B1606D40F01000606500200A
:1042400084F850000120C5E72168086810F0400F8D
:1042500002BF086840F040000860002084F8500069
:104260004A6842F020024A604A6842F002024A600C
:10427000B0E700BFAD6D00089D6E0008896D0008B5
:104280000123E1B3DAB390F85130012B03D190F858
:104290005030012B01D1022331E0012380F850304E
:1042A000032380F851300023436501638286C28670
:1042B00083638387C3870364124A134BC168002951
:1042C00018BF1346436482680168B2F5004F07D1F6
:1042D0000A6822F040020A600A6842F480420A60DA
:1042E0000A68002312F0400F02BF0A6842F0400241
:1042F0000A6080F85030486840F0A0004860D8B2AA
:10430000704700BFC1710008DF7100087047704737
:1043100010B500680E49884208D00E49884207D07F
:104320000D49884218BF10BD0E4C02E00C4C00E055
:104330000A4C21896068FDF7C1FCD4F81031B4F84B
:104340000A2104F10A0004F18A01BDE8104018476F
:1043500000380040003C004000300140F0170020D1
:10436000DC160020C815002070470000411E002008
:10437000B0EB116F1CBF01207047044AF02351605D
:1043800003490B70072190601160704710E000E056
:1043900023ED00E0B0B5064C2578854206D02070AC
:1043A0006068FDF743FE08B12570B0BD0020B0BDC8
:1043B0000000002070477047704790F83C20012AA9
:1043C00001D102211FE0B0B501F10805D1E900CE0D
:1043D0003CCDC96923F47C5322F470521A432EF465
:1043E000F0431A432CF4E0431A4324F4C0431A4325
:1043F0002A4322F48042114302685164002180F86C
:104400003C10BDE8B040C8B27047000090F83C30A6
:10441000012B01D102213CE0012380F83C304FEA1E
:104420003113D0F800C0032B0AD8DCF8083023F091
:104430007003CCF80830DCF808301943CCF80810C9
:10444000DCF8041041F00101CCF80410DCF8041091
:1044500021F00401CCF80410DCF8041011430E4ADA
:10446000CCF80410416BCA630C4A416B0A64994A48
:10447000416BCA64DCF80C1021F02001CCF80C1060
:10448000DCF80C1041F40051CCF80C10002180F83D
:104490003C10C8B2704700BF0574000811740008D2
:1044A00090F83C300222012B35D010B5012380F862
:1044B0003C3080F83D200268D2F804E0D2F808C011
:1044C0000C68B2F1804F2EF0700343EA040353608E
:1044D000BDE8104014D0994B9A421CBF984B9A42A9
:1044E0000ED0984B9A421CBF974B9A4208D0974BDC
:1044F0009A421CBF964B9A4202D0964B9A4204D1E4
:1045000049682CF08003194391600121002280F852
:104510003D1080F83C20D0B2704700BF10B5044673
:1045200034B394F83D0028B9002084F83C002046BC
:1045300000F020F80220211D84F83D00206802F0E0
:104540006DFF012084F8460084F83E0084F83F00A7
:1045500084F8400084F8410084F8420084F8430065
:1045600084F8440084F8450084F83D00002010BD24
:10457000012010BDE0B501682D48704A914216D067
:104580006F4A91421DD06F4A91422FD0294A9142E1
:1045900041D06E4A914218BF8CBD00210191416803
:1045A00041F001014160406800F001003CE0002161
:1045B0000191016841F002010160006800F0020011
:1045C00032E0002100220191016841F00401016004
:1045D0000121006800F00400019001981E20FDF701
:1045E000FDFD1E20BDE88C40FDF7EABD0021002244
:1045F0000191016841F0080101600121006800F0AB
:104600000800019001983220FDF7E8FD3220BDE856
:104610008C40FDF7D5BD00210191416841F4003186
:104620004160406800F40030019001988CBD00BFEB
:10463000403802400044014010B50446134694F847
:104640003D00022801D1022019E094F83D00012824
:1046500014D1012099B193B10220C94A84F83D00D8
:10466000206AC263C74A206A0264C24A206AC264DE
:104670002268206A2C32FDF77FF910B10120C0B208
:1046800010BD2068C168B0F1804F41F48071C160F5
:1046900014D02A4988421CBF294988420ED0294992
:1046A00088421CBF2849884208D0284988421CBF3C
:1046B0002749884202D02749884204D1816801F005
:1046C0000701062903D0016841F0010101600020C3
:1046D000D5E700BF5576000890F83D1001291CBFB2
:1046E00001207047022180F83D100068C168B0F1D8
:1046F000804F41F00101C16014D0104988421CBFB5
:104700000F4988420ED00F4988421CBF0E4988428B
:1047100008D00E4988421CBF0D49884202D00D497D
:10472000884204D1816801F00701062903D001689D
:1047300041F0010101600020704700BF000400400B
:1047400000080040000C004000180040000001403C
:10475000004001400004014010B50446022094F8D6
:104760003C20012A70D001224FF6777384F83C2058
:1047700084F83D00206882689A4382600A6812B318
:10478000102A20D0202A18BF302A1CD0402A21D03D
:10479000502A2BD0602A35D0B2F5005F3ED0B2F55A
:1047A000805F4AD0702A51D1D1E90123C9681A43E8
:1047B00042EA0121826822F47F42114381608168CC
:1047C00041F0770138E0816821F07701114341F031
:1047D000070131E04B68CA68194603F022F92068E6
:1047E000816821F0770141F0470125E04B68CA68F4
:1047F000194603F016F92068816821F0770141F02D
:10480000570119E04B68CA68194603F05DF9206842
:10481000816821F0770141F067010DE0D1E90123C2
:10482000C9681A4342EA0121826822F47F42114397
:104830008160816841F4804181600020012184F819
:104840003D10002184F83C10C0B210BD0120F5E7F6
:10485000F8B5054614460E4695F84600022801D1E3
:10486000022084E095F84600069F012805D10BB987
:10487000002F72D1022085F84600DDF81CC0B4F587
:10488000804F1DD0B4F5007F26D0B4F5806F2FD0B7
:10489000B4F5006F38D0B4F5805F41D0B4F5005F57
:1048A0004AD0B4F5807F58D1286A8849C1638849C5
:1048B000286A01648049286AC1642968286A46E038
:1048C000A86B7B49C1637B49A86B01647A49A86BDB
:1048D000C1642968A86B3AE0686A2749C16327491F
:1048E000686A01647449686AC1642968686A2EE06C
:1048F000A86A2149C1632149A86A01646E49A86A6E
:10490000C1642968A86A22E0E86A1B49C1631B499F
:10491000E86A01646849E86AC1642968E86A16E0DF
:10492000286B1549C1631549286B01646249286BDE
:10493000C1642968286B0AE0686B6049C1636049FB
:10494000686B01645C49686BC1642968686B1A46CE
:104950004C316346FDF710F808B1012007E02968E3
:1049600047EA06008864C8682043C8600020C0B2D7
:1049700001B0F0BD55760008ED74000871750008AF
:10498000B1760008C7760008F8B5054614460E460D
:1049900095F84600022801D1022085E095F84600EE
:1049A000069F012805D10BB9002F73D1022085F88D
:1049B0004600DDF81CC0B4F5804F1DD0B4F5007F73
:1049C00026D0B4F5806F2FD0B4F5006F38D0B4F591
:1049D000805F41D0B4F5005F4AD0B4F5807F59D1F3
:1049E000286A3A49C1633A49286A0164E749286A52
:1049F000C1642968286A46E0A86B2D49C1632D4926
:104A0000A86B0164E149A86BC1642968A86B3AE00E
:104A1000686A2C49C1632C49686A0164DB49686A89
:104A2000C1642968686A2EE0A86A2649C1632649DC
:104A3000A86A0164D549A86AC1642968A86A22E005
:104A4000E86A2049C1632049E86A0164CF49E86AFD
:104A5000C1642968E86A16E0286B1A49C1631A49DB
:104A6000286B0164C949286BC1642968286B0AE076
:104A7000686B1249C1631249686B0164C349686B72
:104A8000C1642968686B01F14C0219466346FCF762
:104A900073FF08B1012007E0296847EA060088642F
:104AA000C8682043C8600020C0B201B0F0BD00BF9C
:104AB000CD760008E37600085576000805740008F6
:104AC00011740008A97500081D760008B176000869
:104AD000C7760008E0B5DDF810C04FF0010E0EEB10
:104AE0001C2ECDE900CEFFF7B3FE02B080BDE0B5CD
:104AF000DDF810C04FF0010E0EEB1C2ECDE900CEFC
:104B0000FFF742FF02B080BD2DE9F84F04460D4685
:104B1000002C4DD094F83D0028B9002084F83C00CA
:104B2000204600F049F8022044F2070284F83D00D4
:104B30002068816891438160211D02F06FFC20682C
:104B40008168D0F818A0D0F820C0D5E9003ED5E99A
:104B500002B7D5E90489D5E9062619432B6A4BEA41
:104B600002224FF6FC4581604FF6FF71AA432AEA04
:104B700001013943114341EA062141EA081141EAA2
:104B8000033181612CF0AA0141EA0E0141EA0911C9
:104B90000162012084F8460084F83E0084F83F005A
:104BA00084F8420084F8430084F83D00002000E0CF
:104BB000012001B0BDE8F08F704700002DE9F843F7
:104BC00004469946DDF820800220042994F83E60CE
:104BD00094F83F7094F8425094F843301BD0002969
:104BE0004CD1022E18BF022D00F0C880012E4FF0CC
:104BF000010008BF012D40F0C1800120002A00F013
:104C0000BD80B8F1000F00F0B980022084F83E00AA
:104C100084F842008AE0022F18BF022B00F0AE8019
:104C2000012F4FF0010008BF012B40F0A780B9F120
:104C3000000F4FF0010018BFB8F1000F00F09E8088
:104C4000022050494A46434684F83F0084F8430016
:104C5000A06AC1634C49A06A01644C49A06AC1645E
:104C60002168A06A3831FCF787FE00286ED12068E1
:104C700010226FF010034FF480676FE0022E18BF10
:104C8000022F7BD0022D18BF022B77D0012E4FF0C0
:104C9000010008BF012F71D1012D08BF012B6DD17B
:104CA0000120002A6AD0B9F1000F18BFB8F1000F37
:104CB00064D00220002984F83E0084F83F0084F884
:104CC000420084F8430031D0606AED4DED4EEE4F66
:104CD0004346C563606A0664606AC7642168606AA7
:104CE0003431FCF749FE88BBA06A4A464346C56397
:104CF000A06A0664A06AC7642168A06A3831FCF71C
:104D00003BFE18BB20686FF010030127C16841F417
:104D10000071C160C16841F48061C160014651F811
:104D2000202F22F001020A60102219E0606AD449A3
:104D30004346C163D349606A0164D349606AC16470
:104D40002168606A3431FCF717FE08B1012015E0D4
:104D5000206801226FF001034FF4007700F10C018D
:104D60000E6837430F60016A19400162016A1143FE
:104D70000162016841F0010101600020C0B201B090
:104D8000BDE8F083ED7400087175000855760008E1
:104D90007047704770470000B0B504460D4694F860
:104DA0003C00012801D102206CE04FEAB201012051
:104DB000032984F83C0062D8DFE801F0020C1637C2
:104DC000D5E90012EB68206802F03CFE206850F83C
:104DD000181F25E0D5E90012EB68206802F086FE76
:104DE000206850F8181F41E0D5E900C22368E86840
:104DF000D3F820E0196A60F30712184621F4807195
:104E0000196250F81C1F21F0F30111432EF42062A7
:104E100001604FF4206101EA0C211143196201681D
:104E200021F00C010160A96825E0D5E900C02368E4
:104E3000EA68D3F820E0196A000221F4805119626F
:104E40004FF2FF0120EA0101184662F30F3150F8DA
:104E50001C2F22F4734211432EF4204201604FF4C0
:104E6000204101EA0C3111431962016821F44061CB
:104E70000160A96809020268114301600020002155
:104E800084F83C10C0B2B0BD10B5044634B394F8F9
:104E90003D0028B9002084F83C00204600F020F8AE
:104EA0000220211D84F83D00206802F0B7FA01209D
:104EB00084F8460084F83E0084F83F0084F84000FF
:104EC00084F8410084F8420084F8430084F84400E8
:104ED00084F8450084F83D00002010BD012010BD7D
:104EE0007047000070B5064639B10320082908BF95
:104EF0000220042908BF012000E00020304490F87F
:104F00003E5090F842400220022D00F0B780022C63
:104F10001CBF0120002A00F0B180012D08BF012C28
:104F200040F0AC80002B00F07980022041B10829CC
:104F30000BD004290ED186F83F0086F843000DE01F
:104F400086F83E0086F8420008E086F8400086F8C1
:104F5000440003E086F8410086F84500D6F800C01A
:104F600001F01F0501204FEAB10100FA05F5032900
:104F7000DCF8204024EA0504CCF82040DCF820408E
:104F800045EA0405CCF8205054D8DFE801F00214BB
:104F90002638706A3A49C1633A49706A01643A49ED
:104FA000706AC1640CF13401706AFCF7E5FCA8BBBF
:104FB0004FF4007036E0B06A3149C1633149B06ADC
:104FC00001643149B06AC1640CF13801B06AFCF780
:104FD000D3FC18BB4FF4806024E0F06A2849C16319
:104FE0002849F06A01642849F06AC1640CF13C0167
:104FF000F06AFCF7C1FC88B94FF4006012E0306B36
:105000001F49C1631F49306B01641F49306BC16484
:105010000CF14001306BFCF7AFFC08B101202DE032
:105020004FF48050D6F800C0DCF80C100843CCF8E0
:105030000C000020BCF1804F14D014498C451CBFDB
:1050400013498C450ED013498C451CBF12498C4521
:1050500008D07D498C451CBF10498C4502D01049B1
:105060008C4505D1DCF8081001F00701062905D0B0
:10507000DCF8001041F00101CCF80010C0B270BDA6
:10508000ED740008717500085576000800040040B2
:1050900000080040000C00400018004000400140A3
:1050A00000040140B0B504462068C168026901EA05
:1050B0000205A90714D56FF00201016101212177D2
:1050C000806910F0030F03D02046FFF762FE05E071
:1050D000204600F0E3F8204600F020FB0020207777
:1050E000680715D520686FF004010161022121775E
:1050F000806910F4407F03D02046FFF74AFE05E0A8
:10510000204600F0CBF8204600F008FB0020207776
:10511000280715D520686FF0080101610421217767
:10512000C06910F0030F03D02046FFF732FE05E000
:10513000204600F0B3F8204600F0F0FA0020207777
:10514000E80615D520686FF010010161082121776C
:10515000C06910F4407F03D02046FFF71AFE05E037
:10516000204600F09BF8204600F0D8FA0020207777
:10517000E80706D020686FF001010161204600F0C9
:10518000BFFB280606D520686FF08001016120462C
:10519000FFF710F9680606D520686FF0400101613D
:1051A000204600F068FCA80658BFB0BD20686FF02C
:1051B000200101612046BDE8B040FFF7FCB80000C7
:1051C00010B586B0044601A81421FBF7B2F9226895
:1051D0001A481B491B4B9A4216D0C34B9A422BD1FB
:1051E000002200920B6843F010030B60096801F085
:1051F0001001009100994FF4005101910221CDE975
:1052000002120121049213E0002200F58060009256
:105210000B6843F020030B60096801F02001009146
:105220000099402101910221CDE90212049103214C
:10523000059101A9FCF77AFC06B010BD00100240F0
:1052400030380240004401400000014010B50446DF
:1052500094F83C00012801D102201DE04FEAB2027F
:105260000120032A84F83C0013D8DFE802F002068C
:105270000A0E206802F0C6FA0AE0206802F0F4FA8A
:1052800006E0206802F024FB02E0206802F054FBF4
:105290000020002184F83C10C0B210BD704710B54A
:1052A000044634B394F83D0028B9002084F83C004B
:1052B000204600F020F80220211D84F83D002068DF
:1052C00002F0ACF8012084F8460084F83E0084F82F
:1052D0003F0084F8400084F8410084F8420084F8DC
:1052E000430084F8440084F8450084F83D00002021
:1052F00010BD012010BD7047B0B50C4605463CB14D
:105300000320082C08BF0220042C08BF012000E065
:105310000020284490F83E00022801D102207EE0BF
:105320003CB10320082C08BF0220042C08BF012038
:1053300000E000202844002A90F83E104FF00100C1
:105340006DD001296BD1002B68D0022044B1082C0C
:1053500009D0042C14BF85F8410085F83F0004E013
:1053600085F83E0001E085F840004FEAB4000328CC
:1053700054D8DFE800F002172C41686A5349C16332
:105380005349686A01645349686AC1642968686A54
:1053900001F1340C11466246FCF7EEFAF0BB4FF413
:1053A000007140E0A86A4949C1634949A86A01649B
:1053B0004849A86AC1642968A86A01F1380C1146F5
:1053C0006246FCF7D9FA48BB4FF480612BE0E86AEB
:1053D0003E49C1633E49E86A01643E49E86AC164E6
:1053E0002968E86A01F13C0C11466246FCF7C4FAF0
:1053F000A0B94FF4006116E0286B3449C163344909
:10540000286B01643349286BC1642968286B01F15A
:10541000400C11466246FCF7AFFA10B10120C0B251
:10542000B0BD4FF480512868C268B0F1804F41EAA6
:1054300002014FF00102C16004F01F0102FA01F104
:10544000026A22EA01020262026A41EA0201016280
:1054500030D0214988421CBF204988422AD02049A7
:1054600088421CBF1F49884224D01F49884205D06A
:105470001E4988421ED01E49884220D1416CB0F19D
:10548000804F41F40041416414D0134988421CBF4D
:10549000124988420ED0124988421CBF11498842E5
:1054A00008D0114988421CBF1049884202D01049D7
:1054B000884204D1816801F00701062903D0016800
:1054C00041F0010101600020A9E700BFA9750008B3
:1054D0001D760008557600080004004000080040D2
:1054E000000C004000180040000001400040014056
:1054F0000004014070B588B01E460D460446B24215
:1055000001D101205EE094F83C100220012959D01D
:105510000121042A84F83C1084F83D002868019099
:1055200068680290A8680390E8680490286906906B
:105530006869079008D0002A4FF001003CD120682C
:1055400001A902F05FF903E0206801A902F08CF9DB
:10555000042E13D07EBB05F118030ECB206802F099
:1055600071FA2068816921F00C018161816821F064
:1055700070018160816841F0500111E005F118036C
:105580000ECB206802F0B2FA2068816921F44061F4
:105590008161816821F070018160816841F0600162
:1055A0008160816821F007018160816841F0060116
:1055B0008160002000E00120012184F83D100021DD
:1055C00084F83C10C0B208B070BDB0B504460D46BA
:1055D00034B394F83D0028B9002084F83C002046FC
:1055E00000F020F80220211D84F83D00206801F021
:1055F00015FF2068016821F0080101600168294356
:105600000160012084F8460084F83E0084F83F00E1
:1056100084F8420084F8430084F83D000020B0BDC7
:105620000120B0BD70470000B0B504460D4694F8A7
:105630003C00012801D1022041E04FEAB2010120E3
:10564000032984F83C0037D8DFE801F0020A12226F
:105650002068294602F0D6F8206850F8181F0EE09E
:105660002068294602F000F9206850F8181F16E05B
:105670002068294602F02CF9206850F81C1F41F0E0
:1056800008010160016821F00401016029690FE04F
:105690002068294602F050F9206850F81C1F41F498
:1056A00000610160016821F48061016029690902DB
:1056B0000268114301600020002184F83C10C0B250
:1056C000B0BD10B5044634B394F83D0028B90020AD
:1056D00084F83C00204600F020F80220211D84F8C8
:1056E0003D00206801F09AFE012084F8460084F80D
:1056F0003E0084F83F0084F8400084F8410084F8BC
:10570000420084F8430084F8440084F8450084F89B
:105710003D00002010BD012010BD7047704770474C
:10572000B0B50C4605463CB10320082C08BF02204A
:10573000042C08BF012000E00020284490F83E001F
:10574000022801D102207EE03CB10320082C08BFD2
:105750000220042C08BF012000E000202844002A79
:1057600090F83E104FF001006DD001296BD1002B55
:1057700068D0022044B1082C09D0042C14BF85F84D
:10578000410085F83F0004E085F83E0001E085F81F
:1057900040004FEAB400032854D8DFE800F00217B5
:1057A0002C41686A5349C1635349686A016453498B
:1057B000686AC1642968686A01F1340C114662465E
:1057C000FCF7DAF8F0BB4FF4007140E0A86A4949F1
:1057D000C1634949A86A01644849A86AC164296843
:1057E000A86A01F1380C11466246FCF7C5F848BBBF
:1057F0004FF480612BE0E86A3E49C1633E49E86AA4
:1058000001643E49E86AC1642968E86A01F13C0C18
:1058100011466246FCF7B0F8A0B94FF4006116E0FB
:10582000286B3449C1633449286B01643349286BC0
:10583000C1642968286B01F1400C11466246FCF7EF
:105840009BF810B10120C0B2B0BD4FF48051286860
:10585000C268B0F1804F41EA02014FF00102C1601D
:1058600004F01F0102FA01F1026A22EA0102026257
:10587000026A41EA0201016230D04C4988421CBFF1
:105880004B4988422AD04B4988421CBF4C49884228
:1058900024D05249884205D04E4988421ED04C49F6
:1058A000884220D1416CB0F1804F41F40041416405
:1058B00014D03E4988421CBF3D4988420ED03D4924
:1058C00088421CBF3E49884208D0444988421CBFD8
:1058D0004049884202D03E49884204D1816801F0A3
:1058E0000701062903D0016841F001010160002091
:1058F000A9E700BFA97500081D76000855760008C5
:105900000068B0F1804F2AD0284988422AD028491F
:1059100088422AD0274988422AD0274988422AD05B
:10592000264988422AD0264988422AD025498842D9
:105930002AD0254988422AD0244988422AD024499D
:1059400088422AD0234988422AD0234988422AD033
:105950002249884218BF70472148406800472048C4
:10596000C06800471E48406900471D48C06900479D
:105970001B48406A00471A48C06A00471848406BF5
:1059800000471748C06D00471548406E004714484F
:10599000C06E00471248406D00471148C06B004779
:1059A0000F48406C00470E48C06C004700040040A0
:1059B00000080040000C00400010004000140040AF
:1059C00000180040001C004000200040004801403A
:1059D000000401400040014000440140000001403B
:1059E000100400207047B0B50446022094F83C2013
:1059F000012A1AD0012584F83C5084F83D00204645
:105A000001F0C0FF00284FF0010009D12068C168F3
:105A100021F04001C160C16821F48041C1600020D3
:105A2000002184F83D5084F83C10C0B2B0BDB0B540
:105A30000446022094F83C20012A1AD0012584F85B
:105A40003C5084F83D00204601F09CFF00284FF0B8
:105A5000010009D12068C16841F04001C160C168FE
:105A600021F48041C1600020002184F83D5084F879
:105A70003C10C0B2B0BD704770477CB5044694F886
:105A80004200202820D10125F9B1F2B1012520469C
:105A900000262563666302F0B3FA216B012914D155
:105AA000019621680A6801924A680192019A00E011
:105AB000216851E8031F226841F0100142E80313F6
:105AC000002BF5D1054600E00225284602B070BD46
:105AD000F8B504460D4620682B49884211D02B4961
