:020000040800F2
:10000000D81B0124C503000819EE0008F1E200081E
:1000100011EE0008810A0008095E010800000000D6
:10002000000000000000000000000000B1FA00081D
:10003000011800080000000069F2000859FB0008E0
:10004000DF030008DF030008DF030008DF03000808
:10005000DF030008DF030008DF030008DF030008F8
:10006000DF030008DF030008DF030008E10B0008DE
:10007000F10B0008010C0008110C0008210C00080D
:10008000310C0008410C0008DF030008311800089B
:1000900041180008DF030008DF030008DF03000841
:1000A000DF030008DF030008DF030008DF030008A8
:1000B000DF030008DF03000881FD0008DF030008FC
:1000C000DF030008DF030008DF030008DF03000888
:1000D00021F60008291D0108DF030008DF030008DE
:1000E00009180008DF03000800000000DF03000813
:1000F000DF030008DF030008DF030008510C0008DD
:10010000DF030008DF03000891FD0008DF0300089B
:10011000DF03000891090108DF030008DF0300087E
:10012000610C0008710C0008DF030008DF03000801
:10013000DF030008DF030008DF030008DF03000817
:1001400000000000000000000000000000000000AF
:10015000DF030008DF030008DF030008DF030008F7
:10016000DF030008DF030008DF030008DF030008E7
:10017000DF030008A1EE0008DF0300080000000014
:10018000DF030008DF030008A1090108B109010825
:10019000DF030008DF030008DF030008DF030008B7
:1001A000DF030008DF030008DF0300080000000091
:1001B000DF030008DF030008DF030008DF03000897
:1001C000DF030008DF03000800000000000000005B
:1001D0000000000000000000DF0300080000000035
:1001E000000000000000000000000000000000000F
:1001F0000000000000000000DF030008DF0300082B
:10020000DF030008DF03000800000000DF03000830
:10021000DF030008DF030008DF030008DF03000836
:10022000DF03000800000000DF03000800000000FA
:10023000DF030008DF03000800000000DF03000800
:10024000DF030008DF030008DF030008DF03000806
:10025000DF030008DF030008DF030008DF030008F6
:10026000DF030008DF030008DF030008DF030008E6
:10027000DF030008DF030008DF03000800000000C0
:10028000DF030008DF030008DF030008DF030008C6
:1002900000000000DF030008DF030008000000008A
:1002A00000000000DF030008DF030008C1090108A7
:1002B000191D0108DF030008DF03000851180008BA
:1002C000DF030008DF030008DF03000800F002F886
:1002D00000F066F80AA090E8000C82448344AAF17A
:1002E0000107DA4501D100F05BF8AFF2090EBAE878
:1002F0000F0013F0010F18BFFB1A43F0010318475A
:10030000ECB001000CB101000A444FF0000C10F8F1
:10031000013B13F0070408BF10F8014B1D1108BF83
:1003200010F8015B641E05D010F8016B641E01F823
:10033000016BF9D113F0080F1EBF10F8014BAD1C73
:100340000C1B09D16D1E58BF01F801CBFAD505E091
:1003500014F8016B01F8016B6D1EF9D59142D6D3EB
:10036000704700000023002400250026103A28BF13
:1003700078C1FBD8520728BF30C148BF0B60704717
:100380001FB51AF06CFF9DE8030000F0F9F900F0CA
:1003900017F88DE80F0000F0C5F91FBD10B510BDAE
:1003A00000F0F2FA1146FFF7EBFF1AF099FB00F0AC
:1003B00010FB03B4FFF7F2FF03BC00F0B3FA000038
:1003C00000F01FBA0948804709480047FEE7FEE7EA
:1003D000FEE7FEE7FEE7FEE7FEE7FEE7FEE7FEE7F5
:1003E00004480549054A064B7047000041FC0008D7
:1003F000CD020008D83B0024D81B0124D89B002440
:10040000D89B002470B5064600F09EF9056806F1F9
:100410000B0020F00704B4429CBF002070BD2B46A7
:100420006A68BAB11068A04210D304F1080188428A
:100430003CBF5068586007D351681019416011687B
:10044000091B016058601460101D70BD134652688E
:10045000002AE7D12146284600F07EF90028DED1A7
:1004600070BD70B50446051F00F06EF90068002CE1
:1004700014BF446870BD002C18BFAC423CBF20467E
:100480006468F8D301680A18AA4218BF456003D10E
:100490002A6805461144016028684119A1421CBF21
:1004A0006C6070BD6168696021680844286070BD37
:1004B00053EA020C00F069802DE9F04B4FF0000682
:1004C000002B1FBFB3FA83F503FA05F424FA05F6EF
:1004D0005E4012BF1643B2FA82F502FA05F4C5F186
:1004E00020051EBF22FA05FC44EA0C04203556EA1A
:1004F000044C4FEA144418BF641C4FF000084FF03E
:100500000009904271EB030C39D3002919BFB1FAED
:1005100081F701FA07F6B0FA80F700FA07F6C7F19B
:1005200020071EBF20FA07FC46EA0C062037B6FB60
:10053000F4FCA7EB0507103F07F01F0BCBF12006DB
:100540002CFA06F60CFA0BFB44BFB3460026202F0C
:10055000A4BF5E464FF0000B5BEA060C08BF4FF0ED
:10056000010B19EB0B0948EB0608ABFB027C06FB01
:1005700002CC0BFB03CCC01B71EB0C01C1E70B469B
:10058000024641464846BDE8F08B13B54FF00000E7
:100590004FF00001AFF30080BDE81C407047032A14
:1005A00040F2308010F0030C00F0158011F8013B90
:1005B000BCF1020F624498BF11F801CB00F8013B77
:1005C00038BF11F8013BA2F1040298BF00F801CB3B
:1005D00038BF00F8013B11F0030300F02580083A12
:1005E000C0F0088051F8043B083A51F804CBA0E869
:1005F0000810F5E7121D5CBF51F8043B40F8043BBE
:10060000AFF30080D20724BF11F8013B11F801CBF2
:1006100048BF11F8012B24BF00F8013B00F801CBC3
:1006200048BF00F8012B704710B5203AC0F00B808E
:10063000B1E81850A0E81850B1E81850A0E81850D8
:10064000203ABFF4F5AF5FEA027C24BFB1E818504E
:10065000A0E8185044BF18C918C0BDE810405FEAB0
:10066000827C24BF51F8043B40F8043B08BF70472C
:10067000D20728BF31F8023B48BF11F8012B28BF31
:1006800020F8023B48BF00F8012B70474FF00002F2
:100690000429C0F0128010F0030C00F01B80CCF194
:1006A000040CBCF1020F18BF00F8012BA8BF20F802
:1006B000022BA1EB0C0100F00DB85FEAC17C24BF56
:1006C00000F8012B00F8012B48BF00F8012B704700
:1006D0004FF0000200B5134694469646203922BFDB
:1006E000A0E80C50A0E80C50B1F12001BFF4F7AF26
:1006F000090728BFA0E80C5048BF0CC05DF804EB08
:10070000890028BF40F8042B08BF704748BF20F875
:10071000022B11F0804F18BF00F8012B7047704773
:100720007047704770B5064C7C44064D7D4403E02D
:10073000206820448047241DAC42F9D170BD0000E0
:10074000E0AC0100F0AC010000487047B8010024A3
:10075000704770477047704738B504460A46002016
:100760006946AFF30080002808BF38BD02460099F3
:10077000204600F0E7F8012038BD012000F0FCB869
:10078000F8B5AFF30080054600200C46102000BFEE
:100790000646A819A0420DD9324669460020AFF39B
:1007A0000080070008BF00F0E7F80098A04218BFDB
:1007B0000546C419FFF7C8FF05600746F01D20F085
:1007C00007004619284600F00AF8B44208BFF8BDF1
:1007D000A21B31463868BDE8F84000F0B3B80021EC
:1007E0000160C0E9011070471020704710B500F09B
:1007F000A3F8006810BD10B5044600F09DF8046031
:1008000010BD2DE9FE4F00274FF48074BA462046F4
:100810008DF80070FFF7F6FD5FEA000801D100F0E7
:10082000ABF82146404600F070F8060009D04FF0C2
:10083000010B4546C14616F8014B8FB15C2C16D012
:100840001CE008F108004146C8F800000020C8F884
:100850000400D8F800402070012003B0BDE8F08FFC
:10086000222C01D0272C0FD12746BA462CE0307815
:10087000222807D05C2805D0272803D0BC4203D10A
:10088000002721E0761C04464CB12FB9202C06D05D
:10089000A4F10900042802D905F8014BCBE74D4526
:1008A00002D1BAF1000F0FD052464946002005F898
:1008B000010B6846AFF300809DF8000068B14D461B
:1008C0004FF0000A0BF1010B002CB4D14FEA8B0062
:1008D000FFF798FD040002D004E0A946F0E70020ED
:1008E00000F04AF800264046C4F8008005E010F801
:1008F000011B11B9761C44F82600A842F7D3214603
:10090000002044F826003046A7E71CB50446CDE990
:10091000000169461520ABBE08B100201CBD204671
:100920001CBD000001491820ABBEFEE726000200F6
:1009300000487047B001002400487047B00100240F
:1009400070477047034640688C46002818BF8842AD
:100950003CBF03464068F8D318681844884207D063
:100960000CF1030020F00700001D411A521A014645
:10097000081D0A60FFF775BD10B500F039F8BDE835
:10098000104000F02FB870477546FFF7D1FFAE4614
:1009900005006946534620F00700854618B020B58B
:1009A000FFF71EFDBDE820404FF000064FF00007A6
:1009B0004FF000084FF0000BAC46ACE8C009ACE8C3
:1009C000C009ACE8C009ACE8C00921F007018D46B8
:1009D000704710B50446AFF300802046BDE81040D4
:1009E000FFF7E7BC002801D0FFF79CBF704700006D
:1009F00010B5012805D0002103A000F021F8012046
:100A000010BD09A1F8E7000053494752544D454D28
:100A10003A204F7574206F662068656170206D659F
:100A20006D6F7279000000003A2048656170206D9A
:100A3000656D6F727920636F727275707465640092
:100A400070B505460C460A2000E06D1C00F011F858
:100A500035B128780028F8D102E0641C00F009F8CC
:100A600014B120780028F8D1BDE870400A20AFF317
:100A7000008008B569468DF800000320ABBE08BDB4
:100A8000FFE7FEE70000000080B587B013468C4604
:100A900086468DF81B000591ADF812209DF81B00CD
:100AA000014623280393CDF808C0CDF804E0009157
:100AB0001DD80099DFE801F012131415161B1B1B3B
:100AC0001B1B1B1B1B1B1B1B1B1B1B1B1B1B1B1B76
:100AD0001B1B1B1B1B1B1B1B1718191A08E007E00D
:100AE00006E005E004E003E002E001E000E0FFE7EB
:100AF000002007B080BD000000207047000000000B
:100B000080B584B042F29840C2F2004041F6C03154
:100B1000C2F2004100220390029211F03DFD41F229
:100B2000C031C2F20041039A0190104611F010FD4D
:100B300002990090084604B080BD0000000000004B
:100B400080B58AB00A46034609900891099942F295
:100B50009840C2F2004007900692059311F0F8FC0D
:100B600007990490084611F08BFC0999089A1268BD
:100B700040F27033C2F2004303F1300E039070462E
:100B80000293FFF70CFD08990968029AA2F8601019
:100B9000516E099BDDF820E0DEF800E00190184678
:100BA00000917146009B984700200AB080BD00006C
:100BB00080B586B013468C468646059004918DF824
:100BC0000F2000208DF80E009DF90E000293CDF845
:100BD00004C0CDF800E006B080BD000000000000B9
:100BE00080B542F66400C2F2004002F011F880BD08
:100BF00080B542F2EC70C2F2004002F009F880BD0C
:100C000080B542F27470C2F2004002F001F880BD7B
:100C100080B542F63430C2F2004001F0F9FF80BDE9
:100C200080B542F6AC30C2F2004001F0F1FF80BD69
:100C300080B542F6DC00C2F2004001F0E9FF80BD61
:100C400080B542F65410C2F2004001F0E1FF80BDD1
:100C500080B542F6CC10C2F2004001F0D9FF80BD51
:100C600080B542F64420C2F2004001F0D1FF80BDC1
:100C700080B542F6BC20C2F2004001F0C9FF80BD41
:100C800085B0014604900498006801221023C4F244
:100C9000020398420291019200F0A380FFE70498BA
:100CA000006801212822C4F202029042019100F062
:100CB0009880FFE70498006801214022C4F20202F4
:100CC0009042019100F08D80FFE7049800680121B7
:100CD0005822C4F202029042019100F08280FFE7A4
:100CE0000498006801217022C4F20202904201912E
:100CF00077D0FFE70498006801218822C4F202023D
:100D0000904201916DD0FFE7049800680121A02274
:100D1000C4F202029042019163D0FFE70498006898
:100D20000121B822C4F202029042019159D0FFE79A
:100D300004980068012140F21042C4F2020290427D
:100D400001914ED0FFE704980068012140F228424B
:100D5000C4F202029042019143D0FFE70498006878
:100D6000012140F24042C4F202029042019138D087
:100D7000FFE704980068012140F25842C4F20202E1
:100D8000904201912DD0FFE704980068012140F2C4
:100D90007042C4F202029042019122D0FFE704980F
:100DA0000068012140F28842C4F20202904201919F
:100DB00017D0FFE704980068012140F2A042C4F276
:100DC0000202904201910CD0FFE7049800684FF6B0
:100DD0004831CBF6FD710844B0FA80F0400901902B
:100DE000FFE70198C007002829D0FFE704980078A2
:100DF00010384AF6AB21CAF6AA21A0FB0101090965
:100E00000391039901F007014BF29A22C0F6010207
:100E1000515C049AD16503990429009007D3FFE738
:100E200004980168042262F30901816506E00498D0
:100E3000016840F2FF3291438165FFE705E00498C5
:100E4000016821F0FF018165FFE70498806D05B01E
:100E5000704700000000000087B001460690069829
:100E60000068049006980068012245F20843C5F620
:100E700002039842039102924ED0FFE70698006861
:100E8000012145F21C42C5F602029042029143D074
:100E9000FFE706980068012145F23042C5F60202DC
:100EA0009042029138D0FFE706980068012145F290
:100EB0004442C5F60202904202912DD0FFE7069807
:100EC0000068012145F25842C5F6020290420291A3
:100ED00022D0FFE706980068012145F26C42C5F672
:100EE00002029042029117D0FFE7069800680121A4
:100EF00045F28042C5F60202904202910CD0FFE713
:100F0000069800684AF66C31CAF2FD710844B0FADE
:100F100080F040090290FFE70298C007002824D023
:100F2000FFE70698007808384CF6CD41CCF6CC4166
:100F3000A0FB010109090591059945F60002C5F6D6
:100F4000020202EB8101069A1166069945F68002BB
:100F5000C5F602024A66059901F01F01012202FA54
:100F600001F1069A9166019037E0069800781038F2
:100F70004AF6AB21CAF6AA21A0FB01010909059195
:100F8000049940F2B842C4F20202914200900CD897
:100F9000FFE7049840F21041C4F20201884204D3F2
:100FA000FFE7059808300590FFE7059840F6000137
:100FB000C4F2020101EB800006990866069840F62B
:100FC0008001C4F202014166059800F01F00012172
:100FD00001FA00F006998866FFE707B07047000045
:100FE00084B001460390039800790290029800288B
:100FF000019100F08C80FFE70298082800F28780BA
:10100000FFE703980068012145F20842C5F6020295
:10101000904200914ED0FFE703980068012145F20D
:101020001C42C5F602029042009143D0FFE70398AC
:101030000068012145F23042C5F60202904200915B
:1010400038D0FFE703980068012145F24442C5F615
:101050000202904200912DD0FFE703980068012121
:1010600045F25842C5F602029042009122D0FFE7B5
:1010700003980068012145F26C42C5F602029042D5
:10108000009117D0FFE703980068012145F28042E4
:10109000C5F60202904200910CD0FFE70398006869
:1010A0004AF66C31CAF2FD710844B0FA80F040098A
:1010B0000090FFE70098C007002810D0FFE70298D3
:1010C00045F6FC01C5F6020101EB80000399C866F4
:1010D000039845F64011C5F6020101670FE002983A
:1010E00040F6FC01C4F2020101EB80000399C866DE
:1010F000039840F64011C4F202010167FFE702982D
:101100000138012101FA00F003994867FFE704B0B4
:10111000704700000000000086B0014605900020E6
:101120008DF81300059880690028039123D1FFE70B
:101130000598806A032802901BD80299DFE801F025
:10114000020D02180598C06AC001002804D5FFE707
:1011500001208DF81300FFE70CE00598C06AB0F19C
:10116000C07F04D1FFE701208DF81300FFE701E005
:1011700000E0FFE747E005988069B0F5005F26D101
:10118000FFE70598806A032801901ED80199DFE8DF
:1011900001F00206021101208DF8130016E00598F7
:1011A000C06AC001002804D5FFE701208DF81300B4
:1011B000FFE70BE00598C06AB0F1C07F04D1FFE7FC
:1011C00001208DF81300FFE700E0FFE71AE0059823
:1011D000806A0328009004D3FFE70098032804D016
:1011E0000EE001208DF813000BE00598C06AC001E5
:1011F000002804D5FFE701208DF81300FFE700E089
:10120000FFE7FFE7FFE79DF8130006B07047000017
:10121000B0B58DB09C4696460C4605460C900B9199
:101220000A9209930C98806D08900C98806D079035
:101230000C98006801211022C4F202029042CDF8FD
:1012400018C0CDF814E004940395029100F00381D6
:10125000FFE70C98006801212822C4F202029042A4
:10126000029100F0F880FFE70C980068012140220D
:10127000C4F202029042029100F0ED80FFE70C9868
:10128000006801215822C4F202029042029100F04B
:10129000E280FFE70C98006801217022C4F202028C
:1012A0009042029100F0D780FFE70C98006801217E
:1012B0008822C4F202029042029100F0CC80FFE743
:1012C0000C9800680121A022C4F20202904202910F
:1012D00000F0C180FFE70C9800680121B822C4F239
:1012E00002029042029100F0B680FFE70C9800687D
:1012F000012140F21042C4F202029042029100F039
:10130000AA80FFE70C980068012140F22842C4F24D
:1013100002029042029100F09E80FFE70C98006864
:10132000012140F24042C4F202029042029100F0D8
:101330009280FFE70C980068012140F25842C4F205
:1013400002029042029100F08680FFE70C9800684C
:10135000012140F27042C4F20202904202917AD01E
:10136000FFE70C980068012140F28842C4F20202B3
:10137000904202916FD0FFE70C980068012140F283
:10138000A042C4F202029042029164D0FFE70C989E
:101390000068012140F2B842C4F202029042029178
:1013A00059D0FFE70C980068012145F20842C5F6C4
:1013B0000202904202914ED0FFE70C980068012192
:1013C00045F21C42C5F602029042029143D0FFE76B
:1013D0000C980068012145F23042C5F602029042A5
:1013E000029138D0FFE70C980068012145F2444291
:1013F000C5F60202904202912DD0FFE70C980068DA
:10140000012145F25842C5F602029042029122D0D3
:10141000FFE70C980068012145F26C42C5F6020214
:101420009042029117D0FFE70C980068012145F225
:101430008042C5F60202904202910CD0FFE70C9860
:1014400000684AF66C31CAF2FD710844B0FA80F0C7
:1014500040090290FFE70298C00700280FD0FFE77D
:101460000C98416E806E48600C98C06E002805D0C4
:10147000FFE70C98016F406F4860FFE7FFE70C98AB
:10148000006801211022C4F202029042019100F092
:10149000A380FFE70C98006801212822C4F2020211
:1014A0009042019100F09880FFE70C9800680121BC
:1014B0004022C4F202029042019100F08D80FFE7C9
:1014C0000C98006801215822C4F202029042019156
:1014D00000F08280FFE70C98006801217022C4F2BE
:1014E00002029042019177D0FFE70C980068012139
:1014F0008822C4F20202904201916DD0FFE70C985D
:1015000000680121A022C4F202029042019163D03E
:10151000FFE70C9800680121B822C4F20202904251
:10152000019159D0FFE70C980068012140F2104268
:10153000C4F20202904201914ED0FFE70C9800687D
:10154000012140F22842C4F202029042019143D0AC
:10155000FFE70C980068012140F24042C4F2020209
:101560009042019138D0FFE70C980068012140F2C9
:101570005842C4F20202904201912DD0FFE70C982C
:101580000068012140F27042C4F2020290420191CF
:1015900022D0FFE70C980068012140F28842C4F293
:1015A00002029042019117D0FFE70C9800680121D8
:1015B00040F2A042C4F20202904201910CD0FFE737
:1015C0000C9800684FF64831CBF6FD710844B0FA2C
:1015D00080F040090190FFE70198C00700282BD058
:1015E000FFE70C98C06D00F01F003F2101FA00F0EA
:1015F000089988600C980068016821F480210160D6
:1016000009980C99096848600C988068402809D1AD
:10161000FFE70A980C99096888600B980C9909688B
:10162000C86008E00B980C99096888600A980C99C2
:101630000968C860FFE784E00C980068012145F262
:101640000842C5F60202904200914ED0FFE70C9886
:101650000068012145F21C42C5F602029042009149
:1016600043D0FFE70C980068012145F23042C5F6EF
:1016700002029042009138D0FFE70C9800680121E7
:1016800045F24442C5F60202904200912DD0FFE798
:101690000C980068012145F25842C5F602029042BA
:1016A000009122D0FFE70C980068012145F26C42BE
:1016B000C5F602029042009117D0FFE70C9800682F
:1016C000012145F28042C5F60202904200910CD001
:1016D000FFE70C9800684AF66C31CAF2FD710844C5
:1016E000B0FA80F040090090FFE70098C00700289A
:1016F00025D0FFE70C98C06D00F01F00012101FA12
:1017000000F00799486009980C99096848600C989E
:101710008068402809D1FFE70A980C990968886019
:101720000B980C990968C86008E00B980C99096837
:1017300088600A980C990968C860FFE700E0FFE735
:10174000FFE70DB0B0BD000080B584B00146039046
:101750004EF6FC50CEF20000026842F08072026049
:1017600041F6B070CEF2000002684CF65563CCF240
:10177000AC531A43026041F20400CEF20000002292
:10178000026041F20000CEF20000036843F0010362
:101790000360039844F24023C0F20F03584340F221
:1017A000B823C2F200431860186844F6D35CC1F253
:1017B000620CA0FB0C0C4FEA9C1C40F2BC2EC2F247
:1017C000004ECEF800C01B684DF6836CC4F21B3C83
:1017D000A3FB0C3C4FEA9C4C40F2C02EC2F2004EE0
:1017E000CEF800C040F2D42CC2F2004CCCF800205D
:1017F00002910193009004B080BD00000000000041
:10180000704700000000000080B54FF4806004F0D5
:101810000FFD4FF4805004F00BFD80BD0000000070
:1018200081B0EFF3108072B60090FFE7FEE7000092
:1018300080B542F62440C2F2004003F04DFD80BD69
:1018400080B542F6C440C2F2004003F045FD80BDC1
:1018500080B542F66450C2F2004003F03DFD80BD09
:1018600085B0014603900398406B0190039800688F
:10187000D0F884004FF6FC729043019A40EA82004F
:10188000039A1268C2F8840003980068D0F88400B4
:1018900020F47F00039A1368926B40EA0240C3F879
:1018A00084000398806B019A1044019003980068AB
:1018B000D0F888006FF38F00019A40EA8200039A03
:1018C0001268C2F8880003980068D0F8880020F4F5
:1018D000FE00039A1368D26B40EA0240C3F8880006
:1018E0000398C06B019A02EB4000019003980068D6
:1018F000D0F8A0006FF38F00019A40EA8200039AAB
:101900001268C2F8A00003980068D0F8A00020F484
:10191000FE00039A1368126C40EA0240C3F8A0006C
:101920000398026C406C019B02FB0030019003980D
:101930000068D0F8B0006FF38F00019A40EA82008F
:10194000039A1268C2F8B00003980068D0F8B0009B
:1019500020F4FE00039A1368926C40EA0240C3F838
:10196000B0000398826CC06C019B02FB00300190B8
:1019700003980068D0F8AC006FF38F00019A40EA3A
:101980008200039A1268C2F8AC000398026D406DA1
:10199000019B02FB0030019003980068D0F8F00032
:1019A0006FF38F00019A40EA8200039A1268C2F82E
:1019B000F00003980068D0F8F00020F47C10039A3F
:1019C0001368926D40EA0240C3F8F0000398806DFE
:1019D000019A02EB4000019003980068D0F8C00023
:1019E0006FF38F00019A40EA8200039A1268C2F8EE
:1019F000C00003980068D0F8C00020F47C10039A5F
:101A00001368D26D40EA0240C3F8C0000398006832
:101A1000D0F8C00020F07C50039A1368126E40EAA0
:101A20000260C3F8C0000398426B4AF60043C4F258
:101A3000000303EB8202C2660398826BC36E03EB62
:101A4000820202670398C26B036F03EBC202426714
:101A50000398026C436CD0F874C05A430CEB8202BA
:101A600082670398826CC36CD0F878C05A430CEB41
:101A70008202C2670398026D436DD0F87CC05A435E
:101A80000CEB8202C0F880200398826DD0F8803081
:101A900003EBC202C0F884200398C26D836ED0F8B5
:101AA00084C05A430CEB8202C0F888200398026E6F
:101AB000836ED0F888C05A430CEB8202C0F89020A5
:101AC0000398D0F890004DF2FD32C4F2000290422B
:101AD00000910FD3FFE70398D0F89C1041F020014C
:101AE000C0F89C100398032180F8981001208DF80D
:101AF000130017E00398C06E0290FFE70298039965
:101B0000D1F89010884208D2FFE7029800210160C6
:101B1000FFE7029804300290F0E7FFE700208DF81D
:101B20001300FFE79DF8130005B0704700000000A8
:101B300080B584B04EF60000C1F6F17000680390E5
:101B40004EF60400C1F6F170006802904EF60800EF
:101B5000C1F6F17000680190019803990844039060
:101B60000398002813D0FFE7039840F27811C2F2DF
:101B700000418A1C0823009111461A460CF0BCFB58
:101B800002980099123104220CF0B6FBFFE704B072
:101B900080BD00000000000080B58EB001460C90B2
:101BA000079104F081FD08900C98002805D1FFE70B
:101BB00001208DF8370000F0B8BC0C9890F8350083
:101BC00002280ED0FFE70C9880214165FFE70C98B2
:101BD000002180F83410FFE701208DF8370000F075
:101BE000A4BC0C98006801211022C4F202029042A9
:101BF000069100F0A380FFE70C98006801212822DD
:101C0000C4F202029042069100F09880FFE70C981F
:101C1000006801214022C4F202029042069100F0C5
:101C20008D80FFE70C98006801215822C4F202025F
:101C30009042069100F08280FFE70C980068012135
:101C40007022C4F202029042069177D0FFE70C980E
:101C5000006801218822C4F20202904206916DD0F0
:101C6000FFE70C9800680121A022C4F20202904212
:101C7000069163D0FFE70C9800680121B822C4F2F6
:101C800002029042069159D0FFE70C9800680121AA
:101C900040F21042C4F20202904206914ED0FFE799
:101CA0000C980068012140F22842C4F202029042DE
:101CB000069143D0FFE70C980068012140F24042B2
:101CC000C4F202029042069138D0FFE70C980068F7
:101CD000012140F25842C4F20202904206912DD0F6
:101CE000FFE70C980068012140F27042C4F2020242
:101CF0009042069122D0FFE70C980068012140F243
:101D00008842C4F202029042069117D0FFE70C9875
:101D10000068012140F2A042C4F202029042069102
:101D20000CD0FFE70C9800684FF64831CBF6FD71F8
:101D30000844B0FA80F040090690FFE70698C00713
:101D4000002810D0FFE70C980068016821F01E0100
:101D500001600C980068416921F0800141610C9894
:101D60000068099009E00C980068016821F00E01F4
:101D700001600C9800680990FFE70C980068012149
:101D80001022C4F202029042059100F00381FFE7A5
:101D90000C98006801212822C4F2020290420591A9
:101DA00000F0F880FFE70C98006801214022C4F29F
:101DB00002029042059100F0ED80FFE70C98006868
:101DC00001215822C4F202029042059100F0E28003
:101DD000FFE70C98006801217022C4F202029042D1
:101DE000059100F0D780FFE70C9800680121882258
:101DF000C4F202029042059100F0CC80FFE70C98FB
:101E000000680121A022C4F202029042059100F074
:101E1000C180FFE70C9800680121B822C4F20202D9
:101E20009042059100F0B680FFE70C980068012110
:101E300040F21042C4F202029042059100F0AA80E2
:101E4000FFE70C980068012140F22842C4F2020228
:101E50009042059100F09E80FFE70C9800680121F8
:101E600040F24042C4F202029042059100F092809A
:101E7000FFE70C980068012140F25842C4F20202C8
:101E80009042059100F08680FFE70C9800680121E0
:101E900040F27042C4F20202904205917AD0FFE70C
:101EA0000C980068012140F28842C4F2020290427C
:101EB00005916FD0FFE70C980068012140F2A04225
:101EC000C4F202029042059164D0FFE70C980068CA
:101ED000012140F2B842C4F202029042059159D069
:101EE000FFE70C980068012145F20842C5F602029E
:101EF000904205914ED0FFE70C980068012145F211
:101F00001C42C5F602029042059143D0FFE70C98AF
:101F10000068012145F23042C5F602029042059167
:101F200038D0FFE70C980068012145F24442C5F61D
:101F30000202904205912DD0FFE70C980068012124
:101F400045F25842C5F602029042059122D0FFE7C1
:101F50000C980068012145F26C42C5F602029042DD
:101F6000059117D0FFE70C980068012145F28042E7
:101F7000C5F60202904205910CD0FFE70C9800686C
:101F80004AF66C31CAF2FD710844B0FA80F040099B
:101F90000590FFE70598C007002807D0FFE70C98D9
:101FA000006E016821F480710160FFE70C98006801
:101FB0001021C4F20201884200F08180FFE70C98F2
:101FC00000682821C4F20201884278D0FFE70C980B
:101FD00000684021C4F20201884270D0FFE70C98EB
:101FE00000685821C4F20201884268D0FFE70C98CB
:101FF00000687021C4F20201884260D0FFE70C98AB
:1020000000688821C4F20201884258D0FFE70C988A
:102010000068A021C4F20201884250D0FFE70C986A
:102020000068B821C4F20201884248D0FFE70C984A
:10203000006840F21041C4F2020188423FD0FFE73D
:102040000C98006840F22841C4F20201884236D060
:10205000FFE70C98006840F24041C4F20201884258
:102060002DD0FFE70C98006840F25841C4F20201FD
:10207000884224D0FFE70C98006840F27041C4F217
:10208000020188421BD0FFE70C98006840F28841AB
:10209000C4F20201884212D0FFE70C98006840F2B7
:1020A000A041C4F20201884209D0FFE70C98006801
:1020B00040F2B841C4F20201884209D1FFE70C980E
:1020C0000068016821F001010A460160049208E0FD
:1020D0000C980068016821F001010A460160039232
:1020E000FFE7FFE70998006810F0010F1BD0FFE73A
:1020F00004F0DAFADDF820E0A0EB0E00062811D398
:10210000FFE70C98202141650C98032180F83510D9
:10211000FFE70C98002180F83410FFE701208DF8CC
:10212000370002E2DEE70C98006801211022C4F2B9
:1021300002029042029100F0A380FFE70C98006831
:1021400001212822C4F202029042029100F09880FC
:10215000FFE70C98006801214022C4F2020290427D
:10216000029100F08D80FFE70C9800680121582251
:10217000C4F202029042029100F08280FFE70C98C4
:10218000006801217022C4F202029042029177D0CD
:10219000FFE70C98006801218822C4F202029042F5
:1021A00002916DD0FFE70C9800680121A022C4F2D3
:1021B00002029042029163D0FFE70C98006801216F
:1021C000B822C4F202029042029159D0FFE70C9863
:1021D0000068012140F21042C4F2020290420291D2
:1021E0004ED0FFE70C980068012140F22842C4F26B
:1021F00002029042029143D0FFE70C98006801214F
:1022000040F24042C4F202029042029138D0FFE70D
:102210000C980068012140F25842C4F20202904238
:1022200002912DD0FFE70C980068012140F2704226
:10223000C4F202029042029122D0FFE70C9800689B
:10224000012140F28842C4F202029042029117D06A
:10225000FFE70C980068012140F2A042C4F202029C
:10226000904202910CD0FFE70C9800684FF648317D
:10227000CBF6FD710844B0FA80F040090290FFE708
:102280000298C00700280DD0FFE70C98806D0B90D6
:102290000C98C06D00F01F003F2101FA00F00B996F
:1022A00088600CE00C98806D0A900C98C06D00F06E
:1022B0001F00012101FA00F00A994860FFE70C981D
:1022C000006801211022C4F202029042019100F044
:1022D0000381FFE70C98006801212822C4F2020262
:1022E0009042019100F0F880FFE70C98006801210E
:1022F0004022C4F202029042019100F0ED80FFE71B
:102300000C98006801215822C4F202029042019107
:1023100000F0E280FFE70C98006801217022C4F20F
:1023200002029042019100F0D780FFE70C9800680C
:1023300001218822C4F202029042019100F0CC8077
:10234000FFE70C9800680121A022C4F2020290422B
:10235000019100F0C180FFE70C9800680121B822CC
:10236000C4F202029042019100F0B680FFE70C989F
:102370000068012140F21042C4F202029042019131
:1023800000F0AA80FFE70C980068012140F2284283
:10239000C4F202029042019100F09E80FFE70C9887
:1023A0000068012140F24042C4F2020290420191D1
:1023B00000F09280FFE70C980068012140F258423B
:1023C000C4F202029042019100F08680FFE70C986F
:1023D0000068012140F27042C4F202029042019171
:1023E0007AD0FFE70C980068012140F28842C4F2DD
:1023F0000202904201916FD0FFE70C980068012122
:1024000040F2A042C4F202029042019164D0FFE780
:102410000C980068012140F2B842C4F202029042D6
:10242000019159D0FFE70C980068012145F208425C
:10243000C5F60202904201914ED0FFE70C98006869
:10244000012145F21C42C5F602029042019143D09F
:10245000FFE70C980068012145F23042C5F6020200
:102460009042019138D0FFE70C980068012145F2B5
:102470004442C5F60202904201912DD0FFE70C982C
:102480000068012145F25842C5F6020290420191CE
:1024900022D0FFE70C980068012145F26C42C5F696
:1024A00002029042019117D0FFE70C9800680121C9
:1024B00045F28042C5F60202904201910CD0FFE73E
:1024C0000C9800684AF66C31CAF2FD710844B0FA03
:1024D00080F040090190FFE70198C007002815D05F
:1024E000FFE70C98416E806E48600C98C06E002823
:1024F0000BD0FFE70C98C06E016821F48071016079
:102500000C98016F406F4860FFE7FFE70C980121CE
:1025100080F83510FFE70C98002180F83410FFE7B1
:10252000FFE700208DF83700FFE79DF837000EB079
:1025300080BD00000000000080B58AB00146089010
:1025400008980028069104D1FFE701208DF82700A4
:1025500052E3089890F83500022807D0FFE7089862
:102560008021416501208DF8270045E30898006827
:1025700001211022C4F202029042059100F0A380D2
:10258000FFE70898006801212822C4F20202904265
:10259000059100F09880FFE708980068012140222B
:1025A000C4F202029042059100F08D80FFE7089886
:1025B000006801215822C4F202029042059100F005
:1025C0008280FFE70898006801217022C4F20202AD
:1025D0009042059177D0FFE7089800680121882292
:1025E000C4F20202904205916DD0FFE7089800689E
:1025F0000121A022C4F202029042059163D0FFE7BC
:10260000089800680121B822C4F2020290420591A4
:1026100059D0FFE708980068012140F21042C4F247
:102620000202904205914ED0FFE708980068012110
:1026300040F22842C4F202029042059143D0FFE7E3
:1026400008980068012140F24042C4F20202904220
:10265000059138D0FFE708980068012140F2584200
:10266000C4F20202904205912DD0FFE7089800685D
:10267000012140F27042C4F202029042059122D040
:10268000FFE708980068012140F28842C4F2020284
:102690009042059117D0FFE708980068012140F2A9
:1026A000A042C4F20202904205910CD0FFE70898C4
:1026B00000684FF64831CBF6FD710844B0FA80F05F
:1026C00040090590FFE70598C007002800F0A180A9
:1026D000FFE70898042180F8351008980068102159
:1026E000C4F20201884200F08180FFE70898006888
:1026F0002821C4F20201884278D0FFE708980068D8
:102700004021C4F20201884270D0FFE708980068B7
:102710005821C4F20201884268D0FFE70898006897
:102720007021C4F20201884260D0FFE70898006877
:102730008821C4F20201884258D0FFE70898006857
:10274000A021C4F20201884250D0FFE70898006837
:10275000B821C4F20201884248D0FFE70898006817
:1027600040F21041C4F2020188423FD0FFE70898CE
:10277000006840F22841C4F20201884236D0FFE7E7
:102780000898006840F24041C4F2020188422DD00E
:10279000FFE70898006840F25841C4F202018842FD
:1027A00024D0FFE70898006840F27041C4F20201AB
:1027B00088421BD0FFE70898006840F28841C4F2C5
:1027C0000201884212D0FFE70898006840F2A04159
:1027D000C4F20201884209D0FFE70898006840F27D
:1027E000B841C4F20201884209D1FFE708980068A5
:1027F000016821F001010A460160049208E008988E
:102800000068016821F001010A4601600392FFE7B8
:10281000EDE108980068016821F00E010160089858
:1028200000681021C4F20201884200F08180FFE7B5
:10283000089800682821C4F20201884278D0FFE796
:10284000089800684021C4F20201884270D0FFE776
:10285000089800685821C4F20201884268D0FFE756
:10286000089800687021C4F20201884260D0FFE736
:10287000089800688821C4F20201884258D0FFE716
:1028800008980068A021C4F20201884250D0FFE7F6
:1028900008980068B821C4F20201884248D0FFE7D6
:1028A0000898006840F21041C4F2020188423FD00B
:1028B000FFE70898006840F22841C4F2020188420C
:1028C00036D0FFE70898006840F24041C4F20201A8
:1028D00088422DD0FFE70898006840F25841C4F2C2
:1028E0000201884224D0FFE70898006840F2704156
:1028F000C4F2020188421BD0FFE70898006840F24A
:102900008841C4F20201884212D0FFE708980068AB
:1029100040F2A041C4F20201884209D0FFE70898C2
:10292000006840F2B841C4F20201884209D1FFE7D1
:1029300008980068016821F001010A4601600292CE
:1029400008E008980068016821F001010A4601606A
:102950000192FFE70898006801211022C4F20202E8
:102960009042009100F00381FFE708980068012180
:102970002822C4F202029042009100F0F880FFE7A2
:102980000898006801214022C4F20202904200919E
:1029900000F0ED80FFE70898006801215822C4F29A
:1029A00002029042009100F0E280FFE70898006880
:1029B00001217022C4F202029042009100F0D780FF
:1029C000FFE70898006801218822C4F202029042C1
:1029D000009100F0CC80FFE7089800680121A02258
:1029E000C4F202029042009100F0C180FFE7089813
:1029F00000680121B822C4F202029042009100F066
:102A0000B680FFE708980068012140F21042C4F246
:102A100002029042009100F0AA80FFE70898006847
:102A2000012140F22842C4F202029042009100F0DB
:102A30009E80FFE708980068012140F24042C4F2FE
:102A400002029042009100F09280FFE7089800682F
:102A5000012140F25842C4F202029042009100F07B
:102A60008680FFE708980068012140F27042C4F2B6
:102A70000202904200917AD0FFE708980068012195
:102A800040F28842C4F20202904200916FD0FFE708
:102A900008980068012140F2A042C4F2020290426C
:102AA000009164D0FFE708980068012140F2B84225
:102AB000C4F202029042009159D0FFE708980068E2
:102AC000012145F20842C5F60202904200914ED023
:102AD000FFE708980068012145F21C42C5F6020292
:102AE0009042009143D0FFE708980068012145F229
:102AF0003042C5F602029042009138D0FFE70898B4
:102B00000068012145F24442C5F60202904200915C
:102B10002DD0FFE708980068012145F25842C5F61C
:102B200002029042009122D0FFE70898006801213C
:102B300045F26C42C5F602029042009117D0FFE7C1
:102B400008980068012145F28042C5F602029042D1
:102B500000910CD0FFE7089800684AF66C31CAF281
:102B6000FD710844B0FA80F040090090FFE700983A
:102B7000C007002827D0FFE70898006E016821F4FD
:102B8000807101600898806D07900898C06D00F012
:102B90001F00012101FA00F0079948600898416E72
:102BA000806E48600898C06E00280BD0FFE7089838
:102BB000C06E016821F4807101600898016F406F58
:102BC0004860FFE7FFE70898012180F83510FFE72C
:102BD0000898002180F83410FFE70898006D00285D
:102BE00004D0FFE70898016D8847FFE7FFE7FFE79C
:102BF00000208DF82700FFE79DF827000AB080BD70
:102C000082B0014601900198406D009102B070477A
:102C100080B59CB001461B900020179040F2BC008C
:102C2000C2F20040006848F2B512C1F64E32A0FB75
:102C30000202920A16921B9A926D15921B9A926D3D
:102C40001492159A12681A92149A126819921B9A81
:102C50001268012340F2100CC4F2020C6245139179
:102C60001290119300F0A380FFE71B9800680121E8
:102C70002822C4F202029042119100F09880FFE7EE
:102C80001B98006801214022C4F202029042119177
:102C900000F08D80FFE71B98006801215822C4F2E4
:102CA00002029042119100F08280FFE71B980068B9
:102CB00001217022C4F202029042119177D0FFE705
:102CC0001B98006801218822C4F2020290421191EF
:102CD0006DD0FFE71B9800680121A022C4F2020218
:102CE0009042119163D0FFE71B9800680121B82240
:102CF000C4F202029042119159D0FFE71B9800687C
:102D0000012140F21042C4F20202904211914ED0D1
:102D1000FFE71B980068012140F22842C4F202023A
:102D20009042119143D0FFE71B980068012140F2C7
:102D30004042C4F202029042119138D0FFE71B9842
:102D40000068012140F25842C4F2020290421191FF
:102D50002DD0FFE71B980068012140F27042C4F2B9
:102D600002029042119122D0FFE71B9800680121D6
:102D700040F28842C4F202029042119117D0FFE75C
:102D80001B980068012140F2A042C4F20202904266
:102D900011910CD0FFE71B9800684FF64831CBF635
:102DA000FD710844B0FA80F040091190FFE71198D6
:102DB000C007002800F03285FFE71A981B99C96DFB
:102DC00001F01F01082202FA01F1084200F0B2806E
:102DD000FFE71B9800681021C4F20201884200F04E
:102DE0008180FFE71B9800682821C4F20201884215
:102DF00078D0FFE71B9800684021C4F202018842A6
:102E000070D0FFE71B9800685821C4F20201884285
:102E100068D0FFE71B9800687021C4F20201884265
:102E200060D0FFE71B9800688821C4F20201884245
:102E300058D0FFE71B980068A021C4F20201884225
:102E400050D0FFE71B980068B821C4F20201884205
:102E500048D0FFE71B98006840F21041C4F202011D
:102E600088423FD0FFE71B98006840F22841C4F237
:102E70000201884236D0FFE71B98006840F24041CB
:102E8000C4F2020188422DD0FFE71B98006840F28F
:102E90005841C4F20201884224D0FFE71B98006821
:102EA00040F27041C4F2020188421BD0FFE71B9838
:102EB000006840F28841C4F20201884212D0FFE764
:102EC0001B98006840F2A041C4F20201884209D078
:102ED000FFE71B98006840F2B841C4F20201884243
:102EE00007D1FFE71B980068006800F0040010900D
:102EF00006E01B980068006800F008001090FFE7EB
:102F00001098002815D0FFE71B980068016821F091
:102F1000040101601B98C06D00F01F00082101FA38
:102F200000F0159988601B98416D41F001014165E1
:102F3000FFE7FFE71A981B99C96D01F01F010122F5
:102F400002FA01F1084200F0AC80FFE71B9800682C
:102F50001021C4F20201884200F08180FFE71B9833
:102F600000682821C4F20201884278D0FFE71B984C
:102F700000684021C4F20201884270D0FFE71B982C
:102F800000685821C4F20201884268D0FFE71B980C
:102F900000687021C4F20201884260D0FFE71B98EC
:102FA00000688821C4F20201884258D0FFE71B98CC
:102FB0000068A021C4F20201884250D0FFE71B98AC
:102FC0000068B821C4F20201884248D0FFE71B988C
:102FD000006840F21041C4F2020188423FD0FFE78E
:102FE0001B98006840F22841C4F20201884236D0A2
:102FF000FFE71B98006840F24041C4F2020188429A
:103000002DD0FFE71B98006840F25841C4F202013E
:10301000884224D0FFE71B98006840F27041C4F258
:10302000020188421BD0FFE71B98006840F28841EC
:10303000C4F20201884212D0FFE71B98006840F2F8
:10304000A041C4F20201884209D0FFE71B98006842
:1030500040F2B841C4F20201884207D1FFE71B9851
:103060000068406900F080000F9006E01B9800683F
:10307000006800210E900F91FFE70F9800280FD0F5
:10308000FFE71B98C06D00F01F00012101FA00F05E
:10309000159988601B98416D41F002014165FFE779
:1030A000FFE71A981B99C96D01F01F01042202FA6B
:1030B00001F1084200F0AC80FFE71B980068102186
:1030C000C4F20201884200F08180FFE71B9800688B
:1030D0002821C4F20201884278D0FFE71B980068DB
:1030E0004021C4F20201884270D0FFE71B980068BB
:1030F0005821C4F20201884268D0FFE71B9800689B
:103100007021C4F20201884260D0FFE71B9800687A
:103110008821C4F20201884258D0FFE71B9800685A
:10312000A021C4F20201884250D0FFE71B9800683A
:10313000B821C4F20201884248D0FFE71B9800681A
:1031400040F21041C4F2020188423FD0FFE71B98D1
:10315000006840F22841C4F20201884236D0FFE7FD
:103160001B98006840F24041C4F2020188422DD011
:10317000FFE71B98006840F25841C4F20201884200
:1031800024D0FFE71B98006840F27041C4F20201AE
:1031900088421BD0FFE71B98006840F28841C4F2C8
:1031A0000201884212D0FFE71B98006840F2A0415C
:1031B000C4F20201884209D0FFE71B98006840F280
:1031C000B841C4F20201884207D1FFE71B980068AA
:1031D000006800F002000D9006E01B98006800688F
:1031E00000210C900D91FFE70D9800280FD0FFE70C
:1031F0001B98C06D00F01F00042101FA00F0159922
:1032000088601B98416D41F004014165FFE7FFE7CD
:103210001A981B99C96D01F01F01102202FA01F1E1
:10322000084200F0E280FFE71B9800681021C4F21A
:103230000201884200F08180FFE71B980068282186
:10324000C4F20201884278D0FFE71B980068402151
:10325000C4F20201884270D0FFE71B980068582131
:10326000C4F20201884268D0FFE71B980068702111
:10327000C4F20201884260D0FFE71B9800688821F1
:10328000C4F20201884258D0FFE71B980068A021D1
:10329000C4F20201884250D0FFE71B980068B821B1
:1032A000C4F20201884248D0FFE71B98006840F250
:1032B0001041C4F2020188423FD0FFE71B9800682A
:1032C00040F22841C4F20201884236D0FFE71B9841
:1032D000006840F24041C4F2020188422DD0FFE76D
:1032E0001B98006840F25841C4F20201884224D081
:1032F000FFE71B98006840F27041C4F20201884267
:103300001BD0FFE71B98006840F28841C4F202011D
:10331000884212D0FFE71B98006840F2A041C4F237
:103320000201884209D0FFE71B98006840F2B841CB
:10333000C4F20201884207D1FFE71B9800680068C9
:1033400000F008000B9006E01B980068006800F091
:1033500004000B90FFE70B98002845D0FFE71B986F
:10336000C06D00F01F00102101FA00F0159988606F
:103370001B980068006810F4802F1CD0FFE71B9892
:103380000068006810F4002F0AD1FFE71B98006C5A
:10339000002804D0FFE71B98016C8847FFE709E08D
:1033A0001B98806C002804D0FFE71B98816C88472D
:1033B000FFE7FFE717E01B980068006810F4807FC4
:1033C00007D1FFE71B980068016821F00801016040
:1033D000FFE71B98006C002804D0FFE71B98016CE6
:1033E0008847FFE7FFE7FFE7FFE71A981B99C96DDA
:1033F00001F01F01202202FA01F1084200F02E81A3
:10340000FFE71B9800681021C4F20201884200F017
:103410008180FFE71B9800682821C4F202018842DE
:1034200078D0FFE71B9800684021C4F2020188426F
:1034300070D0FFE71B9800685821C4F2020188424F
:1034400068D0FFE71B9800687021C4F2020188422F
:1034500060D0FFE71B9800688821C4F2020188420F
:1034600058D0FFE71B980068A021C4F202018842EF
:1034700050D0FFE71B980068B821C4F202018842CF
:1034800048D0FFE71B98006840F21041C4F20201E7
:1034900088423FD0FFE71B98006840F22841C4F201
:1034A0000201884236D0FFE71B98006840F2404195
:1034B000C4F2020188422DD0FFE71B98006840F259
:1034C0005841C4F20201884224D0FFE71B980068EB
:1034D00040F27041C4F2020188421BD0FFE71B9802
:1034E000006840F28841C4F20201884212D0FFE72E
:1034F0001B98006840F2A041C4F20201884209D042
:10350000FFE71B98006840F2B841C4F2020188420C
:1035100007D1FFE71B980068006800F010000A90D0
:1035200006E01B980068006800F002000A90FFE7C0
:103530000A98002800F09180FFE71B98C06D00F00A
:103540001F00202101FA00F0159988601B9890F85F
:10355000350004283BD1FFE71B980068016821F083
:10356000160101601B980068416921F080014161EA
:103570001B98006C002805D1FFE71B98806C002881
:1035800007D0FFE71B980068016821F0080101607F
:10359000FFE71B98C06D00F01F003F2101FA00F00B
:1035A000159988601B98012180F83510FFE71B985A
:1035B000002180F83410FFE71B98006D002804D02C
:1035C000FFE71B98016D8847FFE700F03CBC1B98A4
:1035D0000068006810F4802F1CD0FFE71B9800687B
:1035E000006810F4002F0AD1FFE71B98406C0028F8
:1035F00004D0FFE71B98416C8847FFE709E01B9860
:10360000C06B002804D0FFE71B98C16B8847FFE719
:10361000FFE721E01B980068006810F4807F11D15B
:10362000FFE71B980068016821F0100101601B98FA
:10363000012180F83510FFE71B98002180F8341035
:10364000FFE7FFE71B98C06B002804D0FFE71B983B
:10365000C16B8847FFE7FFE7FFE7FFE71B98406D77
:10366000002800F0DA80FFE71B98406D10F0010F92
:1036700000F0C980FFE71B98042180F835101B98E3
:1036800000681021C4F20201884200F08180FFE747
:103690001B9800682821C4F20201884278D0FFE715
:1036A0001B9800684021C4F20201884270D0FFE7F5
:1036B0001B9800685821C4F20201884268D0FFE7D5
:1036C0001B9800687021C4F20201884260D0FFE7B5
:1036D0001B9800688821C4F20201884258D0FFE795
:1036E0001B980068A021C4F20201884250D0FFE775
:1036F0001B980068B821C4F20201884248D0FFE755
:103700001B98006840F21041C4F2020188423FD089
:10371000FFE71B98006840F22841C4F2020188428A
:1037200036D0FFE71B98006840F24041C4F2020126
:1037300088422DD0FFE71B98006840F25841C4F240
:103740000201884224D0FFE71B98006840F27041D4
:10375000C4F2020188421BD0FFE71B98006840F2C8
:103760008841C4F20201884212D0FFE71B9800682A
:1037700040F2A041C4F20201884209D0FFE71B9841
:10378000006840F2B841C4F20201884209D1FFE763
:103790001B980068016821F001010A460160099246
:1037A00008E01B980068016821F001010A460160E9
:1037B0000892FFE7FFE717980130179016998842A3
:1037C00001D9FFE707E0FFE71B980068006810F0E9
:1037D000010FF0D1FFE71B980068006810F0010F9F
:1037E00005D0FFE71B98032180F8351004E01B98F3
:1037F000012180F83510FFE7FFE71B98002180F8D2
:103800003410FFE7FFE71B98C06C002804D0FFE7E7
:103810001B98C16C8847FFE7FFE714E31B9800681B
:10382000012145F20842C5F60202904207914ED0AE
:10383000FFE71B980068012145F21C42C5F6020211
:103840009042079143D0FFE71B980068012145F2A1
:103850003042C5F602029042079138D0FFE71B982C
:103860000068012145F24442C5F6020290420791E8
:103870002DD0FFE71B980068012145F25842C5F69C
:1038800002029042079122D0FFE71B9800680121B5
:1038900045F26C42C5F602029042079117D0FFE74D
:1038A0001B980068012145F28042C5F60202904251
:1038B00007910CD0FFE71B9800684AF66C31CAF2FA
:1038C000FD710844B0FA80F040090790FFE70798BF
:1038D000C007002800F0B582FFE71B980068006869
:1038E000189019981B99C96D01F01F01042202FA62
:1038F00001F1084200F0E080FFE79DF8600040071A
:10390000002840F1D980FFE71B98C06D00F01F0030
:10391000042101FA00F0149948609DF86100000646
:1039200000281BD5FFE79DF86200C00700280AD1D8
:10393000FFE71B98806C002804D0FFE71B98816C80
:103940008847FFE709E01B98006C002804D0FFE7D8
:103950001B98016C8847FFE7FFE7ACE09DF860002B
:103960008006002800F19D80FFE71B980068102169
:10397000C4F20201884200F08180FFE71B980068D2
:103980002821C4F20201884278D0FFE71B98006822
:103990004021C4F20201884270D0FFE71B98006802
:1039A0005821C4F20201884268D0FFE71B980068E2
:1039B0007021C4F20201884260D0FFE71B980068C2
:1039C0008821C4F20201884258D0FFE71B980068A2
:1039D000A021C4F20201884250D0FFE71B98006882
:1039E000B821C4F20201884248D0FFE71B98006862
:1039F00040F21041C4F2020188423FD0FFE71B9819
:103A0000006840F22841C4F20201884236D0FFE744
:103A10001B98006840F24041C4F2020188422DD058
:103A2000FFE71B98006840F25841C4F20201884247
:103A300024D0FFE71B98006840F27041C4F20201F5
:103A400088421BD0FFE71B98006840F28841C4F20F
:103A50000201884212D0FFE71B98006840F2A041A3
:103A6000C4F20201884209D0FFE71B98006840F2C7
:103A7000B841C4F20201884209D1FFE71B980068EF
:103A8000016821F008010A460160069208E01B98CF
:103A90000068016821F004010A4601600592FFE711
:103AA000FFE71B98006C002804D0FFE71B98016C0F
:103AB0008847FFE7FFE7C3E119981B99C96D01F03B
:103AC0001F01022202FA01F1084200F0EA80FFE73A
:103AD0009DF860008007002840F1E380FFE71B9815
:103AE000C06D00F01F00022101FA00F01499486037
:103AF0009DF86100000600281BD5FFE79DF86200D5
:103B0000C00700280AD1FFE71B98406C002804D0AA
:103B1000FFE71B98416C8847FFE709E01B98C06BE3
:103B2000002804D0FFE71B98C16B8847FFE7FFE739
:103B3000B6E09DF860008006002800F1A780FFE74E
:103B40001B9800681021C4F20201884200F08180B5
:103B5000FFE71B9800682821C4F20201884278D050
:103B6000FFE71B9800684021C4F20201884270D030
:103B7000FFE71B9800685821C4F20201884268D010
:103B8000FFE71B9800687021C4F20201884260D0F0
:103B9000FFE71B9800688821C4F20201884258D0D0
:103BA000FFE71B980068A021C4F20201884250D0B0
:103BB000FFE71B980068B821C4F20201884248D090
:103BC000FFE71B98006840F21041C4F202018842EE
:103BD0003FD0FFE71B98006840F22841C4F2020181
:103BE000884236D0FFE71B98006840F24041C4F29B
:103BF000020188422DD0FFE71B98006840F258412F
:103C0000C4F20201884224D0FFE71B98006840F20A
:103C10007041C4F2020188421BD0FFE71B98006884
:103C200040F28841C4F20201884212D0FFE71B989B
:103C3000006840F2A041C4F20201884209D0FFE7C7
:103C40001B98006840F2B841C4F20201884209D1D1
:103C5000FFE71B980068016821F014010A46016023
:103C6000049208E01B980068016821F00A010A46E6
:103C700001600392FFE71B98012180F83510FFE7F0
:103C80001B98002180F83410FFE7FFE71B98C06BFA
:103C9000002804D0FFE71B98C16B8847FFE7FFE7C8
:103CA000CDE019981B99C96D01F01F01082202FA95
:103CB00001F1084200F0C180FFE79DF860000007B5
:103CC000002840F1BA80FFE71B9800681021C4F279
:103CD0000201884200F08180FFE71B9800682821DC
:103CE000C4F20201884278D0FFE71B9800684021A7
:103CF000C4F20201884270D0FFE71B980068582187
:103D0000C4F20201884268D0FFE71B980068702166
:103D1000C4F20201884260D0FFE71B980068882146
:103D2000C4F20201884258D0FFE71B980068A02126
:103D3000C4F20201884250D0FFE71B980068B82106
:103D4000C4F20201884248D0FFE71B98006840F2A5
:103D50001041C4F2020188423FD0FFE71B9800687F
:103D600040F22841C4F20201884236D0FFE71B9896
:103D7000006840F24041C4F2020188422DD0FFE7C2
:103D80001B98006840F25841C4F20201884224D0D6
:103D9000FFE71B98006840F27041C4F202018842BC
:103DA0001BD0FFE71B98006840F28841C4F2020173
:103DB000884212D0FFE71B98006840F2A041C4F28D
:103DC0000201884209D0FFE71B98006840F2B84121
:103DD000C4F20201884209D1FFE71B98006801681C
:103DE00021F01C010A460160029208E01B9800685D
:103DF000016821F00E010A4601600192FFE71B985D
:103E0000C06D00F01F00012101FA00F0149A50600B
:103E10001B9841651B9880F83510FFE71B9800211F
:103E200080F83410FFE71B98C06C002804D0FFE72F
:103E30001B98C16C8847FFE700E0FFE7FFE7FFE75B
:103E400000E0FFE7FFE71CB080BD000000000000BD
:103E500080B592B0014610900B9102F025FC0E90B7
:103E60001098002805D1FFE701208DF8470000F0E9
:103E7000B6BC1098006801211022C4F202029042E0
:103E80000A9100F0A380FFE7109800680121282222
:103E9000C4F2020290420A9100F09880FFE7109865
:103EA000006801214022C4F2020290420A9100F00F
:103EB0008D80FFE71098006801215822C4F20202A9
:103EC00090420A9100F08280FFE71098006801217B
:103ED0007022C4F2020290420A9177D0FFE7109854
:103EE000006801218822C4F2020290420A916DD03A
:103EF000FFE7109800680121A022C4F2020290425C
:103F00000A9163D0FFE7109800680121B822C4F23B
:103F1000020290420A9159D0FFE7109800680121EF
:103F200040F21042C4F2020290420A914ED0FFE7E2
:103F300010980068012140F22842C4F20202904227
:103F40000A9143D0FFE710980068012140F24042F7
:103F5000C4F2020290420A9138D0FFE7109800683C
:103F6000012140F25842C4F2020290420A912DD03F
:103F7000FFE710980068012140F27042C4F202028B
:103F800090420A9122D0FFE710980068012140F288
:103F90008842C4F2020290420A9117D0FFE71098BB
:103FA0000068012140F2A042C4F2020290420A914C
:103FB0000CD0FFE7109800684FF64831CBF6FD7142
:103FC0000844B0FA80F040090A90FFE70A98C00759
:103FD000002800F08481FFE71098406A002801D093
:103FE000FFE7FFE71098022180F83510FFE71098EF
:103FF000002180F83410FFE7109800681021C4F207
:104000000201884200F08180FFE7109800682821B3
:10401000C4F20201884278D0FFE71098006840217E
:10402000C4F20201884270D0FFE71098006858215E
:10403000C4F20201884268D0FFE71098006870213E
:10404000C4F20201884260D0FFE71098006888211E
:10405000C4F20201884258D0FFE710980068A021FE
:10406000C4F20201884250D0FFE710980068B821DE
:10407000C4F20201884248D0FFE71098006840F27D
:104080001041C4F2020188423FD0FFE71098006857
:1040900040F22841C4F20201884236D0FFE710986E
:1040A000006840F24041C4F2020188422DD0FFE78F
:1040B0001098006840F25841C4F20201884224D0AE
:1040C000FFE71098006840F27041C4F20201884294
:1040D0001BD0FFE71098006840F28841C4F202014B
:1040E000884212D0FFE71098006840F2A041C4F265
:1040F0000201884209D0FFE71098006840F2B841F9
:10410000C4F20201884209D1FFE7109800680168F3
:1041100021F001010A460160099208E01098006848
:10412000016821F001010A4601600892FFE7FFE7FC
:1041300010980068006810F0010F15D0FFE702F03A
:10414000B3FADDF838E0A0EB0E0006280BD3FFE74A
:104150001098202141651098032180F83510012026
:104160008DF847003BE3E3E71098006800680F9084
:104170000F9848F23F01CFF6106108400F90109859
:104180008168C2680369D0F814C01143194341EA39
:104190000C0182691143C2691143006A08430F99F7
:1041A00008430F901098406A042808D1FFE7109840
:1041B000C16A006B08430F9908430F90FFE71098FE
:1041C0004068292807D3FFE71098406801212F286D
:1041D000079136D3FFE7109840683F2807D3FFE7E1
:1041E000109840680121432807912AD3FFE71098CF
:1041F0004068472807D3FFE7109840680121492805
:1042000007911ED3FFE7109840684F2807D3FFE7B8
:104210001098406801215328079112D3FFE71098A6
:10422000406800217428069108D3FFE71098406881
:104230000021782838BF01210691FFE706980790F2
:10424000FFE70798C007002805D0FFE70F9840F464
:1042500080100F90FFE70F98109909680860109878
:10426000006840690F900F9820F007000F90109899
:10427000406A0F9908430F901098406A04281CD197
:10428000FFE71098806A0F9908430F901098C06A52
:10429000002811D0FFE71098FCF73EFF00280AD055
:1042A000FFE71098402141651098012180F83510F2
:1042B0008DF8471093E2FFE7FFE70F981099096820
:1042C00048611098FCF7DCFC0D901098C06D00F070
:1042D0001F003F2101FA00F00D9988602CE1109831
:1042E0000068012145F20842C5F60202904205919C
:1042F0004ED0FFE710980068012145F21C42C5F638
:1043000002029042059143D0FFE710980068012116
:1043100045F23042C5F602029042059138D0FFE7DF
:1043200010980068012145F24442C5F6020290420D
:1043300005912DD0FFE710980068012145F2584201
:10434000C5F602029042059122D0FFE7109800685E
:10435000012145F26C42C5F602029042059117D048
:10436000FFE710980068012145F28042C5F602027D
:10437000904205910CD0FFE7109800684AF66C3126
:10438000CAF2FD710844B0FA80F040090590FFE7D9
:104390000598C007002800F0C380FFE71098006868
:1043A000012145F20842C5F60202904204914ED026
:1043B000FFE710980068012145F21C42C5F6020291
:1043C0009042049143D0FFE710980068012145F224
:1043D0003042C5F602029042049138D0FFE71098AF
:1043E0000068012145F24442C5F602029042049160
:1043F0002DD0FFE710980068012145F25842C5F61C
:1044000002029042049122D0FFE710980068012137
:1044100045F26C42C5F602029042049117D0FFE7C4
:1044200010980068012145F28042C5F602029042D0
:1044300004910CD0FFE7109800684AF66C31CAF27C
:10444000FD710844B0FA80F040090490FFE7049839
:10445000C007002801D0FFE7FFE71098022180F88D
:104460003510FFE71098002180F83410FFE710980E
:10447000006800680F900F986FF310100F9010985D
:104480008068402803D1FFE71020039008E01098CF
:1044900080680021802808BF4FF480410391FFE726
:1044A00003981099CA680B69D1F814C0D1F818E0C4
:1044B00040EAD20040EAD30040EADC0040EADE00F5
:1044C000CA6940EAD200096A40EA11100F9908430C
:1044D0000F900F98109909680860109801684AF6C3
:1044E000F832CAF2FD7211444CF6CD42CCF6CC4201
:1044F000A1FB02124FF6FC73C3F6FF7303EA9202AC
:10450000C26510980291FCF7BBFB0C901098C06D2F
:1045100000F01F00012101FA00F00C9948600AE048
:104520001098402141651098032180F83510012032
:104530008DF8470053E1FFE7109800680121102231
:10454000C4F202029042019100F00381FFE710984B
:10455000006801212822C4F202029042019100F079
:10456000F880FFE71098006801214022C4F202029F
:104570009042019100F0ED80FFE710980068012162
:104580005822C4F202029042019100F0E280FFE75B
:104590001098006801217022C4F202029042019139
:1045A00000F0D780FFE71098006801218822C4F24C
:1045B00002029042019100F0CC80FFE71098006861
:1045C0000121A022C4F202029042019100F0C180B8
:1045D000FFE7109800680121B822C4F2020290425D
:1045E000019100F0B680FFE710980068012140F2C9
:1045F0001042C4F202029042019100F0AA80FFE74B
:1046000010980068012140F22842C4F20202904250
:10461000019100F09E80FFE710980068012140F2B0
:104620004042C4F202029042019100F09280FFE702
:1046300010980068012140F25842C4F202029042F0
:10464000019100F08680FFE710980068012140F298
:104650007042C4F20202904201917AD0FFE71098B2
:104660000068012140F28842C4F2020290420191A6
:104670006FD0FFE710980068012140F2A042C4F219
:1046800002029042019164D0FFE710980068012176
:1046900040F2B842C4F202029042019159D0FFE7C1
:1046A00010980068012145F20842C5F602029042C6
:1046B00001914ED0FFE710980068012145F21C429D
:1046C000C5F602029042019143D0FFE710980068BE
:1046D000012145F23042C5F602029042019138D0E4
:1046E000FFE710980068012145F24442C5F6020236
:1046F000904201912DD0FFE710980068012145F20A
:104700005842C5F602029042019122D0FFE710986C
:104710000068012145F26C42C5F602029042019107
:1047200017D0FFE710980068012145F28042C5F6D6
:104730000202904201910CD0FFE7109800684AF6FF
:104740006C31CAF2FD710844B0FA80F04009019062
:10475000FFE70198C007002837D0FFE71098FCF763
:104760007BFB10988068802804D1FFE71098002117
:104770004160FFE710980179006E01601098416E6A
:10478000806E486010984068002815D0FFE71098A8
:104790004068082810D8FFE71098FCF721FC109813
:1047A000C06E4FF0000EC0F800E01098D0F870E036
:1047B000406FCEF8040007E010980021C166109801
:1047C000016710984167FFE7FFE7109800214165F6
:1047D0001098012280F835208DF84710FFE79DF8EA
:1047E000470012B080BD0000B0B590B09C46964620
:1047F0000C4605460E900D910C920B9300208DF8FF
:104800002B000E980028CDF824C0CDF820E00794A6
:10481000069504D1FFE701208DF83F0079E3FFE71B
:104820000E9890F83400012804D1FFE702208DF89B
:104830003F006EE30E98012180F83410FFE7FFE798
:104840000E9890F83500012840F05083FFE70E984D
:10485000022180F835100E98002141650E980068FD
:104860001021C4F20201884200F08180FFE70E9817
:1048700000682821C4F20201884278D0FFE70E9830
:1048800000684021C4F20201884270D0FFE70E9810
:1048900000685821C4F20201884268D0FFE70E98F0
:1048A00000687021C4F20201884260D0FFE70E98D0
:1048B00000688821C4F20201884258D0FFE70E98B0
:1048C0000068A021C4F20201884250D0FFE70E9890
:1048D0000068B821C4F20201884248D0FFE70E9870
:1048E000006840F21041C4F2020188423FD0FFE765
:1048F0000E98006840F22841C4F20201884236D086
:10490000FFE70E98006840F24041C4F2020188427D
:104910002DD0FFE70E98006840F25841C4F2020122
:10492000884224D0FFE70E98006840F27041C4F23C
:10493000020188421BD0FFE70E98006840F28841D0
:10494000C4F20201884212D0FFE70E98006840F2DC
:10495000A041C4F20201884209D0FFE70E98006826
:1049600040F2B841C4F20201884209D1FFE70E9833
:104970000068016821F001010A460160059208E023
:104980000E980068016821F001010A460160049256
:10499000FFE70E980D990C9A0B9BFCF739FC0E98CB
:1049A000006801211022C4F202029042039100F03B
:1049B000A380FFE70E98006801212822C4F20202BA
:1049C0009042039100F09880FFE70E980068012163
:1049D0004022C4F202029042039100F08D80FFE772
:1049E0000E98006801215822C4F2020290420391FD
:1049F00000F08280FFE70E98006801217022C4F267
:104A000002029042039177D0FFE70E9800680121DF
:104A10008822C4F20202904203916DD0FFE70E9803
:104A200000680121A022C4F202029042039163D0E7
:104A3000FFE70E9800680121B822C4F202029042FA
:104A4000039159D0FFE70E980068012140F210420F
:104A5000C4F20202904203914ED0FFE70E98006824
:104A6000012140F22842C4F202029042039143D055
:104A7000FFE70E980068012140F24042C4F20202B2
:104A80009042039138D0FFE70E980068012140F270
:104A90005842C4F20202904203912DD0FFE70E98D3
:104AA0000068012140F27042C4F202029042039178
:104AB00022D0FFE70E980068012140F28842C4F23C
:104AC00002029042039117D0FFE70E98006801217F
:104AD00040F2A042C4F20202904203910CD0FFE7E0
:104AE0000E9800684FF64831CBF6FD710844B0FAD5
:104AF00080F040090390FFE70398C007002816D014
:104B0000FFE70E98006800680B2161F344000E99DE
:104B1000096808600E98006C002807D0FFE70E981F
:104B20000068016841F008010160FFE715E00E9898
:104B300000680068052161F343000E990968086068
:104B40000E98006C002807D0FFE70E9800680168F7
:104B500041F004010160FFE7FFE70E9800680121C2
:104B60001022C4F202029042029100F00381FFE79A
:104B70000E98006801212822C4F20202904202919C
:104B800000F0F880FFE70E98006801214022C4F28F
:104B900002029042029100F0ED80FFE70E9800685B
:104BA00001215822C4F202029042029100F0E280F8
:104BB000FFE70E98006801217022C4F202029042C1
:104BC000029100F0D780FFE70E980068012188224B
:104BD000C4F202029042029100F0CC80FFE70E98EE
:104BE00000680121A022C4F202029042029100F06A
:104BF000C180FFE70E9800680121B822C4F20202CA
:104C00009042029100F0B680FFE70E980068012103
:104C100040F21042C4F202029042029100F0AA80D7
:104C2000FFE70E980068012140F22842C4F2020218
:104C30009042029100F09E80FFE70E9800680121EB
:104C400040F24042C4F202029042029100F092808F
:104C5000FFE70E980068012140F25842C4F20202B8
:104C60009042029100F08680FFE70E9800680121D3
:104C700040F27042C4F20202904202917AD0FFE701
:104C80000E980068012140F28842C4F2020290426C
:104C900002916FD0FFE70E980068012140F2A04218
:104CA000C4F202029042029164D0FFE70E980068BD
:104CB000012140F2B842C4F202029042029159D05E
:104CC000FFE70E980068012145F20842C5F602028E
:104CD000904202914ED0FFE70E980068012145F204
:104CE0001C42C5F602029042029143D0FFE70E98A3
:104CF0000068012145F23042C5F60202904202915D
:104D000038D0FFE70E980068012145F24442C5F60D
:104D10000202904202912DD0FFE70E980068012117
:104D200045F25842C5F602029042029122D0FFE7B6
:104D30000E980068012145F26C42C5F602029042CD
:104D4000029117D0FFE70E980068012145F28042DA
:104D5000C5F60202904202910CD0FFE70E9800685F
:104D60004AF66C31CAF2FD710844B0FA80F040098D
:104D70000290FFE70298C00700281BD0FFE70E98BB
:104D8000006E006810F4803F07D0FFE70E98006EB9
:104D9000016841F480710160FFE70E98C06E002841
:104DA00007D0FFE70E98C06E016841F48071016082
:104DB000FFE7FFE70E9800681021C4F20201884265
:104DC00000F08180FFE70E9800682821C4F20201FC
:104DD000884278D0FFE70E9800684021C4F20201B3
:104DE000884270D0FFE70E9800685821C4F2020193
:104DF000884268D0FFE70E9800687021C4F2020173
:104E0000884260D0FFE70E9800688821C4F2020152
:104E1000884258D0FFE70E980068A021C4F2020132
:104E2000884250D0FFE70E980068B821C4F2020112
:104E3000884248D0FFE70E98006840F21041C4F263
:104E4000020188423FD0FFE70E98006840F22841F7
:104E5000C4F20201884236D0FFE70E98006840F2A3
:104E60004041C4F2020188422DD0FFE70E9800684D
:104E700040F25841C4F20201884224D0FFE70E9864
:104E8000006840F27041C4F2020188421BD0FFE783
:104E90000E98006840F28841C4F20201884212D0A4
:104EA000FFE70E98006840F2A041C4F20201884278
:104EB00009D0FFE70E98006840F2B841C4F2020141
:104EC000884209D1FFE70E980068016841F00101AE
:104ED0000A460160019208E00E980068016841F0FE
:104EE00001010A4601600092FFE70DE00E984FF4C1
:104EF00000614165FFE70E98002180F83410FFE75C
:104F000001208DF82B00FFE79DF82B008DF83F0066
:104F1000FFE79DF83F0010B0B0BD000000000000AA
:104F200080B584B001460390009101F0BDFB029072
:104F30000398019001980130002809D0FFE740F262
:104F4000A610C2F200400078019908440190FFE7E2
:104F5000FFE701F0A9FBDDF808E0A0EB0E00DDF8AB
:104F600004E0704501D2FFE7F3E704B080BD000024
:104F700084B00A460346039002910192009304B064
:104F8000704700000000000082B0014601900091CF
:104F900002B070470000000084B00A460346039048
:104FA00002910192009304B07047000000000000DD
:104FB000B0B58EB09C4696460C4605460C900B91BB
:104FC0000A920993002005900C9890F898008DF8AB
:104FD00013009DF813000228CDF80CC0CDF808E0AE
:104FE0000194009540F06181FFE70B98402852D171
:104FF000FFE70C980068D0F8A00010F4FE0F0BD16A
:10500000FFE70C98D0F89C1041F02001C0F89C10EC
:1050100001208DF8370053E10C980068D0F8A40007
:1050200010F07F0F0BD1FFE70C98D0F89C1041F4E3
:105030008071C0F89C1001208DF8370040E10C9879
:105040000068D0F8A40000F080700121B1EB106F6F
:105050000DD1FFE70C980068D0F8A0000121B1EB5A
:10506000D07F03D1FFE701200590FFE7FFE70C9811
:105070000068D0F8A40000F47C50059901EB1020E2
:1050800005900C98416C406F059A514300EB8100EC
:105090000890FFE771E00B98412852D1FFE70C9888
:1050A0000068D0F8B00010F4FE0F0BD1FFE70C98A9
:1050B000D0F89C1041F02001C0F89C1001208DF820
:1050C0003700FDE00C980068D0F8B40010F07F0FB6
:1050D0000BD1FFE70C98D0F89C1041F48071C0F818
:1050E0009C1001208DF83700EAE00C980068D0F899
:1050F000B40000F080700121B1EB106F0DD1FFE71B
:105100000C980068D0F8B0000121B1EBD07F03D13A
:10511000FFE701200590FFE7FFE70C980068D0F853
:10512000B40000F47C50059901EB102005900C9818
:10513000C16C806F059A514300EB81000890FFE736
:105140001AE00B980C99096D88420BD3FFE70C9875
:10515000D0F89C1041F02001C0F89C1001208DF87F
:105160003700ADE00C98416DC06F0B9A514300EBD6
:1051700081000890FFE7FFE7FFE70898006800F06C
:1051800080400A9948600A984068002807D1FFE7E4
:1051900008980068C0F38A400A99086006E00898F9
:1051A000006820F060400A990860FFE708980068EE
:1051B00000F000500A9988600898006800F00040EC
:1051C0000A990861089804300890089800880A999C
:1051D000C86108980068C0F303400A99C86008983D
:1051E000006800F480100A9948610898006800F48B
:1051F00000100A99886108980068C0F306600A994F
:10520000086208980068C00F0A994862089804303C
:1052100008900898079000200690FFE706980A99E2
:10522000C9684BF28A22C0F60102515C88420AD258
:10523000FFE707980699405C099A5054FFE70698E3
:1052400001300690EAE70B98402806D1FFE7059861
:105250000C990968C1F8A80023E00B98412806D1F1
:10526000FFE705980C990968C1F8B80018E00B9899
:105270001F2809D8FFE70B98012101FA00F00C99CB
:105280000968C1F898000AE00B9800F01F0001219E
:1052900001FA00F00C990968C1F89C00FFE7FFE7EC
:1052A000FFE700208DF837000AE00C98D0F89C103A
:1052B00041F00801C0F89C1001208DF83700FFE78D
:1052C0009DF837000EB0B0BD82B00146019000914C
:1052D00002B070470000000080B596B001461590FE
:1052E0004AF61000C4F200000068800714904AF6E5
:1052F0001400C4F200000068149A02EA807014904E
:1053000015980068006D00F47040139015980068BF
:10531000406D139A1040139015980068006D00F0CE
:105320000F00129015980068406D129A104012906C
:1053300015980068006D00F0F00011901598006855
:10534000406D119A1040119015980068006D00F0A2
:105350007150109015980068406D109A1040109090
:1053600015980068006D00F060700F901598006847
:10537000406D0F9A10400F9015980068406D059091
:1053800015980068006D03909DF81500C00700286F
:10539000019118D0FFE79DF80D00C007002811D03B
:1053A000FFE7FFE7159800684FF4807101654AF642
:1053B0001000C4F2000000210160FFE71598FFF71C
:1053C00083FFFFE7FFE79DF8150000F004000021D0
:1053D000B1EB900F28D0FFE79DF80D0000F004001E
:1053E0000021B1EB900F1ED0FFE715980068D0F8B0
:1053F000DC000D9015980068D0F8E4000D99084085
:105400000D90FFE7159800684FF4806101654AF63A
:105410001000C4F2000000210160FFE715980D990B
:1054200000F0CEFEFFE7FFE71498002817D0FFE753
:10543000FFE714984FF6FF71C3F6CF710840159936
:10544000096808651498800F4AF61001C4F200013B
:105450000860FFE715981499FFF78AFDFFE7139896
:10546000002817D0FFE7FFE713984FF6FF71C3F648
:10547000CF7108401599096808651398800F4AF69E
:105480001001C4F200010860FFE71598139900F0BD
:10549000B3FEFFE71298002817D0FFE7FFE7129846
:1054A0004FF6FF71C3F6CF7108401599096808657A
:1054B0001298800F4AF61001C4F200010860FFE75D
:1054C0001598129900F060FDFFE71198002817D099
:1054D000FFE7FFE711984FF6FF71C3F6CF71084061
:1054E0001599096808651198800F4AF61001C4F2F1
:1054F00000010860FFE71598119900F0B1FDFFE782
:105500009DF8150000F008000021B1EBD00F1BD072
:10551000FFE79DF80D0000F008000021B1EBD00F6F
:1055200011D0FFE7FFE7159800684FF400610165AF
:105530004AF61000C4F2000000210160FFE7159850
:1055400000F066FEFFE7FFE79DF8150000F002009F
:105550000021B1EB500F28D0FFE79DF80D0000F0BF
:1055600002000021B1EB500F1ED0FFE71598006834
:10557000D0F8D8000E9015980068D0F8E0000E9989
:1055800008400E90FFE7159800684FF40071016520
:105590004AF61000C4F2000000210160FFE71598F0
:1055A0000E9900F019FEFFE7FFE79DF8160000F0E6
:1055B00008000021B1EBD00F1BD0FFE79DF80E00D3
:1055C00000F008000021B1EBD00F11D0FFE7FFE79A
:1055D000159800684FF4002101654AF61000C4F2E6
:1055E000000000210160FFE7159800F0C5FCFFE70F
:1055F000FFE79DF81600C007002818D0FFE79DF8C8
:105600000E00C007002811D0FFE7FFE715980068DB
:105610004FF4803101654AF61000C4F20000002109
:105620000160FFE7159800F0C3FDFFE7FFE79DF875
:10563000160000F004000021B1EB900F1BD0FFE733
:105640009DF80E0000F004000021B1EB900F11D086
:10565000FFE7FFE7159800684FF4802101654AF6DF
:105660001000C4F2000000210160FFE7159800F06F
:1056700097FDFFE7FFE79DF8160000F0020000210C
:10568000B1EB500F1FD0FFE79DF80E0000F00200B5
:105690000021B1EB500F15D0FFE7FFE71598006828
:1056A0004FF4003101654AF61000C4F200000021F9
:1056B0000160FFE71598D0F89C1041F08001C0F818
:1056C0009C10FFE7FFE70F98002817D0FFE7FFE7E0
:1056D0000F984FF6FF71C3F6CF710840159909680E
:1056E00008650F98800F4AF61001C4F200010860A7
:1056F000FFE715980F99FFF74FFCFFE71098002878
:105700001AD0FFE7FFE710984FF6FF71C3F6CF718D
:1057100008401599096808651098800F4AF610012D
:10572000C4F200010860FFE710981599D1F89C2099
:105730001043C1F89C00FFE7159800684AF2000189
:10574000C4F20001884240F0BE80FFE7159840682F
:10575000806810F0030F00F0B580FFE715984068EF
:10576000006A00F00F000C9015984068406A0C9990
:1057700008400C9015984068006A00F030000B90CB
:1057800015984068406A0B9908400B90159840683E
:10579000006A00F4C0700A9015984068406A0A993F
:1057A00008400A9015984068006A00F4FC4009908F
:1057B00015984068406A0999084009901598406812
:1057C000006A00F4F020089015984068406A089933
:1057D0000840089015984068406A04901598406801
:1057E000006A02900C98002809D0FFE70C981599E0
:1057F0004968086215980C9900F0AAFCFFE70B981D
:10580000002809D0FFE70B98159949680862159898
:105810000B9900F0B9FCFFE79DF8100000F0400084
:105820000021B1EB901F1FD0FFE79DF8080000F0AA
:1058300040000021B1EB901F15D0FFE7159840689C
:10584000C06B000C079015984068C06B00F03F00DB
:105850000690159840684021016215980799069AAC
:1058600000F082FCFFE7FFE70A98002809D0FFE775
:105870000A9815994968086215980A9900F05CFC25
:10588000FFE7099800280CD0FFE7099815994968A7
:10589000086209981599D1F89C201043C1F89C0022
:1058A000FFE7089800280CD0FFE708981599496889
:1058B000086208981599D1F89C201043C1F89C0003
:1058C000FFE7FFE7FFE71598D0F89C00002804D019
:1058D000FFE71598FFF758FBFFE716B080BD000003
:1058E00080B586B00146049004980028019104D147
:1058F000FFE701208DF81700F7E1049800684AF2ED
:105900000001C4F20001884206D1FFE70498016853
:1059100001F580714160FFE704988068B0F5407F31
:1059200001D1FFE7FFE70498006C002801D0FFE7F2
:10593000FFE70498806C002801D0FFE7FFE7049898
:10594000006D002801D0FFE7FFE70498006E0028F3
:1059500001D0FFE7FFE70498C16D006E08440028FE
:1059600001D0FFE7FFE7049890F89800002808D1DD
:10597000FFE70498002180F89910049800F0BCF922
:10598000FFE704980068816921F01001816100F04F
:105990008BFE0390FFE704980068806910F0080F01
:1059A00019D0FFE700F080FEDDF80CE0A0EB0E0060
:1059B0000B280FD3FFE70498D0F89C1041F00101A9
:1059C000C0F89C100498032180F8981001208DF8ED
:1059D00017008AE1DFE704980068816941F001015E
:1059E000816100F061FE0390FFE704980068806920
:1059F00010F0010F19D1FFE700F056FEDDF80CE0C2
:105A0000A0EB0E000B280FD3FFE70498D0F89C10F2
:105A100041F00101C0F89C100498032180F898100F
:105A200001208DF8170060E1DFE7049800688169C4
:105A300041F0020181610498007C012807D1FFE751
:105A400004980068816921F04001816106E00498B2
:105A50000068816941F040018161FFE70498407C62
:105A6000012807D1FFE704980068816941F480416B
:105A7000816106E004980068816921F480418161B8
:105A8000FFE70498807C012807D1FFE704980068AD
:105A9000816921F48051816106E004980068816980
:105AA00041F480518161FFE704980068806920F427
:105AB000407004990A6889680843906104980068F6
:105AC000816921F0A401816104980068016921F0D5
:105AD000100101610498C068012807D1FFE704980C
