:020000040800F2
:10000000900700202902000845130008311200085B
:10001000411300081F0400089519000800000000A3
:10002000000000000000000000000000E5130008D0
:10003000030500080000000047130008E71300084C
:10004000430200084302000843020008430200087C
:10005000430200084302000843020008430200086C
:10006000430200084302000843020008430200085C
:10007000430200084302000843020008430200084C
:10008000430200084302000843020008430200083C
:10009000430200084302000843020008430200082C
:1000A000430200084302000843020008430200081C
:1000B000430200084302000843020008430200080C
:1000C00043020008430200084302000843020008FC
:1000D00043020008430200084302000871180008A8
:1000E00043020008430200084302000843020008DC
:1000F00043020008430200084302000843020008CC
:1001000043020008430200084302000843020008BB
:1001100043020008430200084302000843020008AB
:10012000430200084302000843020008430200089B
:10013000430200084302000843020008430200088B
:10014000430200084302000843020008430200087B
:10015000430200084302000843020008430200086B
:10016000430200084302000843020008430200085B
:100170004302000843020008430200080000000098
:10018000430200084302000800F002F800F03CF8C7
:100190000AA090E8000C82448344AAF10107DA45E2
:1001A00001D100F031F8AFF2090EBAE80F0013F0F8
:1001B000010F18BFFB1A43F001031847E0190000B4
:1001C000001A0000103A24BF78C878C1FAD8520744
:1001D00024BF30C830C144BF04680C6070470000C1
:1001E0000023002400250026103A28BF78C1FBD840
:1001F000520728BF30C148BF0B6070471FB501F0E0
:10020000B7FC1FBD10B510BD00F0CFF81146FFF7C9
:10021000F5FF01F0E1FB00F0EDF803B4FFF7F2FFAA
:1002200003BC00F0F5F80000094880470948004782
:10023000FEE7FEE7FEE7FEE7FEE7FEE7FEE7FEE796
:10024000FEE7FEE704480549054A064B70470000F3
:10025000A5140008890100089001002090070020E3
:10026000900300209003002053EA020C00F0698004
:100270002DE9F04B4FF00006002B1FBFB3FA83F5BA
:1002800003FA05F424FA05F65E4012BF1643B2FAEB
:1002900082F502FA05F4C5F120051EBF22FA05FC1D
:1002A00044EA0C04203556EA044C4FEA144418BFC3
:1002B000641C4FF000084FF00009904271EB030CF2
:1002C00039D3002919BFB1FA81F701FA07F6B0FA5C
:1002D00080F700FA07F6C7F120071EBF20FA07FCD7
:1002E00046EA0C062037B6FBF4FCA7EB0507103FE7
:1002F00007F01F0BCBF120060CFA0BFB2CFA06F6CD
:1003000044BFB3460026202FA4BF5E464FF0000B2B
:100310005BEA060C08BF4FF0010B19EB0B09ABFBB6
:10032000027C48EB0608C01B06FB02CC0BFB03CC8F
:1003300071EB0C01C1E70B46024641464846BDE859
:10034000F08B13B54FF000004FF00001AFF30080C9
:10035000BDE81C4070474FF0000200B513469446BC
:100360009646203922BFA0E80C50A0E80C50B1F10D
:100370002001BFF4F7AF090728BFA0E80C5048BF21
:100380000CC05DF804EB890028BF40F8042B08BFBF
:10039000704748BF20F8022B11F0804F18BF00F8BB
:1003A000012B7047704770477047754600F02CF876
:1003B000AE4605006946534620F00700854618B052
:1003C00020B5FFF73FFFBDE820404FF000064FF09B
:1003D00000074FF000084FF0000B21F00701AC467A
:1003E000ACE8C009ACE8C009ACE8C009ACE8C00999
:1003F0008D46704710B50446AFF300802046BDE837
:100400001040FFF70ABF000000487047300100208D
:1004100001491820ABBEFEE726000200704700BF6E
:10042000FEE700000146087810381823B0FBF3F20D
:100430000848805CC865032A05D908686FF309007D
:10044000001D886503E008686FF309008865886D02
:10045000704700007A1B0008014600208A6A8B69F9
:10046000CBB932B1012A0DD0022A03D0032A10D110
:100470000EE000BFCB6A03F08073B3F1807F00D140
:10048000012007E0CB6AB3F1C07F00D1012001E079
:1004900000E000BF34E08B69B3F5005F1AD132B1E0
:1004A000012A07D0022A03D0032A11D10AE000BF93
:1004B00001200EE0CB6A03F08073B3F1807F00D19E
:1004C000012006E0CB6AB3F1C07F00D1012000E03B
:1004D00000BF15E032B1012A05D0022A04D0032A58
:1004E0000CD103E000BF00BF012008E0CB6A03F09D
:1004F0008073B3F1807F00D1012000E000BF00BF16
:1005000070477047704700002DE9F0410446002510
:1005100000F08AF9074614B90120BDE8F081606A4D
:1005200000B100BF00BF002084F8340000BF0220EB
:1005300084F835002068006820F001002168086018
:100540000AE000F071F9C01B052805D9202060657C
:10055000032084F83500E0E72068006800F001001F
:100560000028EED12068056821480540D4E9010142
:100570000843E16808432169084361690843A169A8
:100580000843E1690843216A08430543606A042877
:1005900003D1D4E90B0108430543206805602068B6
:1005A000456925F00705606A0543606A04280DD196
:1005B000A06A0543E06A48B12046FFF74DFF28B125
:1005C00040206065012084F83500A6E72068456179
:1005D0002046FFF727FF064694F85C103F2088402E
:1005E000B06000206065012084F83500002094E7A9
:1005F0003F8010F070B5044600F016F90646254617
:10060000681C10B104480078054400BF00F00CF9E4
:10061000801BA842FAD370BD18000020F8B502462E
:100620000B460025002400200021DCE0012606FA0C
:1006300001F51E6806EA0504AC4273D15E68022E1D
:1006400002D05E68122E13D1CF0802F1200656F8B0
:1006500027004E07F70E0F26BE40B0434F07FF0E90
:100660001E69BE403043CF0802F1200646F827003D
:1006700010684F000326BE40B0431E7906F0030603
:100680004F00BE40304310605E68012E08D05E68A7
:10069000022E05D05E68112E02D05E68122E13D194
:1006A00090684F000326BE40B0434F00DE68BE4056
:1006B00030439060506801268E40B0431E79C6F3E7
:1006C00000168E4030435060D0684F000326BE4075
:1006D000B0434F009E68BE403043D0605E6806F075
:1006E0008056B6F1805F7DD100BF00260096404E57
:1006F000366846F480463E4F3E603E46366806F415
:100700008046009600BF00BF3A4E8F0856F827007B
:100710008E07370F0F26BE40B043374EB24202D18C
:10072000002624E05EE0354EB24201D101261EE0F3
:10073000334EB24201D1022619E0324EB24201D10B
:10074000032614E0304EB24201D104260FE02F4EB2
:10075000B24201D105260AE02D4EB24201D1062651
:1007600005E02C4EB24201D1072600E008268F0793
:100770003F0FBE4030431F4E8F0846F82700264EDD
:100780003068A0435E6806F48036B6F5803F00D13D
:100790002043214E3060361D3068A0435E6806F469
:1007A0000036B6F5003F00D120431B4E361D3060A9
:1007B000361D3068A0435E6806F48016B6F5801FCB
:1007C00000D12043144E08363060361D3068A043F7
:1007D0005E6806F40016B6F5001F00D120430E4EE9
:1007E0000C363060491C1029FFF420AFF8BD000022
:1007F0004438024008380140000002400004024032
:1008000000080240000C02400010024000140240A8
:1008100000180240001C0240003C01400AB1816106
:1008200001E00B04836170470148006870470000D5
:100830001000002003480068034909780844014972
:1008400008607047100000201800002010B50D4807
:10085000006840F400700B4908600846006840F4E6
:10086000806008600846006840F4807008600320DB
:1008700000F0A2F8002000F007F800F02BF80020AC
:1008800010BD0000003C024070B504460E480078E0
:100890004FF47A71B1FBF0F00C490968B1FBF0F547
:1008A000284600F0FFFB08B1012070BD102C07D2D4
:1008B00000222146501E00F041F80548046001E086
:1008C0000120F2E70020F0E7180000201C000020C3
:1008D0001400002008B500BF002000900E480068FA
:1008E00040F480400C4908600846006800F48040ED
:1008F000009000BF00BF00BF00200090081F0068EC
:1009000040F08050091F08600846006800F08050E1
:10091000009000BF00BF08BD4438024001460846B1
:10092000002809DB00F01F0301229A4043099B00C5
:1009300003F1E023C3F8002100BF70472DE9F05F09
:1009400080460D461646002701F026F80746394630
:100950002A46334601F00700C0F1070ABAF1040F36
:1009600002D94FF0040A01E0C0F1070AD14600F1B4
:10097000040ABAF1070F02D24FF0000A01E0A0F119
:10098000030AD4464FF0010A0AFA09FAAAF1010A49
:100990000AEA020A0AFA0CFA4FF0010B0BFA0CFBF6
:1009A000ABF1010B0BEA030B4AEA0B04214640466C
:1009B00000F0FAFFBDE8F09F00BF00F00702064B11
:1009C00019684FF6FF031940044B0B4343EA022119
:1009D000014B196000BF70470CED00E00000FA0504
:1009E00070B504460D460CB9012070BD584800682A
:1009F00000F00F00A84209D255490D700846006862
:100A000000F00F00A84201D00120EEE7207800F0AE
:100A1000020002281DD1207800F00400042805D12E
:100A20004C48006840F4E0504A490860207800F0E3
:100A30000800082805D14748006840F4604045494F
:100A400008604448006820F0F000A168084341496C
:100A50000860207800F00100A8B36068012807D181
:100A60003C4808380068C0F34040B8B90120BCE7F2
:100A70006068022802D06068032807D1354808382A
:100A80000068C0F3406048B90120AEE7314808383B
:100A90000068C0F3400008B90120A6E72D480068AF
:100AA00020F00300616808432A490860FFF7BCFE94
:100AB000064609E0FFF7B8FE801B41F28831884204
:100AC00002D9032091E707E02248006800F00C00FB
:100AD0006168B0EB810FEDD11D48006800F00F0098
:100AE000A84209D91A490D700846006800F00F00A5
:100AF000A84201D0012078E7207800F00400042803
:100B000007D11448006820F4E050E1680843114917
:100B10000860207800F00800082808D10D48006817
:100B200020F46040216940EAC1000A49086000F0F1
:100B30003DF808490968C1F30311074A515CC840F0
:100B4000064908600020FFF79FFE00204DE70000E7
:100B5000003C024008380240821B00081C000020B4
:100B600001480068704700001C00002000B5FFF736
:100B7000F7FF04490968C1F38221034A515CC84068
:100B800000BD000008380240921B000800B5FFF7C6
:100B9000E7FF04490968C1F34231034A515CC84088
:100BA00000BD000008380240921B00082DE9F04704
:100BB000002400250026A1462548006800F00C000E
:100BC00020B1042805D008283AD105E0DFF8849048
:100BD00039E0DFF8849036E01D48001F006800F01F
:100BE0003F041B48001F006800F4800078B11A48D9
:100BF0001749091F0968C1F38811A0FB017001465C
:100C0000224600233846FFF72FFB05460EE0114829
:100C10000F49091F0968C1F38811A0FB0170014643
:100C2000224600233846FFF71FFB05460848001FF1
:100C30000068C0F30140401C4600B5FBF6F902E035
:100C4000DFF8109000BF00BF4846BDE8F087000005
:100C5000083802400024F400001BB700F8B5044631
:100C60000CB90120F8BD207800F00100002874D0F4
:100C7000F948006800F00C0004280DD0F648006820
:100C800000F00C00082813D1F348001F006800F49E
:100C90008000B0F5800F0BD1EF4808380068C0F332
:100CA0004040002859D06068002856D10120D9E77B
:100CB00000BF6068B0F5803F08D1E7480838006899
:100CC00040F48030E449083908601EE06068B0F5FF
:100CD000A02F0DD1E0480838006840F48020DE499C
:100CE000083908600846006840F4803008600CE06D
:100CF000D9480838006820F48030D749083908609E
:100D00000846006820F48020086000BF606890B149
:100D1000FFF78AFD054606E0FFF786FD401B6428C5
:100D200001D903209EE7CC4808380068C0F3404052
:100D30000028F1D011E0FFF777FD054606E0FFF748
:100D400073FD401B642801D903208BE7C248083893
:100D50000068C0F340400028F1D1207800F0020084
:100D600002285FD1BC48006800F00C0058B1BA48B6
:100D7000006800F00C0008281CD1B748001F00686C
:100D800000F48000B0B9B44808380068C0F34000EF
:100D900020B1E068012801D0012063E7AE4808389F
:100DA000006820F0F800216940EAC100AA4908392A
:100DB000086037E0E06800B30120A8490860FFF749
:100DC00033FD054606E0FFF72FFD401B022801D941
:100DD000032047E7A04808380068C0F34000002817
:100DE000F1D09D480838006820F0F800216940EAF9
:100DF000C10099490839086014E00020974908604B
:100E0000FFF712FD054606E0FFF70EFD401B022826
:100E100001D9032026E7904808380068C0F3400055
:100E20000028F1D1207800F0080008282CD1606952
:100E3000A8B101208A490860FFF7F6FC054606E0E4
:100E4000FFF7F2FC401B022801D903200AE7824881
:100E50006C300068C0F340000028F1D014E000209E
:100E60007F490860FFF7E0FC054606E0FFF7DCFC81
:100E7000401B022801D90320F4E677486C30006853
:100E8000C0F340000028F1D1207800F004000428CD
:100E900070D1002670483830006800F0805090B95A
:100EA00000BF002000906C483830006840F080504F
:100EB0006949383108600846006800F080500090A9
:100EC00000BF00BF01266748006800F48070B0B919
:100ED0006448006840F4807062490860FFF7A4FC31
:100EE000054606E0FFF7A0FC401B022801D90320BD
:100EF000B8E65C48006800F480700028F2D000BFBB
:100F0000A068012808D154486830006840F001000A
:100F10005149683108601DE0A06805280DD14E4890
:100F20006830006840F004004B49683108600846AA
:100F3000006840F0010008600CE047486830006835
:100F400020F001004449683108600846006820F03C
:100F50000400086000BFA068A8B1FFF765FC054663
:100F600009E0FFF761FC401B41F28831884202D959
:100F7000032077E626E0384868300068C0F3400078
:100F80000028EED013E0FFF74FFC054608E0FFF71E
:100F90004BFC401B41F28831884201D9032061E6B5
:100FA0002D4868300068C0F340000028EFD1012EC2
:100FB00007D129483830006820F080502649383160
:100FC000086000BFA069B8B32348006800F00C00B7
:100FD00008285ED0A069022846D100201F49086673
:100FE000FFF722FC054606E0FFF71EFC401B022827
:100FF00001D9032036E6184808380068C0F340607D
:101000000028F1D1D4E907010843616A40EA81115F
:101010000122A06AC2EB500041EA00412C20005D91
:1010200041EA00600C49091F086001200B4908666D
:10103000FFF7FAFB054607E02DE0FFF7F5FB401B45
:10104000022801D903200DE6034808380068C0F3E0
:1010500040600028F1D01EE00838024000004742FE
:10106000800E47420070004000200C490866FFF7E0
:10107000DBFB054606E0FFF7D7FB401B022801D942
:101080000320EFE506480068C0F340600028F2D175
:1010900001E00120E6E50020E4E500000000474211
:1010A0000038024070B504462546681EB0F1807FC6
:1010B00001D301200FE0681E4FF0E02148610F21AD
:1010C0004FF0FF3000F070FC00204FF0E02188610D
:1010D00007200861002070BD10B504460CB901203E
:1010E00010BDA06900B100E000BF94F8390028B934
:1010F000002084F83800204600F028F8242084F8E6
:1011000039002068C06820F400502168C86020467B
:1011100000F0FAF92068006920F490402168086125
:101120002068406920F02A00216848612068C06872
:1011300040F400502168C8600020E063202084F85B
:10114000390084F83A000020CAE7000010B586B0E4
:101150000446142101A8FFF7FEF8304920688842B0
:101160005AD100BF002000902D48006840F4802034
:101170002B4908600846006800F48020009000BFFA
:1011800000BF00BF0020009025481038006840F0E4
:1011900004002349103908600846006800F0040084
:1011A000009000BF00BF4FF4406001900220029009
:1011B00001200390032004900720059001A91948FD
:1011C000FFF72CFA1848194908604FF00060486092
:1011D000002116488160C1604FF4806101610021E7
:1011E000416181614FF48071C1614FF4403101620E
:1011F00000214162FFF788F908B1FFF783F900BFCA
:101200000A486063846300BF002211462720FFF76D
:1012100095FB2720FFF782FB06B010BD0048004079
:101220004038024000080240286002407000002060
:1012300000BFFEE708B500BF002000900A48006824
:1012400040F40010084908600846006800F40010E7
:10125000009000BF00BF002211460C20FFF76EFB7C
:101260000C20FFF75BFB08BD3038024000B587B0AB
:10127000142102A8FFF76FF800BF002001901F485B
:10128000006840F001001D4908600846006800F051
:101290000100019000BF00BF00BF00200190084680
:1012A000006840F0040008600846006800F0040090
:1012B000019000BF00BF00BF0020019008460068F9
:1012C00040F0800008600846006800F0800001904F
:1012D00000BF00BF01224FF4E0510948FFF79EFA1A
:1012E0004FF4E050029001200390049002200590FA
:1012F00002A90348FFF792F907B000BD3038024059
:10130000001C024010B50B480B4908600B484860B0
:10131000002109488160C1604FF4806101610421AE
:10132000416100218161C161FFF7D6FE08B1FFF77D
:10133000E9F810BD0048004030000020A086010000
:1013400000BFFEE77047704710B5234B1B685B6911
:1013500043F04003204C246863611F4B1B68DB682B
:1013600043F010031C4C2468E3601C4B1B681B6893
:1013700023F00103194C2468236007E0174B1B6816
:101380001B6823F00103154C24682360134B1B6872
:101390001B6803F00103002BF0D1114B0F4C2468A4
:1013A000A3600E4B1B68D8600C4B1B6819610B4B7C
:1013B0001B685A60094B1B681B6843F48023074C69
:1013C00024682360054B1B681B6843F00103034C32
:1013D0002468236010BD0000300000207000002051
:1013E00004480040704710B5FFF724FA10BD000014
:1013F00000B593B0302107A8FEF7ADFF142102A875
:10140000FEF7A9FF00BF002001902448006840F0CB
:101410008050224908600846006800F08050019022
:1014200000BF00BF00BF002001901D48006840F4CD
:1014300080401B4908600846006800F48040019025
:1014400000BF00BF012007900004089002200D900B
:1014500041050E9106210F91A821109102211191B1
:101460000421129107A8FFF7F9FB08B1FFF74AF82A
:101470000F20029002200390002004904FF4A0500F
:1014800005904FF480500690052102A8FFF7A8FAB6
:1014900008B1FFF737F813B000BD00004038024034
:1014A000007000401448006840F470001249086061
:1014B0001248006840F001001049086000200F4900
:1014C000083108600D4800680D4908400B49086064
:1014D0000C48091D0860081F006820F48020091FBF
:1014E0000860002005490C3108604FF00060024997
:1014F000803908607047000088ED00E00038024045
:10150000FFFFF6FE103000242DE9F041044620686C
:10151000006920F44050E1680843216808612169AE
:10152000A068084361690843E16940EA0105206851
:10153000C06849F20C61884328432168C86020686C
:10154000406920F44070A169084321684861E0695E
:10155000B0F5004F7ED1C4492068884203D0C3490A
:10156000206888425DD1FFF711FB00EBC00101EB61
:10157000001061684900B0FBF1F06421B0FBF1F0AC
:101580000601FFF703FB00EBC00101EB00106168EF
:101590004900B0FBF1F7FFF7F9FA00EBC00101EBEE
:1015A000001061684900B0FBF1F06421B0FBF1F07C
:1015B00000EBC00101EB0010A7EB8000322101EB32
:1015C000C0006421B0FBF1F000F0F80006EB40062B
:1015D000FFF7DCFA00EBC00101EB00106168490085
:1015E000B0FBF1F7FFF7D2FA00EBC00101EB0010FE
:1015F00061684900B0FBF1F06421B0FBF1F000EB51
:10160000C00101EB0010A7EB8000322101EBC0000C
:101610006421B0FBF1F000F00700304421688860DD
:1016200020E1FFF7A3FA00EBC00101EB00106168B5
:101630004900B0FBF1F06421B0FBF1F00601FFF7C7
:1016400095FA00EBC00101EB001061684900B0FBA6
:10165000F1F700E045E0FFF789FA00EBC00101EB8C
:10166000001061684900B0FBF1F06421B0FBF1F0BB
:1016700000EBC00101EB0010A7EB8000322101EB71
:10168000C0006421B0FBF1F000F0F80006EB40066A
:10169000FFF76CFA00EBC00101EB00106168490034
:1016A000B0FBF1F7FFF762FA00EBC00101EB0010AD
:1016B00061684900B0FBF1F06421B0FBF1F000EB90
:1016C000C00101EB0010A7EB8000322101EBC0004C
:1016D0006421B0FBF1F000F007003044216888601D
:1016E000C0E061492068884203D060492068884290
:1016F0005CD1FFF74BFA00EBC00101EB0010616811
:101700008900B0FBF1F6FFF741FA00EBC00101EBF5
:10171000001061688900B0FBF1F06421B0FBF1F0CA
:1017200000EBC00101EB0010A6EB8000322101EBC1
:1017300000106421B0FBF1F000F0F006FFF726FA8C
:1017400000EBC00101EB001061688900B0FBF1F013
:101750006421B0FBF1F006EB0016FFF717FA00EB7F
:10176000C00101EB001061688900B0FBF1F7FFF7E1
:101770000DFA00EBC00101EB001061688900B0FBBD
:10178000F1F06421B0FBF1F000EBC00101EB0010BF
:10179000A7EB8000322101EB00106421B0FBF1F0D7
:1017A00000F00F003044216888605BE0FFF7DEF94D
:1017B00000EBC00101EB001061688900B0FBF1F69D
:1017C000FFF7D4F900EBC00101EB0010616889005C
:1017D000B0FBF1F06421B0FBF1F000EBC00101EBD4
:1017E0000010A6EB8000322101EB00106421B0FB59
:1017F000F1F000F0F006FFF7B9F900EBC00101EBE2
:10180000001061688900B0FBF1F06421B0FBF1F0D9
:1018100006EB0016FFF7AAF900EBC00101EB001080
:1018200061688900B0FBF1F7FFF7A0F900EBC00198
:1018300001EB001061688900B0FBF1F06421B0FB9E
:10184000F1F000EBC00101EB0010A7EB80003221AA
:1018500001EB00106421B0FBF1F000F00F00304408
:1018600021688860BDE8F08100100140001401404B
:1018700008B541480068006800F0200060B100BF72
:10188000002000903C480068006800903A480068DA
:101890004068009000BF6EE03848006800F010001B
:1018A000002868D000BF002000903348006800681E
:1018B0000090314800684068009000BF00BF304889
:1018C0000068006800F4002058BB2D4800680068DC
:1018D00020F001002A49096808602948006840682A
:1018E000C0F1240027490880242025490968486060
:1018F00023480068006840F4002021490968086016
:101900001F480068006840F001001D490968086030
:101910001C48008812282ED11B491C4800F07AF878
:1019200029E017480068006820F0010014490968A0
:101930000860134800684068C0F12400114908801D
:1019400024200F49096848601148806A20F400206B
:101950000F4988620A480068006840F001000849A1
:101960000968086007480088122804D1064907481A
:10197000243000F04FF808BD30000020004800403F
:101980007000002020000020D0000020E600002091
:101990000060024000BFFEE702480068C0F302207A
:1019A000704700000CED00E010B5002804DB0A07CA
:1019B000130E054A135406E00A07140E034A00F0FA
:1019C0000F031B1FD45410BD00E400E018ED00E02D
:1019D00000487047D0000020FEF738FFFFF708FDF1
:1019E000FFF744FCFFF726FCFFF78CFC00F008F83B
:1019F00004E000F07DF80520FEF7FCFDF9E70000AB
:101A000010B524220249A1F12400FFF79DFC10BD6E
:101A10000A01002000B101B970470278437842EA18
:101A20000322C2F30A020A804278D210837842EA83
:101A30004312C2F30A024A8082789211C37842EAC2
:101A40008302037942EA8322C2F30A028A8002797E
:101A50005210437942EAC312C2F30A02CA804279A1
:101A6000C2F301128A72427912119308CB72827901
:101A7000C37942EA032212B28A81027A437A42EAA5
:101A8000032213B201F10C02CB81827AC37A42EABB
:101A9000032213B201F10C020B82037B8B74437B94
:101AA000CB74827BC37B42EA03228A82027C437C22
:101AB00042EA032212B20A810A88A2F5806212B2B7
:101AC0000A804A88A2F5806212B24A808A88A2F50A
:101AD000806212B28A80CA88A2F5806212B2CA807D
:101AE0000A89A2F5806212B20A8100BF94E7000061
:101AF00070B5FEF799FE054617480068281A0A28AF
:101B000027D315480560FFF763FF044604B970BD8D
:101B100020881249088060884880A0888880E088F2
:101B2000C88020890881A07A0D490870E07A487041
:101B3000A0890C490880E0894880208A8880A17C9F
:101B4000E07C41EA400008490870A08A0749088003
:101B500000BF00BFDBE700000C00002024000020D5
:101B60000000002002000020080000200A000020E1
:101B70004FF04070E1EE100A7047000610160006A4
:101B80001016000000000000000001020304060718
:101B9000080900000000010203040000BC1B00084B
:101BA0000000002024000000C4010008E01B000821
:101BB000240000206C070000E00100080000000085
:101BC0000000000000000000000000000000000015
:101BD00010000000010000000024F40000000000DC
:040000050800018965
:00000001FF
